:020000040000FA
:06000000F26A4BEF1EF056
:020006000000F8
:08000800E9CFDCFFEACFDCFFC9
:100010009EAA02D0E2EF1CF09EAC02D05BEF1AF079
:100020009EB201D0FF009E92C2823D503E103F1012
:10003000D8B40AD0010E3D5E000E3E5A3F5A3D50E4
:100040003E103F10D8B4128A12A205D0129249C0B5
:10005000BDFF48C0BEFF12A405D012944BC0BAFF2A
:100060004AC0BBFF412E09D03C0E416E392E05D04F
:10007000127C375012AC3850396E0E0E4306D8A0A1
:10008000436E365012AC36380F0B435CD8A002D00A
:100090008B9001D08B80422E0CD0780E426E402A7D
:1000A0003A52D8A43A063B52D8A43B063C52D8A4B4
:0C00B0003C06DDCFEAFFDDCFE9FF1100C8
:0400BC000101A40E8C
:1000C000196F010E1A6F000E1B6F010E186F1200D0
:1000D00000C013F101C014F102C015F103C016F104
:1000E00008C017F1FC041F0B016E0101186F01EE2F
:1000F00019F0FDCFEEFFFECFEEFFFFCFEEFF0600C3
:10010000012EF7D7120001C0DCFFDDCF01F0E0DFE8
:1001100001C0DCFF016AE1EC0CF001B0F6D757EC4E
:100120001BF0DDCF01F0120001C0DCFF016AE4EC3E
:100130000CF001A006D0DDCF01F0CADF01C0DCFF6A
:10014000F5D7DDCF01F0120012BA1200C1DFAFEC1B
:100150001CF0FAD7BDDF13B0FDD713801382120055
:10016000010101EE18F01851016E030DF350E9265C
:10017000014E08D00500ED50FF6EED50FE6EED50C3
:10018000FD6EF6D713C100F014C101F015C102F0E5
:1001900016C103F017C108F01B51FB6E1A51FA6E1D
:1001A0001951F96E95DF016AE1EC0CF001B0FAD754
:1001B0000050016E5908D8A0F5D70FD8025003108F
:1001C000D8B4F0D7060E0226020E0320FA6E000EF7
:1001D000FB6E000EFB220250F96E036AD8900134C8
:1001E000026E0336060E0224F66E020E0320F76E30
:1001F000000EF86E000EF8220900F5CF02F009009B
:10020000F5CF03F012000000B400B8000000C400F5
:10021000E000BA01D6017A02860292029E02AA0288
:10022000BA02D002F00200000000320300003E03D8
:10023000560362038A03F803A803C80300000604F8
:1002400078041A053C04480452042E043604A00520
:1002500094046C042603D403A2060000CE06E20632
:10026000F6060000000006074E07000060090C01BA
:100270004201FA01260232060000D4045C0742055E
:100280007A038C078007B0074A03C407F2071C08EB
:10029000B0046E03000000001E08320846085A0829
:1002A0006E0882089608AA08BE08D208E608FE086A
:1002B0001E093A09820192015A02D2EF00F0A4EC21
:1002C00000F0CDEC0DF0D2EF00F083EC00F0005028
:1002D000070B010F086E83EC00F0A4EC00F074EC47
:1002E00010F0D2EF00F083EC00F000500F0B010F84
:1002F000086E83EC00F000C002F083EC00F000C058
:1003000001F002C000F0A4EC00F074EC10F0D2EFA9
:1003100000F083EC00F000501F0B010F086E83EC1F
:1003200000F000C003F083EC00F000C001F083ECAB
:1003300000F000C002F003C000F0036AA4EC00F07B
:1003400074EC10F0D2EF00F083EC00F000501F0BC3
:10035000010F086E83EC00F000C003F083EC00F0A6
:1003600000C001F083EC00F000C002F083EC00F06C
:1003700000C004F003C000F004C003F0A4EC00F0DF
:1003800074EC10F0D2EF00F083EC00F0A4EC00F07D
:1003900030EC11F0D2EF00F083EC00F000C003F07D
:1003A00083EC00F000C001F083EC00F000C002F02C
:1003B00003C000F0A4EC00F066EC11F0D2EF00F006
:1003C00083EC00F00050070B010F086EA4EC00F066
:1003D000EDEC10F094EC00F0D2EF00F083EC00F0C4
:1003E00000500F0B010F086EA4EC00F0EDEC10F0C4
:1003F00094EC00F001C000F094EC00F0D2EF00F0BB
:1004000083EC00F000501F0B010F086EA4EC00F00D
:10041000EDEC10F094EC00F001C000F094EC00F072
:1004200002C000F094EC00F0D2EF00F083EC00F09A
:1004300000501F0B010F086EA4EC00F0EDEC10F063
:1004400094EC00F001C000F094EC00F002C000F069
:1004500094EC00F003C000F094EC00F0D2EF00F058
:10046000A4EC00F0E1EC11F094EC00F001C000F01D
:1004700094EC00F002C000F094EC00F0D2EF00F039
:10048000A4EC00F039EC10F0D2EF00F0A4EC00F096
:1004900033EC10F0D2EF00F0A4EC00F04AEC10F0D6
:1004A000D2EF00F0A4EC00F044EC10F0D2EF00F03A
:1004B000A4EC00F055EC10F094EC00F0D2EF00F05A
:1004C000A4EC00F016EC10F0006A13BE008094EC6F
:1004D00000F0D2EF00F083EC00F000C001F083ECFC
:1004E00000F0A4EC00F001C044F000C045F058EC6E
:1004F0001CF0D2EF00F0010E006E94EC00F0190E2B
:10050000006E94EC00F01D0E006E94EC00F0280ECE
:10051000006E94EC00F0006A94EC00F094EC00F0B3
:1005200094EC00F094EC00F0D2EF00F0020E006EBC
:1005300094EC00F0D2EF00F0A4EC00F041EC1CF0E1
:10054000D2EF00F0A4EC00F0F8EC1BF0D2EF00F0DA
:1005500083EC00F04BEC1CF0D2EF00F0A4EC00F0C8
:100560000DEC19F0D2EF00F0A4EC00F0CCEC18F098
:10057000D2EF00F0A4EC00F0B9EC18F0D2EF00F0EC
:1005800083EC00F0A4EC00F03DEC19F0D2EF00F0A9
:1005900083EC00F0149000BE1480009E00501C6E8E
:1005A0002C6A2D6A2E6A65EC0DF0D2EF00F083EC18
:1005B00000F000C01DF0010E226EDFEC1BF0A4EC79
:1005C00000F0A60E006E3DEC19F0D2EF00F083ECC7
:1005D00000F000C01EF0D2EF00F083EC00F000C08D
:1005E00001F083EC00F000C002F083EC00F001C0E9
:1005F0002CF002C02DF000C02EF0D2EF00F0149AC3
:10060000A4EC00F0ECEC0DF0D2EF00F083EC00F085
:1006100000C001F083EC00F000C002F083EC00F0B9
:1006200001C026F002C027F000C028F047EC0FF010
:10063000D2EF00F0E1EC0DF0D2EF00F0149CD2EF1D
:1006400000F083EC00F000501F6ED2EF00F014AA0F
:10065000D2EF00F0149A04D014BAD2EF00F0148A4A
:10066000261C296E271C2A6E281C2B6E149CD2EF88
:1006700000F0A4EC00F05AEC1BF0D2EF00F0A4EC78
:1006800000F083EC0FF094EC00F001C000F094EC6B
:1006900000F0E1EC0DF0D2EF00F0A4EC00F0080E59
:1006A000026E83EC0FF094EC00F0E1EC0DF0022E02
:1006B000F8D7D2EF00F0A4EC00F0400E026E83EC0D
:1006C0000FF094EC00F001C000F094EC00F0E1ECCD
:1006D0000DF0022EF4D7D2EF00F0FC0E2616FEEC41
:1006E00007F05DEC08F094EC00F001C000F094EC31
:1006F00000F002C000F094EC00F003C000F094ECB5
:1007000000F004C000F094EC00F005C000F094ECA0
:1007100000F0040E2626000E27222822D2EF00F039
:1007200083EC00F000C002F083EC00F000C001F0A8
:1007300002C000F05AEC1BF0A4EC00F0BDEC0FF08E
:10074000E1EC0DF0D2EF00F05AEC1BF0080E086E51
:10075000250E026E010E036E83EC00F002C0E9FF6D
:1007600003C0EAFF00C0EFFF022AD8B0032A082E18
:10077000F3D70168080E086E250E026E010E036E97
:1007800002C0E9FF03C0EAFFEFCF00F0022AD8B0B1
:10079000032AA4EC00F0BDEC0FF0E1EC0DF0082E04
:1007A000EFD7D2EF00F05AEC1BF0A4EC00F0C4EC51
:1007B00014F0030E036E83EC00F00050026E83EC25
:1007C00000F00050016E0D0E0352D8B40F0E006EF3
:1007D000040E086E74EC10F00250006E100E086EDD
:1007E00074EC10F0030603AEE6D7006A030E086E41
:1007F00074EC10F039EC10F00E0E446E456A466A47
:1008000058EC1CF0080E2626D8B0272AD8B4282A7F
:10081000149CA4EC00F033EC10F0010E446E456A19
:1008200058EC1CF0C9EC1CF0006A016A100E086E4E
:1008300074EC10F0D2EF00F05AEC1BF0F80E261614
:1008400083EC00F000C001F083EC00F000C002F087
:1008500083EC00F0A4EC00F0B2EC09F083EC00F0C3
:1008600000C001F083EC00F000C002F083EC00F067
:10087000C5EC09F083EC00F000C001F083EC00F05F
:1008800000C002F083EC00F0FCEC09F083EC00F017
:1008900000C001F083EC00F000C002F083EC00F037
:1008A00004EC0AF0D2EF00F083EC00F0046A005090
:1008B000016E5908D8A008D0EDEC00F002500310EA
:1008C000D8B402D0010E046E04C000F094EC00F025
:1008D000D2EF00F07DEC1AF094EC00F001C000F0D3
:1008E00094EC00F0D2EF00F096EC1AF094EC00F0EB
:1008F00001C000F094EC00F0D2EF00F0A4EC00F0A6
:1009000047C000F094EC00F0D2EF00F083EC00F070
:10091000A4EC00F0ADEC0DF0A4EC00F050EC10F005
:100920003FEC10F0B9EC18F0A4EC00F0005003E13B
:10093000E4EC1BF00AD0FA08FA0ED8A0006E4BECDB
:100940001CF0A4EC00F041EC1CF0A4EC00F01582CB
:10095000D2EF00F0A4EC00F0CDEC0DF01582D2EF58
:1009600000F083EC00F000C001F083EC00F000C068
:1009700002F083EC00F001C02FF002C030F000C0A4
:1009800031F0D2EF00F083EC00F000C022F0D2EFA3
:1009900000F083EC00F00050026E83EC00F0005099
:1009A000016E83EC00F00250236E0150246E005063
:1009B000256ED2EF00F0410E006E94EC00F0030EB5
:1009C000006E94EC00F0D2EF00F0AAEC00F0D4EC52
:1009D0001DF083EC00F000C001F00152D8B406D045
:1009E000010683EC00F0E5EC1DF0F7D7EDEC1DF00F
:1009F00013921390D2EF00F0AAEC00F0B5EC1DF0CA
:100A000094EC00F000C001F00152D8B406D0010609
:100A1000CAEC1DF094EC00F0F7D713921390D2EFCC
:100A200000F0FF0083EC00F000C02DF183EC00F03B
:100A300000C02EF1D2EF00F083EC00F000C02FF1E7
:100A400083EC00F000C030F1D2EF00F083EC00F056
:100A500000C031F183EC00F000C032F1D2EF00F0C1
:100A600083EC00F000C033F183EC00F000C034F1FF
:100A7000D2EF00F083EC00F000C035F183EC00F021
:100A800000C036F1D2EF00F083EC00F000C037F187
:100A900083EC00F000C038F1D2EF00F083EC00F0FE
:100AA00000C039F183EC00F000C03AF1D2EF00F061
:100AB00083EC00F000C03BF183EC00F000C03CF19F
:100AC000D2EF00F083EC00F000C03DF183EC00F0C9
:100AD00000C03EF1D2EF00F083EC00F000C03FF127
:100AE00083EC00F000C040F1D2EF00F083EC00F0A6
:100AF00000C001F083EC00F001C020F000C021F044
:100B0000D2EF00F01B0E006E94EC00F0B70E006EFA
:100B100094EC00F0006A94EC00F0006A94EC00F0B1
:100B2000D2EF00F0A4EC00F083EC00F00028016E9E
:100B300083EC00F024EC1DF0012EFAD7D2EF00F088
:100B4000A4EC00F00FEC1DF094EC00F00050D8B4D1
:100B5000D2EF00F0016E12EC1DF094EC00F0012ECB
:100B6000FAD7D2EF00F083EC00F000C001F083EC84
:100B700000F00150040832E3000EFB6EFA6AD890D0
:100B80000136FA360136FA36980E01260B0EFA2295
:100B9000000EFB220150F96EEEEF05F0D6EF05F0E6
:100BA000DCEF05F0E2EF05F0E8EF05F0F80E016E7E
:100BB0003D0E026E000E18D0120E016E3E0E026E39
:100BC000000E12D0070E016E3E0E026E000E0CD00B
:100BD000230E016E3E0E026E000E06D0000E006E59
:100BE00094EC00F0D2EF00F0F86E02C0F7FF01C005
:100BF000F6FF09000050F55ED8A0F0D7F626000EEB
:0C0C0000F722F8220800F5CF00F0EAD738
:040C0C00010E326E35
:100C1000400E336E080E346E400E356E0101010E2B
:100C20004A6F120003C0DCFF08C0DCFF01014A2F3D
:100C30002DD000C0DCFF01C0DCFF02C0DCFF1C0EB9
:100C4000086E006A016A026A036A74EC10F074ECC0
:100C500010F0006A100E016E400E026E036A200E44
:100C600013BA016E74EC10F0006A016A026A036A3A
:100C700074EC10F013AC04D074EC10F074EC10F0C1
:100C8000DDCF02F0DDCF01F0DDCF00F000C0DCFFF2
:100C900001C0DCFF02C0DCFF036AD89000360136D9
:100CA0000236033600360136023603360036013688
:100CB0000236033600360136023603361C0E086E45
:100CC00074EC10F0DDCF02F0DDCF01F0DDCF00F0ED
:100CD000DDCF08F0DDCF03F0120000C0DCFF01C063
:100CE000DCFF02C0DCFF006A016A026A9BDFDDCF25
:100CF00002F0DDCF01F0DDCF00F0120013AC01D027
:100D0000ECDF120013AC03D0E8DFE7DFE6DF120010
:100D100002C0DCFF03C0DCFF08C0DCFFDEDF010E29
:100D2000006E016A0C0E086E74EC10F0100E086E66
:100D3000EDEC10F0E3DFDDCF08F0DDCF03F0DDCF29
:100D400002F01200020E1CD0120E1AD0220E18D081
:100D5000320E16D0420E14D0520E12D0620E10D0A7
:100D6000720E0ED0820E0CD0920E0AD0A20E08D0B7
:100D7000B20E06D0C20E04D0D20E02D0E20E00D0C7
:100D800000C0DCFF01C0DCFF02C0DCFF026E0234E9
:100D9000003601360236023400360136023602349D
:100DA00000360136023602340036013602363ADFAA
:100DB000DDCF02F0DDCF01F0DDCF00F01200000E3C
:100DC0001ED0010E1CD0020E1AD0030E18D0040E35
:100DD00016D0050E14D0060E12D0070E10D0080E35
:100DE0000ED0090E0CD00A0E0AD00B0E08D00C0E35
:100DF00006D00D0E04D00E0E02D00F0E00D000C093
:100E0000DCFF01C0DCFF02C0DCFFEECF00F0EDCF65
:100E100001F00090026AD8900036013602360036A2
:100E2000013602360036013602360012880E0212F2
:100E3000F9DEDDCF02F0DDCF01F0DDCF00F01200F2
:100E4000000E1ED0010E1CD0020E1AD0030E18D0B8
:100E5000040E16D0050E14D0060E12D0070E10D0B8
:100E6000080E0ED0090E0CD00A0E0AD00B0E08D0B8
:100E70000C0E06D00D0E04D00E0E02D00F0E00D0B8
:100E800000C0DCFF01C0DCFF02C0DCFFEECF00F0E1
:100E9000EDCF01F00090026AD8900036013602369C
:100EA0000036013602360036013602360012800E58
:100EB0000212B8DEDDCF02F0DDCF01F0DDCF00F0B1
:100EC000120001EE37F097DF08DF120001014A51EE
:100ED000F00B010ED8B44A6F120000C0DCFF01C055
:100EE000DCFF0A0E006E016A3BDF34C000F035C043
:100EF00001F038DF040E006E400E016E35DF32C0A7
:100F000000F033C001F032DF550E006E016A30DFB1
:100F1000AA0E006E016A2EDF006A016A2DDF006AE8
:100F2000016A2CDFCEDF296A2A6A2B6ADDCF01F045
:100F3000DDCF00F0120000C0DCFF01C0DCFF02C00A
:100F4000DCFF26502918006E27502A18001228505E
:100F50002B1800101FE014BA0CD028502B6E006E16
:100F6000016A0CDF2650296E006E27502A6E016E32
:100F70000ED07F0E006E016A01DFD8902634006E1D
:100F80002734016E2F500026305001220112F4DE6A
:100F900098DFB4DEDDCF02F0DDCF01F0DDCF00F071
:100FA000120001014A691590C9EC1CF013BA0BD06C
:100FB00094DE93DE006A010E016E040E026E12ECE6
:100FC00006F08BDE16D0006A016A026A036A050E1B
:100FD000086E74EC10F081DE91DE90DE006A020E85
:100FE000016E040E026E12EC06F077DE76DE86DE0F
:100FF00085DE01014A6971DF6DEF0EF000C0DCFF94
:1010000001C0DCFF2650006EFC0B266E01014B6F09
:1010100027C04CF128C04DF18EDF00C026F09D0E98
:10102000006EDB0E016EBA0E026E12EC06F055DE9B
:1010300054DE68DEBD0E006E016ABA0E026E12EC5E
:1010400006F04BDE4ADE5EDE9D0E006ED30E016EB4
:10105000BA0E026E12EC06F040DE3FDE53DE3D0EAD
:10106000006E010E016EBA0E026E12EC06F035DE55
:1010700034DE48DE01EE35F0A4DE4ADE00C04EF17B
:1010800001C04FF101EE35F09EDE42DE00C051F1AD
:1010900001C052F101EE35F09CDE3ADE00C050F1A5
:1010A00001C053F12950040F296E000E2A22158029
:1010B000DDCF01F0DDCF00F012004EC100F04FC1D6
:1010C00001F050C102F051C103F052C104F053C10C
:1010D00005F0120014BA21D015A00CD02650FC0B3C
:1010E000006E01014B1906E127504C1903E128500D
:1010F0004D1901E083DF2650030B01EE4FF0E8B2FB
:1011000001EE52F0E8B005D0EDCF01F0EFCF00F0E6
:101110001AD0ECCF00F0016A16D00DDF2628296E18
:10112000000E27200F0B2A6E2B6ABD0E006E016A7F
:10113000BA0E026E12EC06F0D0DDCFDDE3DD01EE7B
:1011400035F03FDEE5DDB6EF0FF0FA0E006E016A16
:10115000F9DD01EE37F033DE006A016AF3DDBDDD53
:10116000370E006EC80E016EBB0E026E12EC06F05A
:10117000B4DDB3DD010E006E180E016EBB0E026E03
:1011800012EC06F0AADDA9DD270E006EC80E016E76
:10119000BB0E026E12EC06F0A0DD9FDD020E006EAB
:1011A000180E016EBB0E026E12EC06F096DD95DD98
:1011B00000680168C7DD01EE35F001DE01EE3DF0AB
:1011C00018DE01EE3FF017DE01EE39F00CDE85DDB2
:1011D00084DD01EE3BF009DE80DD01EE3BF007DE51
:1011E000290E006EE70E016EA80E026E12EC06F0DC
:1011F00074DD73DD72DD71DD70DDCD6A0F0E006EA2
:10120000016A2050005E2150015A02E20068016824
:1012100001C0CFFF00C0CEFF9E90CD80040E2926D6
:10122000000E2A22040E2626000E272228229EA027
:10123000FED753DD01EE39F003DE4FDD01EE35F070
:10124000BEDD66DDF00E00168F0E01140010F1E118
:101250004D0E006E016AB00E026E12EC06F0120026
:1012600035DE159013BA0FD03B0E006E016E880E5E
:10127000026E12EC06F03C0E006E3B0E016E880E04
:10128000026E12EC06F0610E006EE70E016EA80E03
:10129000026E12EC06F021DD20DD1FDD1EDD1F5089
:1012A000446E456A466AC9EC1CF013BA0BD0610E55
:1012B000006EE70E016EA90E026E12EC06F00DDD57
:1012C0000CDD14D00ADD006A3B0E016E800E026E4A
:1012D00012EC06F0200E006E3C0E016E880E026EBF
:1012E00012EC06F0FADC14DD01BEECD7120015900A
:1012F00014BA1DD026B034D02B6A1DDE23DD080EB3
:10130000006E3B0E016E880E026E12EC06F0800E2F
:10131000006E1E0E016EBB0E026E12EC06F0DDDCDE
:10132000DCDC9EDF020E2926000E2A2219D003DE05
:1013300009DD090E006E3B0E016E880E026E12EC86
:1013400006F0800E006E1E0E016EBB0E026E12ECD9
:1013500006F0C3DCC2DC84DF010E2926000E2A223F
:1013600008EF10F0E8DD00C003F001C000F002C09B
:1013700001F0EADC13BC08D02204261405E101EEDA
:1013800037F039DDAADCA9DC120000C004F001C08E
:1013900000F002C001F0DADC03C000F004C001F08C
:1013A000DBDC13BCD2D6B70E006ECE0E016EBB0EC8
:1013B000026E12EC06F091DC90DC810E006E1E0EC7
:1013C000016EBB0E026E12EC06F087DC86DCA70E07
:1013D000006ECE0E016EBB0E026E12EC06F07DDCCE
:1013E0007CDC820E006E1E0E016EBB0E026E12ECD5
:1013F00006F073DC72DC120000C003F001C000F0E4
:1014000002C001F0A1DC120013BCBFD700C004F081
:1014100001C000F002C001F099DC03C000F004C07C
:1014200001F09ADCB70E006ECE0E016EBB0E026E9E
:1014300012EC06F052DC51DC810E006E1E0E016EC5
:10144000BB0E026E12EC06F048DC47DCA70E006E05
:10145000CE0E016EBB0E026E12EC06F03EDC3DDCE1
:10146000820E006E1E0E016EBB0E026E12EC06F0B6
:1014700034DC33DC080E2626000E27222822080E34
:101480002926000E2A222204261404E101EE39F056
:06149000AADCE6DE1200FA
:0A14960020042E043B044904FFFF6C
:1014A000FFFFFFFFFFFFFFFFFFFFFFFFFFFFFFFF4C
:1014B000FFFFFFFFFFFFFFFFFFFFFFFFFFFFFFFF3C
:1014C000FFFFFFFFFFFFFFFFFFFFFFFFFFFFFFFF2C
:1014D000FFFFFFFFFFFF4F68506A1198119E010147
:1014E000DC0E886F050E896F6D6A160E6F6E6B6865
:1014F000120000C0DCFF01C0DCFF02C0DCFF03C043
:10150000DCFF82D86D86118E8A0E006E010E016E90
:101510004C0E026E150E036E89EC16F0F2EC16F00E
:10152000DDCF03F0DDCF02F0DDCF01F0DDCF00F045
:1015300012004FC000F066EC17F011AA02D0D3ECF5
:101540001DF04F686D6A119E119812004CC04FF04B
:10155000506A119C0101DC0E886F050E896FF2EC58
:1015600016F044DA11B0FBD7F2EC16F068EC12F08A
:10157000F6D700C0DCFFEFA644D0040EEBCF00F09E
:10158000050EEB500010D8A43CD0010EEBCFE1FFCC
:10159000000EEFB4040FE126040EE26EEF9CE7505C
:1015A0003C0B340AD8B4EF8CEF9AE650030B006E74
:1015B000050E00C0EBFF040EE7CFEBFFE650001076
:1015C000D8B4EF8AE650EF34060B090FEBCFE5FFF6
:1015D000FF0FEBCFE5FF020EEBCFE5FF030EEB5065
:1015E000E76EE78E010EEFB0030EEFB2020EEF1AB8
:1015F000EF96EFB8EF86EF98EF74060EEB6A010FE7
:10160000EB6ADDCF00F0120000C0DCFF01C0DCFFA0
:1016100011981186706A716A726A736A746A756A5F
:10162000766A776A786A796A7A6A7B6A7C6A7D6A9E
:101630007E6A7F6A04EE00F0200E006EEE6A002ED5
:10164000FDD70401380E206F000E216F080E226FA7
:10165000236B246B256B560E286F040E296F5E0ECC
:101660002A6F040E2B6F660E2C6F040E2D6F180E52
:101670002E6F2F6B080E306F080E316F326B336B8D
:10168000346B6E0E356F040E366F760E376F040EA8
:10169000386F7E0E396F040E3A6F380E3B6F100EA6
:1016A0003C6F400E3D6F3E6B3F6B406B860E436F51
:1016B000040E446FC60E456F040E466F060E476F4C
:1016C000050E486F180E496F020E4A6F180E4B6FC9
:1016D000400E4C6F4D6B4E6B4F6B460E506F050EB0
:1016E000516F860E526F050E536FC60E546F050E66
:1016F000556F04EE20F03DDF3CDF6E6A686A696A70
:101700006D8CE90E6D166D866D9C68A602D068968C
:10171000FCD7160E706E1182DDCF01F0DDCF00F028
:1017200012000401380E3B6F100E3C6F400E3D6FEF
:101730003E6B3F6B406B860E436F040E446FC60ECC
:10174000456F040E466F060E476F050E486F180E64
:10175000496F020E4A6F180E4B6F400E4C6F4D6B67
:101760004E6B4F6B460E506F050E516F860E526FCB
:10177000050E536FC60E546F050E556F04EE3BF009
:10178000F8DEF7DE160E706E1E0E716E11881200F6
:1017900000C0DCFFEFA64CD0EFBE4AD0050EEBCF69
:1017A00000F0060EEB500012D8A406D0010EEBB4E8
:1017B00002D0EFAC3DD0EF9C020EEBCFE1FF030E69
:1017C000EFB4040FE126040EE26EEF34060B080FAF
:1017D000EBCFE5FFFF0FEBCFE5FF050EEBCFE5FF0E
:1017E000060EEB500809E76E010EEBB0E78CEB70CC
:1017F000E78E010EEBA20AD0EB94030EEBCF00F0C4
:10180000050EEB50001A02E1010EEB84010EEFB061
:10181000030EEFB2020EEF1AEF96EFB8EF86EF98D5
:10182000EF74EF9AEFBCEF8A050EEB6A010FEB6ADB
:10183000DDCF00F01200F00E0116030E0112EFAC26
:1018400008D0060EEB52D8A404D00752EB52D8B4FD
:101850000184EFBA26D0019201B823D00190EF3471
:10186000060B080FEBCFE1FF010FEBCFE2FF060EF7
:10187000EB50E126070EEB50E222060EEB2A070E94
:10188000D8B0EB2A040EEB06EBCF00F0050ED8A083
:10189000EB06EB500012E7CF00F0D8A402D0EF8A9D
:1018A00068DE120002C0DCFF03C0DCFFF00E011690
:1018B000030E0112EFBA2ED0019201BAEF8E01B8D9
:1018C00029D0019001AAEF9EEF34060B070FEBCF52
:1018D000E1FF010FEBCFE2FF050EEB50E126060E14
:1018E000EB50E22200C0E7FF050EEB2AEBCF02F03F
:1018F000060ED8B0EB2AEBCF03F0030EEB50021824
:10190000D8A407D0040EEB500318D8A402D0EF8A55
:10191000EF9E3EDFDDCF03F0DDCF02F01200F00ED0
:101920000116030E0112EFBC14D0019201B811D0C0
:10193000EF9E01BC0AD0EFBA08D0050EEB52D8A436
:1019400007D0060EEB52D8A403D00190EF8CEF8A9B
:101950001FDF120002C0DCFFF00E0116030E0112A1
:10196000050EEBCF02F0060EEB500210D8A407D004
:101970000184EF50180B180AD8B4018609D0EFA6DD
:1019800007D0019201B804D001900184EF9E00DFDE
:10199000DDCF02F0120004EE20F04DD7708012006F
:1019A00004EE2EF07FD704EE2FF0EF90120004EE3D
:1019B0002FF0EF80120004EE2EF0CCD704EE2EF0C4
:1019C000AED704EE3BF037D704EE49F06BD704EE08
:1019D0004AF0EF90120004EE4AF0EF80120004EE9D
:1019E00049F0B8D700C087F111841200119068A2A5
:1019F00006D01180118C6A506A6A5012120068A0D9
:101A000003D0118001DE120068AC02D0689C118CFA
:101A100068A625D06CCF00F06896118C140EF76E76
:101A2000000EF86E00403E0B960FF66E000EF72289
:101A3000F8220900F5CFE9FF0800F5BE10D0F5CF78
:101A4000EAFF1180EF300018020B080ED8A4100E28
:101A5000EF1200B402D08DDD12009ADE120068AAE7
:101A600003D0689A1180120068A803D0689811808A
:101A7000120068A403D0689411801200120011AE05
:101A800023D011AC07D0119C0101E80E886F030E22
:101A9000896F1AD001010050885F000E895B04E352
:101AA00088518911D8A410D06D6A119E119813889D
:101AB000BCEC1BF0C20E446E5D0E456E466A58ECDF
:0A1AC0001CF0C9EC1CF0FF0012003E
:061ACA00206A216A010EF2
:101AD000326E400E336E080E346E400E356E139A21
:101AE000139C0101A60E2D6F0F0E2E6FA90E2F6FE6
:101AF0000F0E306FAA0E316F0F0E326FA80E336FBC
:101B00000F0E346F840E356F070E366F320E376F3F
:101B1000386B600E396F070E3A6F660E3B6F070E1B
:101B20003C6F620E3D6F070E3E6F640E3F6F070EF7
:101B3000406F12001C6A1D6A1E6A780E1F6E266AAC
:101B4000276A286A296A2A6A2B6A2C6A2D6A2E6AF1
:101B50002F6A306A316AB9DF120014B004D0CCECBD
:101B600018F0C9EC1CF033EC10F0C9EC1CF044EC9C
:101B700010F0C9EC1CF0F8EC1BF014A004D0C9EC78
:101B80001CF0CCEC18F05A0E446E020E456E466AFC
:101B900058EC1CF0C9EC1CF0120050EC10F03FECBB
:101BA00010F0E4EC1BF0C9EC1CF0B9EC18F0C9EC37
:101BB0001CF05A0E446E020E456E466A58EC1CF03C
:101BC0001200262A000E272228221200292A000E9F
:101BD0002A222B22148E120000C0DCFF01C0DCFF81
:101BE00002C0DCFF03C0DCFF08C0DCFF2CC029F012
:101BF0002DC02AF02EC02BF0149C149EC9EC1CF0B2
:101C0000ACDFC9EC1CF01C50D8B432D00D08D8A001
:101C10002FD01C0EFA6E000EFB6E1C04E846E84640
:101C2000030BFA26D8B0FB2A1C04E846E846FC0B56
:101C30003C0FD8B0FA2AD8B0FB2AF96E78EF0EF034
:101C400080EF0EF081EF0EF080EF0EF080EF0EF0DF
:101C5000BDEF0EF0F9EF0EF0FDEF0EF088EF0EF095
:101C600006EF0FF0DBEF0EF007EF0FF0A7EF0EF02F
:101C70001C50D8B432D00D08D8A02FD01C0EFA6E4C
:101C8000000EFB6E1C04E846E846030BFA26D8B0AB
:101C9000FB2A1C04E846E846FC0BA60FD8B0FA2A3B
:101CA000D8B0FB2AF96E6DEF0EF06DEF0EF06DEF10
:101CB0000EF0D1EF07F06DEF0EF06DEF0EF0D1EFFB
:101CC00007F0D1EF07F06DEF0EF0D1EF07F06DEFF9
:101CD0000EF0D1EF07F06DEF0EF0DDCF08F0DDCFA5
:101CE00003F0DDCF02F0DDCF01F0DDCF00F0120018
:101CF000148C0DEC19F0C9EC1CF041EC1CF0B8D7B9
:101D0000148C41EC1CF0C9EC1CF00DEC19F0B0D7B0
:101D1000149C41EC1CF0C9EC1CF00E0E446E456A9C
:101D2000466A58EC1CF0C9EC1CF0500E006E480ED0
:101D3000016E430E026E4D0E036E200E086E74ECA3
:101D400010F0006A010E086E74EC10F091D7148C3C
:101D5000CCEC18F0C9EC1CF041EC1CF0C9EC1CF008
:101D6000B20E006EC20E016E120E026E0A0E036EED
:101D7000200E086E74EC10F07BD7148CCCEC18F0AD
:101D8000C9EC1CF0F8EC1BF0C9EC1CF041EC1CF0A9
:101D9000C9EC1CF051EC19F0B20E006EC20E016ECF
:101DA000120E026E0A0E036E200E086E74EC10F016
:101DB0000DEC19F05DD7148CCCEC18F0C9EC1CF0CC
:101DC000F8EC1BF0C9EC1CF041EC1CF0C9EC1CF069
:101DD0000DEC19F0C9EC1CF0B20E006EC20E016ED3
:101DE000120E026E0A0E036E200E086E74EC10F0D6
:101DF0003FD7346A400E356E10D0040E326E400E5E
:101E0000336E040E346E400E356E07D006D0010ED0
:101E1000346E400E356E138C00D0138A148CCCECCB
:101E200018F0C9EC1CF0F8EC1BF0C9EC1CF041EC0C
:101E30001CF0C9EC1CF00E0E446E456A466A58EC64
:101E40001CF0C9EC1CF051EC19F0C9EC1CF01A0E96
:101E5000446E456A466A58EC1CF0C9EC1CF0B20EA0
:101E6000006EC20E016E120E026E8A0E036E200EFE
:101E7000086E74EC10F00DEC19F0C9EC1CF0660E55
:101E8000446E020E456E466A58EC1CF0F1D600C056
:101E9000DCFF01C0DCFF02C0DCFF03C0DCFF08C0C8
:101EA000DCFF1E50D8B424D00608D8A021D01E0EC6
:101EB000FA6E000EFB6E1E04E846E846030BFA2697
:101EC000D8B0FB2A1E04E846E846FC0BD80FD8B071
:101ED000FA2AD8B0FB2AF96E78EF0FF078EF0FF0FE
:101EE00087EF1DF078EF0FF078EF0FF078EF0FF03D
:101EF000DDCF08F0DDCF03F0DDCF02F0DDCF01F064
:101F0000DDCF00F0120002C0DCFF03C0DCFF08C020
:101F1000DCFF1E50D8B42AD00908D8A027D01F0E45
:101F2000FA6E000EFB6E1E04E846E846030BFA2626
:101F3000D8B0FB2A1E04E846E846FC0B480FD8B090
:101F4000FA2AD8B0FB2AF96EF8EF1AF07CEF14F0F9
:101F50008AEF1DF06AEF08F07CEF14F0C1EF15F086
:101F600094EF19F0CCEF15F0C8EF17F0DDCF08F0C3
:101F7000DDCF03F0DDCF02F0120000C0DCFF01C0B6
:101F8000DCFF02C0DCFF03C0DCFF08C0DCFF1492F2
:101F90001494149614981F50446E456A466A1D5056
:101FA000D8B436D00F08D8A033D01F0EFA6E000E6A
:101FB000FB6E1D04E846E846030BFA26D8B0FB2A60
:101FC0001D04E846E846FC0BD40FD8B0FA2AD8B076
:101FD000FB2AF96E03EF1BF038EF1BF093EF1DF0B7
:101FE00077EF09F03AEF1BF04AEF1BF04DEF1BF0D3
:101FF000D7EF14F04FEF1BF049EF1BF051EF1BF040
:1020000013EF16F0ABEF19F026EF16F01EEF18F0F5
:10201000DDCF08F0DDCF03F0DDCF02F0DDCF01F042
:06202000DDCF00F012000C
:0A202600340EB46E1200DD0E8A16AF
:10203000138E8A9E939E020E446E456A466A58EC41
:102040001CF0C9EC1CF0B4BC0CD08A8E020E446E9D
:10205000456A466A58EC1CF0C9EC1CF0B4AC01D0DF
:10206000139E938E120000008A500809EF0B8A6EAF
:10207000120000008A501009F70B8A6E120000D07F
:102080000000E70E8A16120000008A502009FD0B9E
:102090008A6E120000008A500209DF0B8A6E12005D
:1020A00000D00000DD0E8A161200006A00D000D0B9
:1020B00000D0B4BC0080120000008A501009F70B59
:1020C0008A6E00D000008A500209DF0B8A6E00D0B1
:1020D00000008A500809EF0B8A6E00D000008A5079
:1020E0002009FD0B8A6EE8D700C0DCFF01C0DCFFD1
:1020F00002C0DCFF03C0DCFF08C0DCFF00A014D07E
:102100008A500209DF0B8A6E8A501009F70B8A6E1B
:1021100003320232013200328A500809EF0B8A6E14
:10212000084E17D000B0ECD78A502009FD0B8A6EFC
:102130008A501009F70B8A6E0332023201320032E4
:102140008A500809EF0B8A6E084E03D000A0ECD726
:10215000D7D700D00000DD0E8A16DDCF08F0DDCF26
:1021600003F0DDCF02F0DDCF01F0DDCF00F0120093
:1021700008C0DCFF060E086EB7DFDDCF08F01200E6
:1021800000C0DCFF01C0DCFF08C0DCFF0036013608
:102190000090019E100E086EA7DFDDCF08F0DDCFA6
:1021A00001F0DDCF00F0120000C0DCFF01C0DCFF59
:1021B00002C0DCFF08C0DCFF0036013602360090AA
:1021C000029E180E086E90DFDDCF08F0DDCF02F022
:1021D000DDCF01F0DDCF00F0120008C0DCFF09C048
:1021E000DCFF8A500809EF0B8A6EDD0E8A16210E7D
:1021F000096E00008A501009F70B8A6ED8900332DE
:10220000023201320032090600D00000B4BC038E55
:1022100000D08A500809EF0B8A6E082EEAD7094EC3
:1022200006D0D8900332023201320032F8D7DDCF27
:1022300009F0DDCF08F0120002C0DCFF03C0DCFFB4
:1022400008C0DCFF100E086EC8DF013200323F0EFE
:102250000116DDCF08F0DDCF03F0DDCF02F0120074
:1022600000C0DCFF01C0DCFF080E016E00BE12D012
:102270008A502009FD0B8A6E8A501009F70B8A6E6E
:10228000003600D08A500809EF0B8A6E014E15D037
:1022900000AEEED78A500209DF0B8A6E8A50100911
:1022A000F70B8A6E003600D08A500809EF0B8A6E51
:1022B000014E03D000AEDCD7EDD700D00000DD0E1C
:1022C0008A16DDCF01F0DDCF00F0120000C0DCFF88
:1022D00001C0DCFF02C0DCFF03C0DCFF180E036E90
:1022E00002BE13D08A502009FD0B8A6E8A50100955
:1022F000F70B8A6E0036013602368A500809EF0B5A
:102300008A6E034E16D002AEEDD78A500209DF0B5B
:102310008A6E8A501009F70B8A6E00360136023633
:102320008A500809EF0B8A6E034E03D002AEDAD74B
:10233000ECD700D00000DD0E8A16DDCF03F0DDCF34
:1023400002F0DDCF01F0DDCF00F0120000C0DCFFB5
:1023500001C0DCFF02C0DCFF026AD8900036013603
:102360000236B4DFDDCF02F0DDCF01F0DDCF00F0CB
:10237000120000C0DCFF01C0DCFF02C0DCFF026A0B
:102380003F0E0116D89000360136A0DFDDCF02F0F7
:10239000DDCF01F0DDCF00F0120000C0DCFF01C096
:1023A000DCFF02C0DCFF016A026AD8900036013609
:1023B00002368CDFDDCF02F0DDCF01F0DDCF00F0A3
:1023C000120003C0DCFF8A500809EF0B8A6EDD0E95
:1023D0008A16180E036E8A501009F70B8A6ED89071
:1023E00000360136023600D000D00000B4BC0080B8
:1023F0008A500809EF0B8A6E032EEDD7DDCF03F06C
:10240000120002C0DCFFDDDF023201320032DDCF1C
:1024100002F0120002C0DCFFD4DF013200323F0EB6
:102420000116DDCF02F0120001C0DCFF02C0DCFFAC
:10243000C8DF01320032DDCF02F0DDCF01F0120043
:102440000101240E6F6F250E706F000E716F010E6B
:102450006E6F1200016ADBEC0CF001B602D019D8E5
:10246000F9D712006D98016ADBEC0CF001B402D0D0
:1024700010D8F9D7D7EC0CF01200200E016ED0EC7A
:102480000CF001A002D005D8F8D70101854B862BAE
:10249000120000C067F101C068F102C069F103C019
:1024A0006AF104C06BF105C06CF106C06DF1FC046B
:1024B0001F0B016E01016E6F01EE6FF0FDCFEEFF9D
:1024C000FECFEEFFFFCFEEFF0600012EF7D7120082
:1024D00011A202D0119226D0010101EE6EF06E51D0
:1024E000016E030DF350E926014E08D00500ED50B2
:1024F000FF6EED50FE6EED50FD6EF6D767C100F039
:1025000068C101F069C102F06AC103F06BC104F057
:102510006CC105F06DC106F07151FB6E7051FA6E21
:102520006F51F96E0101836B846B11AA03D0D3EC58
:102530001DF0119A080E026E016ACBEC0CF001A09E
:1025400002D0A7DFF9D701A402D0080E026E01EE77
:102550007BF002500808E92600C0EFFF022EECD7FE
:102560000101856B866B000EFB6E250EFA6E7C51A9
:102570000C08D8A023D07C35E834FC0B880FD8B0E9
:10258000FA2AD8B0FB2AF96EDEEF12F0DEEF12F075
:10259000DEEF12F0DEEF12F0DEEF12F0C1EF13F01B
:1025A00025EF13F0DEEF12F0D0EF13F0C9EF13F0C8
:1025B000D8EF13F0D5EF13F0DEEF12F06D98CEECFC
:1025C0000CF0B8D74FDF01010350825DD8A006D0D0
:1025D000D8A408D00250815DD8B004D081C102F0E7
:1025E00082C103F002500310D8B412D004C0F6FF29
:1025F00005C0F7FF06C0F8FF0800F5CF00F03DDF8B
:10260000042A000E052206220206D8A00306EAD7F5
:1026100001018151070BD8A408D081518519D8A494
:1026200004D082518619D8B485D7016ADEEC0CF04B
:1026300001A280D72EDFF9D715DF400E016EDEEC48
:102640000CF001A077D725DFF8D701017E51FF0FED
:10265000D8A40DD07D53D8A4B1D7620E046E3D0E20
:10266000056E000E066E120E026E036AABD7FF0FE8
:10267000D8A40DD07D53D8A4A1D7740E046E3D0EFE
:10268000056E000E066E200E026E036A9BD7FF0FCA
:10269000D8A494D77D05D8B45DD07D510308D8A0C7
:1026A0008DD77D51D8A4FF0FE824BB0FF66E3D0EE9
:1026B000D8B0010FF76E000ED8B0010FF86E090008
:1026C000F5CF04F00800F5CF05F0940E04263D0E7A
:1026D0000522000E066E000E062204C0F6FF05C09D
:1026E000F7FF06C0F8FF0800F5CF02F0036A7D513E
:1026F000D8B468D78253D8A405D00250815DD8A041
:1027000081C102F0AFDE0250D8B482D7F5CF00F01D
:10271000B4DE024E7DD7030E006EAFDE024E78D7D8
:10272000020E0426000E0522062204C0F6FF05C094
:10273000F7FF06C0F8FF0800F5CF00F09EDE024E5E
:1027400067D7006A9ADE024E63D7042A000E05227C
:102750000622EBD787DEB5EC1DF0118A0050026E21
:10276000020F006E8ADE030E006E87DE025205E065
:102770000206CAEC1DF081DEF9D7D3EC1DF0119AE8
:1027800047D770DE400EDEEC0CF064DE7DC16EFFDC
:10279000D1D601017D51836F006E91EC0BF04CD7C7
:1027A00083C100F06ADE5EDE33D77DC184F144D799
:0A27B00084C100F062DE56DE2BD774
:0627BA0008C0DCFF140E54
:1027C000086E74EC10F0DDCF08F0120000C0DCFFE2
:1027D00001C0DCFF02C0DCFF08C0DCFF026AD89049
:1027E0000036013602360036013602360036013632
:1027F0000236003601360236140E086E74EC10F004
:10280000DDCF08F0DDCF02F0DDCF01F0DDCF00F04D
:10281000120000C0DCFF01C0DCFF08C0DCFF006A62
:10282000040E086E74EC10F00E0E016E0250006E75
:10283000100E086E74EC10F0006A040E086E74EC52
:1028400010F06E0E016E0350006E100E086E74ECE8
:1028500010F0DDCF08F0DDCF01F0DDCF00F0120089
:1028600000C0DCFF01C0DCFF800E016E02340E0BE5
:10287000011203C000F0AADFDDCF01F0DDCF00F0D0
:10288000120000C0DCFF01C0DCFF900E016E0234BC
:102890000E0B011203C000F099DFDDCF01F0DDCF98
:1028A00000F0120002C0DCFF03C0DCFF14AC0CD04F
:1028B00026502918D8A408D027502A18D8A404D004
:1028C00028502B18D8B413D0148C2650296E026EC1
:1028D000F60E036E9EDF27502A6E026EF70E036E11
:1028E00098DF28502B6E026EF80E036E92DFDDCF5C
:1028F00003F0DDCF02F0120014BA10D0D3DF090EBE
:10290000006E016A0C0E086E74EC10F0080E086E72
:10291000EDEC10F0E6EC0DF0B6EF0FF0070E026EE6
:102920002DC103F0AEDF060E026E2DC103F0A9DF4C
:102930002FC103F026C002F06CDF31C103F027C0C5
:1029400002F067DF000E026E2DC103F089DF500E2A
:10295000016E33C100F03ADF500E006EEF0E016ED3
:10296000060E026E2ADF006A016A026A26DF020E84
:10297000006E016A0C0E086E74EC10F0080E086E02
:10298000EDEC10F0B6EF0FF000C0DCFF01C0DCFF93
:10299000070E026E2DC103F063DF060E026E2DC11D
:1029A00003F06FDFDDCF01F0DDCF00F07BD714BA8D
:1029B0004BD026B005D000C049F174DF08EF10F00D
:1029C00000C001F049C100F0026AD890003601361B
:1029D000023600360136023600360136023600363F
:1029E00001360236140E086E2204036E26140318F4
:1029F000D8B40BD00D0E001274EC10F0020E292684
:102A0000000E2A222B2208EF10F00F0E001274EC99
:102A100010F0006A030E086E74EC10F039EC10F040
:102A200058EC1CF0C9EC1CF033EC10F0030E446EB3
:102A300058EC1CF0C9EC1CF0006A016A100E086E1C
:102A400074EC10F008EF10F02FC103F026C002F074
:102A5000E0DE31C103F027C002F0DBDE33C103F05A
:102A600000C002F0D6DE010E026E2DC103F0F8DECA
:102A7000006A016A026AA1DE006A016A026A9DDEDA
:082A800058EC1CF008EF10F007
:082A880000C0DCFF01C0DCFF0F
:102A900014AC0AD02A50275CD8A006D0D8A40BD0FA
:102AA0002950265CD8B007D0296A2A6A148C160EE1
:102AB000006EB8EC10F027AE0CD02ABE0AD0296AFE
:102AC000800E2A6E006AB8EC10F0006A016AC0EC51
:102AD00010F029502618006E2A5027180010D8B47C
:102AE00007D0060E006EB8EC10F0E6EC0DF0F1D752
:102AF000DDCF01F0DDCF00F0120000C0DCFF01C02F
:102B0000DCFF02C0DCFF2750016E2650006E14AAC5
:102B100004D02F5000263050012214AC1DD0295073
:102B20000018026E2A500118021024E02A500118E1
:102B3000800B12E12928026E000E2A2001180CE1F8
:102B40000250001809E100C029F001C02AF0060E69
:102B5000006EB8EC10F00ED000C029F001C02AF0D1
:102B60001D0E006EB8EC10F026C000F0026AD4EC26
:102B700010F0148CDDCF02F0DDCF01F0DDCF00F0DE
:102B8000120082DF040E14BA050E006EB8EC10F0CD
:102B90001CEC11F0B6EF0FF0B0DF240E006EB8ECB5
:102BA00010F01CEC11F02A50800B026E292A000E46
:102BB0002A207F0B02102A6EB6EF0FF065DF00505F
:102BC000026E020E14BA030E006EB8EC10F0025042
:102BD000006EC0EC10F014BA10D02204006E26145F
:102BE0000018D8B40AD02750245CD8A006D0D8A4A6
:102BF00018D02650235CD8B014D042C100F0B8ECF5
:102C000010F058EC1CF014A20CD043C100F0C9EC39
:102C10001CF0B8EC10F0030E446E456A466A58EC9E
:102C20001CF008EF10F00101180E426F0A0E436FFE
:102C3000148227BE02D014AAC1D73E0E446E456A44
:102C4000466A0101080E426F1492B8D756DF2ABEB9
:102C500032D02204026E261402180EE000C002F0E8
:102C6000220E006EB8EC10F002C000F0C0EC10F0C4
:102C7000E6EC0DF008EF10F000C002F0020E006E5E
:102C8000B8EC10F002C000F0C0EC10F0180E006EAE
:102C9000B8EC10F058EC1CF00A0E006EC9EC1CF0F9
:102CA000B8EC10F0050E446E456A466A58EC1CF00C
:102CB000149C08EF10F000C002F0020E006EB8EC99
:102CC00010F002C000F0C0EC10F0080E006EB8EC7E
:102CD00010F03E0E446E456A466A58EC1CF008EF50
:022CE00010F0F2
:0E2CE2004C6A0101000E616F020E626F010E5E
:102CF000E8CF00F2A10E636F000E646F000EE8CF04
:102D0000A1F0AA0E656F010E666F000EE8CFAAF162
:102D1000120000C0DCFF01C0DCFF05C0DCFF030EB9
:102D2000056E11EE61F0E6CFE9FFE6CFEAFFEF5264
:102D300003E0052EF8D7FF00DDCF05F000C0E1FF6E
:102D400001C0E2FF00C0E6FF01C0E6FF02C0E6FFEF
:102D500003C0E6FF04C0E6FF05C0E6FF06C0E6FFCD
:102D600007C0E6FFEE2A000E0006015AE55200C039
:102D7000EEFF01C0EEFF00C0EEFF01C0EEFFE1CFAD
:102D8000EEFFE2CFEEFF02C0EEFF03C0EEFFDDCFAD
:102D900001F0DDCF00F0120008C0DCFF09C0DCFF4D
:102DA0000AC0DCFF0BC0DCFF0CC0DCFF0DC0DCFF89
:102DB0000EC0DCFF0FC0DCFF10C0DCFF13D8DDCF7E
:102DC00010F0DDCF0FF0DDCF0EF0DDCF0DF0DDCF59
:102DD0000CF0DDCF0BF0DDCF0AF0DDCF09F0DDCF59
:102DE00008F0120000C0DCFF01C0DCFF02C0DCFF05
:102DF00003C0DCFF04C0DCFF05C0DCFF06C0DCFF55
:102E000007C0DCFFE9CF00F0EACF01F001EE61F08E
:102E10004C44E926EE50EFCFEAFFE96EFC501F0B61
:102E2000026EEE6E00C0EEFF01C0EEFFE1CFEEFFDE
:102E3000E2CFEEFFD9CFEEFFDACFEEFFFD50EE6E20
:102E4000FE50EE6E0600022EF9D74C2A4C500208B6
:102E5000D8A04C6A01EE61F04C44E926EE50EFCF69
:102E6000EAFFE96EEF52F1E0EECF01F0EECF02F0B3
:102E7000EECF03F0F29EFC6AEECFE1FFEECFE2FF71
:102E8000EECFD9FFEECFDAFFF28E0144FF0FE92635
:102E9000000EEA220500ED50FE6EED50FD6E012E93
:102EA000F9D702C0E9FF03C0EAFFDDCF07F0DDCFAD
:102EB00006F0DDCF05F0DDCF04F0DDCF03F0DDCF90
:102EC00002F0DDCF01F0DDCF00F01200005002086B
:102ED000D8A00DD001EE61F00044E926EE50EFCF0E
:102EE000EAFFE96EEF6A00504C5CD8B4AED712002E
:102EF00001EE61F04C44E926EE50EFCFEAFFE96EB7
:042F0000EF6AA3D7FA
:0C2F040000C0DCFF01C0DCFF02C0DCFFED
:102F100026C000F027C001F028C002F014AA0090DB
:102F200014AC0DD029502A102B1009E0295000189C
:102F300006E12A50011803E12B50021822E0C9ECE7
:102F40001CF000C0DCFF800E006E30EC11F0DDCF15
:102F500000F000C029F001C02AF002C02BF014AA32
:102F600006D02F5000263050012231500222D89036
:102F700000360136023666EC11F0148C00D000D019
:102F80000000DDCF02F0DDCF01F0DDCF00F0120058
:102F900014BA19D026A017D014AC15D0010148A13D
:102FA00012D026C0E8FF4719FE0B0DE127C0E8FF4D
:102FB000481909E128C0E8FF491905E147C100F0B7
:102FC000016AB6EF0FF09EDFC9EC1CF000C0DCFF19
:102FD000FE0E006E30EC11F0DDCF00F000D000D01E
:102FE00000D000D0E1EC11F014BA1DD00101023282
:102FF0000132003201C047F1486B488129C044F1D9
:103000002AC045F12BC046F1020E2926000E2A22C5
:103010002B2226B003D0016AB6EF0FF001C000F0FA
:10302000016AB6EF0FF001320032016A292A000E60
:103030002A222B220101486BB6EF0FF014BA42D0BE
:1030400026B00DD000C047F126C044F127C045F19D
:1030500028C046F10101486B488308EF10F052DFA9
:10306000C9EC1CF000C0DCFFE00E006E30EC11F08B
:10307000DDCF00F000C001F00068010148A312D0CC
:1030800026C002F044510218FE0B0CE127C002F0EA
:103090004551021807E128C002F04651021802E12A
:1030A00047C100F0020E2926000E2A222B22026AB6
:1030B000D89000360136023666EC11F058EC1CF060
:1030C00008EF10F01FDFC9EC1CF000C0DCFFE00EC1
:1030D000006E30EC11F0DDCF00F0292A000E2A221C
:1030E0002B22016A026AD89000360136023666EC5D
:0A30F00011F058EC1CF008EF10F08E
:0630FA0001C0DCFF02C072
:10310000DCFF12AE23D0129E01016051B108D8B08D
:1031100005D0FA0E4A6E0C0E4B6E10D001016051B4
:10312000690DF3CF01F0F4CF02F0010DF35002244A
:103130004A6E01320130300B0C094B6E1284BA0E0C
:10314000446E0B0E456E466A58EC1CF0DDCF02F063
:10315000DDCF01F01200BB6A0C0EBA6EEA0E4A6EA9
:103160000C0E4B6E12840101010E5F6FA60E606F94
:1031700012000101010E5F1B5F6FD8B40CD08A9C56
:103180008A94020E446E456A466A58EC1CF0129806
:1031900012AE01D0B2DF120000C0DCFF01C0DCFFC4
:1031A0000101020E5F1B5F6FD8B432D08A9C00D041
:1031B00000D000D000D000D000D000D000D000D08F
:1031C00000D000D000D000D000D000D000D000D07F
:1031D00000D000D000D000D000D000D000D000D06F
:1031E00000D000D000D000D000D000008A84129817
:1031F00084DF12AA0DD05A0E446E020E456E466A46
:1032000058EC1CF02C0E006E010E016E67EC1CF0E9
:10321000DDCF01F0DDCF00F0120000C0DCFF01C007
:10322000DCFF0101030E5F1B5F6FD8B421D065DFA7
:10323000C9EC1CF08A9400D000D000D000D000D09F
:1032400000D000008A8C128858DF12AA11D05A0EC2
:10325000446E020E456E466A58EC1CF00101605146
:103260009D0DD890F430016EF330006E67EC1CF0C9
:10327000DDCF01F0DDCF00F0120001010050601938
:10328000D8B408D000C060F1128E5F51030AD8B4E0
:1032900001D033DF12008A9C8A9401015F6B12987F
:1032A00012008A9400D000D000D000D000D000D00E
:1032B00000D000D000D000D000D000D0F29E8A8C88
:1032C00000D000D000D000D000D000D08A848A9CEA
:0432D000F28E120068
:0C32D40000C0DCFF01C0DCFF14AC06D021
:1032E0002950261803E12A50271819E0C9EC1CF0D0
:1032F00000C041F1800E006E30EC11F041C100F0D1
:1033000000D000D000D000D000D000002650296EA0
:10331000006E27502A6E016EA6EC11F0148CDDCFE2
:1033200001F0DDCF00F01200D5DFC9EC1CF000C0C9
:1033300041F1FE0E006E30EC11F041C100F000D002
:1033400000D000D000D000D000000AEC12F0E6EC73
:103350000DF0B6EF0FF0BEDF2650235C2750245847
:10336000D8A03FD02204026E2614021816E0C9EC41
:103370001CF000C041F1020E006E30EC11F041C1B2
:1033800000F000D000D000D000D000D00000B9EC98
:1033900011F0E6EC0DF008EF10F0C9EC1CF000C0E5
:1033A00041F1000E006E30EC11F041C100F000D090
:1033B00000D000D000D000D00000B9EC11F000C067
:1033C00041F1E00E006E30EC11F041C100F000D090
:1033D00000D000D000D000D0000058EC1CF008EF66
:1033E00010F0C9EC1CF000C041F1000E006E30EC92
:1033F00011F041C100F000D000D000D000D000D0CA
:103400000000B9EC11F000C041F1E00E006E30ECAC
:1034100011F041C100F000D000D000D000D000D0A9
:1034200000004A0E446E456A466A58EC1CF008EFEC
:0234300010F09A
:0E34320000C0DCFF0A0EC16E060EC06E090E51
:10344000C26E9D8C0101020E006F030E016F010E12
:10345000026F01EE03F0100E006EEE6A002EFDD733
:10346000DDCF00F01200166AEECF17F0EECF18F0A5
:10347000196AEECF1AF0EDCF1BF0D8901832173240
:1034800016321B321A3219321832173216321B32E8
:103490001A3219321832173216321B321A321932D6
:1034A0001950165E1A50175A1B50185A1750EE260C
:1034B0001850ED2212009E9C01C1E9FF02C1EAFFF3
:1034C000C3CFEEFFC4CFEDFF010100B309D0020E60
:1034D000006F030E016F010E026F090EC26E08D05D
:1034E000040E006F0B0E016F010E026F110EC26E03
:1034F000BADFB9DFB8DF59EF00F002C0DCFF03C06C
:10350000DCFF04C0DCFF05C0DCFF06C0DCFF07C039
:10351000DCFFF29E09C100F00AC101F0F28E750EC7
:10352000046E170E056E066A076A18D002C0DCFF2B
:1035300003C0DCFF04C0DCFF05C0DCFF06C0DCFF0D
:1035400007C0DCFFF29E11C100F012C101F0F28E43
:103550002B0E046E370E056E066A076A026A036A4E
:1035600006EC1EF002C000F003C001F0DDCF07F052
:10357000DDCF06F0DDCF05F0DDCF04F0DDCF03F0C9
:06358000DDCF02F0120095
:0A35860000C0DCFF01C0DCFF14AC44
:103590000AD02A50275CD8A006D0D8A408D0295039
:1035A000265CD8B004D0ECEC0DF0C9EC1CF027AAD6
:1035B0000BD02ABA09D0296A200E2A6E006AB8EC0C
:1035C00010F0016AC0EC10F029502618006E2A5045
:1035D00027180010D8B407D0060E006EB8EC10F013
:1035E000E6EC0DF0F1D7DDCF01F0DDCF00F01200F9
:1035F000CADF040E14BA050E006EB8EC10F01CEC15
:1036000011F0B6EF0FF0BFDF0050026E020E14BAD9
:10361000030E006EB8EC10F00250006EC0EC10F01B
:1036200014BA10D02204006E26140018D8B40AD0A0
:103630002750245CD8A006D0D8A418D02650235CEC
:10364000D8B014D0180E14B2080E006EB8EC10F0FA
:1036500058EC1CF014A40AD0170E14B60E0E14B8B1
:103660000A0E006EC9EC1CF0B8EC10F008EF10F078
:103670001482C9D714842650070AD8A4C4D7275067
:10368000200AD8A4C0D714821494610E446E456AEF
:10369000BAD7148214841486B6D71482B4D714848B
:0836A000B2D714841488AFD7DF
:0836A8000101546B1200190E20
:1036B0003A6E1200190E3C6E12000101010E5419EF
:1036C000D8B40DD0010E546F000E366EC80E376E92
:1036D000C80E386E010EF29E396E129CF28E1200E8
:1036E0000101020E5419D8B40DD0020E546F110E00
:1036F000366EC80E376EC80E386E010EF29E396EE9
:10370000129CF28E12000101040E5419D8B40DD08F
:10371000040E546F480E366E320E376E320E386E0F
:10372000010EF29E396E129CF28E12000101030E00
:103730005419D8B40DD0030E546F120E366E190EF4
:10374000376E190E386E010EF29E396E129CF28E93
:1037500012000101050E5419D8B40DD0050E546F96
:103760008F0E366E640E376E640E386E010EF29E4A
:10377000396E129CF28E120012B602D012A802D03C
:10378000190E3B6E13A802D098DF10D03C52D8B46B
:1037900002D0DFDF0BD03B52D8B402D0B4DF06D06A
:0E37A0003A52D8B402D0C2DF01D09ADF120034
:0237AE00BE6AF1
:1037B0000C0EBD6E04D80101010E5D6F12000101F7
:1037C000D00E5E6F5D6B120001015D51010A0FE0CA
:1037D000010E5D6F8A90486A0C0E496E1282129635
:1037E0002E0E446E010E456E466A58EC1CF0120017
:1037F00000C0DCFF01C0DCFF01015D51020A1DE0D9
:10380000020E5D6F486A0C0E496E128212962E0EE1
:10381000446E010E456E466A58EC1CF0C9EC1CF073
:103820008A80B20E446E040E456E466A58EC1CF057
:10383000640E006E016A65EC1CF0DDCF01F0DDCF97
:1038400000F0120000C0DCFF01C0DCFF01015E518E
:10385000486E0C0E496E1282B20E446E040E456E16
:10386000466A58EC1CF001015E51180DF3CF00F0D0
:10387000F4CF01F065EC1CF0DDCF01F0DDCF00F0FE
:10388000120001015D51030A05E0030E5D6F8A908D
:10389000D9DF1286120000C05EF112008A90486AD9
:0838A0000C0E496E1282129613
:0838A800476A0101576B120091
:1038B000F29E44C03DF045C03EF046C03FF0129A33
:1038C000F28E476A0101576B1200010E01D0020E01
:1038D0000101576F02C0DCFF03C0DCFF0130036E43
:1038E0000030026E033202320332023203320232FD
:1038F00003320232070E03160350000807E303E108
:10390000640E025C03E2640E026E036A0250005C05
:10391000586F03500158596F02E2586B596B0250AF
:1039200000245A6F035001205B6F02E35A695B6900
:10393000DDCF03F0DDCF02F01200010E476E010172
:103940005851005C5951015809E3020E476E00506E
:103950005A5D01505B5902E3476A128A120000C0A7
:10396000DCFF01C0DCFF010157B103D057B305D024
:103970000BD07DEC1AF0E1DF07D096EC1AF0DDDF1A
:10398000D8904736D8904736DDCF01F0DDCF00F034
:0A3990001200E5DF12AAFDD71200B5
:06399A000301006B010EA9
:1039A000016F026FAB6A240EAC6E080EB86E670E24
:1039B000AF6E000EB06E900EAB6E9D8A080ED56E87
:1039C000F2941200AB5003014D6EAE504E6EABA29E
:1039D00002D0AB98AB884DB40ED0FD0E005DD8B0D0
:1039E0000AD003EE02F001514EC0EBFF002BFD0E9A
:1039F000014F016F128059EF00F0F29E0301FD0E9E
:103A0000005DD8B00AD003EE02F0015100C0EBFF18
:103A1000002BFD0E014F016F1280F28E120000C3C9
:103A200000F0120012A0FED70301F29E03EE02F096
:103A30000251EBCF00F00007FD0E024F026F00674E
:103A400001D01290F28E12009EB805D09EA8FED72B
:103A500000C0ADFF17D0ACB20AD0F29EF2B404D0D1
:103A600000C0ADFFF28E0ED0F28EACA2FED7D59E76
:103A7000FD0ED76E160ED66EF294F29E00C0ADFF0C
:063A8000D58EF28E12004B
:0A3A860000C0DCFF01C0DCFF02C03D
:103A9000DCFF03C0DCFF26C002F027C003F014AA3D
:103AA00004D02F5002263050032202502C18006EF2
:103AB00003502D18001202E114BE149C14BC06D051
:103AC000C9EC1CF0ECEC0DF0C9EC1CF02C5002160B
:103AD0002D50031629500218D8A404D02A500318D8
:103AE000D8B40CD0060E006EB8EC10F0E6EC0DF079
:103AF0002C5029162D502A162B6AECD7DDCF03F057
:103B0000DDCF02F0DDCF01F0DDCF00F01200BBDF32
:103B100078EF0FF0B8DF040E006EB8EC10F01CEC7C
:103B200011F0B6EF0FF0AFDF00C002F0020E006E32
:103B3000B8EC10F002C000F0C0EC10F0080E006EFF
:103B4000B8EC10F01FC044F0456A58EC1CF0C9EC0A
:103B50001CF00E0E006EB8EC10F0020E446E456ABA
:083B600058EC1CF008EF10F016
:083B6800120001C0DCFF02C0E5
:103B7000DCFF016A026A83EC1EF086EC1EF0005046
:103B80005008D8A0006A00C056F1DDCF02F0DDCFAA
:103B900001F01200006A01015653D8B403D0560751
:103BA00086EC1EF01200120001C0DCFF02C0DCFF38
:103BB000010E016E026A83EC1EF00101500E566F79
:103BC000DDCF02F0DDCF01F0120001015653D8B471
:103BD00003D0560792EC1EF0120000C0DCFF01C0BB
:103BE000DCFF02C0DCFF016A026A83EC1EF0010107
:103BF00056515008006E92EC1EF0ADEC1EF0DDCF79
:0C3C000002F0DDCF01F0DDCF00F012007B
:043C0C0004C0DCFF15
:103C100005C0DCFF06C0DCFF07C0DCFF08C0DCFF1E
:103C200009C0DCFF0AC0DCFF0BC0DCFF0050086EDF
:103C30000150096E02500A6E03500B6E006A016A51
:103C4000026A036A085009100A100B10D8B43AEF40
:103C50001EF008A02EEF1EF049EC1FF0D8900B329A
:103C60000A3209320832D89004360536063607364D
:103C700022EF1EF0DDCF0BF0DDCF0AF0DDCF09F033
:103C8000DDCF08F0DDCF07F0DDCF06F0DDCF05F0AA
:063C9000DDCF04F012007C
:0A3C9600800EF16EF06A9D6AA06ACC
:103CA0009E6AA16A9F6AA26AD09E116A126A136A0A
:103CB000146A156A56EC1FF029EC1FF071EC16F02F
:103CC000CDEC1CF080EC1EF0B4EC1DF05EEC00F0CE
:103CD000ABEC18F0D7EC1BF013EC10F09AEC0DF0F5
:103CE00019EC1AF054EC1BF054EC1CF006EC06F046
:103CF0006BEC0AF020EC12F0E1EC1EF03BEF1FF051
:103D000001015C6B120001C05CF11200A6B286EFEB
:103D10001EF05CC1A9FFA66AA68001015C2BA8CF9A
:103D200000F0120001C0DCFFA6B294EF1EF05CC1EF
:103D3000A9FF00C0A8FFA66AA684F2CF01F0550E25
:103D4000F29EA76EAA0EA76EA68201BEF28EA69460
:103D500001015C2BDDCF01F01200A6B2ADEF1EF029
:023D600012004F
:0E3D620012011001FF00FF08C016C805400046
:103D7000020300010902200001010080FA09040089
:103D80000002FF00FF000705010240000107058156
:103D900002400001040309041403456D62656420B8
:103DA000496E632E0355534250726F67205049434A
:103DB0002070726F6772616D6D6572000004000F94
:013DC0000002
:0E3DC200366A376A386A396A3D6A3E6A3F6A75
:103DD000128A406A3A6A3B6A3C6A3C0E416E780E2F
:103DE000426E436AF90ECB6E1C0ECA6ECC6A9E926E
:083DF0009D82F28CF28E12009C
:083DF8000D00000000010001B4
:103E0000010101010101010900000000010101019E
:103E100001010F0000000001010101010101010188
:063E20000101010101B1E6
:0A3E260040C055F1F2EC16F011A6B1
:103E300002D011961386B0EC00F0BCEC1BF04050A1
:103E40000101551905E0552B0A0E006E3FEC0DF0EF
:023E5000ECD7AD
:0E3E5200C26A0F0EC16E070EB46EF18E896A41
:103E60002F0E926E8A6A800E936E040E8B6EF00E89
:063E7000946E846A12004A
:0A3E76008998720E446E170E456E17
:103E8000466A58EC1CF0C9EC1CF079EC0AF013EF10
:023E90001FF021
:0E3E920008C0DCFF0450002605500122065037
:0C3EA000022207500322DDCF08F01200C0
:043EAC0020EE5FF0B5
:023EB0001200FE
:020000040030CA
:0E000000E13FF6FEFFF99AFFFFFFFFDFFFFF73
:0200000400F00A
:080000000755534250726F676F
:00000001FF
