:020000040000FA
:06000000F26A28EF1DF07A
:020006000000F8
:08000800E9CFDCFFEACFDCFFC9
:100010009EAA02D053EF1BF09EAC02D04FEF19F016
:100020009EB201D0FF009E92C2823D503E103F1012
:10003000D8B40AD0010E3D5E000E3E5A3F5A3D50E4
:100040003E103F10D8B4128A12A205D0129249C0B5
:10005000BDFF48C0BEFF12A405D012944BC0BAFF2A
:100060004AC0BBFF412E09D03C0E416E392E05D04F
:10007000127C375012AC3850396E0E0E4306D8A0A1
:10008000436E365012AC36380F0B435CD8A002D00A
:100090008B9001D08B80422E0CD0780E426E402A7D
:1000A0003A52D8A43A063B52D8A43B063C52D8A4B4
:0C00B0003C06DDCFEAFFDDCFE9FF1100C8
:0400BC000101A40E8C
:1000C000196F010E1A6F000E1B6F010E186F1200D0
:1000D00000C013F101C014F102C015F103C016F104
:1000E00008C017F1FC041F0B016E0101186F01EE2F
:1000F00019F0FDCFEEFFFECFEEFFFFCFEEFF0600C3
:10010000012EF7D7120001C0DCFFDDCF01F0E0DFE8
:1001100001C0DCFF016AE1EC0CF001B0F6D728EC7D
:100120001CF0DDCF01F0120001C0DCFF016AE4EC3D
:100130000CF001A006D0DDCF01F0CADF01C0DCFF6A
:10014000F5D7DDCF01F0120012BA1200C1DF20ECAA
:100150001BF0FAD7BDDF13B0FDD713801382120056
:10016000010101EE18F01851016E030DF350E9265C
:10017000014E08D00500ED50FF6EED50FE6EED50C3
:10018000FD6EF6D713C100F014C101F015C102F0E5
:1001900016C103F017C108F01B51FB6E1A51FA6E1D
:1001A0001951F96E95DF016AE1EC0CF001B0FAD754
:1001B0000050016E5908D8A0F5D70FD8025003108F
:1001C000D8B4F0D7060E0226020E0320FA6E000EF7
:1001D000FB6E000EFB220250F96E036AD8900134C8
:1001E000026E0336060E0224F66E020E0320F76E30
:1001F000000EF86E000EF8220900F5CF02F009009B
:10020000F5CF03F012000000B400B8000000C400F5
:10021000E000BA01D6017A02860292029E02AA0288
:10022000BA02D002F00200000000320300003E03D8
:10023000560362038A03F803A803C80300000604F8
:1002400078041A053C04480452042E043604A00520
:1002500094046C042603D403A2060000CE06E20632
:10026000F6060000000006074E07000060090C01BA
:100270004201FA01260232060000D4045C0742055E
:100280007A038C078007B0074A03C407F2071C08EB
:10029000B0046E03000000001E08320846085A0829
:1002A0006E0882089608AA08BE08D208E608FE086A
:1002B0001E093A09820192015A02D2EF00F0A4EC21
:1002C00000F0C9EC0DF0D2EF00F083EC00F000502C
:1002D000070B010F086E83EC00F0A4EC00F06CEC4F
:1002E00010F0D2EF00F083EC00F000500F0B010F84
:1002F000086E83EC00F000C002F083EC00F000C058
:1003000001F002C000F0A4EC00F06CEC10F0D2EFB1
:1003100000F083EC00F000501F0B010F086E83EC1F
:1003200000F000C003F083EC00F000C001F083ECAB
:1003300000F000C002F003C000F0036AA4EC00F07B
:100340006CEC10F0D2EF00F083EC00F000501F0BCB
:10035000010F086E83EC00F000C003F083EC00F0A6
:1003600000C001F083EC00F000C002F083EC00F06C
:1003700000C004F003C000F004C003F0A4EC00F0DF
:100380006CEC10F0D2EF00F083EC00F0A4EC00F085
:1003900028EC11F0D2EF00F083EC00F000C003F085
:1003A00083EC00F000C001F083EC00F000C002F02C
:1003B00003C000F0A4EC00F05EEC11F0D2EF00F00E
:1003C00083EC00F00050070B010F086EA4EC00F066
:1003D000E5EC10F094EC00F0D2EF00F083EC00F0CC
:1003E00000500F0B010F086EA4EC00F0E5EC10F0CC
:1003F00094EC00F001C000F094EC00F0D2EF00F0BB
:1004000083EC00F000501F0B010F086EA4EC00F00D
:10041000E5EC10F094EC00F001C000F094EC00F07A
:1004200002C000F094EC00F0D2EF00F083EC00F09A
:1004300000501F0B010F086EA4EC00F0E5EC10F06B
:1004400094EC00F001C000F094EC00F002C000F069
:1004500094EC00F003C000F094EC00F0D2EF00F058
:10046000A4EC00F0D9EC11F094EC00F001C000F025
:1004700094EC00F002C000F094EC00F0D2EF00F039
:10048000A4EC00F031EC10F0D2EF00F0A4EC00F09E
:100490002BEC10F0D2EF00F0A4EC00F042EC10F0E6
:1004A000D2EF00F0A4EC00F03CEC10F0D2EF00F042
:1004B000A4EC00F04DEC10F094EC00F0D2EF00F062
:1004C000A4EC00F00EEC10F0006A13BC008094EC79
:1004D00000F0D2EF00F083EC00F000C001F083ECFC
:1004E00000F0A4EC00F001C044F000C045F0C9ECFD
:1004F0001AF0D2EF00F0010E006E94EC00F0190E2D
:10050000006E94EC00F01D0E006E94EC00F0260ED0
:10051000006E94EC00F0006A94EC00F094EC00F0B3
:1005200094EC00F094EC00F0D2EF00F0020E006EBC
:1005300094EC00F0D2EF00F0A4EC00F0B2EC1AF072
:10054000D2EF00F0A4EC00F069EC1AF0D2EF00F06A
:1005500083EC00F0BCEC1AF0D2EF00F0A4EC00F059
:1005600001EC18F0D2EF00F0A4EC00F0C0EC17F0B2
:10057000D2EF00F0A4EC00F0ADEC17F0D2EF00F0F9
:1005800083EC00F0A4EC00F031EC18F0D2EF00F0B6
:1005900083EC00F0139E00BE138E009E00501C6E74
:1005A0002C6A2D6A2E6A61EC0DF0D2EF00F083EC1C
:1005B00000F000C01DF0010E226E50EC1AF0A4EC09
:1005C00000F0A60E006E31EC18F0D2EF00F083ECD4
:1005D00000F000C01EF0D2EF00F083EC00F000C08D
:1005E00001F083EC00F000C002F083EC00F001C0E9
:1005F0002CF002C02DF000C02EF0D2EF00F01498C5
:10060000A4EC00F0E8EC0DF0D2EF00F083EC00F089
:1006100000C001F083EC00F000C002F083EC00F0B9
:1006200001C026F002C027F000C028F043EC0FF014
:10063000D2EF00F0DDEC0DF0D2EF00F0149AD2EF23
:1006400000F083EC00F000501F6ED2EF00F014A811
:10065000D2EF00F0149804D014B8D2EF00F0148850
:10066000261C296E271C2A6E281C2B6E149AD2EF8A
:1006700000F0A4EC00F02BEC1CF0D2EF00F0A4ECA6
:1006800000F07FEC0FF094EC00F001C000F094EC6F
:1006900000F0DDEC0DF0D2EF00F0A4EC00F0080E5D
:1006A000026E7FEC0FF094EC00F0DDEC0DF0022E0A
:1006B000F8D7D2EF00F0A4EC00F0400E026E7FEC11
:1006C0000FF094EC00F001C000F094EC00F0DDECD1
:1006D0000DF0022EF4D7D2EF00F0FC0E2616FEEC41
:1006E00007F05DEC08F094EC00F001C000F094EC31
:1006F00000F002C000F094EC00F003C000F094ECB5
:1007000000F004C000F094EC00F005C000F094ECA0
:1007100000F0040E2626000E27222822D2EF00F039
:1007200083EC00F000C002F083EC00F000C001F0A8
:1007300002C000F02BEC1CF0A4EC00F0B7EC0FF0C2
:10074000DDEC0DF0D2EF00F02BEC1CF0080E086E83
:10075000250E026E010E036E83EC00F002C0E9FF6D
:1007600003C0EAFF00C0EFFF022AD8B0032A082E18
:10077000F3D70168080E086E250E026E010E036E97
:1007800002C0E9FF03C0EAFFEFCF00F0022AD8B0B1
:10079000032AA4EC00F0B7EC0FF0DDEC0DF0082E0E
:1007A000EFD7D2EF00F02BEC1CF0A4EC00F0B3EC90
:1007B00014F0030E036E83EC00F00050026E83EC25
:1007C00000F00050016E0D0E0352D8B40F0E006EF3
:1007D000040E086E6CEC10F00250006E100E086EE5
:1007E0006CEC10F0030603AEE6D7006A030E086E49
:1007F0006CEC10F031EC10F00E0E446E456A466A57
:10080000C9EC1AF0080E2626D8B0272AD8B4282A10
:10081000149AA4EC00F02BEC10F0010E446E456A23
:10082000C9EC1AF03AEC1BF0006A016A100E086E6F
:100830006CEC10F0D2EF00F02BEC1CF0F80E26164A
:1008400083EC00F000C001F083EC00F000C002F087
:1008500083EC00F0A4EC00F0B2EC09F083EC00F0C3
:1008600000C001F083EC00F000C002F083EC00F067
:10087000C5EC09F083EC00F000C001F083EC00F05F
:1008800000C002F083EC00F0FCEC09F083EC00F017
:1008900000C001F083EC00F000C002F083EC00F037
:1008A00004EC0AF0D2EF00F083EC00F0046A005090
:1008B000016E5908D8A008D0EDEC00F002500310EA
:1008C000D8B402D0010E046E04C000F094EC00F025
:1008D000D2EF00F071EC19F094EC00F001C000F0E0
:1008E00094EC00F0D2EF00F08AEC19F094EC00F0F8
:1008F00001C000F094EC00F0D2EF00F0A4EC00F0A6
:1009000047C000F094EC00F0D2EF00F083EC00F070
:10091000A4EC00F0A9EC0DF0A4EC00F048EC10F011
:1009200037EC10F0ADEC17F0A4EC00F0005003E150
:1009300055EC1AF00AD0FA08FA0ED8A0006EBCECFA
:100940001AF0A4EC00F0B2EC1AF0A4EC00F0158060
:10095000D2EF00F0A4EC00F0C9EC0DF01580D2EF5E
:1009600000F083EC00F000C001F083EC00F000C068
:1009700002F083EC00F001C02FF002C030F000C0A4
:1009800031F0D2EF00F083EC00F000C022F0D2EFA3
:1009900000F083EC00F00050026E83EC00F0005099
:1009A000016E83EC00F00250236E0150246E005063
:1009B000256ED2EF00F0410E006E94EC00F0030EB5
:1009C000006E94EC00F0D2EF00F0AAEC00F0B1EC75
:1009D0001CF083EC00F000C001F00152D8B406D046
:1009E000010683EC00F0C2EC1CF0F7D7CAEC1CF057
:1009F00013921390D2EF00F0AAEC00F092EC1CF0EE
:100A000094EC00F000C001F00152D8B406D0010609
:100A1000A7EC1CF094EC00F0F7D713921390D2EFF0
:100A200000F0FF0083EC00F000C02DF183EC00F03B
:100A300000C02EF1D2EF00F083EC00F000C02FF1E7
:100A400083EC00F000C030F1D2EF00F083EC00F056
:100A500000C031F183EC00F000C032F1D2EF00F0C1
:100A600083EC00F000C033F183EC00F000C034F1FF
:100A7000D2EF00F083EC00F000C035F183EC00F021
:100A800000C036F1D2EF00F083EC00F000C037F187
:100A900083EC00F000C038F1D2EF00F083EC00F0FE
:100AA00000C039F183EC00F000C03AF1D2EF00F061
:100AB00083EC00F000C03BF183EC00F000C03CF19F
:100AC000D2EF00F083EC00F000C03DF183EC00F0C9
:100AD00000C03EF1D2EF00F083EC00F000C03FF127
:100AE00083EC00F000C040F1D2EF00F083EC00F0A6
:100AF00000C001F083EC00F001C020F000C021F044
:100B0000D2EF00F01B0E006E94EC00F0B70E006EFA
:100B100094EC00F0006A94EC00F0006A94EC00F0B1
:100B2000D2EF00F0A4EC00F083EC00F00028016E9E
:100B300083EC00F095EC1BF0012EFAD7D2EF00F019
:100B4000A4EC00F080EC1BF094EC00F00050D8B462
:100B5000D2EF00F0016E83EC1BF094EC00F0012E5C
:100B6000FAD7D2EF00F083EC00F000C001F083EC84
:100B700000F00150040832E3000EFB6EFA6AD890D0
:100B80000136FA360136FA36980E01260B0EFA2295
:100B9000000EFB220150F96EEEEF05F0D6EF05F0E6
:100BA000DCEF05F0E2EF05F0E8EF05F0E00E016E96
:100BB0003B0E026E000E18D0F90E016E3B0E026E57
:100BC000000E12D0EF0E016E3B0E026E000E0CD026
:100BD000090E016E3C0E026E000E06D0000E006E75
:100BE00094EC00F0D2EF00F0F86E02C0F7FF01C005
:100BF000F6FF09000050F55ED8A0F0D7F626000EEB
:0C0C0000F722F8220800F5CF00F0EAD738
:040C0C00010E326E35
:100C1000400E336E080E346E400E356E0101010E2B
:100C2000456F120003C0DCFF08C0DCFF0101452F47
:100C30002DD000C0DCFF01C0DCFF02C0DCFF1C0EB9
:100C4000086E006A016A026A036A6CEC10F06CECD0
:100C500010F0006A100E016E400E026E036A200E44
:100C600013B8016E6CEC10F0006A016A026A036A44
:100C70006CEC10F013AA04D06CEC10F06CEC10F0DB
:100C8000DDCF02F0DDCF01F0DDCF00F000C0DCFFF2
:100C900001C0DCFF02C0DCFF036AD89000360136D9
:100CA0000236033600360136023603360036013688
:100CB0000236033600360136023603361C0E086E45
:100CC0006CEC10F0DDCF02F0DDCF01F0DDCF00F0F5
:100CD000DDCF08F0DDCF03F0120000C0DCFF01C063
:100CE000DCFF02C0DCFF006A016A026A9BDFDDCF25
:100CF00002F0DDCF01F0DDCF00F0120013AA01D029
:100D0000ECDF120013AA03D0E8DFE7DFE6DF120012
:100D100002C0DCFF03C0DCFF08C0DCFFDEDF010E29
:100D2000006E016A0C0E086E6CEC10F0100E086E6E
:100D3000E5EC10F0E3DFDDCF08F0DDCF03F0DDCF31
:100D400002F01200020E1CD0120E1AD0220E18D081
:100D5000320E16D0420E14D0520E12D0620E10D0A7
:100D6000720E0ED0820E0CD0920E0AD0A20E08D0B7
:100D7000B20E06D0C20E04D0D20E02D0E20E00D0C7
:100D800000C0DCFF01C0DCFF02C0DCFF026E0234E9
:100D9000003601360236023400360136023602349D
:100DA00000360136023602340036013602363ADFAA
:100DB000DDCF02F0DDCF01F0DDCF00F01200000E3C
:100DC0001ED0010E1CD0020E1AD0030E18D0040E35
:100DD00016D0050E14D0060E12D0070E10D0080E35
:100DE0000ED0090E0CD00A0E0AD00B0E08D00C0E35
:100DF00006D00D0E04D00E0E02D00F0E00D000C093
:100E0000DCFF01C0DCFF02C0DCFFEECF00F0EDCF65
:100E100001F00090026AD8900036013602360036A2
:100E2000013602360036013602360012880E0212F2
:100E3000F9DEDDCF02F0DDCF01F0DDCF00F01200F2
:100E4000000E1ED0010E1CD0020E1AD0030E18D0B8
:100E5000040E16D0050E14D0060E12D0070E10D0B8
:100E6000080E0ED0090E0CD00A0E0AD00B0E08D0B8
:100E70000C0E06D00D0E04D00E0E02D00F0E00D0B8
:100E800000C0DCFF01C0DCFF02C0DCFFEECF00F0E1
:100E9000EDCF01F00090026AD8900036013602369C
:100EA0000036013602360036013602360012800E58
:100EB0000212B8DEDDCF02F0DDCF01F0DDCF00F0B1
:100EC000120001EE37F097DF08DF120001014551F3
:100ED000F00B010ED8B4456F120000C0DCFF01C05A
:100EE000DCFF0A0E006E016A3BDF34C000F035C043
:100EF00001F038DF040E006E400E016E35DF32C0A7
:100F000000F033C001F032DF550E006E016A30DFB1
:100F1000AA0E006E016A2EDF006A016A2DDF006AE8
:100F2000016A2CDFCEDF296A2A6A2B6ADDCF01F045
:100F3000DDCF00F0120000C0DCFF01C0DCFF02C00A
:100F4000DCFF26502918006E27502A18001228505E
:100F50002B1800101FE014B80CD028502B6E006E18
:100F6000016A0CDF2650296E006E27502A6E016E32
:100F70000ED07F0E006E016A01DFD8902634006E1D
:100F80002734016E2F500026305001220112F4DE6A
:100F900098DFB4DEDDCF02F0DDCF01F0DDCF00F071
:100FA000120001014569149E3AEC1BF013B80BD0F6
:100FB00094DE93DE006A010E016E040E026E12ECE6
:100FC00006F08BDE16D0006A016A026A036A050E1B
:100FD000086E6CEC10F081DE91DE90DE006A020E8D
:100FE000016E040E026E12EC06F077DE76DE86DE0F
:100FF00085DE0101456971DF69EF0EF000C0DCFF9D
:1010000001C0DCFF2650006EFC0B266E0101466F0E
:1010100027C047F128C048F18EDF00C026F09D0EA2
:10102000006EDB0E016EBA0E026E12EC06F055DE9B
:1010300054DE68DEBD0E006E016ABA0E026E12EC5E
:1010400006F04BDE4ADE5EDE9D0E006ED30E016EB4
:10105000BA0E026E12EC06F040DE3FDE53DE3D0EAD
:10106000006E010E016EBA0E026E12EC06F035DE55
:1010700034DE48DE01EE35F0A4DE4ADE00C049F180
:1010800001C04AF101EE35F09EDE42DE00C04CF1B7
:1010900001C04DF101EE35F09CDE3ADE00C04BF1AF
:1010A00001C04EF12950040F296E000E2A22148E21
:1010B000DDCF01F0DDCF00F0120049C100F04AC1E0
:1010C00001F04BC102F04CC103F04DC104F04EC120
:1010D00005F0120014B821D014AE0CD02650FC0B31
:1010E000006E0101461906E12750471903E1285017
:1010F000481901E083DF2650030B01EE4AF0E8B205
:1011000001EE4DF0E8B005D0EDCF01F0EFCF00F0EB
:101110001AD0ECCF00F0016A16D00DDF2628296E18
:10112000000E27200F0B2A6E2B6ABD0E006E016A7F
:10113000BA0E026E12EC06F0D0DDCFDDE3DD01EE7B
:1011400035F03FDEE5DDB0EF0FF0FA0E006E016A1C
:10115000F9DD01EE37F033DE006A016AF3DDBDDD53
:10116000370E006EC80E016EBB0E026E12EC06F05A
:10117000B4DDB3DD010E006E180E016EBB0E026E03
:1011800012EC06F0AADDA9DD270E006EC80E016E76
:10119000BB0E026E12EC06F0A0DD9FDD020E006EAB
:1011A000180E016EBB0E026E12EC06F096DD95DD98
:1011B00000680168C7DD01EE35F001DE01EE3DF0AB
:1011C00018DE01EE3FF017DE01EE39F00CDE85DDB2
:1011D00084DD01EE3BF009DE80DD01EE3BF007DE51
:1011E000290E006EE70E016EA80E026E12EC06F0DC
:1011F00074DD73DD72DD71DD70DDCD6A0F0E006EA2
:10120000016A2050005E2150015A02E20068016824
:1012100001C0CFFF00C0CEFF9E90CD80040E2926D6
:10122000000E2A22040E2626000E272228229EA027
:10123000FED753DD01EE39F003DE4FDD01EE35F070
:10124000BEDD66DDF00E00168F0E01140010F1E118
:101250004D0E006E016AB00E026E12EC06F0120026
:1012600035DE149E13B80FD03B0E006E016E880E53
:10127000026E12EC06F03C0E006E3B0E016E880E04
:10128000026E12EC06F0610E006EE70E016EA80E03
:10129000026E12EC06F021DD20DD1FDD1EDD1F5089
:1012A000446E456A466A3AEC1BF013B80BD0610EE7
:1012B000006EE70E016EA90E026E12EC06F00DDD57
:1012C0000CDD14D00ADD006A3B0E016E800E026E4A
:1012D00012EC06F0200E006E3C0E016E880E026EBF
:1012E00012EC06F0FADC14DD01BEECD71200149EFD
:1012F00014B81DD026B034D02B6A1DDE23DD080EB5
:10130000006E3B0E016E880E026E12EC06F0800E2F
:10131000006E1E0E016EBB0E026E12EC06F0DDDCDE
:10132000DCDC9EDF020E2926000E2A2219D003DE05
:1013300009DD090E006E3B0E016E880E026E12EC86
:1013400006F0800E006E1E0E016EBB0E026E12ECD9
:1013500006F0C3DCC2DC84DF010E2926000E2A223F
:1013600000EF10F0E8DD00C003F001C000F002C0A3
:1013700001F0EADC13BA08D02204261405E101EEDC
:1013800037F039DDAADCA9DC120000C004F001C08E
:1013900000F002C001F0DADC03C000F004C001F08C
:1013A000DBDC13BAD2D6B70E006ECE0E016EBB0ECA
:1013B000026E12EC06F091DC90DC810E006E1E0EC7
:1013C000016EBB0E026E12EC06F087DC86DCA70E07
:1013D000006ECE0E016EBB0E026E12EC06F07DDCCE
:1013E0007CDC820E006E1E0E016EBB0E026E12ECD5
:1013F00006F073DC72DC120000C003F001C000F0E4
:1014000002C001F0A1DC120013BABFD700C004F083
:1014100001C000F002C001F099DC03C000F004C07C
:1014200001F09ADCB70E006ECE0E016EBB0E026E9E
:1014300012EC06F052DC51DC810E006E1E0E016EC5
:10144000BB0E026E12EC06F048DC47DCA70E006E05
:10145000CE0E016EBB0E026E12EC06F03EDC3DDCE1
:10146000820E006E1E0E016EBB0E026E12EC06F0B6
:1014700034DC33DC080E2626000E27222822080E34
:101480002926000E2A222204261404E101EE39F056
:06149000AADCE6DE1200FA
:0A14960020042E043B044904FFFF6C
:1014A000FFFFFFFFFFFFFFFFFFFFFFFFFFFFFFFF4C
:1014B000FFFFFFFFFFFFFFFFFFFFFFFFFFFFFFFF3C
:1014C000FFFFFFFFFFFFFFFFFFFFFFFFFFFFFFFF2C
:1014D000FFFFFFFFFFFF4F68506A1198119E010147
:1014E000DC0E836F050E846F6D6A160E6F6E6B686F
:1014F000120000C0DCFF01C0DCFF02C0DCFF03C043
:10150000DCFF82D86D86118E850E006E010E016E95
:101510004C0E026E150E036E78EC16F0E1EC16F030
:10152000DDCF03F0DDCF02F0DDCF01F0DDCF00F045
:1015300012004FC000F055EC17F011AA02D0B0EC29
:101540001CF04F686D6A119E119812004CC04FF04C
:10155000506A119C0101DC0E836F050E846FE1EC73
:1015600016F044DA11B0FBD7E1EC16F057EC12F0AC
:10157000F6D700C0DCFFEFA644D0040EEBCF00F09E
:10158000050EEB500010D8A43CD0010EEBCFE1FFCC
:10159000000EEFB4040FE126040EE26EEF9CE7505C
:1015A0003C0B340AD8B4EF8CEF9AE650030B006E74
:1015B000050E00C0EBFF040EE7CFEBFFE650001076
:1015C000D8B4EF8AE650EF34060B090FEBCFE5FFF6
:1015D000FF0FEBCFE5FF020EEBCFE5FF030EEB5065
:1015E000E76EE78E010EEFB0030EEFB2020EEF1AB8
:1015F000EF96EFB8EF86EF98EF74060EEB6A010FE7
:10160000EB6ADDCF00F0120000C0DCFF01C0DCFFA0
:1016100011981186706A716A726A736A746A756A5F
:10162000766A776A786A796A7A6A7B6A7C6A7D6A9E
:101630007E6A7F6A04EE00F0200E006EEE6A002ED5
:10164000FDD70401380E206F000E216F080E226FA7
:10165000236B246B256B560E286F040E296F5E0ECC
:101660002A6F040E2B6F660E2C6F040E2D6F180E52
:101670002E6F2F6B080E306F080E316F326B336B8D
:10168000346B6E0E356F040E366F760E376F040EA8
:10169000386F7E0E396F040E3A6F380E3B6F100EA6
:1016A0003C6F400E3D6F3E6B3F6B406B860E436F51
:1016B000040E446FC60E456F040E466F060E476F4C
:1016C000050E486F180E496F020E4A6F180E4B6FC9
:1016D000400E4C6F4D6B4E6B4F6B460E506F050EB0
:1016E000516F860E526F050E536FC60E546F050E66
:1016F000556F04EE20F03DDF3CDF6E6A686A696A70
:101700006D8CE90E6D166D866D9C68A602D068968C
:10171000FCD7160E706E1182DDCF01F0DDCF00F028
:1017200012000401380E3B6F100E3C6F400E3D6FEF
:101730003E6B3F6B406B860E436F040E446FC60ECC
:10174000456F040E466F060E476F050E486F180E64
:10175000496F020E4A6F180E4B6F400E4C6F4D6B67
:101760004E6B4F6B460E506F050E516F860E526FCB
:10177000050E536FC60E546F050E556F04EE3BF009
:10178000F8DEF7DE160E706E1E0E716E11881200F6
:1017900000C0DCFFEFA64CD0EFBE4AD0050EEBCF69
:1017A00000F0060EEB500012D8A406D0010EEBB4E8
:1017B00002D0EFAC3DD0EF9C020EEBCFE1FF030E69
:1017C000EFB4040FE126040EE26EEF34060B080FAF
:1017D000EBCFE5FFFF0FEBCFE5FF050EEBCFE5FF0E
:1017E000060EEB500809E76E010EEBB0E78CEB70CC
:1017F000E78E010EEBA20AD0EB94030EEBCF00F0C4
:10180000050EEB50001A02E1010EEB84010EEFB061
:10181000030EEFB2020EEF1AEF96EFB8EF86EF98D5
:10182000EF74EF9AEFBCEF8A050EEB6A010FEB6ADB
:10183000DDCF00F01200F00E0116030E0112EFAC26
:1018400008D0060EEB52D8A404D00752EB52D8B4FD
:101850000184EFBA26D0019201B823D00190EF3471
:10186000060B080FEBCFE1FF010FEBCFE2FF060EF7
:10187000EB50E126070EEB50E222060EEB2A070E94
:10188000D8B0EB2A040EEB06EBCF00F0050ED8A083
:10189000EB06EB500012E7CF00F0D8A402D0EF8A9D
:1018A00068DE120002C0DCFF03C0DCFFF00E011690
:1018B000030E0112EFBA2ED0019201BAEF8E01B8D9
:1018C00029D0019001AAEF9EEF34060B070FEBCF52
:1018D000E1FF010FEBCFE2FF050EEB50E126060E14
:1018E000EB50E22200C0E7FF050EEB2AEBCF02F03F
:1018F000060ED8B0EB2AEBCF03F0030EEB50021824
:10190000D8A407D0040EEB500318D8A402D0EF8A55
:10191000EF9E3EDFDDCF03F0DDCF02F01200F00ED0
:101920000116030E0112EFBC14D0019201B811D0C0
:10193000EF9E01BC0AD0EFBA08D0050EEB52D8A436
:1019400007D0060EEB52D8A403D00190EF8CEF8A9B
:101950001FDF120002C0DCFFF00E0116030E0112A1
:10196000050EEBCF02F0060EEB500210D8A407D004
:101970000184EF50180B180AD8B4018609D0EFA6DD
:1019800007D0019201B804D001900184EF9E00DFDE
:10199000DDCF02F0120004EE20F04DD7708012006F
:1019A00004EE2EF07FD704EE2FF0EF90120004EE3D
:1019B0002FF0EF80120004EE2EF0CCD704EE2EF0C4
:1019C000AED704EE3BF037D704EE49F06BD704EE08
:1019D0004AF0EF90120004EE4AF0EF80120004EE9D
:1019E00049F0B8D700C082F111841200119068A2AA
:1019F00005D011806A506A6A5012120068A003D0A4
:101A0000118002DE120068A624D06CCF00F0689628
:101A1000140EF76E000EF86E00403E0B960FF66E39
:101A2000000EF722F8220900F5CFE9FF0800F5BE05
:101A300010D0F5CFEAFF1180EF300018020B080E2E
:101A4000D8A4100EEF1200B402D093DD1200A0DE75
:101A5000120068AC04D0689C118C1180120068AA36
:101A600003D0689A1180120068A803D0689811808A
:101A7000120068A403D0689411801200120011AE05
:101A80001FD011AC06D0119C0101640E836F846BD2
:101A900017D001010050835F000E845B04E3835183
:101AA0008411D8A40DD06D6A119E1198E20E446E77
:101AB0002E0E456E466AC9EC1AF03AEC1BF0FF0098
:021AC000120012
:0E1AC200206A216A010E326E400E336E080E4D
:101AD000346E400E356E1398139A0101A60E2D6FC9
:101AE0000F0E2E6FA90E2F6F0F0E306FAA0E316FD3
:101AF0000F0E326FA80E336F0F0E346F840E356FDA
:101B0000070E366F320E376F386B600E396F070E67
:101B10003A6F660E3B6F070E3C6F620E3D6F070E0D
:101B20003E6F640E3F6F070E406F12001C6A1D6A05
:101B30001E6A780E1F6E266A276A286A296A2A6A30
:101B40002B6A2C6A2D6A2E6A2F6A306A316AB9DFD5
:101B5000120013BE04D0C0EC17F03AEC1BF02BECD3
:101B600010F03AEC1BF03CEC10F03AEC1BF069EC96
:101B70001AF013AE04D03AEC1BF0C0EC17F05A0E7A
:101B8000446E020E456E466AC9EC1AF03AEC1BF040
:101B9000120048EC10F037EC10F055EC1AF03AEC6B
:101BA0001BF0ADEC17F03AEC1BF05A0E446E020E2F
:101BB000456E466AC9EC1AF01200262A000E27224A
:101BC00028221200292A000E2A222B22148C12000D
:101BD00000C0DCFF01C0DCFF02C0DCFF03C0DCFF93
:101BE00008C0DCFF2CC029F02DC02AF02EC02BF03D
:101BF000149A149C3AEC1BF0ACDF3AEC1BF01C502E
:101C0000D8B432D00D08D8A02FD01C0EFA6E000E1A
:101C1000FB6E1C04E846E846030BFA26D8B0FB2A04
:101C20001C04E846E846FC0B340FD8B0FA2AD8B0BA
:101C3000FB2AF96E74EF0EF07CEF0EF07DEF0EF0E4
:101C40007CEF0EF07CEF0EF0B9EF0EF0F5EF0EF03A
:101C5000F9EF0EF084EF0EF002EF0FF0D7EF0EF079
:101C600003EF0FF0A3EF0EF01C50D8B432D00D08E4
:101C7000D8A02FD01C0EFA6E000EFB6E1C04E84696
:101C8000E846030BFA26D8B0FB2A1C04E846E846CF
:101C9000FC0B9E0FD8B0FA2AD8B0FB2AF96E69EF78
:101CA0000EF069EF0EF069EF0EF0D1EF07F069EF7B
:101CB0000EF069EF0EF0D1EF07F0D1EF07F069EF0A
:101CC0000EF0D1EF07F069EF0EF0D1EF07F069EFFA
:101CD0000EF0DDCF08F0DDCF03F0DDCF02F0DDCF79
:101CE00001F0DDCF00F01200148A01EC18F03AEC9C
:101CF0001BF0B2EC1AF0B8D7148AB2EC1AF03AEC36
:101D00001BF001EC18F0B0D7149AB2EC1AF03AECD0
:101D10001BF00E0E446E456A466AC9EC1AF03AECA6
:101D20001BF0500E006E480E016E430E026E4D0EFB
:101D3000036E200E086E6CEC10F0006A010E086E47
:101D40006CEC10F091D7148AC0EC17F03AEC1BF051
:101D5000B2EC1AF03AEC1BF0B20E006EC20E016E3D
:101D6000120E026E0A0E036E200E086E6CEC10F05E
:101D70007BD7148AC0EC17F03AEC1BF069EC1AF030
:101D80003AEC1BF0B2EC1AF03AEC1BF045EC18F010
:101D9000B20E006EC20E016E120E026E0A0E036EBD
:101DA000200E086E6CEC10F001EC18F05DD7148A70
:101DB000C0EC17F03AEC1BF069EC1AF03AEC1BF0AF
:101DC000B2EC1AF03AEC1BF001EC18F03AEC1BF014
:101DD000B20E006EC20E016E120E026E0A0E036E7D
:101DE000200E086E6CEC10F03FD7346A400E356E52
:101DF00010D0040E326E400E336E040E346E400E60
:101E0000356E07D006D0010E346E400E356E138A43
:101E100000D01388148AC0EC17F03AEC1BF069EC80
:101E20001AF03AEC1BF0B2EC1AF03AEC1BF00E0E82
:101E3000446E456A466AC9EC1AF03AEC1BF045EC70
:101E400018F03AEC1BF01A0E446E456A466AC9EC6B
:101E50001AF03AEC1BF0B20E006EC20E016E120EBA
:101E6000026E8A0E036E200E086E6CEC10F001EC10
:101E700018F03AEC1BF0660E446E020E456E466A90
:101E8000C9EC1AF0F1D600C0DCFF01C0DCFF02C0D3
:101E9000DCFF03C0DCFF08C0DCFF1E50D8B424D038
:101EA0000608D8A021D01E0EFA6E000EFB6E1E048E
:101EB000E846E846030BFA26D8B0FB2A1E04E8469B
:101EC000E846FC0BD00FD8B0FA2AD8B0FB2AF96E3E
:101ED00074EF0FF074EF0FF0F8EF1BF074EF0FF0EA
:101EE00074EF0FF074EF0FF0DDCF08F0DDCF03F0EB
:101EF000DDCF02F0DDCF01F0DDCF00F0120002C037
:101F0000DCFF03C0DCFF08C0DCFF1E50D8B428D0C3
:101F10000808D8A025D01F0EFA6E000EFB6E1E0416
:101F2000E846E846030BFA26D8B0FB2A1E04E8462A
:101F3000E846FC0B400FD8B0FA2AD8B0FB2AF96E5D
:101F4000ECEF19F06BEF14F0FBEF1BF06AEF08F009
:101F50006BEF14F0B0EF15F088EF18F0BBEF15F051
:101F6000DDCF08F0DDCF03F0DDCF02F0120000C0BE
:101F7000DCFF01C0DCFF02C0DCFF03C0DCFF08C0E7
:101F8000DCFF14901492149414961F50446E456A0A
:101F9000466A1D50D8B434D00E08D8A031D01F0ED8
:101FA000FA6E000EFB6E1D04E846E846030BFA26A7
:101FB000D8B0FB2A1D04E846E846FC0BC80FD8B091
:101FC000FA2AD8B0FB2AF96EF7EF19F02CEF1AF0C5
:101FD00004EF1CF077EF09F02EEF1AF03EEF1AF045
:101FE00041EF1AF0C6EF14F043EF1AF03DEF1AF08C
:101FF00045EF1AF002EF16F09FEF18F015EF16F00C
:10200000DDCF08F0DDCF03F0DDCF02F0DDCF01F052
:06201000DDCF00F012001C
:0A201600340EB46E1200DD0E8A16BF
:10202000138C8A9E939E020E446E456A466AC9ECE2
:102030001AF03AEC1BF0B4BC0CD08A8E020E446E3F
:10204000456A466AC9EC1AF03AEC1BF0B4AC01D010
:10205000139C938E120000008A500809EF0B8A6EC1
:10206000120000008A501009F70B8A6E120000D08F
:102070000000E70E8A16120000008A502009FD0BAE
:102080008A6E120000008A500209DF0B8A6E12006D
:1020900000D00000DD0E8A161200006A00D000D0C9
:1020A00000D0B4BC0080120000008A501009F70B69
:1020B0008A6E00D000008A500209DF0B8A6E00D0C1
:1020C00000008A500809EF0B8A6E00D000008A5089
:1020D0002009FD0B8A6EE8D700C0DCFF01C0DCFFE1
:1020E00002C0DCFF03C0DCFF08C0DCFF00A014D08E
:1020F0008A500209DF0B8A6E8A501009F70B8A6E2C
:1021000003320232013200328A500809EF0B8A6E24
:10211000084E17D000B0ECD78A502009FD0B8A6E0C
:102120008A501009F70B8A6E0332023201320032F4
:102130008A500809EF0B8A6E084E03D000A0ECD736
:10214000D7D700D00000DD0E8A16DDCF08F0DDCF36
:1021500003F0DDCF02F0DDCF01F0DDCF00F01200A3
:1021600008C0DCFF060E086EB7DFDDCF08F01200F6
:1021700000C0DCFF01C0DCFF08C0DCFF0036013618
:102180000090019E100E086EA7DFDDCF08F0DDCFB6
:1021900001F0DDCF00F0120000C0DCFF01C0DCFF69
:1021A00002C0DCFF08C0DCFF0036013602360090BA
:1021B000029E180E086E90DFDDCF08F0DDCF02F032
:1021C000DDCF01F0DDCF00F0120008C0DCFF09C058
:1021D000DCFF8A500809EF0B8A6EDD0E8A16210E8D
:1021E000096E00008A501009F70B8A6ED8900332EE
:1021F000023201320032090600D00000B4BC038E66
:1022000000D08A500809EF0B8A6E082EEAD7094ED3
:1022100006D0D8900332023201320032F8D7DDCF37
:1022200009F0DDCF08F0120002C0DCFF03C0DCFFC4
:1022300008C0DCFF100E086EC8DF013200323F0E0E
:102240000116DDCF08F0DDCF03F0DDCF02F0120084
:1022500000C0DCFF01C0DCFF080E016E00BE12D022
:102260008A502009FD0B8A6E8A501009F70B8A6E7E
:10227000003600D08A500809EF0B8A6E014E15D047
:1022800000AEEED78A500209DF0B8A6E8A50100921
:10229000F70B8A6E003600D08A500809EF0B8A6E61
:1022A000014E03D000AEDCD7EDD700D00000DD0E2C
:1022B0008A16DDCF01F0DDCF00F0120000C0DCFF98
:1022C00001C0DCFF02C0DCFF03C0DCFF180E036EA0
:1022D00002BE13D08A502009FD0B8A6E8A50100965
:1022E000F70B8A6E0036013602368A500809EF0B6A
:1022F0008A6E034E16D002AEEDD78A500209DF0B6C
:102300008A6E8A501009F70B8A6E00360136023643
:102310008A500809EF0B8A6E034E03D002AEDAD75B
:10232000ECD700D00000DD0E8A16DDCF03F0DDCF44
:1023300002F0DDCF01F0DDCF00F0120000C0DCFFC5
:1023400001C0DCFF02C0DCFF026AD8900036013613
:102350000236B4DFDDCF02F0DDCF01F0DDCF00F0DB
:10236000120000C0DCFF01C0DCFF02C0DCFF026A1B
:102370003F0E0116D89000360136A0DFDDCF02F007
:10238000DDCF01F0DDCF00F0120000C0DCFF01C0A6
:10239000DCFF02C0DCFF016A026AD8900036013619
:1023A00002368CDFDDCF02F0DDCF01F0DDCF00F0B3
:1023B000120003C0DCFF8A500809EF0B8A6EDD0EA5
:1023C0008A16180E036E8A501009F70B8A6ED89081
:1023D00000360136023600D000D00000B4BC0080C8
:1023E0008A500809EF0B8A6E032EEDD7DDCF03F07C
:1023F000120002C0DCFFDDDF013200323F0E0116A9
:10240000DDCF02F0120001C0DCFF02C0DCFFD1DF33
:0E24100001320032DDCF02F0DDCF01F012000C
:02241E000101BA
:10242000020E6A6F250E6B6F000E6C6F010E696FE6
:102430001200016ADBEC0CF001B602D019D8F9D712
:1024400012006D98016ADBEC0CF001B402D010D8D8
:10245000F9D7D7EC0CF01200200E016ED0EC0CF086
:1024600001A002D005D8F8D70101804B812B1200C2
:1024700000C062F101C063F102C064F103C065F104
:1024800004C066F105C067F106C068F1FC041F0BCB
:10249000016E0101696F01EE6AF0FDCFEEFFFECF24
:1024A000EEFFFFCFEEFF0600012EF7D7120011A2BC
:1024B00002D0119226D0010101EE69F06951016E3E
:1024C000030DF350E926014E08D00500ED50FF6ED4
:1024D000ED50FE6EED50FD6EF6D762C100F063C1A7
:1024E00001F064C102F065C103F066C104F067C188
:1024F00005F068C106F06C51FB6E6B51FA6E6A51C3
:10250000F96E01017E6B7F6B11AA03D0B0EC1CF059
:10251000119A080E026E016ACBEC0CF001A002D0F9
:10252000A7DFF9D701A402D0080E026E01EE76F003
:1025300002500808E92600C0EFFF022EECD7010187
:10254000806B816B000EFB6E250EFA6E77510C08C6
:10255000D8A023D07735E834FC0B660FD8B0FA2A20
:10256000D8B0FB2AF96ECDEF12F0CDEF12F0CDEF1F
:1025700012F0CDEF12F0CDEF12F0B0EF13F014EF38
:1025800013F0CDEF12F0BFEF13F0B8EF13F0C7EF79
:1025900013F0C4EF13F0CDEF12F06D98CEEC0CF009
:1025A000B8D74FDF010103507D5DD8A006D0D8A475
:1025B00008D002507C5DD8B004D07CC102F07DC14F
:1025C00003F002500310D8B412D004C0F6FF05C0C7
:1025D000F7FF06C0F8FF0800F5CF00F03DDF042A42
:1025E000000E052206220206D8A00306EAD7010142
:1025F0007C51070BD8A408D07C518019D8A404D0F2
:102600007D518119D8B485D7016ADEEC0CF001A2A6
:1026100080D72EDFF9D715DF400E016EDEEC0CF00F
:1026200001A077D725DFF8D701017951FF0FD8A492
:102630000DD07853D8A4B1D71C0E046E3B0E056E96
:10264000000E066E120E026E036AABD7FF0FD8A4FF
:102650000DD07853D8A4A1D72E0E046E3B0E056E74
:10266000000E066E200E026E036A9BD7FF0FD8A4E1
:1026700094D77805D8B45DD078510308D8A08DD709
:102680007851D8A4FF0FE824750FF66E3B0ED8B032
:10269000010FF76E000ED8B0010FF86E0900F5CFEC
:1026A00004F00800F5CF05F04E0E04263B0E05227F
:1026B000000E066E000E062204C0F6FF05C0F7FFEE
:1026C00006C0F8FF0800F5CF02F0036A7851D8B4CD
:1026D00068D77D53D8A405D002507C5DD8A07CC1BA
:1026E00002F0AFDE0250D8B482D7F5CF00F0B4DEEE
:1026F000024E7DD7030E006EAFDE024E78D7020E7B
:102700000426000E0522062204C0F6FF05C0F7FFCE
:1027100006C0F8FF0800F5CF00F09EDE024E67D736
:10272000006A9ADE024E63D7042A000E05220622B2
:10273000EBD787DE92EC1CF0118A0050026E020F7C
:10274000006E8ADE030E006E87DE025205E002068E
:10275000A7EC1CF081DEF9D7B0EC1CF0119A47D73A
:1027600070DE400EDEEC0CF064DE78C16EFFD1D678
:10277000010178517E6F006E91EC0BF04CD77EC159
:1027800000F06ADE5EDE33D778C17FF144D77FC1C7
:0827900000F062DE56DE2BD7DB
:0827980008C0DCFF140E086EFE
:1027A0006CEC10F0DDCF08F0120000C0DCFF01C0BF
:1027B000DCFF02C0DCFF08C0DCFF026AD8900036F4
:1027C0000136023600360136023600360136023650
:1027D000003601360236140E086E6CEC10F0DDCFB8
:1027E00008F0DDCF02F0DDCF01F0DDCF00F0120008
:1027F00000C0DCFF01C0DCFF08C0DCFF006A040E83
:10280000086E6CEC10F00E0E016E0250006E100E91
:10281000086E6CEC10F0006A040E086E6CEC10F0A0
:102820006E0E016E0350006E100E086E6CEC10F010
:10283000DDCF08F0DDCF01F0DDCF00F0120000C0E9
:10284000DCFF01C0DCFF800E016E02340E0B0112B2
:1028500003C000F0AADFDDCF01F0DDCF00F01200F1
:1028600000C0DCFF01C0DCFF900E016E02340E0BD5
:10287000011203C000F099DFDDCF01F0DDCF00F0E1
:10288000120002C0DCFF03C0DCFF14AA0CD02650EB
:102890002918D8A408D027502A18D8A404D0285022
:1028A0002B18D8B413D0148A2650296E026EF60E57
:1028B000036E9EDF27502A6E026EF70E036E98DFBE
:1028C00028502B6E026EF80E036E92DFDDCF03F000
:1028D000DDCF02F0120014B810D0D3DF090E006E65
:1028E000016A0C0E086E6CEC10F0080E086EE5EC38
:1028F00010F0E2EC0DF0B0EF0FF0070E026E2DC1FC
:1029000003F0AEDF060E026E2DC103F0A9DF2FC16A
:1029100003F026C002F06CDF31C103F027C002F0E3
:1029200067DF000E026E2DC103F089DF500E016ECD
:1029300033C100F03ADF500E006EEF0E016E060E4E
:10294000026E2ADF006A016A026A26DF020E006E4A
:10295000016A0C0E086E6CEC10F0080E086EE5ECC7
:1029600010F0B0EF0FF000C0DCFF01C0DCFF070E7D
:10297000026E2DC103F063DF060E026E2DC103F05F
:102980006FDFDDCF01F0DDCF00F07BD714B84BD087
:1029900026B005D000C044F174DF00EF10F000C095
:1029A00001F044C100F0026AD890003601360236C8
:1029B0000036013602360036013602360036013660
:1029C0000236140E086E2204036E26140318D8B4BF
:1029D0000BD00D0E00126CEC10F0020E2926000E2A
:1029E0002A222B2200EF10F00F0E00126CEC10F0D8
:1029F000006A030E086E6CEC10F031EC10F0C9ECBC
:102A00001AF03AEC1BF02BEC10F0030E446EC9ECFC
:102A10001AF03AEC1BF0006A016A100E086E6CECBA
:102A200010F000EF10F02FC103F026C002F0E0DE3E
:102A300031C103F027C002F0DBDE33C103F000C078
:102A400002F0D6DE010E026E2DC103F0F8DE006A40
:102A5000016A026AA1DE006A016A026A9DDEC9ECAF
:062A60001AF000EF10F077
:0A2A660000C0DCFF01C0DCFF14AA71
:102A70000AD02A50275CD8A006D0D8A40BD0295061
:102A8000265CD8B007D0296A2A6A148A160E006E0E
:102A9000B0EC10F027AE0CD02ABE0AD0296A800E06
:102AA0002A6E006AB0EC10F0006A016AB8EC10F00F
:102AB00029502618006E2A5027180010D8B407D0C5
:102AC000060E006EB0EC10F0E2EC0DF0F1D7DDCFA9
:102AD00001F0DDCF00F0120000C0DCFF01C0DCFF20
:102AE00002C0DCFF2750016E2650006E14A804D0EF
:102AF0002F5000263050012214AA1DD02950001852
:102B0000026E2A500118021024E02A500118800B8E
:102B100012E12928026E000E2A2001180CE1025051
:102B2000001809E100C029F001C02AF0060E006E6D
:102B3000B0EC10F00ED000C029F001C02AF01D0E3C
:102B4000006EB0EC10F026C000F0026ACCEC10F081
:102B5000148ADDCF02F0DDCF01F0DDCF00F01200EE
:102B600082DF040E14B8050E006EB0EC10F014EC09
:102B700011F0B0EF0FF0B0DF240E006EB0EC10F0EB
:102B800014EC11F02A50800B026E292A000E2A2024
:102B90007F0B02102A6EB0EF0FF065DF0050026E5F
:102BA000020E14B8030E006EB0EC10F00250006E6E
:102BB000B8EC10F014B810D02204006E26140018DF
:102BC000D8B40AD02750245CD8A006D0D8A418D0F6
:102BD0002650235CD8B014D042C100F0B0EC10F005
:102BE000C9EC1AF014A00CD043C100F03AEC1BF071
:102BF000B0EC10F0030E446E456A466AC9EC1AF058
:102C000000EF10F00101180E426F0A0E436F14809E
:102C100027BE02D014A8C1D73E0E446E456A466A4C
:102C20000101080E426F1490B8D756DF2ABE32D089
:102C30002204026E261402180EE000C002F0220EDA
:102C4000006EB0EC10F002C000F0B8EC10F0E2EC56
:102C50000DF000EF10F000C002F0020E006EB0ECBC
:102C600010F002C000F0B8EC10F0180E006EB0ECDE
:102C700010F0C9EC1AF00A0E006E3AEC1BF0B0EC42
:102C800010F0050E446E456A466AC9EC1AF0149AB3
:102C900000EF10F000C002F0020E006EB0EC10F079
:102CA00002C000F0B8EC10F0080E006EB0EC10F0AE
:102CB0003E0E446E456A466AC9EC1AF000EF10F009
:102CC0004C6A0101000E5C6F020E5D6F010EE8CFD1
:102CD00000F2A10E5E6F000E5F6F000EE8CFA1F054
:102CE000A50E606F010E616F000EE8CFA5F1120016
:102CF00000C0DCFF01C0DCFF05C0DCFF030E056E79
:102D000011EE5CF0E6CFE9FFE6CFEAFFEF5203E019
:102D1000052EF8D7FF00DDCF05F000C0E1FF01C0B0
:102D2000E2FF00C0E6FF01C0E6FF02C0E6FF03C00D
:102D3000E6FF04C0E6FF05C0E6FF06C0E6FF07C0E9
:102D4000E6FFEE2A000E0006015AE55200C0EEFF33
:102D500001C0EEFF00C0EEFF01C0EEFFE1CFEEFFCD
:102D6000E2CFEEFF02C0EEFF03C0EEFFDDCF01F0C9
:102D7000DDCF00F0120008C0DCFF09C0DCFF0AC094
:102D8000DCFF0BC0DCFF0CC0DCFF0DC0DCFF0EC0A5
:102D9000DCFF0FC0DCFF10C0DCFF13D8DDCF10F06C
:102DA000DDCF0FF0DDCF0EF0DDCF0DF0DDCF0CF07D
:102DB000DDCF0BF0DDCF0AF0DDCF09F0DDCF08F07D
:102DC000120000C0DCFF01C0DCFF02C0DCFF03C05A
:102DD000DCFF04C0DCFF05C0DCFF06C0DCFF07C071
:102DE000DCFFE9CF00F0EACF01F001EE5CF04C44EB
:102DF000E926EE50EFCFEAFFE96EFC501F0B026EA2
:102E0000EE6E00C0EEFF01C0EEFFE1CFEEFFE2CFBD
:102E1000EEFFD9CFEEFFDACFEEFFFD50EE6EFE50A3
:102E2000EE6E0600022EF9D74C2A4C500208D8A0AC
:102E30004C6A01EE5CF04C44E926EE50EFCFEAFF1D
:102E4000E96EEF52F1E0EECF01F0EECF02F0EECFFF
:102E500003F0F29EFC6AEECFE1FFEECFE2FFEECF91
:102E6000D9FFEECFDAFFF28E0144FF0FE926000E04
:102E7000EA220500ED50FE6EED50FD6E012EF9D7F1
:102E800002C0E9FF03C0EAFFDDCF07F0DDCF06F0A7
:102E9000DDCF05F0DDCF04F0DDCF03F0DDCF02F0B4
:102EA000DDCF01F0DDCF00F0120000500208D8A005
:102EB0000DD001EE5CF00044E926EE50EFCFEAFFC2
:102EC000E96EEF6A00504C5CD8B4AED7120001EE48
:102ED0005CF04C44E926EE50EFCFEAFFE96EEF6A72
:022EE000A3D776
:0E2EE20001C0DCFF02C0DCFF12AE23D0129E46
:102EF00001015B51B108D8B005D0FA0E4A6E0C0E34
:102F00004B6E10D001015B51690DF3CF01F0F4CF8E
:102F100002F0010DF35002244A6E01320130300BF1
:102F20000C094B6E1284BA0E446E0B0E456E466A47
:102F3000C9EC1AF0DDCF02F0DDCF01F01200BB6A60
:102F40000C0EBA6EEA0E4A6E0C0E4B6E1284010124
:102F5000010E5A6FA60E5B6F12000101010E5A1B83
:102F60005A6FD8B40CD08A9C8A94020E446E456A7B
:102F7000466AC9EC1AF0129812AE01D0B2DF120004
:102F800000C0DCFF01C0DCFF0101020E5A1B5A6FBA
:102F9000D8B432D08A9C00D000D000D000D000D06D
:102FA00000D000D000D000D000D000D000D000D0A1
:102FB00000D000D000D000D000D000D000D000D091
:102FC00000D000D000D000D000D000D000D000D081
:102FD00000D000008A84129884DF12AA0DD05A0E05
:102FE000446E020E456E466AC9EC1AF02C0E006E55
:102FF000010E016ED8EC1AF0DDCF01F0DDCF00F04C
:10300000120000C0DCFF01C0DCFF0101030E5A1BEF
:103010005A6FD8B421D065DF3AEC1BF08A9400D007
:1030200000D000D000D000D000D000008A8C1288E0
:1030300058DF12AA11D05A0E446E020E456E466A2F
:10304000C9EC1AF001015B519D0DD890F430016E6E
:10305000F330006ED8EC1AF0DDCF01F0DDCF00F0D8
:103060001200010100505B19D8B408D000C05BF118
:10307000128E5A51030AD8B401D033DF12008A9C51
:103080008A9401015A6B129812008A9400D000D0E1
:1030900000D000D000D000D000D000D000D000D0B0
:1030A00000D000D0F29E8A8C00D000D000D000D09A
:0C30B00000D000D08A848A9CF28E1200AE
:0430BC0000C0DCFF75
:1030C00001C0DCFF14AA06D02950261803E12A50BB
:1030D000271819E03AEC1BF000C041F1800E006E99
:1030E00028EC11F041C100F000D000D000D000D099
:1030F00000D000002650296E006E27502A6E016E07
:103100009EEC11F0148ADDCF01F0DDCF00F012004B
:10311000D5DF3AEC1BF000C041F1FE0E006E28EC4A
:1031200011F041C100F000D000D000D000D000D09C
:103130000000F9EC11F0E2EC0DF0B0EF0FF0BEDFA3
:103140002650235C27502458D8A03FD02204026E7A
:103150002614021816E03AEC1BF000C041F1020EF2
:10316000006E28EC11F041C100F000D000D000D07A
:1031700000D000D00000B1EC11F0E2EC0DF000EF57
:1031800010F03AEC1BF000C041F1000E006E28EC8C
:1031900011F041C100F000D000D000D000D000D02C
:1031A0000000B1EC11F000C041F1E00E006E28EC1F
:1031B00011F041C100F000D000D000D000D000D00C
:1031C0000000C9EC1AF000EF10F03AEC1BF000C060
:1031D00041F1000E006E28EC11F041C100F000D06A
:1031E00000D000D000D000D00000B1EC11F000C041
:1031F00041F1E00E006E28EC11F041C100F000D06A
:1032000000D000D000D000D000004A0E446E456AC5
:0A321000466AC9EC1AF000EF10F056
:06321A0000C0DCFF0A0EFB
:10322000C16E060EC06E090EC26E9D8C0101020EAB
:10323000006F030E016F010E026F01EE03F0100E1E
:10324000006EEE6A002EFDD7DDCF00F01200166A88
:10325000EECF17F0EECF18F0196AEECF1AF0EDCFDF
:103260001BF0D8901832173216321B321A3219322C
:103270001832173216321B321A32193218321732FC
:1032800016321B321A3219321950165E1A50175A5A
:103290001B50185A1750EE261850ED2212009E9C13
:1032A00001C1E9FF02C1EAFFC3CFEEFFC4CFEDFFCA
:1032B000010100B309D0020E006F030E016F010E71
:1032C000026F090EC26E08D0040E006F0B0E016F64
:1032D000010E026F110EC26EBADFB9DFB8DF59EF0F
:1032E00000F002C0DCFF03C0DCFF04C0DCFF05C04F
:1032F000DCFF06C0DCFF07C0DCFFF29E09C100F066
:103300000AC101F0F28E750E046E170E056E066A84
:10331000076A18D002C0DCFF03C0DCFF04C0DCFF7A
:1033200005C0DCFF06C0DCFF07C0DCFFF29E11C158
:1033300000F012C101F0F28E2B0E046E370E056EF6
:10334000066A076A026A036AE3EC1CF002C000F036
:1033500003C001F0DDCF07F0DDCF06F0DDCF05F0D3
:0E336000DDCF04F0DDCF03F0DDCF02F0120070
:02336E0000C09D
:10337000DCFF01C0DCFF14AA0AD02A50275CD8A0C9
:1033800006D0D8A408D02950265CD8B004D0E8ECE8
:103390000DF03AEC1BF027AA0BD02ABA09D0296A03
:1033A000200E2A6E006AB0EC10F0016AB8EC10F042
:1033B00029502618006E2A5027180010D8B407D0BC
:1033C000060E006EB0EC10F0E2EC0DF0F1D7DDCFA0
:1033D00001F0DDCF00F01200CADF040E14B8050EB4
:1033E000006EB0EC10F014EC11F0B0EF0FF0BFDF96
:1033F0000050026E020E14B8030E006EB0EC10F016
:103400000250006EB8EC10F014B810D02204006E18
:1034100026140018D8B40AD02750245CD8A006D0AF
:10342000D8A418D02650235CD8B014D0180E14B0ED
:10343000080E006EB0EC10F0C9EC1AF014A20AD01D
:10344000170E14B40E0E14B60A0E006E3AEC1BF0F2
:10345000B0EC10F000EF10F01480C9D714822650A1
:10346000070AD8A4C4D72750200AD8A4C0D71480EC
:103470001492610E446E456ABAD714801482148483
:10348000B6D71480B4D71482B2D714821486AFD7BB
:10349000BE6A0C0EBD6E04D80101010E586F1200F9
:1034A0000101D00E596F586B120001015851010AE9
:1034B0000FE0010E586F8A90486A0C0E496E128216
:1034C00012962E0E446E010E456E466AC9EC1AF035
:1034D000120000C0DCFF01C0DCFF01015851020AEC
:1034E0001DE0020E586F486A0C0E496E1282129649
:1034F0002E0E446E010E456E466AC9EC1AF03AEC87
:103500001BF08A80B20E446E040E456E466AC9EC0A
:103510001AF0640E006E016AD6EC1AF0DDCF01F0ED
:10352000DDCF00F0120000C0DCFF01C0DCFF0101B4
:103530005951486E0C0E496E1282B20E446E040E42
:10354000456E466AC9EC1AF001015951180DF3CFC6
:1035500000F0F4CF01F0D6EC1AF0DDCF01F0DDCFB2
:1035600000F0120001015851030A05E0030E586FE4
:103570008A90D9DF1286120000C059F112008A9099
:0A358000486A0C0E496E1282129682
:06358A00476A0101526BCB
:103590001200F29E44C03DF045C03EF046C03FF0F0
:1035A000129AF28E476A0101526B1200010E01D08D
:1035B000020E0101526F02C0DCFF03C0DCFF0130CC
:1035C000036E0030026E03320232033202320332E3
:1035D000023203320232070E03160350000807E3DB
:1035E00003E1640E025C03E2640E026E036A0250A1
:1035F000005C536F03500158546F02E2536B546BDD
:1036000002500024556F03500120566F02E35569A4
:103610005669DDCF03F0DDCF02F01200010E476ED8
:1036200001015351005C5451015809E3020E476EE9
:103630000050555D0150565902E3476A128A120044
:1036400000C0DCFF01C0DCFF010152B103D052B366
:1036500005D00BD071EC19F0E1DF07D08AEC19F03E
:10366000DDDFD8904736D8904736DDCF01F0DDCF8B
:0C36700000F01200E5DF12AAFDD71200E6
:04367C000301006BDB
:10368000010E016F026FAB6A240EAC6E080EB86EAD
:10369000670EAF6E000EB06E900EAB6E9D8A080E78
:1036A000D56EF2941200AB5003014D6EAE504E6ECB
:1036B000ABA202D0AB98AB884DB40ED0FD0E005D2E
:1036C000D8B00AD003EE02F001514EC0EBFF002B40
:1036D000FD0E014F016F128059EF00F0F29E0301C1
:1036E000FD0E005DD8B00AD003EE02F0015100C01B
:1036F000EBFF002BFD0E014F016F1280F28E1200C6
:1037000000C300F0120012A0FED70301F29E03EEE8
:1037100002F00251EBCF00F00007FD0E024F026FE6
:10372000006701D01290F28E12009EB805D09EA8BC
:10373000FED700C0ADFF17D0ACB20AD0F29EF2B4F3
:1037400004D000C0ADFFF28E0ED0F28EACA2FED738
:10375000D59EFD0ED76E160ED66EF294F29E00C068
:08376000ADFFD58EF28E1200C0
:0837680000C0DCFF01C0DCFF22
:1037700002C0DCFF03C0DCFF26C002F027C003F05C
:1037800014A804D02F5002263050032202502C18C7
:10379000006E03502D18001202E114BC149A14BAE2
:1037A00006D03AEC1BF0E8EC0DF03AEC1BF02C5094
:1037B00002162D50031629500218D8A404D02A50FE
:1037C0000318D8B40CD0060E006EB0EC10F0E2EC8A
:1037D0000DF02C5029162D502A162B6AECD7DDCF70
:1037E00003F0DDCF02F0DDCF01F0DDCF00F01200FD
:1037F000BBDF74EF0FF0B8DF040E006EB0EC10F01A
:1038000014EC11F0B0EF0FF0AFDF00C002F0020EC9
:10381000006EB0EC10F002C000F0B8EC10F0080E32
:10382000006EB0EC10F01FC044F0456AC9EC1AF00D
:103830003AEC1BF00E0E006EB0EC10F0020E446E6F
:0A384000456AC9EC1AF000EF10F021
:06384A0001014F6B1200AA
:10385000190E3A6E1200190E3C6E12000101010E93
:103860004F19D8B40DD0010E4F6F110E366EC80E21
:10387000376EC80E386E010EF29E396E129CF28EB3
:1038800012000101030E4F19D8B40DD0030E4F6F73
:10389000480E366E320E376E320E386E010EF29EC4
:1038A000396E129CF28E12000101020E4F19D8B42B
:1038B0000DD0020E4F6F120E366E190E376E190EA6
:1038C000386E010EF29E396E129CF28E12000101CA
:1038D000040E4F19D8B40DD0040E4F6F8F0E366EF4
:1038E000640E376E640E386E010EF29E396E129CB5
:1038F000F28E120012B602D012A802D0190E3B6E40
:103900003C52D8B402D0E3DF0BD03B52D8B402D043
:10391000B8DF06D03A52D8B402D0C6DF01D09EDF5D
:02392000120093
:0E392200120001C0DCFF02C0DCFF016A026A75
:1039300060EC1DF063EC1DF000505008D8A0006A48
:1039400000C051F1DDCF02F0DDCF01F01200006ABE
:1039500001015153D8B403D0510763EC1DF012009C
:10396000120001C0DCFF02C0DCFF010E016E026A22
:1039700060EC1DF00101500E516FDDCF02F0DDCF84
:1039800001F0120001015153D8B403D051076FEC7C
:103990001DF0120000C0DCFF01C0DCFF02C0DCFF34
:1039A000016A026A60EC1DF0010151515008006E7D
:1039B0006FEC1DF08AEC1DF0DDCF02F0DDCF01F0E1
:0639C000DDCF00F0120053
:0A39C60004C0DCFF05C0DCFF06C0F2
:1039D000DCFF07C0DCFF08C0DCFF09C0DCFF0AC059
:1039E000DCFF0BC0DCFF0050086E0150096E025076
:1039F0000A6E03500B6E006A016A026A036A08507D
:103A000009100A100B10D8B417EF1DF008A00BEF27
:103A10001DF026EC1EF0D8900B320A320932083223
:103A2000D8900436053606360736FFEF1CF0DDCF9A
:103A30000BF0DDCF0AF0DDCF09F0DDCF08F0DDCFF0
:103A400007F0DDCF06F0DDCF05F0DDCF04F012008A
:103A5000800EF16EF06A9D6AA06A9E6AA16A9F6AF2
:103A6000A26AD09E116A126A136A146A156A33EC4C
:103A70001EF006EC1EF060EC16F03EEC1BF05DEC68
:103A80001DF091EC1CF05EEC00F09FEC17F048ECA0
:103A90001AF00BEC10F096EC0DF00DEC19F025EC93
:103AA0001CF0C5EC1AF006EC06F06BEC0AF00FEC1B
:0A3AB00012F0BEEC1DF018EF1EF03E
:063ABA000101576B120030
:103AC00001C057F11200A6B263EF1DF057C1A9FF64
:103AD000A66AA6800101572BA8CF00F0120001C0F2
:103AE000DCFFA6B271EF1DF057C1A9FF00C0A8FF0F
:103AF000A66AA684F2CF01F0550EF29EA76EAA0E1A
:103B0000A76EA68201BEF28EA6940101572BDDCFCF
:0C3B100001F01200A6B28AEF1DF01200B6
:043B1C001201100181
:103B2000FF00FF08C016C8053800020300010902A3
:103B3000200001010080FA0904000002FF00FF00DC
:103B4000070501024000010705810240000104034E
:103B500009041403456D62656420496E632E0355A4
:103B6000534250726F67205049432070726F6772E2
:0B3B7000616D6D6572000004000F0025
:043B7C00366A376A04
:103B8000386A396A3D6A3E6A3F6A128A406A3A6A0E
:103B90003B6A3C6A3C0E416E780E426E436AF90EF7
:103BA000CB6E1C0ECA6ECC6A9E929D82F28CF28EF7
:023BB000120001
:0E3BB20040C050F1E1EC16F011A602D01196C1
:103BC0001386B0EC00F07AEC1CF040500101501963
:103BD00006E0502B0A0E006E3FEC0DF0F6D7EBD747
:103BE0000D000000000100010101010101010108B7
:103BF0000000000001010101010E000000000101B0
:0C3C00000101010101010101010101B1FC
:043C0C00C26A0F0E6B
:103C1000C16E070EB46EF18E896A2F0E926E8A6A9B
:103C2000800E936E040E8B6EF00E946E846A1200FA
:103C30008998720E446E170E456E466AC9EC1AF0EA
:0C3C40003AEC1BF079EC0AF0D9EF1DF013
:043C4C0008C0DCFFD1
:103C5000045000260550012206500222075003227C
:063C6000DDCF08F01200A8
:063C660020EE5FF01200E9
:020000040030CA
:0E000000E13FF6FEFFF99AFFFFFFFFDFFFFF73
:0200000400F00A
:080000000755534250726F676F
:00000001FF
