:020000040000FA
:06000000F26AF8EF1CF0AB
:020006000000F8
:08000800E9CFDCFFEACFDCFFC9
:100010009EAA02D023EF1BF09EAC02D01FEF19F076
:100020009EB201D0FF009E92C2823D503E103F1012
:10003000D8B40AD0010E3D5E000E3E5A3F5A3D50E4
:100040003E103F10D8B4128812A005D0129049C0BB
:10005000BDFF48C0BEFF12A205D012924BC0BAFF2E
:100060004AC0BBFF412E09D03C0E416E392E05D04F
:10007000127A375012AA3850396E0E0E4306D8A0A5
:10008000436E365012AA36380F0B435CD8A002D00C
:100090008B9001D08B80422E0CD0780E426E402A7D
:1000A0003A52D8A43A063B52D8A43B063C52D8A4B4
:0C00B0003C06DDCFEAFFDDCFE9FF1100C8
:0400BC000101A40E8C
:1000C000196F010E1A6F000E1B6F010E186F1200D0
:1000D00000C013F101C014F102C015F103C016F104
:1000E00008C017F1FC041F0B016E0101186F01EE2F
:1000F00019F0FDCFEEFFFECFEEFFFFCFEEFF0600C3
:10010000012EF7D7120001C0DCFFDDCF01F0E0DFE8
:1001100001C0DCFF016AD3EC0CF001B0F6D7F8ECBB
:100120001BF0DDCF01F0120001C0DCFF016AD6EC4C
:100130000CF001A006D0DDCF01F0CADF01C0DCFF6A
:10014000F5D7DDCF01F0120012B81200C1DFF0ECDC
:100150001AF0FAD7BDDF12BEFDD7128E138012003F
:10016000010101EE18F01851016E030DF350E9265C
:10017000014E08D00500ED50FF6EED50FE6EED50C3
:10018000FD6EF6D713C100F014C101F015C102F0E5
:1001900016C103F017C108F01B51FB6E1A51FA6E1D
:1001A0001951F96E95DF016AD3EC0CF001B0FAD762
:1001B0000050016E5908D8A0F5D70FD8025003108F
:1001C000D8B4F0D7060E0226020E0320FA6E000EF7
:1001D000FB6E000EFB220250F96E036AD8900134C8
:1001E000026E0336060E0224F66E020E0320F76E30
:1001F000000EF86E000EF8220900F5CF02F009009B
:10020000F5CF03F012000000B400B8000000C400F5
:10021000E000BA01D6017A02860292029E02AA0288
:10022000BA02D002F00200000000320300003E03D8
:10023000560362038A03F803A803C80300000604F8
:1002400078041A053C04480452042E043604A00520
:1002500094046C042603D403A2060000CE06E20632
:10026000F6060000000006074E07000060090C01BA
:100270004201FA01260232060000D4045C0742055E
:100280007A038C078007B0074A03C407F2071C08EB
:10029000B0046E03000000001E08320846085A0829
:1002A0006E0882089608AA08BE08D208E608FE086A
:1002B0001E093A09820192015A02D2EF00F0A4EC21
:1002C00000F099EC0DF0D2EF00F083EC00F000505C
:1002D000070B010F086E83EC00F0A4EC00F03CEC7F
:1002E00010F0D2EF00F083EC00F000500F0B010F84
:1002F000086E83EC00F000C002F083EC00F000C058
:1003000001F002C000F0A4EC00F03CEC10F0D2EFE1
:1003100000F083EC00F000501F0B010F086E83EC1F
:1003200000F000C003F083EC00F000C001F083ECAB
:1003300000F000C002F003C000F0036AA4EC00F07B
:100340003CEC10F0D2EF00F083EC00F000501F0BFB
:10035000010F086E83EC00F000C003F083EC00F0A6
:1003600000C001F083EC00F000C002F083EC00F06C
:1003700000C004F003C000F004C003F0A4EC00F0DF
:100380003CEC10F0D2EF00F083EC00F0A4EC00F0B5
:10039000F8EC10F0D2EF00F083EC00F000C003F0B6
:1003A00083EC00F000C001F083EC00F000C002F02C
:1003B00003C000F0A4EC00F02EEC11F0D2EF00F03E
:1003C00083EC00F00050070B010F086EA4EC00F066
:1003D000B5EC10F094EC00F0D2EF00F083EC00F0FC
:1003E00000500F0B010F086EA4EC00F0B5EC10F0FC
:1003F00094EC00F001C000F094EC00F0D2EF00F0BB
:1004000083EC00F000501F0B010F086EA4EC00F00D
:10041000B5EC10F094EC00F001C000F094EC00F0AA
:1004200002C000F094EC00F0D2EF00F083EC00F09A
:1004300000501F0B010F086EA4EC00F0B5EC10F09B
:1004400094EC00F001C000F094EC00F002C000F069
:1004500094EC00F003C000F094EC00F0D2EF00F058
:10046000A4EC00F0A9EC11F094EC00F001C000F055
:1004700094EC00F002C000F094EC00F0D2EF00F039
:10048000A4EC00F001EC10F0D2EF00F0A4EC00F0CE
:10049000FBEC0FF0D2EF00F0A4EC00F012EC10F047
:1004A000D2EF00F0A4EC00F00CEC10F0D2EF00F072
:1004B000A4EC00F01DEC10F094EC00F0D2EF00F092
:1004C000A4EC00F0DEEC0FF0006A13BE008094ECA8
:1004D00000F0D2EF00F083EC00F000C001F083ECFC
:1004E00000F0A4EC00F001C044F000C045F099EC2D
:1004F0001AF0D2EF00F0010E006E94EC00F0190E2D
:10050000006E94EC00F01D0E006E94EC00F0260ED0
:10051000006E94EC00F0006A94EC00F094EC00F0B3
:1005200094EC00F094EC00F0D2EF00F0020E006EBC
:1005300094EC00F0D2EF00F0A4EC00F082EC1AF0A2
:10054000D2EF00F0A4EC00F039EC1AF0D2EF00F09A
:1005500083EC00F08CEC1AF0D2EF00F0A4EC00F089
:10056000D1EC17F0D2EF00F0A4EC00F090EC17F013
:10057000D2EF00F0A4EC00F07DEC17F0D2EF00F029
:1005800083EC00F0A4EC00F001EC18F0D2EF00F0E6
:1005900083EC00F0149000BE1480009E00501C6E8E
:1005A0002C6A2D6A2E6A31EC0DF0D2EF00F083EC4C
:1005B00000F000C01DF0010E226E20EC1AF0A4EC39
:1005C00000F0A60E006E01EC18F0D2EF00F083EC04
:1005D00000F000C01EF0D2EF00F083EC00F000C08D
:1005E00001F083EC00F000C002F083EC00F001C0E9
:1005F0002CF002C02DF000C02EF0D2EF00F0149AC3
:10060000A4EC00F0B8EC0DF0D2EF00F083EC00F0B9
:1006100000C001F083EC00F000C002F083EC00F0B9
:1006200001C026F002C027F000C028F013EC0FF044
:10063000D2EF00F0ADEC0DF0D2EF00F0149CD2EF51
:1006400000F083EC00F000501F6ED2EF00F014AA0F
:10065000D2EF00F0149A04D014BAD2EF00F0148A4A
:10066000261C296E271C2A6E281C2B6E149CD2EF88
:1006700000F0A4EC00F0FBEC1BF0D2EF00F0A4ECD7
:1006800000F04FEC0FF094EC00F001C000F094EC9F
:1006900000F0ADEC0DF0D2EF00F0A4EC00F0080E8D
:1006A000026E4FEC0FF094EC00F0ADEC0DF0022E6A
:1006B000F8D7D2EF00F0A4EC00F0400E026E4FEC41
:1006C0000FF094EC00F001C000F094EC00F0ADEC01
:1006D0000DF0022EF4D7D2EF00F0FC0E2616FEEC41
:1006E00007F05DEC08F094EC00F001C000F094EC31
:1006F00000F002C000F094EC00F003C000F094ECB5
:1007000000F004C000F094EC00F005C000F094ECA0
:1007100000F0040E2626000E27222822D2EF00F039
:1007200083EC00F000C002F083EC00F000C001F0A8
:1007300002C000F0FBEC1BF0A4EC00F087EC0FF023
:10074000ADEC0DF0D2EF00F0FBEC1BF0080E086EE4
:10075000250E026E010E036E83EC00F002C0E9FF6D
:1007600003C0EAFF00C0EFFF022AD8B0032A082E18
:10077000F3D70168080E086E250E026E010E036E97
:1007800002C0E9FF03C0EAFFEFCF00F0022AD8B0B1
:10079000032AA4EC00F087EC0FF0ADEC0DF0082E6E
:1007A000EFD7D2EF00F0FBEC1BF0A4EC00F083ECF1
:1007B00014F0030E036E83EC00F00050026E83EC25
:1007C00000F00050016E0D0E0352D8B40F0E006EF3
:1007D000040E086E3CEC10F00250006E100E086E15
:1007E0003CEC10F0030603AEE6D7006A030E086E79
:1007F0003CEC10F001EC10F00E0E446E456A466AB7
:1008000099EC1AF0080E2626D8B0272AD8B4282A40
:10081000149CA4EC00F0FBEC0FF0010E446E456A52
:1008200099EC1AF00AEC1BF0006A016A100E086ECF
:100830003CEC10F0D2EF00F0FBEC1BF0F80E2616AB
:1008400083EC00F000C001F083EC00F000C002F087
:1008500083EC00F0A4EC00F0B2EC09F083EC00F0C3
:1008600000C001F083EC00F000C002F083EC00F067
:10087000C5EC09F083EC00F000C001F083EC00F05F
:1008800000C002F083EC00F0FCEC09F083EC00F017
:1008900000C001F083EC00F000C002F083EC00F037
:1008A00004EC0AF0D2EF00F083EC00F0046A005090
:1008B000016E5908D8A008D0EDEC00F002500310EA
:1008C000D8B402D0010E046E04C000F094EC00F025
:1008D000D2EF00F041EC19F094EC00F001C000F010
:1008E00094EC00F0D2EF00F05AEC19F094EC00F028
:1008F00001C000F094EC00F0D2EF00F0A4EC00F0A6
:1009000047C000F094EC00F0D2EF00F083EC00F070
:10091000A4EC00F079EC0DF0A4EC00F018EC10F071
:1009200007EC10F07DEC17F0A4EC00F0005003E1B0
:1009300025EC1AF00AD0FA08FA0ED8A0006E8CEC5A
:100940001AF0A4EC00F082EC1AF0A4EC00F015828E
:10095000D2EF00F0A4EC00F099EC0DF01582D2EF8C
:1009600000F083EC00F000C001F083EC00F000C068
:1009700002F083EC00F001C02FF002C030F000C0A4
:1009800031F0D2EF00F083EC00F000C022F0D2EFA3
:1009900000F083EC00F00050026E83EC00F0005099
:1009A000016E83EC00F00250236E0150246E005063
:1009B000256ED2EF00F0410E006E94EC00F0030EB5
:1009C000006E94EC00F0D2EF00F0AAEC00F081ECA5
:1009D0001CF083EC00F000C001F00152D8B406D046
:1009E000010683EC00F092EC1CF0F7D79AEC1CF0B7
:1009F0001390129ED2EF00F0AAEC00F062EC1CF013
:100A000094EC00F000C001F00152D8B406D0010609
:100A100077EC1CF094EC00F0F7D71390129ED2EF15
:100A200000F0FF0083EC00F000C02DF183EC00F03B
:100A300000C02EF1D2EF00F083EC00F000C02FF1E7
:100A400083EC00F000C030F1D2EF00F083EC00F056
:100A500000C031F183EC00F000C032F1D2EF00F0C1
:100A600083EC00F000C033F183EC00F000C034F1FF
:100A7000D2EF00F083EC00F000C035F183EC00F021
:100A800000C036F1D2EF00F083EC00F000C037F187
:100A900083EC00F000C038F1D2EF00F083EC00F0FE
:100AA00000C039F183EC00F000C03AF1D2EF00F061
:100AB00083EC00F000C03BF183EC00F000C03CF19F
:100AC000D2EF00F083EC00F000C03DF183EC00F0C9
:100AD00000C03EF1D2EF00F083EC00F000C03FF127
:100AE00083EC00F000C040F1D2EF00F083EC00F0A6
:100AF00000C001F083EC00F001C020F000C021F044
:100B0000D2EF00F01B0E006E94EC00F0B70E006EFA
:100B100094EC00F0006A94EC00F0006A94EC00F0B1
:100B2000D2EF00F0A4EC00F083EC00F00028016E9E
:100B300083EC00F065EC1BF0012EFAD7D2EF00F049
:100B4000A4EC00F050EC1BF094EC00F00050D8B492
:100B5000D2EF00F0016E53EC1BF094EC00F0012E8C
:100B6000FAD7D2EF00F083EC00F000C001F083EC84
:100B700000F00150040832E3000EFB6EFA6AD890D0
:100B80000136FA360136FA36980E01260B0EFA2295
:100B9000000EFB220150F96EEEEF05F0D6EF05F0E6
:100BA000DCEF05F0E2EF05F0E8EF05F0AC0E016ECA
:100BB0003B0E026E000E18D0C50E016E3B0E026E8B
:100BC000000E12D0BB0E016E3B0E026E000E0CD05A
:100BD000D50E016E3B0E026E000E06D0000E006EAA
:100BE00094EC00F0D2EF00F0F86E02C0F7FF01C005
:100BF000F6FF09000050F55ED8A0F0D7F626000EEB
:0C0C0000F722F8220800F5CF00F0EAD738
:040C0C00010E326E35
:100C1000400E336E080E346E400E356E0101010E2B
:100C2000456F120003C0DCFF08C0DCFF0101452F47
:100C30002DD000C0DCFF01C0DCFF02C0DCFF1C0EB9
:100C4000086E006A016A026A036A3CEC10F03CEC30
:100C500010F0006A100E016E400E026E036A200E44
:100C600013BA016E3CEC10F0006A016A026A036A72
:100C70003CEC10F013AC04D03CEC10F03CEC10F069
:100C8000DDCF02F0DDCF01F0DDCF00F000C0DCFFF2
:100C900001C0DCFF02C0DCFF036AD89000360136D9
:100CA0000236033600360136023603360036013688
:100CB0000236033600360136023603361C0E086E45
:100CC0003CEC10F0DDCF02F0DDCF01F0DDCF00F025
:100CD000DDCF08F0DDCF03F0120000C0DCFF01C063
:100CE000DCFF02C0DCFF006A016A026A9BDFDDCF25
:100CF00002F0DDCF01F0DDCF00F0120013AC01D027
:100D0000ECDF120013AC03D0E8DFE7DFE6DF120010
:100D100002C0DCFF03C0DCFF08C0DCFFDEDF010E29
:100D2000006E016A0C0E086E3CEC10F0100E086E9E
:100D3000B5EC10F0E3DFDDCF08F0DDCF03F0DDCF61
:100D400002F01200020E1CD0120E1AD0220E18D081
:100D5000320E16D0420E14D0520E12D0620E10D0A7
:100D6000720E0ED0820E0CD0920E0AD0A20E08D0B7
:100D7000B20E06D0C20E04D0D20E02D0E20E00D0C7
:100D800000C0DCFF01C0DCFF02C0DCFF026E0234E9
:100D9000003601360236023400360136023602349D
:100DA00000360136023602340036013602363ADFAA
:100DB000DDCF02F0DDCF01F0DDCF00F01200000E3C
:100DC0001ED0010E1CD0020E1AD0030E18D0040E35
:100DD00016D0050E14D0060E12D0070E10D0080E35
:100DE0000ED0090E0CD00A0E0AD00B0E08D00C0E35
:100DF00006D00D0E04D00E0E02D00F0E00D000C093
:100E0000DCFF01C0DCFF02C0DCFFEECF00F0EDCF65
:100E100001F00090026AD8900036013602360036A2
:100E2000013602360036013602360012880E0212F2
:100E3000F9DEDDCF02F0DDCF01F0DDCF00F01200F2
:100E4000000E1ED0010E1CD0020E1AD0030E18D0B8
:100E5000040E16D0050E14D0060E12D0070E10D0B8
:100E6000080E0ED0090E0CD00A0E0AD00B0E08D0B8
:100E70000C0E06D00D0E04D00E0E02D00F0E00D0B8
:100E800000C0DCFF01C0DCFF02C0DCFFEECF00F0E1
:100E9000EDCF01F00090026AD8900036013602369C
:100EA0000036013602360036013602360012800E58
:100EB0000212B8DEDDCF02F0DDCF01F0DDCF00F0B1
:100EC000120001EE37F097DF08DF120001014551F3
:100ED000F00B010ED8B4456F120000C0DCFF01C05A
:100EE000DCFF0A0E006E016A3BDF34C000F035C043
:100EF00001F038DF040E006E400E016E35DF32C0A7
:100F000000F033C001F032DF550E006E016A30DFB1
:100F1000AA0E006E016A2EDF006A016A2DDF006AE8
:100F2000016A2CDFCEDF296A2A6A2B6ADDCF01F045
:100F3000DDCF00F0120000C0DCFF01C0DCFF02C00A
:100F4000DCFF26502918006E27502A18001228505E
:100F50002B1800101FE014BA0CD028502B6E006E16
:100F6000016A0CDF2650296E006E27502A6E016E32
:100F70000ED07F0E006E016A01DFD8902634006E1D
:100F80002734016E2F500026305001220112F4DE6A
:100F900098DFB4DEDDCF02F0DDCF01F0DDCF00F071
:100FA00012000101456915900AEC1BF013BA0BD031
:100FB00094DE93DE006A010E016E040E026E12ECE6
:100FC00006F08BDE16D0006A016A026A036A050E1B
:100FD000086E3CEC10F081DE91DE90DE006A020EBD
:100FE000016E040E026E12EC06F077DE76DE86DE0F
:100FF00085DE0101456971DF39EF0EF000C0DCFFCD
:1010000001C0DCFF2650006EFC0B266E0101466F0E
:1010100027C047F128C048F18EDF00C026F09D0EA2
:10102000006EDB0E016EBA0E026E12EC06F055DE9B
:1010300054DE68DEBD0E006E016ABA0E026E12EC5E
:1010400006F04BDE4ADE5EDE9D0E006ED30E016EB4
:10105000BA0E026E12EC06F040DE3FDE53DE3D0EAD
:10106000006E010E016EBA0E026E12EC06F035DE55
:1010700034DE48DE01EE35F0A4DE4ADE00C049F180
:1010800001C04AF101EE35F09EDE42DE00C04CF1B7
:1010900001C04DF101EE35F09CDE3ADE00C04BF1AF
:1010A00001C04EF12950040F296E000E2A2215802E
:1010B000DDCF01F0DDCF00F0120049C100F04AC1E0
:1010C00001F04BC102F04CC103F04DC104F04EC120
:1010D00005F0120014BA21D015A00CD02650FC0B3C
:1010E000006E0101461906E12750471903E1285017
:1010F000481901E083DF2650030B01EE4AF0E8B205
:1011000001EE4DF0E8B005D0EDCF01F0EFCF00F0EB
:101110001AD0ECCF00F0016A16D00DDF2628296E18
:10112000000E27200F0B2A6E2B6ABD0E006E016A7F
:10113000BA0E026E12EC06F0D0DDCFDDE3DD01EE7B
:1011400035F03FDEE5DD80EF0FF0FA0E006E016A4C
:10115000F9DD01EE37F033DE006A016AF3DDBDDD53
:10116000370E006EC80E016EBB0E026E12EC06F05A
:10117000B4DDB3DD010E006E180E016EBB0E026E03
:1011800012EC06F0AADDA9DD270E006EC80E016E76
:10119000BB0E026E12EC06F0A0DD9FDD020E006EAB
:1011A000180E016EBB0E026E12EC06F096DD95DD98
:1011B00000680168C7DD01EE35F001DE01EE3DF0AB
:1011C00018DE01EE3FF017DE01EE39F00CDE85DDB2
:1011D00084DD01EE3BF009DE80DD01EE3BF007DE51
:1011E000290E006EE70E016EA80E026E12EC06F0DC
:1011F00074DD73DD72DD71DD70DDCD6A0F0E006EA2
:10120000016A2050005E2150015A02E20068016824
:1012100001C0CFFF00C0CEFF9E90CD80040E2926D6
:10122000000E2A22040E2626000E272228229EA027
:10123000FED753DD01EE39F003DE4FDD01EE35F070
:10124000BEDD66DDF00E00168F0E01140010F1E118
:101250004D0E006E016AB00E026E12EC06F0120026
:1012600035DE159013BA0FD03B0E006E016E880E5E
:10127000026E12EC06F03C0E006E3B0E016E880E04
:10128000026E12EC06F0610E006EE70E016EA80E03
:10129000026E12EC06F021DD20DD1FDD1EDD1F5089
:1012A000446E456A466A0AEC1BF013BA0BD0610E15
:1012B000006EE70E016EA90E026E12EC06F00DDD57
:1012C0000CDD14D00ADD006A3B0E016E800E026E4A
:1012D00012EC06F0200E006E3C0E016E880E026EBF
:1012E00012EC06F0FADC14DD01BEECD7120015900A
:1012F00014BA1DD026B034D02B6A1DDE23DD080EB3
:10130000006E3B0E016E880E026E12EC06F0800E2F
:10131000006E1E0E016EBB0E026E12EC06F0DDDCDE
:10132000DCDC9EDF020E2926000E2A2219D003DE05
:1013300009DD090E006E3B0E016E880E026E12EC86
:1013400006F0800E006E1E0E016EBB0E026E12ECD9
:1013500006F0C3DCC2DC84DF010E2926000E2A223F
:10136000D0EF0FF0E8DD00C003F001C000F002C0D4
:1013700001F0EADC13BC08D02204261405E101EEDA
:1013800037F039DDAADCA9DC120000C004F001C08E
:1013900000F002C001F0DADC03C000F004C001F08C
:1013A000DBDC13BCD2D6B70E006ECE0E016EBB0EC8
:1013B000026E12EC06F091DC90DC810E006E1E0EC7
:1013C000016EBB0E026E12EC06F087DC86DCA70E07
:1013D000006ECE0E016EBB0E026E12EC06F07DDCCE
:1013E0007CDC820E006E1E0E016EBB0E026E12ECD5
:1013F00006F073DC72DC120000C003F001C000F0E4
:1014000002C001F0A1DC120013BCBFD700C004F081
:1014100001C000F002C001F099DC03C000F004C07C
:1014200001F09ADCB70E006ECE0E016EBB0E026E9E
:1014300012EC06F052DC51DC810E006E1E0E016EC5
:10144000BB0E026E12EC06F048DC47DCA70E006E05
:10145000CE0E016EBB0E026E12EC06F03EDC3DDCE1
:10146000820E006E1E0E016EBB0E026E12EC06F0B6
:1014700034DC33DC080E2626000E27222822080E34
:101480002926000E2A222204261404E101EE39F056
:06149000AADCE6DE1200FA
:0A14960020042E043B044904FFFF6C
:1014A000FFFFFFFFFFFFFFFFFFFFFFFFFFFFFFFF4C
:1014B000FFFFFFFFFFFFFFFFFFFFFFFFFFFFFFFF3C
:1014C000FFFFFFFFFFFFFFFFFFFFFFFFFFFFFFFF2C
:1014D000FFFFFFFFFFFF4F68506A6D6A160E6F6EC9
:1014E0006B681198120000C0DCFF01C0DCFF02C075
:1014F000DCFF03C0DCFF7AD86D86840E006E010E1F
:10150000016E3C0E026E150E036E48EC16F0B1EC47
:1015100016F0DDCF03F0DDCF02F0DDCF01F0DDCF3F
:1015200000F012004FC000F025EC17F011AA02D015
:1015300080EC1CF04F686D6A119812004CC04FF09F
:10154000506AB1EC16F044DA11B0FBD7B1EC16F0EA
:1015500027EC12F0F6D700C0DCFFEFA644D0040E53
:10156000EBCF00F0050EEB500010D8A43CD0010EDC
:10157000EBCFE1FF000EEFB4040FE126040EE26EA4
:10158000EF9CE7503C0B340AD8B4EF8CEF9AE6504E
:10159000030B006E050E00C0EBFF040EE7CFEBFF60
:1015A000E6500010D8B4EF8AE650EF34060B090F6E
:1015B000EBCFE5FFFF0FEBCFE5FF020EEBCFE5FF33
:1015C000030EEB50E76EE78E010EEFB0030EEFB2A5
:1015D000020EEF1AEF96EFB8EF86EF98EF74060E53
:1015E000EB6A010FEB6ADDCF00F0120000C0DCFFF8
:1015F00001C0DCFF11981186706A716A726A736AA1
:10160000746A756A766A776A786A796A7A6A7B6ACE
:101610007C6A7D6A7E6A7F6A04EE00F0200E006EAE
:10162000EE6A002EFDD70401380E206F000E216FE8
:10163000080E226F236B246B256B560E286F040E49
:10164000296F5E0E2A6F040E2B6F660E2C6F040E30
:101650002D6F180E2E6F2F6B080E306F080E316F26
:10166000326B336B346B6E0E356F040E366F760E45
:10167000376F040E386F7E0E396F040E3A6F380ED6
:101680003B6F100E3C6F400E3D6F3E6B3F6B406BEF
:10169000860E436F040E446FC60E456F040E466FF0
:1016A000060E476F050E486F180E496F020E4A6FFF
:1016B000180E4B6F400E4C6F4D6B4E6B4F6B460EC2
:1016C000506F050E516F860E526F050E536FC60E8A
:1016D000546F050E556F04EE20F03DDF3CDF6E6A5F
:1016E000686A696A6D8CE90E6D166D866D9C68A6D8
:1016F00002D06896FCD7160E706E1182DDCF01F015
:10170000DDCF00F012000401380E3B6F100E3C6F6D
:10171000400E3D6F3E6B3F6B406B860E436F040E79
:10172000446FC60E456F040E466F060E476F050EDA
:10173000486F180E496F020E4A6F180E4B6F400E1D
:101740004C6F4D6B4E6B4F6B460E506F050E516FCD
:10175000860E526F050E536FC60E546F050E556FF1
:1017600004EE3BF0F8DEF7DE160E706E1E0E716EA4
:101770001188120000C0DCFFEFA64CD0EFBE4AD0AB
:10178000050EEBCF00F0060EEB500012D8A406D0E9
:10179000010EEBB402D0EFAC3DD0EF9C020EEBCFCC
:1017A000E1FF030EEFB4040FE126040EE26EEF3406
:1017B000060B080FEBCFE5FFFF0FEBCFE5FF050EA4
:1017C000EBCFE5FF060EEB500809E76E010EEBB01C
:1017D000E78CEB70E78E010EEBA20AD0EB94030EC0
:1017E000EBCF00F0050EEB50001A02E1010EEB8486
:1017F000010EEFB0030EEFB2020EEF1AEF96EFB844
:10180000EF86EF98EF74EF9AEFBCEF8A050EEB6A64
:10181000010FEB6ADDCF00F01200F00E0116030E8F
:101820000112EFAC08D0060EEB52D8A404D0075238
:10183000EB52D8B40184EFBA26D0019201B823D07C
:101840000190EF34060B080FEBCFE1FF010FEBCF58
:10185000E2FF060EEB50E126070EEB50E222060EE9
:10186000EB2A070ED8B0EB2A040EEB06EBCF00F004
:10187000050ED8A0EB06EB500012E7CF00F0D8A47D
:1018800002D0EF8A68DE120002C0DCFF03C0DCFF7A
:10189000F00E0116030E0112EFBA2ED0019201BA1A
:1018A000EF8E01B829D0019001AAEF9EEF34060B0C
:1018B000070FEBCFE1FF010FEBCFE2FF050EEB507F
:1018C000E126060EEB50E22200C0E7FF050EEB2AF0
:1018D000EBCF02F0060ED8B0EB2AEBCF03F0030EED
:1018E000EB500218D8A407D0040EEB500318D8A46C
:1018F00002D0EF8AEF9E3EDFDDCF03F0DDCF02F0B6
:101900001200F00E0116030E0112EFBC14D001926A
:1019100001B811D0EF9E01BC0AD0EFBA08D0050E75
:10192000EB52D8A407D0060EEB52D8A403D00190F6
:10193000EF8CEF8A1FDF120002C0DCFFF00E0116F1
:10194000030E0112050EEBCF02F0060EEB50021053
:10195000D8A407D00184EF50180B180AD8B4018618
:1019600009D0EFA607D0019201B804D001900184FC
:10197000EF9E00DFDDCF02F0120004EE20F04DD725
:101980007080120004EE2EF07FD704EE2FF0EF905F
:10199000120004EE2FF0EF80120004EE2EF0CCD7F0
:1019A00004EE2EF0AED704EE3BF037D704EE49F04C
:1019B0006BD704EE4AF0EF90120004EE4AF0EF808D
:1019C000120004EE49F0B8D700C083F11184120070
:1019D000119068A205D011806A506A6A50121200F4
:1019E00068A003D0118002DE120068A624D06CCF5C
:1019F00000F06896140EF76E000EF86E00403E0B75
:101A0000960FF66E000EF722F8220900F5CFE9FFD7
:101A10000800F5BE10D0F5CFEAFF1180EF300018B6
:101A2000020B080ED8A4100EEF1200B402D093DD02
:101A30001200A0DE120068AC04D0689C118C1180EA
:101A4000120068AA03D0689A1180120068A803D017
:101A500068981180120068A403D068941180120065
:021A6000120072
:0E1A6200206A216A010E326E400E336E080EAD
:101A7000346E400E356E139A139C0101A60E2D6F25
:101A80000F0E2E6FA90E2F6F0F0E306FAA0E316F33
:101A90000F0E326FA80E336F0F0E346F840E356F3A
:101AA000070E366F320E376F386B600E396F070EC8
:101AB0003A6F660E3B6F070E3C6F620E3D6F070E6E
:101AC0003E6F640E3F6F070E406F12001C6A1D6A66
:101AD0001E6A780E1F6E266A276A286A296A2A6A91
:101AE0002B6A2C6A2D6A2E6A2F6A306A316AB9DF36
:101AF000120014B004D090EC17F00AEC1BF0FBECD1
:101B00000FF00AEC1BF00CEC10F00AEC1BF039ECB7
:101B10001AF014A004D00AEC1BF090EC17F05A0E47
:101B2000446E020E456E466A99EC1AF00AEC1BF000
:101B3000120018EC10F007EC10F025EC1AF00AEC8B
:101B40001BF07DEC17F00AEC1BF05A0E446E020EEF
:101B5000456E466A99EC1AF01200262A000E2722DA
:101B600028221200292A000E2A222B22148E12006B
:101B700000C0DCFF01C0DCFF02C0DCFF03C0DCFFF3
:101B800008C0DCFF2CC029F02DC02AF02EC02BF09D
:101B9000149C149E0AEC1BF0ACDF0AEC1BF01C50EA
:101BA000D8B432D00D08D8A02FD01B0EFA6E000E7C
:101BB000FB6E1C04E846E846030BFA26D8B0FB2A65
:101BC0001C04E846E846FC0BD40FD8B0FA2AD8B07B
:101BD000FB2AF96E44EF0EF04CEF0EF04DEF0EF0D5
:101BE0004CEF0EF04CEF0EF089EF0EF0C5EF0EF05B
:101BF000C9EF0EF054EF0EF0D2EF0EF0A7EF0EF09B
:101C0000D3EF0EF073EF0EF01C50D8B432D00D08A5
:101C1000D8A02FD01C0EFA6E000EFB6E1C04E846F6
:101C2000E846030BFA26D8B0FB2A1C04E846E8462F
:101C3000FC0B3E0FD8B0FA2AD8B0FB2AF96E39EF68
:101C40000EF039EF0EF039EF0EF0D1EF07F039EF6B
:101C50000EF039EF0EF0D1EF07F0D1EF07F039EFCA
:101C60000EF0D1EF07F039EF0EF0D1EF07F039EFBA
:101C70000EF0DDCF08F0DDCF03F0DDCF02F0DDCFD9
:101C800001F0DDCF00F01200148CD1EC17F00AEC5B
:101C90001BF082EC1AF0B8D7148C82EC1AF00AEC24
:101CA0001BF0D1EC17F0B0D7149C82EC1AF00AECC0
:101CB0001BF00E0E446E456A466A99EC1AF00AEC67
:101CC0001BF0500E006E480E016E430E026E4D0E5C
:101CD000036E200E086E3CEC10F0006A010E086ED8
:101CE0003CEC10F091D7148C90EC17F00AEC1BF040
:101CF00082EC1AF00AEC1BF0B20E006EC20E016EFE
:101D0000120E026E0A0E036E200E086E3CEC10F0EE
:101D10007BD7148C90EC17F00AEC1BF039EC1AF01E
:101D20000AEC1BF082EC1AF00AEC1BF015EC18F030
:101D3000B20E006EC20E016E120E026E0A0E036E1D
:101D4000200E086E3CEC10F0D1EC17F05DD7148C2F
:101D500090EC17F00AEC1BF039EC1AF00AEC1BF0CF
:101D600082EC1AF00AEC1BF0D1EC17F00AEC1BF035
:101D7000B20E006EC20E016E120E026E0A0E036EDD
:101D8000200E086E3CEC10F03FD7346A400E356EE2
:101D900010D0040E326E400E336E040E346E400EC0
:101DA000356E07D006D0010E346E400E356E138CA2
:101DB00000D0138A148C90EC17F00AEC1BF039EC6D
:101DC0001AF00AEC1BF082EC1AF00AEC1BF00E0E73
:101DD000446E456A466A99EC1AF00AEC1BF015EC61
:101DE00018F00AEC1BF01A0E446E456A466A99EC2C
:101DF0001AF00AEC1BF0B20E006EC20E016E120E4B
:101E0000026E8A0E036E200E086E3CEC10F0D1ECD0
:101E100017F00AEC1BF0660E446E020E456E466A21
:101E200099EC1AF0F1D600C0DCFF01C0DCFF02C063
:101E3000DCFF03C0DCFF08C0DCFF1E50D8B424D098
:101E40000608D8A021D01E0EFA6E000EFB6E1E04EE
:101E5000E846E846030BFA26D8B0FB2A1E04E846FB
:101E6000E846FC0B700FD8B0FA2AD8B0FB2AF96EFE
:101E700044EF0FF044EF0FF0C8EF1BF044EF0FF00A
:101E800044EF0FF044EF0FF0DDCF08F0DDCF03F0AB
:101E9000DDCF02F0DDCF01F0DDCF00F0120002C097
:101EA000DCFF03C0DCFF08C0DCFF1E50D8B428D024
:101EB0000808D8A025D01E0EFA6E000EFB6E1E0478
:101EC000E846E846030BFA26D8B0FB2A1E04E8468B
:101ED000E846FC0BE00FD8B0FA2AD8B0FB2AF96E1E
:101EE000BCEF19F03BEF14F0CBEF1BF06AEF08F0FA
:101EF0003BEF14F080EF15F058EF18F08BEF15F072
:101F0000DDCF08F0DDCF03F0DDCF02F0120000C01E
:101F1000DCFF01C0DCFF02C0DCFF03C0DCFF08C047
:101F2000DCFF14921494149614981F50446E456A62
:101F3000466A1D50D8B434D00E08D8A031D01F0E38
:101F4000FA6E000EFB6E1D04E846E846030BFA2607
:101F5000D8B0FB2A1D04E846E846FC0B680FD8B051
:101F6000FA2AD8B0FB2AF96EC7EF19F0FCEF19F086
:101F7000D4EF1BF077EF09F0FEEF19F00EEF1AF037
:101F800011EF1AF096EF14F013EF1AF00DEF1AF0AC
:101F900015EF1AF0D2EF15F06FEF18F0E5EF15F02E
:101FA000DDCF08F0DDCF03F0DDCF02F0DDCF01F0B3
:061FB000DDCF00F012007D
:0A1FB600340EB46E1200DD0E8A1620
:101FC000138E8A9E939E020E446E456A466A99EC71
:101FD0001AF00AEC1BF0B4BC0CD08A8E020E446ED0
:101FE000456A466A99EC1AF00AEC1BF0B4AC01D0D1
:101FF000139E938E120000008A500809EF0B8A6E20
:10200000120000008A501009F70B8A6E120000D0EF
:102010000000E70E8A16120000008A502009FD0B0E
:102020008A6E120000008A500209DF0B8A6E1200CD
:1020300000D00000DD0E8A161200006A00D000D029
:1020400000D0B4BC0080120000008A501009F70BC9
:102050008A6E00D000008A500209DF0B8A6E00D021
:1020600000008A500809EF0B8A6E00D000008A50E9
:102070002009FD0B8A6EE8D700C0DCFF01C0DCFF41
:1020800002C0DCFF03C0DCFF08C0DCFF00A014D0EE
:102090008A500209DF0B8A6E8A501009F70B8A6E8C
:1020A00003320232013200328A500809EF0B8A6E85
:1020B000084E17D000B0ECD78A502009FD0B8A6E6D
:1020C0008A501009F70B8A6E033202320132003255
:1020D0008A500809EF0B8A6E084E03D000A0ECD797
:1020E000D7D700D00000DD0E8A16DDCF08F0DDCF97
:1020F00003F0DDCF02F0DDCF01F0DDCF00F0120004
:1021000008C0DCFF060E086EB7DFDDCF08F0120056
:1021100000C0DCFF01C0DCFF08C0DCFF0036013678
:102120000090019E100E086EA7DFDDCF08F0DDCF16
:1021300001F0DDCF00F0120000C0DCFF01C0DCFFC9
:1021400002C0DCFF08C0DCFF00360136023600901A
:10215000029E180E086E90DFDDCF08F0DDCF02F092
:10216000DDCF01F0DDCF00F0120008C0DCFF09C0B8
:10217000DCFF8A500809EF0B8A6EDD0E8A16210EED
:10218000096E00008A501009F70B8A6ED89003324E
:10219000023201320032090600D00000B4BC038EC6
:1021A00000D08A500809EF0B8A6E082EEAD7094E34
:1021B00006D0D8900332023201320032F8D7DDCF98
:1021C00009F0DDCF08F0120002C0DCFF03C0DCFF25
:1021D00008C0DCFF100E086EC8DF013200323F0E6F
:1021E0000116DDCF08F0DDCF03F0DDCF02F01200E5
:1021F00000C0DCFF01C0DCFF080E016E00BE12D083
:102200008A502009FD0B8A6E8A501009F70B8A6EDE
:10221000003600D08A500809EF0B8A6E014E15D0A7
:1022200000AEEED78A500209DF0B8A6E8A50100981
:10223000F70B8A6E003600D08A500809EF0B8A6EC1
:10224000014E03D000AEDCD7EDD700D00000DD0E8C
:102250008A16DDCF01F0DDCF00F0120000C0DCFFF8
:1022600001C0DCFF02C0DCFF03C0DCFF180E036E00
:1022700002BE13D08A502009FD0B8A6E8A501009C5
:10228000F70B8A6E0036013602368A500809EF0BCA
:102290008A6E034E16D002AEEDD78A500209DF0BCC
:1022A0008A6E8A501009F70B8A6E003601360236A4
:1022B0008A500809EF0B8A6E034E03D002AEDAD7BC
:1022C000ECD700D00000DD0E8A16DDCF03F0DDCFA5
:1022D00002F0DDCF01F0DDCF00F0120000C0DCFF26
:1022E00001C0DCFF02C0DCFF026AD8900036013674
:1022F0000236B4DFDDCF02F0DDCF01F0DDCF00F03C
:10230000120000C0DCFF01C0DCFF02C0DCFF026A7B
:102310003F0E0116D89000360136A0DFDDCF02F067
:10232000DDCF01F0DDCF00F0120000C0DCFF01C006
:10233000DCFF02C0DCFF016A026AD8900036013679
:1023400002368CDFDDCF02F0DDCF01F0DDCF00F013
:10235000120003C0DCFF8A500809EF0B8A6EDD0E05
:102360008A16180E036E8A501009F70B8A6ED890E1
:1023700000360136023600D000D00000B4BC008028
:102380008A500809EF0B8A6E032EEDD7DDCF03F0DC
:10239000120002C0DCFFDDDF013200323F0E011609
:1023A000DDCF02F0120001C0DCFF02C0DCFFD1DF94
:0E23B00001320032DDCF02F0DDCF01F012006D
:0223BE0001011B
:1023C000A20E6B6F240E6C6F000E6D6F010E6A6FA4
:1023D0001200016ACDEC0CF001B602D019D8F9D781
:1023E00012006D98016ACDEC0CF001B402D010D847
:1023F000F9D7C9EC0CF01200200E016EC2EC0CF003
:1024000001A002D005D8F8D70101814B822B120020
:1024100000C063F101C064F102C065F103C066F160
:1024200004C067F105C068F106C069F1FC041F0B28
:10243000016E01016A6F01EE6BF0FDCFEEFFFECF82
:10244000EEFFFFCFEEFF0600012EF7D7120011A21C
:1024500002D0119226D0010101EE6AF06A51016E9C
:10246000030DF350E926014E08D00500ED50FF6E34
:10247000ED50FE6EED50FD6EF6D763C100F064C105
:1024800001F065C102F066C103F067C104F068C1E4
:1024900005F069C106F06D51FB6E6C51FA6E6B511F
:1024A000F96E01017F6B806B11AA03D080EC1CF0E8
:1024B000119A080E026E016ABDEC0CF001A002D068
:1024C000A7DFF9D701A402D0080E026E01EE77F063
:1024D00002500808E92600C0EFFF022EECD70101E8
:1024E000816B826B000EFB6E250EFA6E78510C0824
:1024F000D8A023D07835E834FC0B060FD8B0FA2AE0
:10250000D8B0FB2AF96E9DEF12F09DEF12F09DEF0F
:1025100012F09DEF12F09DEF12F080EF13F0E4EF58
:1025200012F09DEF12F08FEF13F088EF13F097EF9A
:1025300013F094EF13F09DEF12F06D98C0EC0CF0D7
:10254000B8D74FDF010103507E5DD8A006D0D8A4D4
:1025500008D002507D5DD8B004D07DC102F07EC1AC
:1025600003F002500310D8B412D004C0F6FF05C027
:10257000F7FF06C0F8FF0800F5CF00F03DDF042AA2
:10258000000E052206220206D8A00306EAD70101A2
:102590007D51070BD8A408D07D518119D8A404D04F
:1025A0007E518219D8B485D7016AD0EC0CF001A213
:1025B00080D72EDFF9D715DF400E016ED0EC0CF07E
:1025C00001A077D725DFF8D701017A51FF0FD8A4F2
:1025D0000DD07953D8A4B1D7BC0E046E3A0E056E57
:1025E000000E066E120E026E036AABD7FF0FD8A460
:1025F0000DD07953D8A4A1D7CE0E046E3A0E056E35
:10260000000E066E200E026E036A9BD7FF0FD8A441
:1026100094D77905D8B45DD079510308D8A08DD767
:102620007951D8A4FF0FE824150FF66E3B0ED8B0F1
:10263000010FF76E000ED8B0010FF86E0900F5CF4C
:1026400004F00800F5CF05F0EE0E04263A0E052240
:10265000000E066E000E062204C0F6FF05C0F7FF4E
:1026600006C0F8FF0800F5CF02F0036A7951D8B42C
:1026700068D77E53D8A405D002507D5DD8A07DC117
:1026800002F0AFDE0250D8B482D7F5CF00F0B4DE4E
:10269000024E7DD7030E006EAFDE024E78D7020EDB
:1026A0000426000E0522062204C0F6FF05C0F7FF2F
:1026B00006C0F8FF0800F5CF00F09EDE024E67D797
:1026C000006A9ADE024E63D7042A000E0522062213
:1026D000EBD787DE62EC1CF0118A0050026E020F0D
:1026E000006E8ADE030E006E87DE025205E00206EF
:1026F00077EC1CF081DEF9D780EC1CF0119A47D7FB
:1027000070DE400ED0EC0CF064DE79C16EFFD1D6E5
:10271000010179517F6F006E83EC0BF04CD77FC1C4
:1027200000F06ADE5EDE33D779C180F144D780C124
:0827300000F062DE56DE2BD73B
:0827380008C0DCFF140E086E5E
:102740003CEC10F0DDCF08F0120000C0DCFF01C04F
:10275000DCFF02C0DCFF08C0DCFF026AD890003654
:1027600001360236003601360236003601360236B0
:10277000003601360236140E086E3CEC10F0DDCF48
:1027800008F0DDCF02F0DDCF01F0DDCF00F0120068
:1027900000C0DCFF01C0DCFF08C0DCFF006A040EE3
:1027A000086E3CEC10F00E0E016E0250006E100E22
:1027B000086E3CEC10F0006A040E086E3CEC10F061
:1027C0006E0E016E0350006E100E086E3CEC10F0A1
:1027D000DDCF08F0DDCF01F0DDCF00F0120000C04A
:1027E000DCFF01C0DCFF800E016E02340E0B011213
:1027F00003C000F0AADFDDCF01F0DDCF00F0120052
:1028000000C0DCFF01C0DCFF900E016E02340E0B35
:10281000011203C000F099DFDDCF01F0DDCF00F041
:10282000120002C0DCFF03C0DCFF14AC0CD0265049
:102830002918D8A408D027502A18D8A404D0285082
:102840002B18D8B413D0148C2650296E026EF60EB5
:10285000036E9EDF27502A6E026EF70E036E98DF1E
:1028600028502B6E026EF80E036E92DFDDCF03F060
:10287000DDCF02F0120014BA10D0D3DF090E006EC3
:10288000016A0C0E086E3CEC10F0080E086EB5ECF8
:1028900010F0B2EC0DF080EF0FF0070E026E2DC1BC
:1028A00003F0AEDF060E026E2DC103F0A9DF2FC1CB
:1028B00003F026C002F06CDF31C103F027C002F044
:1028C00067DF000E026E2DC103F089DF500E016E2E
:1028D00033C100F03ADF500E006EEF0E016E060EAF
:1028E000026E2ADF006A016A026A26DF020E006EAB
:1028F000016A0C0E086E3CEC10F0080E086EB5EC88
:1029000010F080EF0FF000C0DCFF01C0DCFF070E0D
:10291000026E2DC103F063DF060E026E2DC103F0BF
:102920006FDFDDCF01F0DDCF00F07BD714BA4BD0E5
:1029300026B005D000C044F174DFD0EF0FF000C026
:1029400001F044C100F0026AD89000360136023628
:1029500000360136023600360136023600360136C0
:102960000236140E086E2204036E26140318D8B41F
:102970000BD00D0E00123CEC10F0020E2926000EBA
:102980002A222B22D0EF0FF00F0E00123CEC10F099
:10299000006A030E086E3CEC10F001EC10F099ECAC
:1029A0001AF00AEC1BF0FBEC0FF0030E446E99ECEE
:1029B0001AF00AEC1BF0006A016A100E086E3CEC7B
:1029C00010F0D0EF0FF02FC103F026C002F0E0DED0
:1029D00031C103F027C002F0DBDE33C103F000C0D9
:1029E00002F0D6DE010E026E2DC103F0F8DE006AA1
:1029F000016A026AA1DE006A016A026A9DDE99EC40
:062A00001AF0D0EF0FF008
:0A2A060000C0DCFF01C0DCFF14ACCF
:102A10000AD02A50275CD8A006D0D8A40BD02950C1
:102A2000265CD8B007D0296A2A6A148C160E006E6C
:102A300080EC10F027AE0CD02ABE0AD0296A800E96
:102A40002A6E006A80EC10F0006A016A88EC10F0CF
:102A500029502618006E2A5027180010D8B407D025
:102A6000060E006E80EC10F0B2EC0DF0F1D7DDCF69
:102A700001F0DDCF00F0120000C0DCFF01C0DCFF80
:102A800002C0DCFF2750016E2650006E14AA04D04D
:102A90002F5000263050012214AC1DD029500018B0
:102AA000026E2A500118021024E02A500118800BEF
:102AB00012E12928026E000E2A2001180CE10250B2
:102AC000001809E100C029F001C02AF0060E006ECE
:102AD00080EC10F00ED000C029F001C02AF01D0ECD
:102AE000006E80EC10F026C000F0026A9CEC10F042
:102AF000148CDDCF02F0DDCF01F0DDCF00F012004D
:102B000082DF040E14BA050E006E80EC10F0E4ECC7
:102B100010F080EF0FF0B0DF240E006E80EC10F0AC
:102B2000E4EC10F02A50800B026E292A000E2A20B5
:102B30007F0B02102A6E80EF0FF065DF0050026EEF
:102B4000020E14BA030E006E80EC10F00250006EFC
:102B500088EC10F014BA10D02204006E261400186D
:102B6000D8B40AD02750245CD8A006D0D8A418D056
:102B70002650235CD8B014D042C100F080EC10F095
:102B800099EC1AF014A20CD043C100F00AEC1BF02F
:102B900080EC10F0030E446E456A466A99EC1AF018
:102BA000D0EF0FF00101180E426F0A0E436F14822E
:102BB00027BE02D014AAC1D73E0E446E456A466AAB
:102BC0000101080E426F1492B8D756DF2ABE32D0E8
:102BD0002204026E261402180EE000C002F0220E3B
:102BE000006E80EC10F002C000F088EC10F0B2EC47
:102BF0000DF0D0EF0FF000C002F0020E006E80EC7E
:102C000010F002C000F088EC10F0180E006E80EC9E
:102C100010F099EC1AF00A0E006E0AEC1BF080EC32
:102C200010F0050E446E456A466A99EC1AF0149C41
:102C3000D0EF0FF000C002F0020E006E80EC10F03A
:102C400002C000F088EC10F0080E006E80EC10F06E
:102C50003E0E446E456A466A99EC1AF0D0EF0FF0CA
:102C60004C6A0101000E5D6F020E5E6F010EE8CF2F
:102C700000F2A10E5F6F000E606F000EE8CFA1F0B2
:102C8000A40E616F010E626F000EE8CFA4F1120076
:102C900000C0DCFF01C0DCFF05C0DCFF030E056ED9
:102CA00011EE5DF0E6CFE9FFE6CFEAFFEF5203E079
:102CB000052EF8D7FF00DDCF05F000C0E1FF01C011
:102CC000E2FF00C0E6FF01C0E6FF02C0E6FF03C06E
:102CD000E6FF04C0E6FF05C0E6FF06C0E6FF07C04A
:102CE000E6FFEE2A000E0006015AE55200C0EEFF94
:102CF00001C0EEFF00C0EEFF01C0EEFFE1CFEEFF2E
:102D0000E2CFEEFF02C0EEFF03C0EEFFDDCF01F029
:102D1000DDCF00F0120008C0DCFF09C0DCFF0AC0F4
:102D2000DCFF0BC0DCFF0CC0DCFF0DC0DCFF0EC005
:102D3000DCFF0FC0DCFF10C0DCFF13D8DDCF10F0CC
:102D4000DDCF0FF0DDCF0EF0DDCF0DF0DDCF0CF0DD
:102D5000DDCF0BF0DDCF0AF0DDCF09F0DDCF08F0DD
:102D6000120000C0DCFF01C0DCFF02C0DCFF03C0BA
:102D7000DCFF04C0DCFF05C0DCFF06C0DCFF07C0D1
:102D8000DCFFE9CF00F0EACF01F001EE5DF04C444A
:102D9000E926EE50EFCFEAFFE96EFC501F0B026E02
:102DA000EE6E00C0EEFF01C0EEFFE1CFEEFFE2CF1E
:102DB000EEFFD9CFEEFFDACFEEFFFD50EE6EFE5004
:102DC000EE6E0600022EF9D74C2A4C500208D8A00D
:102DD0004C6A01EE5DF04C44E926EE50EFCFEAFF7D
:102DE000E96EEF52F1E0EECF01F0EECF02F0EECF60
:102DF00003F0F29EFC6AEECFE1FFEECFE2FFEECFF2
:102E0000D9FFEECFDAFFF28E0144FF0FE926000E64
:102E1000EA220500ED50FE6EED50FD6E012EF9D751
:102E200002C0E9FF03C0EAFFDDCF07F0DDCF06F007
:102E3000DDCF05F0DDCF04F0DDCF03F0DDCF02F014
:102E4000DDCF01F0DDCF00F0120000500208D8A065
:102E50000DD001EE5DF00044E926EE50EFCFEAFF21
:102E6000E96EEF6A00504C5CD8B4AED7120001EEA8
:102E70005DF04C44E926EE50EFCFEAFFE96EEF6AD1
:022E8000A3D7D6
:0E2E820001C0DCFF02C0DCFF12AC23D0129CAA
:102E900001015C51B108D8B005D0FA0E4A6E0C0E93
:102EA0004B6E10D001015C51690DF3CF01F0F4CFEE
:102EB00002F0010DF35002244A6E01320130300B52
:102EC0000C094B6E1282BA0E446E0B0E456E466AAA
:102ED00099EC1AF0DDCF02F0DDCF01F01200BB6AF1
:102EE0000C0EBA6EEA0E4A6E0C0E4B6E1282010187
:102EF000010E5B6FA60E5C6F12000101010E5B1BE1
:102F00005B6FD8B40CD08A9C8A94020E446E456ADA
:102F1000466A99EC1AF0129612AC01D0B2DF120098
:102F200000C0DCFF01C0DCFF0101020E5B1B5B6F18
:102F3000D8B432D08A9C00D000D000D000D000D0CD
:102F400000D000D000D000D000D000D000D000D001
:102F500000D000D000D000D000D000D000D000D0F1
:102F600000D000D000D000D000D000D000D000D0E1
:102F700000D000008A84129684DF12A80DD05A0E69
:102F8000446E020E456E466A99EC1AF02C0E006EE5
:102F9000010E016EA8EC1AF0DDCF01F0DDCF00F0DC
:102FA000120000C0DCFF01C0DCFF0101030E5B1B4F
:102FB0005B6FD8B421D065DF0AEC1BF08A9400D097
:102FC00000D000D000D000D000D000008A8C128643
:102FD00058DF12A811D05A0E446E020E456E466A92
:102FE00099EC1AF001015C519D0DD890F430016EFE
:102FF000F330006EA8EC1AF0DDCF01F0DDCF00F069
:103000001200010100505C19D8B408D000C05CF176
:10301000128C5B51030AD8B401D033DF12008A9CB2
:103020008A9401015B6B129612008A9400D000D042
:1030300000D000D000D000D000D000D000D000D010
:1030400000D000D0F29E8A8C00D000D000D000D0FA
:0C30500000D000D08A848A9CF28E12000E
:04305C0000C0DCFFD5
:1030600001C0DCFF14AC06D02950261803E12A5019
:10307000271819E00AEC1BF000C041F1800E006E29
:10308000F8EC10F041C100F000D000D000D000D02A
:1030900000D000002650296E006E27502A6E016E67
:1030A0006EEC11F0148CDDCF01F0DDCF00F01200DA
:1030B000D5DF0AEC1BF000C041F1FE0E006EF8EC0B
:1030C00010F041C100F000D000D000D000D000D0FE
:1030D0000000C9EC11F0B2EC0DF080EF0FF0BEDF94
:1030E0002650235C27502458D8A03FD02204026EDB
:1030F0002614021816E00AEC1BF000C041F1020E83
:10310000006EF8EC10F041C100F000D000D000D00B
:1031100000D000D0000081EC11F0B2EC0DF0D0EF47
:103120000FF00AEC1BF000C041F1000E006EF8EC4D
:1031300010F041C100F000D000D000D000D000D08D
:10314000000081EC11F000C041F1E00E006EF8ECDF
:1031500010F041C100F000D000D000D000D000D06D
:10316000000099EC1AF0D0EF0FF00AEC1BF000C051
:1031700041F1000E006EF8EC10F041C100F000D0FB
:1031800000D000D000D000D0000081EC11F000C0D1
:1031900041F1E00E006EF8EC10F041C100F000D0FB
:1031A00000D000D000D000D000004A0E446E456A26
:0A31B000466A99EC1AF0D0EF0FF018
:0631BA0000C0DCFF0A0E5C
:1031C000C16E060EC06E090EC26E9D8C0101020E0C
:1031D000006F030E016F010E026F01EE03F0100E7F
:1031E000006EEE6A002EFDD7DDCF00F01200166AE9
:1031F000EECF17F0EECF18F0196AEECF1AF0EDCF40
:103200001BF0D8901832173216321B321A3219328C
:103210001832173216321B321A321932183217325C
:1032200016321B321A3219321950165E1A50175ABA
:103230001B50185A1750EE261850ED2212009E9C73
:1032400001C1E9FF02C1EAFFC3CFEEFFC4CFEDFF2A
:10325000010100B309D0020E006F030E016F010ED1
:10326000026F090EC26E08D0040E006F0B0E016FC4
:10327000010E026F110EC26EBADFB9DFB8DF59EF6F
:1032800000F002C0DCFF03C0DCFF04C0DCFF05C0AF
:10329000DCFF06C0DCFF07C0DCFFF29E09C100F0C6
:1032A0000AC101F0F28E750E046E170E056E066AE5
:1032B000076A18D002C0DCFF03C0DCFF04C0DCFFDB
:1032C00005C0DCFF06C0DCFF07C0DCFFF29E11C1B9
:1032D00000F012C101F0F28E2B0E046E370E056E57
:1032E000066A076A026A036AB3EC1CF002C000F0C7
:1032F00003C001F0DDCF07F0DDCF06F0DDCF05F034
:0E330000DDCF04F0DDCF03F0DDCF02F01200D0
:02330E0000C0FD
:10331000DCFF01C0DCFF14AC0AD02A50275CD8A027
:1033200006D0D8A408D02950265CD8B004D0B8EC78
:103330000DF00AEC1BF027AA0BD02ABA09D0296A93
:10334000200E2A6E006A80EC10F0016A88EC10F002
:1033500029502618006E2A5027180010D8B407D01C
:10336000060E006E80EC10F0B2EC0DF0F1D7DDCF60
:1033700001F0DDCF00F01200CADF040E14BA050E12
:10338000006E80EC10F0E4EC10F080EF0FF0BFDF87
:103390000050026E020E14BA030E006E80EC10F0A4
:1033A0000250006E88EC10F014BA10D02204006EA7
:1033B00026140018D8B40AD02750245CD8A006D010
:1033C000D8A418D02650235CD8B014D0180E14B24C
:1033D000080E006E80EC10F099EC1AF014A40AD0DC
:1033E000170E14B60E0E14B80A0E006E0AEC1BF07F
:1033F00080EC10F0D0EF0FF01482C9D7148426505F
:10340000070AD8A4C4D72750200AD8A4C0D714824A
:103410001494610E446E456ABAD7148214841486DB
:10342000B6D71482B4D71484B2D714841488AFD713
:10343000BE6A0C0EBD6E04D80101010E596F120058
:103440000101D00E5A6F596B120001015951010A46
:103450000FE0010E596F8A90486A0C0E496E128077
:1034600012942E0E446E010E456E466A99EC1AF0C7
:10347000120000C0DCFF01C0DCFF01015951020A4B
:103480001DE0020E596F486A0C0E496E12801294AC
:103490002E0E446E010E456E466A99EC1AF00AEC47
:1034A0001BF08A80B20E446E040E456E466A99EC9B
:1034B0001AF0640E006E016AA6EC1AF0DDCF01F07E
:1034C000DDCF00F0120000C0DCFF01C0DCFF010115
:1034D0005A51486E0C0E496E1280B20E446E040EA4
:1034E000456E466A99EC1AF001015A51180DF3CF56
:1034F00000F0F4CF01F0A6EC1AF0DDCF01F0DDCF43
:1035000000F0120001015951030A05E0030E596F42
:103510008A90D9DF1284120000C05AF112008A90FA
:0A352000486A0C0E496E12801294E6
:06352A00476A0101536B2A
:103530001200F29E44C03DF045C03EF046C03FF050
:103540001298F28E476A0101536B1200010E01D0EE
:10355000020E0101536F02C0DCFF03C0DCFF01302B
:10356000036E0030026E0332023203320232033243
:10357000023203320232070E03160350000807E33B
:1035800003E1640E025C03E2640E026E036A025001
:10359000005C546F03500158556F02E2546B556B39
:1035A00002500024566F03500120576F02E3566902
:1035B0005769DDCF03F0DDCF02F01200010E476E38
:1035C00001015451005C5551015809E3020E476E48
:1035D0000050565D0150575902E3476A12881200A5
:1035E00000C0DCFF01C0DCFF010153B103D053B3C5
:1035F00005D00BD041EC19F0E1DF07D05AEC19F0FF
:10360000DDDFD8904736D8904736DDCF01F0DDCFEB
:0C36100000F01200E5DF12A8FDD7120048
:04361C000301006B3B
:10362000010E016F026FAB6A240EAC6E080EB86E0D
:10363000670EAF6E000EB06E900EAB6E9D8A080ED8
:10364000D56EF2941200AB5003014D6EAE504E6E2B
:10365000ABA202D0AB98AB884DB40ED0FD0E005D8E
:10366000D8B00AD003EE02F001514EC0EBFF002BA0
:10367000FD0E014F016F118E59EF00F0F29E030114
:10368000FD0E005DD8B00AD003EE02F0015100C07B
:10369000EBFF002BFD0E014F016F118EF28E120019
:1036A00000C300F0120011AEFED70301F29E03EE3C
:1036B00002F00251EBCF00F00007FD0E024F026F47
:1036C000006701D0119EF28E12009EB805D09EA810
:1036D000FED700C0ADFF17D0ACB20AD0F29EF2B454
:1036E00004D000C0ADFFF28E0ED0F28EACA2FED799
:1036F000D59EFD0ED76E160ED66EF294F29E00C0C9
:08370000ADFFD58EF28E120020
:0837080000C0DCFF01C0DCFF82
:1037100002C0DCFF03C0DCFF26C002F027C003F0BC
:1037200014AA04D02F5002263050032202502C1825
:10373000006E03502D18001202E114BE149C14BC3C
:1037400006D00AEC1BF0B8EC0DF00AEC1BF02C5084
:1037500002162D50031629500218D8A404D02A505E
:103760000318D8B40CD0060E006E80EC10F0B2EC4A
:103770000DF02C5029162D502A162B6AECD7DDCFD0
:1037800003F0DDCF02F0DDCF01F0DDCF00F012005D
:10379000BBDF44EF0FF0B8DF040E006E80EC10F0DA
:1037A000E4EC10F080EF0FF0AFDF00C002F0020E8B
:1037B000006E80EC10F002C000F088EC10F0080EF3
:1037C000006E80EC10F01FC044F0456A99EC1AF0CE
:1037D0000AEC1BF00E0E006E80EC10F0020E446E30
:0A37E000456A99EC1AF0D0EF0FF0E3
:0637EA0001014F6B12000B
:1037F000190E3A6E1200190E3C6E12000101010EF4
:103800004F19D8B40DD0010E4F6F110E366EC80E81
:10381000376EC80E386E010EF29E396E129AF28E15
:1038200012000101030E4F19D8B40DD0030E4F6FD3
:10383000480E366E320E376E320E386E010EF29E24
:10384000396E129AF28E12000101020E4F19D8B48D
:103850000DD0020E4F6F120E366E190E376E190E06
:10386000386E010EF29E396E129AF28E120001012C
:10387000040E4F19D8B40DD0040E4F6F8F0E366E54
:10388000640E376E640E386E010EF29E396E129A17
:10389000F28E120012B402D012A602D0190E3B6EA4
:1038A0003C52D8B402D0E3DF0BD03B52D8B402D0A4
:1038B000B8DF06D03A52D8B402D0C6DF01D09EDFBE
:0238C0001200F4
:0E38C200120001C0DCFF02C0DCFF016A026AD6
:1038D00030EC1DF033EC1DF000505008D8A0006A09
:1038E00000C052F1DDCF02F0DDCF01F01200006A1E
:1038F00001015253D8B403D0520733EC1DF012002B
:10390000120001C0DCFF02C0DCFF010E016E026A82
:1039100030EC1DF00101500E526FDDCF02F0DDCF13
:1039200001F0120001015253D8B403D052073FEC0A
:103930001DF0120000C0DCFF01C0DCFF02C0DCFF94
:10394000016A026A30EC1DF0010152515008006E0C
:103950003FEC1DF05AEC1DF0DDCF02F0DDCF01F0A1
:06396000DDCF00F01200B3
:0A39660004C0DCFF05C0DCFF06C052
:10397000DCFF07C0DCFF08C0DCFF09C0DCFF0AC0B9
:10398000DCFF0BC0DCFF0050086E0150096E0250D6
:103990000A6E03500B6E006A016A026A036A0850DD
:1039A00009100A100B10D8B4E7EF1CF008A0DBEFE9
:1039B0001CF00CEC1EF0D8900B320A32093208329F
:1039C000D8900436053606360736CFEF1CF0DDCF2B
:1039D0000BF0DDCF0AF0DDCF09F0DDCF08F0DDCF51
:1039E00007F0DDCF06F0DDCF05F0DDCF04F01200EB
:1039F000800EF16EF06A9D6AA06A9E6AA16A9F6A53
:103A0000A26AD09E116A126A136A146A156A19ECC6
:103A10001EF0ECEC1DF030EC16F00EEC1BF02DEC73
:103A20001DF061EC1CF05EEC00F06FEC17F018EC90
:103A30001AF0DBEC0FF066EC0DF0DDEC18F0F5ECB5
:103A40001BF095EC1AF006EC06F06BEC0AF0DFECDC
:0A3A500011F0BBEC1DF0FEEF1DF0BD
:063A5A000101586B12008F
:103A600001C058F11200A6B233EF1DF058C1A9FFF2
:103A7000A66AA6800101582BA8CF00F0120001C051
:103A8000DCFFA6B241EF1DF058C1A9FF00C0A8FF9E
:103A9000A66AA684F2CF01F0550EF29EA76EAA0E7A
:103AA000A76EA68201BEF28EA6940101582BDDCF2F
:0C3AB00001F01200A6B25AEF1DF0120047
:043ABC0012011001E2
:103AC000FF00FF08C016C805380002030001090204
:103AD000200001010080FA0904000002FF00FF003D
:103AE00007050102400001070581024000010403AF
:103AF00009041403456D62656420496E632E035505
:103B0000534250726F67205049432070726F677242
:0B3B1000616D6D6572000004000F0085
:043B1C0040C050F164
:103B20000101640E516FB1EC16F011A602D011968E
:103B30001384B0EC00F04AEC1CF040500101501925
:103B400006E0502B512F03D0640E516F138813A839
:103B500011D0139811AC02D0119C0CD092EC0AF049
:103B6000E20E446E2E0E456E466A99EC1AF00AEC8F
:063B70001BF0FF00D8D796
:0A3B7600366A376A386A396A3D6A18
:103B80003E6A3F6A1288406A3A6A3B6A3C6A3C0E67
:103B9000416E780E426E436AF90ECB6E1C0ECA6EF1
:0C3BA000CC6A9E929D82F28CF28E120084
:043BAC000D00000008
:103BB00000010001010101010101010800000000F4
:103BC00001010101010E00000000010101010101DC
:083BD00001010101010101B135
:083BD800C26A0F0EC16E070E58
:103BE000B46EF18E896A2F0E926E8A6A800E936E81
:0C3BF000040E8B6EF00E946E846A1200BE
:043BFC008998720E24
:103C0000446E170E456E466A99EC1AF00AEC1BF0EA
:083C100073EC0AF08EEF1DF0C9
:083C180008C0DCFF0450002687
:103C2000055001220650022207500322DDCF08F082
:023C3000120080
:063C320020EE5FF012001D
:020000040030CA
:0E000000E13FF6FEFFF99AFFFFFFFFDFFFFF73
:0200000400F00A
:080000000755534250726F676F
:00000001FF
