:020000040000FA
:06000000F26AF3EF1CF0B0
:020006000000F8
:08000800E9CFDCFFEACFDCFFC9
:100010009EAA02D01EEF1BF09EAC02D01AEF19F080
:100020009EB202D000EF00F09E92C28239503A1088
:100030003B10D8B40AD0010E395E000E3A5A3B5A32
:1000400039503A103B10D8B4128611AE05D0119E2B
:1000500047C0BDFF46C0BEFF12A005D0129049C0E8
:10006000BAFF48C0BBFF3F2E09D03C0E3F6E382E72
:1000700005D01278365012A83750386E0E0E410651
:10008000D8A0416E355012A835380F0B415CD8A06E
:1000900002D08B9001D08B80402E0BD0780E406E1A
:1000A0003C52D8A43C063D52D8A43D063E52D8A4AA
:0C00B0003E06DDCFEAFFDDCFE9FF1100C6
:0400BC000101A40E8C
:1000C000196F010E1A6F000E1B6F010E186F1200D0
:1000D00000C013F101C014F102C015F103C016F104
:1000E00008C017F1FC041F0B016E0101186F01EE2F
:1000F00019F0FDCFEEFFFECFEEFFFFCFEEFF0600C3
:10010000012EF7D7120001C0DCFFDDCF01F0E0DFE8
:1001100001C0DCFF016AD1EC0CF001B0F6D7F3ECC2
:100120001BF0DDCF01F0120001C0DCFF016AD4EC4E
:100130000CF001A006D0DDCF01F0CADF01C0DCFF6A
:10014000F5D7DDCF01F0120012B61200C1DFEBECE3
:100150001AF0FAD7BDDF12BCFDD7128C128E120036
:10016000010101EE18F01851016E030DF350E9265C
:10017000014E08D00500ED50FF6EED50FE6EED50C3
:10018000FD6EF6D713C100F014C101F015C102F0E5
:1001900016C103F017C108F01B51FB6E1A51FA6E1D
:1001A0001951F96E95DF016AD1EC0CF001B0FAD764
:1001B0000050016E5908D8A0F5D70FD8025003108F
:1001C000D8B4F0D7060E0226020E0320FA6E000EF7
:1001D000FB6E000EFB220250F96E036AD8900134C8
:1001E000026E0336060E0224F66E020E0320F76E30
:1001F000000EF86E000EF8220900F5CF02F009009B
:10020000F5CF03F012000000B400B8000000C400F5
:10021000E000BA01D6017A02860292029E02AA0288
:10022000BA02D002F00200000000320300003E03D8
:10023000560362038A03F803A803C80300000604F8
:1002400078041A053C04480452042E043604A00520
:1002500094046C042603D403A2060000CE06E20632
:10026000F6060000000006074E07000060090C01BA
:100270004201FA01260232060000D4045C0742055E
:100280007A038C078007B0074A03C407F2071C08EB
:10029000B0046E03000000001E08320846085A0829
:1002A0006E0882089608AA08BE08D208E608FE086A
:1002B0001E093A09820192015A02D2EF00F0A4EC21
:1002C00000F094EC0DF0D2EF00F083EC00F0005061
:1002D000070B010F086E83EC00F0A4EC00F037EC84
:1002E00010F0D2EF00F083EC00F000500F0B010F84
:1002F000086E83EC00F000C002F083EC00F000C058
:1003000001F002C000F0A4EC00F037EC10F0D2EFE6
:1003100000F083EC00F000501F0B010F086E83EC1F
:1003200000F000C003F083EC00F000C001F083ECAB
:1003300000F000C002F003C000F0036AA4EC00F07B
:1003400037EC10F0D2EF00F083EC00F000501F0B00
:10035000010F086E83EC00F000C003F083EC00F0A6
:1003600000C001F083EC00F000C002F083EC00F06C
:1003700000C004F003C000F004C003F0A4EC00F0DF
:1003800037EC10F0D2EF00F083EC00F0A4EC00F0BA
:10039000F3EC10F0D2EF00F083EC00F000C003F0BB
:1003A00083EC00F000C001F083EC00F000C002F02C
:1003B00003C000F0A4EC00F029EC11F0D2EF00F043
:1003C00083EC00F00050070B010F086EA4EC00F066
:1003D000B0EC10F094EC00F0D2EF00F083EC00F001
:1003E00000500F0B010F086EA4EC00F0B0EC10F001
:1003F00094EC00F001C000F094EC00F0D2EF00F0BB
:1004000083EC00F000501F0B010F086EA4EC00F00D
:10041000B0EC10F094EC00F001C000F094EC00F0AF
:1004200002C000F094EC00F0D2EF00F083EC00F09A
:1004300000501F0B010F086EA4EC00F0B0EC10F0A0
:1004400094EC00F001C000F094EC00F002C000F069
:1004500094EC00F003C000F094EC00F0D2EF00F058
:10046000A4EC00F0A4EC11F094EC00F001C000F05A
:1004700094EC00F002C000F094EC00F0D2EF00F039
:10048000A4EC00F0FCEC0FF0D2EF00F0A4EC00F0D4
:10049000F6EC0FF0D2EF00F0A4EC00F00DEC10F051
:1004A000D2EF00F0A4EC00F007EC10F0D2EF00F077
:1004B000A4EC00F018EC10F094EC00F0D2EF00F097
:1004C000A4EC00F0D9EC0FF0006A13B8008094ECB3
:1004D00000F0D2EF00F083EC00F000C001F083ECFC
:1004E00000F0A4EC00F001C042F000C043F094EC36
:1004F0001AF0D2EF00F0010E006E94EC00F0190E2D
:10050000006E94EC00F01D0E006E94EC00F0250ED1
:10051000006E94EC00F0006A94EC00F094EC00F0B3
:1005200094EC00F094EC00F0D2EF00F0020E006EBC
:1005300094EC00F0D2EF00F0A4EC00F07DEC1AF0A7
:10054000D2EF00F0A4EC00F034EC1AF0D2EF00F09F
:1005500083EC00F087EC1AF0D2EF00F0A4EC00F08E
:10056000CCEC17F0D2EF00F0A4EC00F08BEC17F01D
:10057000D2EF00F0A4EC00F078EC17F0D2EF00F02E
:1005800083EC00F0A4EC00F0FCEC17F0D2EF00F0EC
:1005900083EC00F0139A00BE138A009E00501B6E7D
:1005A0002B6A2C6A2D6A2CEC0DF0D2EF00F083EC54
:1005B00000F000C01CF0010E216E1BEC1AF0A4EC40
:1005C00000F0A60E006EFCEC17F0D2EF00F083EC0A
:1005D00000F000C01DF0D2EF00F083EC00F000C08E
:1005E00001F083EC00F000C002F083EC00F001C0E9
:1005F0002BF002C02CF000C02DF0D2EF00F01494CC
:10060000A4EC00F0B3EC0DF0D2EF00F083EC00F0BE
:1006100000C001F083EC00F000C002F083EC00F0B9
:1006200001C025F002C026F000C027F00EEC0FF04C
:10063000D2EF00F0A8EC0DF0D2EF00F01496D2EF5C
:1006400000F083EC00F000501E6ED2EF00F014A416
:10065000D2EF00F0149404D014B4D2EF00F014845C
:10066000251C286E261C296E271C2A6E1496D2EF94
:1006700000F0A4EC00F0F6EC1BF0D2EF00F0A4ECDC
:1006800000F04AEC0FF094EC00F001C000F094ECA4
:1006900000F0A8EC0DF0D2EF00F0A4EC00F0080E92
:1006A000026E4AEC0FF094EC00F0A8EC0DF0022E74
:1006B000F8D7D2EF00F0A4EC00F0400E026E4AEC46
:1006C0000FF094EC00F001C000F094EC00F0A8EC06
:1006D0000DF0022EF4D7D2EF00F0FC0E2516FEEC42
:1006E00007F05DEC08F094EC00F001C000F094EC31
:1006F00000F002C000F094EC00F003C000F094ECB5
:1007000000F004C000F094EC00F005C000F094ECA0
:1007100000F0040E2526000E26222722D2EF00F03C
:1007200083EC00F000C002F083EC00F000C001F0A8
:1007300002C000F0F6EC1BF0A4EC00F082EC0FF02D
:10074000A8EC0DF0D2EF00F0F6EC1BF0080E086EEE
:10075000250E026E010E036E83EC00F002C0E9FF6D
:1007600003C0EAFF00C0EFFF022AD8B0032A082E18
:10077000F3D70168080E086E250E026E010E036E97
:1007800002C0E9FF03C0EAFFEFCF00F0022AD8B0B1
:10079000032AA4EC00F082EC0FF0A8EC0DF0082E78
:1007A000EFD7D2EF00F0F6EC1BF0A4EC00F07EECFB
:1007B00014F0030E036E83EC00F00050026E83EC25
:1007C00000F00050016E0D0E0352D8B40F0E006EF3
:1007D000040E086E37EC10F00250006E100E086E1A
:1007E00037EC10F0030603AEE6D7006A030E086E7E
:1007F00037EC10F0FCEC0FF00E0E426E436A446AC8
:1008000094EC1AF0080E2526D8B0262AD8B4272A48
:100810001496A4EC00F0F6EC0FF0010E426E436A61
:1008200094EC1AF005EC1BF0006A016A100E086ED9
:1008300037EC10F0D2EF00F0F6EC1BF0F80E2516B6
:1008400083EC00F000C001F083EC00F000C002F087
:1008500083EC00F0A4EC00F0B2EC09F083EC00F0C3
:1008600000C001F083EC00F000C002F083EC00F067
:10087000C5EC09F083EC00F000C001F083EC00F05F
:1008800000C002F083EC00F0FCEC09F083EC00F017
:1008900000C001F083EC00F000C002F083EC00F037
:1008A00004EC0AF0D2EF00F083EC00F0046A005090
:1008B000016E5908D8A008D0EDEC00F002500310EA
:1008C000D8B402D0010E046E04C000F094EC00F025
:1008D000D2EF00F03CEC19F094EC00F001C000F015
:1008E00094EC00F0D2EF00F055EC19F094EC00F02D
:1008F00001C000F094EC00F0D2EF00F0A4EC00F0A6
:1009000045C000F094EC00F0D2EF00F083EC00F072
:10091000A4EC00F074EC0DF0A4EC00F013EC10F07B
:1009200002EC10F078EC17F0A4EC00F0005003E1BA
:1009300020EC1AF00AD0FA08FA0ED8A0006E87EC64
:100940001AF0A4EC00F07DEC1AF0A4EC00F0148C8A
:10095000D2EF00F0A4EC00F094EC0DF0148CD2EF88
:1009600000F083EC00F000C001F083EC00F000C068
:1009700002F083EC00F001C02EF002C02FF000C0A6
:1009800030F0D2EF00F083EC00F000C021F0D2EFA5
:1009900000F083EC00F00050026E83EC00F0005099
:1009A000016E83EC00F00250226E0150236E005065
:1009B000246ED2EF00F0410E006E94EC00F0030EB6
:1009C000006E94EC00F0D2EF00F0AAEC00F07CECAA
:1009D0001CF083EC00F000C001F00152D8B406D046
:1009E000010683EC00F08DEC1CF0F7D795EC1CF0C1
:1009F000129E129CD2EF00F0AAEC00F05DEC1CF00D
:100A000094EC00F000C001F00152D8B406D0010609
:100A100072EC1CF094EC00F0F7D7129E129CD2EF0F
:100A200000F0FF0083EC00F000C02DF183EC00F03B
:100A300000C02EF1D2EF00F083EC00F000C02FF1E7
:100A400083EC00F000C030F1D2EF00F083EC00F056
:100A500000C031F183EC00F000C032F1D2EF00F0C1
:100A600083EC00F000C033F183EC00F000C034F1FF
:100A7000D2EF00F083EC00F000C035F183EC00F021
:100A800000C036F1D2EF00F083EC00F000C037F187
:100A900083EC00F000C038F1D2EF00F083EC00F0FE
:100AA00000C039F183EC00F000C03AF1D2EF00F061
:100AB00083EC00F000C03BF183EC00F000C03CF19F
:100AC000D2EF00F083EC00F000C03DF183EC00F0C9
:100AD00000C03EF1D2EF00F083EC00F000C03FF127
:100AE00083EC00F000C040F1D2EF00F083EC00F0A6
:100AF00000C001F083EC00F001C01FF000C020F046
:100B0000D2EF00F01B0E006E94EC00F0B70E006EFA
:100B100094EC00F0006A94EC00F0006A94EC00F0B1
:100B2000D2EF00F0A4EC00F083EC00F00028016E9E
:100B300083EC00F060EC1BF0012EFAD7D2EF00F04E
:100B4000A4EC00F04BEC1BF094EC00F00050D8B497
:100B5000D2EF00F0016E4EEC1BF094EC00F0012E91
:100B6000FAD7D2EF00F083EC00F000C001F083EC84
:100B700000F00150040832E3000EFB6EFA6AD890D0
:100B80000136FA360136FA36980E01260B0EFA2295
:100B9000000EFB220150F96EEEEF05F0D6EF05F0E6
:100BA000DCEF05F0E2EF05F0E8EF05F0440E016E32
:100BB0003B0E026E000E18D05D0E016E3B0E026EF3
:100BC000000E12D0530E016E3B0E026E000E0CD0C2
:100BD0006D0E016E3B0E026E000E06D0000E006E12
:100BE00094EC00F0D2EF00F0F86E02C0F7FF01C005
:100BF000F6FF09000050F55ED8A0F0D7F626000EEB
:0C0C0000F722F8220800F5CF00F0EAD738
:040C0C00010E316E36
:100C1000400E326E080E336E400E346E0101010E2E
:100C2000456F120003C0DCFF08C0DCFF0101452F47
:100C30002DD000C0DCFF01C0DCFF02C0DCFF1C0EB9
:100C4000086E006A016A026A036A37EC10F037EC3A
:100C500010F0006A100E016E400E026E036A200E44
:100C600013B4016E37EC10F0006A016A026A036A7D
:100C700037EC10F013A604D037EC10F037EC10F07E
:100C8000DDCF02F0DDCF01F0DDCF00F000C0DCFFF2
:100C900001C0DCFF02C0DCFF036AD89000360136D9
:100CA0000236033600360136023603360036013688
:100CB0000236033600360136023603361C0E086E45
:100CC00037EC10F0DDCF02F0DDCF01F0DDCF00F02A
:100CD000DDCF08F0DDCF03F0120000C0DCFF01C063
:100CE000DCFF02C0DCFF006A016A026A9BDFDDCF25
:100CF00002F0DDCF01F0DDCF00F0120013A601D02D
:100D0000ECDF120013A603D0E8DFE7DFE6DF120016
:100D100002C0DCFF03C0DCFF08C0DCFFDEDF010E29
:100D2000006E016A0C0E086E37EC10F0100E086EA3
:100D3000B0EC10F0E3DFDDCF08F0DDCF03F0DDCF66
:100D400002F01200020E1CD0120E1AD0220E18D081
:100D5000320E16D0420E14D0520E12D0620E10D0A7
:100D6000720E0ED0820E0CD0920E0AD0A20E08D0B7
:100D7000B20E06D0C20E04D0D20E02D0E20E00D0C7
:100D800000C0DCFF01C0DCFF02C0DCFF026E0234E9
:100D9000003601360236023400360136023602349D
:100DA00000360136023602340036013602363ADFAA
:100DB000DDCF02F0DDCF01F0DDCF00F01200000E3C
:100DC0001ED0010E1CD0020E1AD0030E18D0040E35
:100DD00016D0050E14D0060E12D0070E10D0080E35
:100DE0000ED0090E0CD00A0E0AD00B0E08D00C0E35
:100DF00006D00D0E04D00E0E02D00F0E00D000C093
:100E0000DCFF01C0DCFF02C0DCFFEECF00F0EDCF65
:100E100001F00090026AD8900036013602360036A2
:100E2000013602360036013602360012880E0212F2
:100E3000F9DEDDCF02F0DDCF01F0DDCF00F01200F2
:100E4000000E1ED0010E1CD0020E1AD0030E18D0B8
:100E5000040E16D0050E14D0060E12D0070E10D0B8
:100E6000080E0ED0090E0CD00A0E0AD00B0E08D0B8
:100E70000C0E06D00D0E04D00E0E02D00F0E00D0B8
:100E800000C0DCFF01C0DCFF02C0DCFFEECF00F0E1
:100E9000EDCF01F00090026AD8900036013602369C
:100EA0000036013602360036013602360012800E58
:100EB0000212B8DEDDCF02F0DDCF01F0DDCF00F0B1
:100EC000120001EE37F097DF08DF120001014551F3
:100ED000F00B010ED8B4456F120000C0DCFF01C05A
:100EE000DCFF0A0E006E016A3BDF33C000F034C045
:100EF00001F038DF040E006E400E016E35DF31C0A8
:100F000000F032C001F032DF550E006E016A30DFB2
:100F1000AA0E006E016A2EDF006A016A2DDF006AE8
:100F2000016A2CDFCEDF286A296A2A6ADDCF01F048
:100F3000DDCF00F0120000C0DCFF01C0DCFF02C00A
:100F4000DCFF25502818006E265029180012275063
:100F50002A1800101FE014B40CD027502A6E006E1F
:100F6000016A0CDF2550286E006E2650296E016E36
:100F70000ED07F0E006E016A01DFD8902534006E1E
:100F80002634016E2E5000262F5001220112F4DE6D
:100F900098DFB4DEDDCF02F0DDCF01F0DDCF00F071
:100FA000120001014569149A05EC1BF013B40BD033
:100FB00094DE93DE006A010E016E040E026E12ECE6
:100FC00006F08BDE16D0006A016A026A036A050E1B
:100FD000086E37EC10F081DE91DE90DE006A020EC2
:100FE000016E040E026E12EC06F077DE76DE86DE0F
:100FF00085DE0101456971DF34EF0EF000C0DCFFD2
:1010000001C0DCFF2550006EFC0B256E0101466F10
:1010100026C047F127C048F18EDF00C025F09D0EA5
:10102000006EDB0E016EBA0E026E12EC06F055DE9B
:1010300054DE68DEBD0E006E016ABA0E026E12EC5E
:1010400006F04BDE4ADE5EDE9D0E006ED30E016EB4
:10105000BA0E026E12EC06F040DE3FDE53DE3D0EAD
:10106000006E010E016EBA0E026E12EC06F035DE55
:1010700034DE48DE01EE35F0A4DE4ADE00C049F180
:1010800001C04AF101EE35F09EDE42DE00C04CF1B7
:1010900001C04DF101EE35F09CDE3ADE00C04BF1AF
:1010A00001C04EF12850040F286E000E2922148A28
:1010B000DDCF01F0DDCF00F0120049C100F04AC1E0
:1010C00001F04BC102F04CC103F04DC104F04EC120
:1010D00005F0120014B421D014AA0CD02550FC0B3A
:1010E000006E0101461906E12650471903E1275019
:1010F000481901E083DF2550030B01EE4AF0E8B206
:1011000001EE4DF0E8B005D0EDCF01F0EFCF00F0EB
:101110001AD0ECCF00F0016A16D00DDF2528286E1A
:10112000000E26200F0B296E2A6ABD0E006E016A82
:10113000BA0E026E12EC06F0D0DDCFDDE3DD01EE7B
:1011400035F03FDEE5DD7BEF0FF0FA0E006E016A51
:10115000F9DD01EE37F033DE006A016AF3DDBDDD53
:10116000370E006EC80E016EBB0E026E12EC06F05A
:10117000B4DDB3DD010E006E180E016EBB0E026E03
:1011800012EC06F0AADDA9DD270E006EC80E016E76
:10119000BB0E026E12EC06F0A0DD9FDD020E006EAB
:1011A000180E016EBB0E026E12EC06F096DD95DD98
:1011B00000680168C7DD01EE35F001DE01EE3DF0AB
:1011C00018DE01EE3FF017DE01EE39F00CDE85DDB2
:1011D00084DD01EE3BF009DE80DD01EE3BF007DE51
:1011E000290E006EE70E016EA80E026E12EC06F0DC
:1011F00074DD73DD72DD71DD70DDCD6A0F0E006EA2
:10120000016A1F50005E2050015A02E20068016826
:1012100001C0CFFF00C0CEFF9E90CD80040E2826D7
:10122000000E2922040E2526000E262227229EA02B
:10123000FED753DD01EE39F003DE4FDD01EE35F070
:10124000BEDD66DDF00E00168F0E01140010F1E118
:101250004D0E006E016AB00E026E12EC06F0120026
:1012600035DE149A13B40FD03B0E006E016E880E5B
:10127000026E12EC06F03C0E006E3B0E016E880E04
:10128000026E12EC06F0610E006EE70E016EA80E03
:10129000026E12EC06F021DD20DD1FDD1EDD1E508A
:1012A000426E436A446A05EC1BF013B40BD0610E26
:1012B000006EE70E016EA90E026E12EC06F00DDD57
:1012C0000CDD14D00ADD006A3B0E016E800E026E4A
:1012D00012EC06F0200E006E3C0E016E880E026EBF
:1012E00012EC06F0FADC14DD01BEECD71200149A01
:1012F00014B41DD025B034D02A6A1DDE23DD080EBB
:10130000006E3B0E016E880E026E12EC06F0800E2F
:10131000006E1E0E016EBB0E026E12EC06F0DDDCDE
:10132000DCDC9EDF020E2826000E292219D003DE07
:1013300009DD090E006E3B0E016E880E026E12EC86
:1013400006F0800E006E1E0E016EBB0E026E12ECD9
:1013500006F0C3DCC2DC84DF010E2826000E292241
:10136000CBEF0FF0E8DD00C003F001C000F002C0D9
:1013700001F0EADC13B608D02104251405E101EEE2
:1013800037F039DDAADCA9DC120000C004F001C08E
:1013900000F002C001F0DADC03C000F004C001F08C
:1013A000DBDC13B6D2D6B70E006ECE0E016EBB0ECE
:1013B000026E12EC06F091DC90DC810E006E1E0EC7
:1013C000016EBB0E026E12EC06F087DC86DCA70E07
:1013D000006ECE0E016EBB0E026E12EC06F07DDCCE
:1013E0007CDC820E006E1E0E016EBB0E026E12ECD5
:1013F00006F073DC72DC120000C003F001C000F0E4
:1014000002C001F0A1DC120013B6BFD700C004F087
:1014100001C000F002C001F099DC03C000F004C07C
:1014200001F09ADCB70E006ECE0E016EBB0E026E9E
:1014300012EC06F052DC51DC810E006E1E0E016EC5
:10144000BB0E026E12EC06F048DC47DCA70E006E05
:10145000CE0E016EBB0E026E12EC06F03EDC3DDCE1
:10146000820E006E1E0E016EBB0E026E12EC06F0B6
:1014700034DC33DC080E2526000E26222722080E37
:101480002826000E29222104251404E101EE39F05A
:06149000AADCE6DE1200FA
:0A14960020042E043B044904FFFF6C
:1014A000FFFFFFFFFFFFFFFFFFFFFFFFFFFFFFFF4C
:1014B000FFFFFFFFFFFFFFFFFFFFFFFFFFFFFFFF3C
:1014C000FFFFFFFFFFFFFFFFFFFFFFFFFFFFFFFF2C
:1014D000FFFFFFFFFFFF4D686D6A160E6F6E6B68B2
:1014E0001198120000C0DCFF01C0DCFF02C0DCFF6D
:1014F00003C0DCFF79D86D86820E006E010E016E8E
:101500003A0E026E150E036E43EC16F0ACEC16F0BC
:10151000DDCF03F0DDCF02F0DDCF01F0DDCF00F055
:1015200012004DC000F020EC17F011AA02D07BECA5
:101530001CF04D686D6A119812004AC04DF0ACEC79
:1015400016F044DA11B0FBD7ACEC16F022EC12F036
:10155000F6D700C0DCFFEFA644D0040EEBCF00F0BE
:10156000050EEB500010D8A43CD0010EEBCFE1FFEC
:10157000000EEFB4040FE126040EE26EEF9CE7507C
:101580003C0B340AD8B4EF8CEF9AE650030B006E94
:10159000050E00C0EBFF040EE7CFEBFFE650001096
:1015A000D8B4EF8AE650EF34060B090FEBCFE5FF16
:1015B000FF0FEBCFE5FF020EEBCFE5FF030EEB5085
:1015C000E76EE78E010EEFB0030EEFB2020EEF1AD8
:1015D000EF96EFB8EF86EF98EF74060EEB6A010F07
:1015E000EB6ADDCF00F0120000C0DCFF01C0DCFFC1
:1015F00011981186706A716A726A736A746A756A80
:10160000766A776A786A796A7A6A7B6A7C6A7D6ABE
:101610007E6A7F6A04EE00F0200E006EEE6A002EF5
:10162000FDD70401380E206F000E216F080E226FC7
:10163000236B246B256B560E286F040E296F5E0EEC
:101640002A6F040E2B6F660E2C6F040E2D6F180E72
:101650002E6F2F6B080E306F080E316F326B336BAD
:10166000346B6E0E356F040E366F760E376F040EC8
:10167000386F7E0E396F040E3A6F380E3B6F100EC6
:101680003C6F400E3D6F3E6B3F6B406B860E436F71
:10169000040E446FC60E456F040E466F060E476F6C
:1016A000050E486F180E496F020E4A6F180E4B6FE9
:1016B000400E4C6F4D6B4E6B4F6B460E506F050ED0
:1016C000516F860E526F050E536FC60E546F050E86
:1016D000556F04EE20F03DDF3CDF6E6A686A696A90
:1016E0006D8CE90E6D166D866D9C68A602D06896AD
:1016F000FCD7160E706E1182DDCF01F0DDCF00F049
:1017000012000401380E3B6F100E3C6F400E3D6F0F
:101710003E6B3F6B406B860E436F040E446FC60EEC
:10172000456F040E466F060E476F050E486F180E84
:10173000496F020E4A6F180E4B6F400E4C6F4D6B87
:101740004E6B4F6B460E506F050E516F860E526FEB
:10175000050E536FC60E546F050E556F04EE3BF029
:10176000F8DEF7DE160E706E1E0E716E1188120016
:1017700000C0DCFFEFA64CD0EFBE4AD0050EEBCF89
:1017800000F0060EEB500012D8A406D0010EEBB408
:1017900002D0EFAC3DD0EF9C020EEBCFE1FF030E89
:1017A000EFB4040FE126040EE26EEF34060B080FCF
:1017B000EBCFE5FFFF0FEBCFE5FF050EEBCFE5FF2E
:1017C000060EEB500809E76E010EEBB0E78CEB70EC
:1017D000E78E010EEBA20AD0EB94030EEBCF00F0E4
:1017E000050EEB50001A02E1010EEB84010EEFB082
:1017F000030EEFB2020EEF1AEF96EFB8EF86EF98F6
:10180000EF74EF9AEFBCEF8A050EEB6A010FEB6AFB
:10181000DDCF00F01200F00E0116030E0112EFAC46
:1018200008D0060EEB52D8A404D00752EB52D8B41D
:101830000184EFBA26D0019201B823D00190EF3491
:10184000060B080FEBCFE1FF010FEBCFE2FF060E17
:10185000EB50E126070EEB50E222060EEB2A070EB4
:10186000D8B0EB2A040EEB06EBCF00F0050ED8A0A3
:10187000EB06EB500012E7CF00F0D8A402D0EF8ABD
:1018800068DE120002C0DCFF03C0DCFFF00E0116B0
:10189000030E0112EFBA2ED0019201BAEF8E01B8F9
:1018A00029D0019001AAEF9EEF34060B070FEBCF72
:1018B000E1FF010FEBCFE2FF050EEB50E126060E34
:1018C000EB50E22200C0E7FF050EEB2AEBCF02F05F
:1018D000060ED8B0EB2AEBCF03F0030EEB50021844
:1018E000D8A407D0040EEB500318D8A402D0EF8A76
:1018F000EF9E3EDFDDCF03F0DDCF02F01200F00EF1
:101900000116030E0112EFBC14D0019201B811D0E0
:10191000EF9E01BC0AD0EFBA08D0050EEB52D8A456
:1019200007D0060EEB52D8A403D00190EF8CEF8ABB
:101930001FDF120002C0DCFFF00E0116030E0112C1
:10194000050EEBCF02F0060EEB500210D8A407D024
:101950000184EF50180B180AD8B4018609D0EFA6FD
:1019600007D0019201B804D001900184EF9E00DFFE
:10197000DDCF02F0120004EE20F04DD7708012008F
:1019800004EE2EF07FD704EE2FF0EF90120004EE5D
:101990002FF0EF80120004EE2EF0CCD704EE2EF0E4
:1019A000AED704EE3BF037D704EE49F06BD704EE28
:1019B0004AF0EF90120004EE4AF0EF80120004EEBD
:1019C00049F0B8D700C081F111841200119068A2CB
:1019D00003D011806A6A120068A003D0118004DE6F
:1019E000120068A624D06CCF00F06896140EF76E33
:1019F000000EF86E00403E0B960FF66E000EF722BA
:101A0000F8220900F5CFE9FF0800F5BE10D0F5CFA8
:101A1000EAFF1180EF300018020B080ED8A4100E58
:101A2000EF1200B402D095DD1200A2DE120068AC05
:101A300003D0689C1180120068AA03D0689A1180B4
:101A4000120068A803D068981180120068A403D01F
:081A50006894118012001200DD
:081A58001F6A206A010E316EC5
:101A6000400E326E080E336E400E346E1394139691
:101A70000101A60E2D6F0F0E2E6FA90E2F6F0F0EE8
:101A8000306FAA0E316F0F0E326FA80E336F0F0E2C
:101A9000346F840E356F070E366F320E376F386B2A
:101AA000600E396F070E3A6F660E3B6F070E3C6F84
:101AB000620E3D6F070E3E6F640E3F6F070E406F64
:101AC00012001B6A1C6A1D6A780E1E6E256A266A41
:101AD000276A286A296A2A6A2B6A2C6A2D6A2E6A62
:101AE0002F6A306AB9DF120013BA04D08BEC17F0FA
:101AF00005EC1BF0F6EC0FF005EC1BF007EC10F01A
:101B000005EC1BF034EC1AF013AA04D005EC1BF022
:101B10008BEC17F05A0E426E020E436E446A94EC40
:101B20001AF005EC1BF0120013EC10F002EC10F0B0
:101B300020EC1AF005EC1BF078EC17F005EC1BF02C
:101B40005A0E426E020E436E446A94EC1AF0120072
:101B5000252A000E262227221200282A000E2922DA
:101B60002A221488120000C0DCFF01C0DCFF02C082
:101B7000DCFF03C0DCFF08C0DCFF2BC028F02CC05A
:101B800029F02DC02AF01496149805EC1BF0ACDF58
:101B900005EC1BF01B50D8B432D00D08D8A02FD0C4
:101BA0001B0EFA6E000EFB6E1B04E846E846030BA4
:101BB000FA26D8B0FB2A1B04E846E846FC0BCA0FFD
:101BC000D8B0FA2AD8B0FB2AF96E3FEF0EF047EFF3
:101BD0000EF048EF0EF047EF0EF047EF0EF084EFF7
:101BE0000EF0C0EF0EF0C4EF0EF04FEF0EF0CDEFA1
:101BF0000EF0A2EF0EF0CEEF0EF06EEF0EF01B50D7
:101C0000D8B432D00D08D8A02FD01C0EFA6E000E1A
:101C1000FB6E1B04E846E846030BFA26D8B0FB2A05
:101C20001B04E846E846FC0B340FD8B0FA2AD8B0BB
:101C3000FB2AF96E34EF0EF034EF0EF034EF0EF0B5
:101C4000D1EF07F034EF0EF034EF0EF0D1EF07F0E4
:101C5000D1EF07F034EF0EF0D1EF07F034EF0EF0D4
:101C6000D1EF07F034EF0EF0DDCF08F0DDCF03F059
:101C7000DDCF02F0DDCF01F0DDCF00F012001486E1
:101C8000CCEC17F005EC1BF07DEC1AF0B8D71486FD
:101C90007DEC1AF005EC1BF0CCEC17F0B0D71496E5
:101CA0007DEC1AF005EC1BF00E0E426E436A446A9E
:101CB00094EC1AF005EC1BF0500E006E480E016E0D
:101CC000430E026E4D0E036E200E086E37EC10F0C0
:101CD000006A010E086E37EC10F091D714868BEC79
:101CE00017F005EC1BF07DEC1AF005EC1BF0B20EC2
:101CF000006EC20E016E120E026E0A0E036E200EF0
:101D0000086E37EC10F07BD714868BEC17F005ECDF
:101D10001BF034EC1AF005EC1BF07DEC1AF005EC2E
:101D20001BF010EC18F0B20E006EC20E016E120E17
:101D3000026E0A0E036E200E086E37EC10F0CCEC2B
:101D400017F05DD714868BEC17F005EC1BF034EC24
:101D50001AF005EC1BF07DEC1AF005EC1BF0CCEC56
:101D600017F005EC1BF0B20E006EC20E016E120EE3
:101D7000026E0A0E036E200E086E37EC10F03FD78D
:101D8000336A400E346E10D0040E316E400E326E47
:101D9000040E336E400E346E07D006D0010E336E43
:101DA000400E346E138600D0138414868BEC17F02B
:101DB00005EC1BF034EC1AF005EC1BF07DEC1AF08E
:101DC00005EC1BF00E0E426E436A446A94EC1AF066
:101DD00005EC1BF010EC18F005EC1BF01A0E426E2F
:101DE000436A446A94EC1AF005EC1BF0B20E006EE4
:101DF000C20E016E120E026E8A0E036E200E086E67
:101E000037EC10F0CCEC17F005EC1BF0660E426ED0
:101E1000020E436E446A94EC1AF0F1D600C0DCFF67
:101E200001C0DCFF02C0DCFF03C0DCFF08C0DCFF38
:101E30001D50D8B424D00608D8A021D01E0EFA6EAA
:101E4000000EFB6E1D04E846E846030BFA26D8B0E8
:101E5000FB2A1D04E846E846FC0B660FD8B0FA2AB8
:101E6000D8B0FB2AF96E3FEF0FF03FEF0FF0C3EF52
:101E70001BF03FEF0FF03FEF0FF03FEF0FF0DDCF24
:101E800008F0DDCF03F0DDCF02F0DDCF01F0DDCFD4
:101E900000F0120002C0DCFF03C0DCFF08C0DCFF62
:101EA0001D50D8B428D00808D8A025D01E0EFA6E30
:101EB000000EFB6E1D04E846E846030BFA26D8B078
:101EC000FB2A1D04E846E846FC0BD60FD8B0FA2AD8
:101ED000D8B0FB2AF96EB7EF19F036EF14F0C6EF61
:101EE0001BF06AEF08F036EF14F07BEF15F053EFBC
:101EF00018F086EF15F0DDCF08F0DDCF03F0DDCF71
:101F000002F0120000C0DCFF01C0DCFF02C0DCFFF9
:101F100003C0DCFF08C0DCFF139C139E14901492D6
:101F20001E50426E436A446A1C50D8B434D00E0826
:101F3000D8A031D01F0EFA6E000EFB6E1C04E846CE
:101F4000E846030BFA26D8B0FB2A1C04E846E8460C
:101F5000FC0B5E0FD8B0FA2AD8B0FB2AF96EC2EF9C
:101F600019F0F7EF19F0CFEF1BF077EF09F0F9EF69
:101F700019F009EF1AF00CEF1AF091EF14F00EEFD0
:101F80001AF008EF1AF010EF1AF0CDEF15F06AEF23
:101F900018F0E0EF15F0DDCF08F0DDCF03F0DDCF76
:0C1FA00002F0DDCF01F0DDCF00F01200F8
:041FAC00340EB46ECD
:101FB0001200DD0E8A1613888A9E939E020E426ED0
:101FC000436A446A94EC1AF005EC1BF0B4BC0CD0E4
:101FD0008A8E020E426E436A446A94EC1AF005EC53
:101FE0001BF0B4AC01D01398938E120000008A50FD
:101FF0000809EF0B8A6E120000008A501009F70BD7
:102000008A6E120000D00000E70E8A16120000004F
:102010008A502009FD0B8A6E120000008A500209C6
:10202000DF0B8A6E120000D00000DD0E8A1612004F
:10203000006A00D000D000D0B4BC008012000000C4
:102040008A501009F70B8A6E00D000008A500209EE
:10205000DF0B8A6E00D000008A500809EF0B8A6EF1
:1020600000D000008A502009FD0B8A6EE8D700C01E
:10207000DCFF01C0DCFF02C0DCFF03C0DCFF08C0E6
:10208000DCFF00A014D08A500209DF0B8A6E8A5050
:102090001009F70B8A6E03320232013200328A5085
:1020A0000809EF0B8A6E084E17D000B0ECD78A50A3
:1020B0002009FD0B8A6E8A501009F70B8A6E0332D5
:1020C0000232013200328A500809EF0B8A6E084E44
:1020D00003D000A0ECD7D7D700D00000DD0E8A16C1
:1020E000DDCF08F0DDCF03F0DDCF02F0DDCF01F072
:1020F000DDCF00F0120008C0DCFF060E086EB7DF6F
:10210000DDCF08F0120000C0DCFF01C0DCFF08C01A
:10211000DCFF003601360090019E100E086EA7DF2E
:10212000DDCF08F0DDCF01F0DDCF00F0120000C000
:10213000DCFF01C0DCFF02C0DCFF08C0DCFF0036B2
:10214000013602360090029E180E086E90DFDDCF39
:1021500008F0DDCF02F0DDCF01F0DDCF00F012009E
:1021600008C0DCFF09C0DCFF8A500809EF0B8A6E4B
:10217000DD0E8A16210E096E00008A501009F70B39
:102180008A6ED8900332023201320032090600D042
:102190000000B4BC038E00D08A500809EF0B8A6E91
:1021A000082EEAD7094E06D0D89003320232013207
:1021B0000032F8D7DDCF09F0DDCF08F0120002C001
:1021C000DCFF03C0DCFF08C0DCFF100E086EC8DFB8
:1021D000013200323F0E0116DDCF08F0DDCF03F0F3
:1021E000DDCF02F0120000C0DCFF01C0DCFF080EF2
:1021F000016E00BE12D08A502009FD0B8A6E8A50F3
:102200001009F70B8A6E003600D08A500809EF0BD0
:102210008A6E014E15D000AEEED78A500209DF0B50
:102220008A6E8A501009F70B8A6E003600D08A50E9
:102230000809EF0B8A6E014E03D000AEDCD7EDD754
:1022400000D00000DD0E8A16DDCF01F0DDCF00F0FA
:10225000120000C0DCFF01C0DCFF02C0DCFF03C0D5
:10226000DCFF180E036E02BE13D08A502009FD0B4E
:102270008A6E8A501009F70B8A6E003601360236D4
:102280008A500809EF0B8A6E034E16D002AEEDD7C6
:102290008A500209DF0B8A6E8A501009F70B8A6E8A
:1022A0000036013602368A500809EF0B8A6E034E5B
:1022B00003D002AEDAD7ECD700D00000DD0E8A16CC
:1022C000DDCF03F0DDCF02F0DDCF01F0DDCF00F098
:1022D000120000C0DCFF01C0DCFF02C0DCFF026AAC
:1022E000D890003601360236B4DFDDCF02F0DDCF04
:1022F00001F0DDCF00F0120000C0DCFF01C0DCFF08
:1023000002C0DCFF026A3F0E0116D890003601368B
:10231000A0DFDDCF02F0DDCF01F0DDCF00F0120055
:1023200000C0DCFF01C0DCFF02C0DCFF016A026A02
:10233000D8900036013602368CDFDDCF02F0DDCFDB
:1023400001F0DDCF00F0120003C0DCFF8A50080965
:10235000EF0B8A6EDD0E8A16180E036E8A50100976
:10236000F70B8A6ED89000360136023600D000D0C6
:102370000000B4BC00808A500809EF0B8A6E032E5F
:10238000EDD7DDCF03F0120002C0DCFFDDDF01324C
:1023900000323F0E0116DDCF02F0120001C0DCFF5B
:1023A00002C0DCFFD1DF01320032DDCF02F0DDCF31
:0423B00001F0120026
:0C23B4000101980E696F240E6A6F000E84
:1023C0006B6F010E686F1200016ACBEC0CF001B666
:1023D00002D019D8F9D712006D98016ACBEC0CF035
:1023E00001B402D010D8F9D7C7EC0CF01200200EBF
:1023F000016EC0EC0CF001A002D005D8F8D70101A5
:102400007F4B802B120000C061F101C062F102C05D
:1024100063F103C064F104C065F105C066F106C054
:1024200067F1FC041F0B016E0101686F01EE69F09A
:10243000FDCFEEFFFECFEEFFFFCFEEFF0600012E39
:10244000F7D7120011A202D0119226D0010101EE9D
:1024500068F06851016E030DF350E926014E08D073
:102460000500ED50FF6EED50FE6EED50FD6EF6D79F
:1024700061C100F062C101F063C102F064C103F008
:1024800065C104F066C105F067C106F06B51FB6ED3
:102490006A51FA6E6951F96E01017D6B7E6B11AA6A
:1024A00003D07BEC1CF0119A080E026E016ABBECA3
:1024B0000CF001A002D0A7DFF9D701A402D0080ECA
:1024C000026E01EE75F002500808E92600C0EFFF29
:1024D000022EECD701017F6B806B000EFB6E240E89
:1024E000FA6E76510C08D8A023D07635E834FC0B70
:1024F000FC0FD8B0FA2AD8B0FB2AF96E98EF12F088
:1025000098EF12F098EF12F098EF12F098EF12F0A7
:102510007BEF13F0DFEF12F098EF12F08AEF13F079
:1025200083EF13F092EF13F08FEF13F098EF12F0A8
:102530006D98BEEC0CF0B8D74FDF010103507C5D05
:10254000D8A006D0D8A408D002507B5DD8B004D063
:102550007BC102F07CC103F002500310D8B412D04A
:1025600004C0F6FF05C0F7FF06C0F8FF0800F5CF6E
:1025700000F03DDF042A000E052206220206D8A044
:102580000306EAD701017B51070BD8A408D07B5181
:102590007F19D8A404D07C518019D8B485D7016A9A
:1025A000CEEC0CF001A280D72EDFF9D715DF400E5C
:1025B000016ECEEC0CF001A077D725DFF8D7010132
:1025C0007851FF0FD8A40DD07753D8A4B1D7B00E4F
:1025D000046E3A0E056E000E066E120E026E036A4F
:1025E000ABD7FF0FD8A40DD07753D8A4A1D7C20E74
:1025F000046E3A0E056E000E066E200E026E036A21
:102600009BD7FF0FD8A494D77705D8B45DD0775166
:102610000308D8A08DD77751D8A4FF0FE824090F5D
:10262000F66E3B0ED8B0010FF76E000ED8B0010F5A
:10263000F86E0900F5CF04F00800F5CF05F0E20EC2
:1026400004263A0E0522000E066E000E062204C075
:10265000F6FF05C0F7FF06C0F8FF0800F5CF02F04F
:10266000036A7751D8B468D77C53D8A405D00250F8
:102670007B5DD8A07BC102F0AFDE0250D8B482D718
:10268000F5CF00F0B4DE024E7DD7030E006EAFDE54
:10269000024E78D7020E0426000E0522062204C040
:1026A000F6FF05C0F7FF06C0F8FF0800F5CF00F001
:1026B0009EDE024E67D7006A9ADE024E63D7042A76
:1026C000000E05220622EBD787DE5DEC1CF0118A96
:1026D0000050026E020F006E8ADE030E006E87DE6F
:1026E000025205E0020672EC1CF081DEF9D77BECA9
:1026F0001CF0119A47D770DE400ECEEC0CF064DE71
:1027000077C16EFFD1D6010177517D6F006E81ECEC
:102710000BF04CD77DC100F06ADE5EDE33D777C1A7
:0E2720007EF144D77EC100F062DE56DE2BD77C
:02272E0008C0E1
:10273000DCFF140E086E37EC10F0DDCF08F012004D
:1027400000C0DCFF01C0DCFF02C0DCFF08C0DCFF12
:10275000026AD8900036013602360036013602365B
:10276000003601360236003601360236140E086E87
:1027700037EC10F0DDCF08F0DDCF02F0DDCF01F057
:10278000DDCF00F0120000C0DCFF01C0DCFF08C09C
:10279000DCFF006A040E086E37EC10F00E0E016EBE
:1027A0000250006E100E086E37EC10F0006A040E36
:1027B000086E37EC10F06E0E016E0350006E100EB6
:1027C000086E37EC10F0DDCF08F0DDCF01F0DDCF83
:1027D00000F0120000C0DCFF01C0DCFF800E016EC3
:1027E00002340E0B011203C000F0AADFDDCF01F0AE
:1027F000DDCF00F0120000C0DCFF01C0DCFF900E56
:10280000016E02340E0B011203C000F099DFDDCF20
:1028100001F0DDCF00F0120002C0DCFF03C0DCFFDE
:1028200014A60CD025502818D8A408D02650291852
:10283000D8A404D027502A18D8B413D01486255011
:10284000286E026EF60E036E9EDF2650296E026E13
:10285000F70E036E98DF27502A6E026EF80E036E95
:1028600092DFDDCF03F0DDCF02F0120014B410D000
:10287000D3DF090E006E016A0C0E086E37EC10F003
:10288000080E086EB0EC10F0ADEC0DF07BEF0FF021
:10289000070E026E2DC103F0AEDF060E026E2DC1D3
:1028A00003F0A9DF2FC103F025C002F06CDF31C1B6
:1028B00003F026C002F067DF000E026E2DC103F0A8
:1028C00089DF500E016E33C100F03ADF500E006E0A
:1028D000EF0E016E060E026E2ADF006A016A026ABE
:1028E00026DF020E006E016A0C0E086E37EC10F047
:1028F000080E086EB0EC10F07BEF0FF000C0DCFFAC
:1029000001C0DCFF070E026E2DC103F063DF060E6F
:10291000026E2DC103F06FDFDDCF01F0DDCF00F0DF
:102920007BD714B44BD025B005D000C044F174DF80
:10293000CBEF0FF000C001F044C100F0026AD89064
:1029400000360136023600360136023600360136D0
:102950000236003601360236140E086E2104036E6C
:1029600025140318D8B40BD00D0E001237EC10F05C
:10297000020E2826000E29222A22CBEF0FF00F0E7E
:10298000001237EC10F0006A030E086E37EC10F0FE
:10299000FCEC0FF094EC1AF005EC1BF0F6EC0FF0E9
:1029A000030E426E94EC1AF005EC1BF0006A016A0B
:1029B000100E086E37EC10F0CBEF0FF02FC103F0C4
:1029C00025C002F0E0DE31C103F026C002F0DBDEFC
:1029D00033C103F000C002F0D6DE010E026E2DC13D
:1029E00003F0F8DE006A016A026AA1DE006A016A89
:0C29F000026A9DDE94EC1AF0CBEF0FF0B1
:0429FC0000C0DCFF3C
:102A000001C0DCFF14A60AD02950265CD8A006D04D
:102A1000D8A40BD02850255CD8B007D0286A296AE2
:102A20001486160E006E7BEC10F026AE0CD029BE7C
:102A30000AD0286A800E296E006A7BEC10F0006ACA
:102A4000016A83EC10F028502518006E29502618D2
:102A50000010D8B407D0060E006E7BEC10F0ADEC81
:102A60000DF0F1D7DDCF01F0DDCF00F0120000C096
:102A7000DCFF01C0DCFF02C0DCFF2650016E2550E8
:102A8000006E14A404D02E5000262F50012214A64C
:102A90001DD028500018026E29500118021024E0A1
:102AA00029500118800B12E12828026E000E2920FF
:102AB00001180CE10250001809E100C028F001C023
:102AC00029F0060E006E7BEC10F00ED000C028F04E
:102AD00001C029F01D0E006E7BEC10F025C000F047
:102AE000026A97EC10F01486DDCF02F0DDCF01F022
:102AF000DDCF00F0120082DF040E14B4050E006E6C
:102B00007BEC10F0DFEC10F07BEF0FF0B0DF240E69
:102B1000006E7BEC10F0DFEC10F02950800B026EA1
:102B2000282A000E29207F0B0210296E7BEF0FF060
:102B300065DF0050026E020E14B4030E006E7BECD3
:102B400010F00250006E83EC10F014B410D0210489
:102B5000006E25140018D8B40AD02650235CD8A0E3
:102B600006D0D8A418D02550225CD8B014D042C1C9
:102B700000F07BEC10F094EC1AF013AC0CD043C1D5
:102B800000F005EC1BF07BEC10F0030E426E436A84
:102B9000446A94EC1AF0CBEF0FF00101180E426F6B
:102BA0000A0E436F138C26BE02D014A4C1D73E0E6A
:102BB000426E436A446A0101080E426F139CB8D703
:102BC00056DF29BE32D02104026E251402180EE011
:102BD00000C002F0220E006E7BEC10F002C000F08C
:102BE00083EC10F0ADEC0DF0CBEF0FF000C002F075
:102BF000020E006E7BEC10F002C000F083EC10F0CF
:102C0000180E006E7BEC10F094EC1AF00A0E006EB9
:102C100005EC1BF07BEC10F0050E426E436A446A33
:102C200094EC1AF01496CBEF0FF000C002F0020EF5
:102C3000006E7BEC10F002C000F083EC10F0080E88
:102C4000006E7BEC10F03E0E426E436A446A94ECD8
:062C50001AF0CBEF0FF0BB
:0A2C56004A6A0101000E5B6F020ED6
:102C60005C6F010EE8CF00F2A10E5D6F000E5E6F8B
:102C7000000EE8CFA1F0A20E5F6F010E606F000E94
:102C8000E8CFA2F1120000C0DCFF01C0DCFF05C0EC
:102C9000DCFF030E056E11EE5BF0E6CFE9FFE6CF39
:102CA000EAFFEF5203E0052EF8D7FF00DDCF05F075
:102CB00000C0E1FF01C0E2FF00C0E6FF01C0E6FF87
:102CC00002C0E6FF03C0E6FF04C0E6FF05C0E6FF62
:102CD00006C0E6FF07C0E6FFEE2A000E0006015A16
:102CE000E55200C0EEFF01C0EEFF00C0EEFF01C0E4
:102CF000EEFFE1CFEEFFE2CFEEFF02C0EEFF03C03A
:102D0000EEFFDDCF01F0DDCF00F0120008C0DCFFE8
:102D100009C0DCFF0AC0DCFF0BC0DCFF0CC0DCFF1D
:102D20000DC0DCFF0EC0DCFF0FC0DCFF10C0DCFFFD
:102D300013D8DDCF10F0DDCF0FF0DDCF0EF0DDCFFB
:102D40000DF0DDCF0CF0DDCF0BF0DDCF0AF0DDCFE5
:102D500009F0DDCF08F0120000C0DCFF01C0DCFF8D
:102D600002C0DCFF03C0DCFF04C0DCFF05C0DCFFE9
:102D700006C0DCFF07C0DCFFE9CF00F0EACF01F0BE
:102D800001EE5BF04A44E926EE50EFCFEAFFE96E30
:102D9000FC501F0B026EEE6E00C0EEFF01C0EEFF96
:102DA000E1CFEEFFE2CFEEFFD9CFEEFFDACFEEFFBD
:102DB000FD50EE6EFE50EE6E0600022EF9D74A2A46
:102DC0004A500208D8A04A6A01EE5BF04A44E9265C
:102DD000EE50EFCFEAFFE96EEF52F1E0EECF01F0F7
:102DE000EECF02F0EECF03F0F29EFC6AEECFE1FFF1
:102DF000EECFE2FFEECFD9FFEECFDAFFF28E014445
:102E0000FF0FE926000EEA220500ED50FE6EED50A0
:102E1000FD6E012EF9D702C0E9FF03C0EAFFDDCF46
:102E200007F0DDCF06F0DDCF05F0DDCF04F0DDCF1C
:102E300003F0DDCF02F0DDCF01F0DDCF00F01200B6
:102E400000500208D8A00DD001EE5BF00044E92646
:102E5000EE50EFCFEAFFE96EEF6A00504A5CD8B45B
:102E6000AED7120001EE5BF04A44E926EE50EFCFF8
:082E7000EAFFE96EEF6AA3D747
:082E780001C0DCFF02C0DCFF19
:102E800012AA23D0129A01015A51B108D8B005D024
:102E9000FA0E486E0C0E496E10D001015A51690DA0
:102EA000F3CF01F0F4CF02F0010DF3500224486E8D
:102EB00001320130300B0C09496E1280BA0E426E9D
:102EC0000B0E436E446A94EC1AF0DDCF02F0DDCFB6
:102ED00001F01200BB6A0C0EBA6EEA0E486E0C0EC0
:102EE000496E12800101010E596FA60E5A6F120031
:102EF0000101010E591B596FD8B40CD08A9C8A94D9
:102F0000020E426E436A446A94EC1AF0129412AABA
:102F100001D0B2DF120000C0DCFF01C0DCFF010104
:102F2000020E591B596FD8B432D08A9C00D000D001
:102F300000D000D000D000D000D000D000D000D011
:102F400000D000D000D000D000D000D000D000D001
:102F500000D000D000D000D000D000D000D000D0F1
:102F600000D000D000D000D000008A84129484DF0A
:102F700012A60DD05A0E426E020E436E446A94ECB5
:102F80001AF02C0E006E010E016EA3EC1AF0DDCFCC
:102F900001F0DDCF00F0120000C0DCFF01C0DCFF5B
:102FA0000101030E591B596FD8B421D065DF05EC20
:102FB0001BF08A9400D000D000D000D000D000D008
:102FC00000008A8C128458DF12A611D05A0E426E6D
:102FD000020E436E446A94EC1AF001015A519D0DA1
:102FE000D890F430016EF330006EA3EC1AF0DDCF10
:102FF00001F0DDCF00F01200010100505A19D8B4E1
:1030000008D000C05AF1128A5951030AD8B401D02D
:1030100033DF12008A9C8A940101596B12941200CA
:103020008A9400D000D000D000D000D000D000D0D2
:1030300000D000D000D000D000D0F29E8A8C00D00A
:1030400000D000D000D000D000D08A848A9CF28EBC
:0230500012006C
:0E30520000C0DCFF01C0DCFF14A606D0285031
:10306000251803E12950261819E005EC1BF000C0D3
:1030700041F1800E006EF3EC10F041C100F000D081
:1030800000D000D000D000D000002550286E006E87
:103090002650296E016E69EC11F01486DDCF01F027
:1030A000DDCF00F01200D5DF05EC1BF000C041F1D0
:1030B000FE0E006EF3EC10F041C100F000D000D025
:1030C00000D000D000D00000C4EC11F0ADEC0DF049
:1030D0007BEF0FF0BEDF2550225C26502358D8A08E
:1030E0003FD02104026E2514021816E005EC1BF0F7
:1030F00000C041F1020E006EF3EC10F041C100F08F
:1031000000D000D000D000D000D000007CEC11F046
:10311000ADEC0DF0CBEF0FF005EC1BF000C041F172
:10312000000E006EF3EC10F041C100F000D000D0B2
:1031300000D000D000D000007CEC11F000C041F1C4
:10314000E00E006EF3EC10F041C100F000D000D0B2
:1031500000D000D000D0000094EC1AF0CBEF0FF0BC
:1031600005EC1BF000C041F1000E006EF3EC10F016
:1031700041C100F000D000D000D000D000D000004D
:103180007CEC11F000C041F1E00E006EF3EC10F0A9
:1031900041C100F000D000D000D000D000D000002D
:1031A0004A0E426E436A446A94EC1AF0CBEF0FF079
:1031B00000C0DCFF0A0EC16E060EC06E090EC26EA4
:1031C0009D8C0101020E006F030E016F010E026F54
:1031D00001EE03F0100E006EEE6A002EFDD7DDCF7B
:1031E00000F01200156AEECF16F0EECF17F0186A55
:1031F000EECF19F0EDCF1AF0D89017321632153203
:103200001A32193218321732163215321A3219326E
:1032100018321732163215321A3219321832185043
:10322000155E1950165A1A50175A1650EE26175096
:10323000ED2212009E9C01C1E9FF02C1EAFFC3CF4B
:10324000EEFFC4CFEDFF010100B309D0020E006F05
:10325000030E016F010E026F090EC26E08D0040E3C
:10326000006F0B0E016F010E026F110EC26EBADFFE
:10327000B9DFB8DF59EF00F002C0DCFF03C0DCFFAC
:1032800004C0DCFF05C0DCFF06C0DCFF07C0DCFFBC
:10329000F29E09C100F00AC101F0F28E750E046EB3
:1032A000170E056E066A076A18D002C0DCFF03C05D
:1032B000DCFF04C0DCFF05C0DCFF06C0DCFF07C08C
:1032C000DCFFF29E11C100F012C101F0F28E2B0E54
:1032D000046E370E056E066A076A026A036AAEEC70
:1032E0001CF002C000F003C001F0DDCF07F0DDCF1D
:1032F00006F0DDCF05F0DDCF04F0DDCF03F0DDCF4C
:0433000002F01200C5
:0C33040000C0DCFF01C0DCFF14A60AD0F2
:103310002950265CD8A006D0D8A408D02850255C17
:10332000D8B004D0B3EC0DF005EC1BF026AA0BD0FE
:1033300029BA09D0286A200E296E006A7BEC10F0A9
:10334000016A83EC10F028502518006E29502618C9
:103350000010D8B407D0060E006E7BEC10F0ADEC78
:103360000DF0F1D7DDCF01F0DDCF00F01200CADFA4
:10337000040E14B4050E006E7BEC10F0DFEC10F0C0
:103380007BEF0FF0BFDF0050026E020E14B4030E8D
:10339000006E7BEC10F00250006E83EC10F014B461
:1033A00010D02104006E25140018D8B40AD026507D
:1033B000235CD8A006D0D8A418D02550225CD8B061
:1033C00014D0180E13BC080E006E7BEC10F094ECB9
:1033D0001AF013AE0AD0170E14B00E0E14B20A0E65
:1033E000006E05EC1BF07BEC10F0CBEF0FF0138CB4
:1033F000C9D7138E2550070AD8A4C4D72650200A4F
:10340000D8A4C0D7138C139E610E426E436ABAD7FC
:10341000138C138E1480B6D7138CB4D7138EB2D7F7
:06342000138E1482AFD7E9
:0A342600BE6A0C0EBD6E04D8010151
:10343000010E576F12000101D00E586F576B12002A
:1034400001015751010A0FE0010E576F8A90466A39
:103450000C0E476E118E12922E0E426E010E436EAE
:10346000446A94EC1AF0120000C0DCFF01C0DCFFDB
:1034700001015751020A1DE0020E576F466A0C0EF9
:10348000476E118E12922E0E426E010E436E446AEA
:1034900094EC1AF005EC1BF08A80B20E426E040E1A
:1034A000436E446A94EC1AF0640E006E016AA1EC5B
:1034B0001AF0DDCF01F0DDCF00F0120000C0DCFF1C
:1034C00001C0DCFF01015851466E0C0E476E118E93
:1034D000B20E426E040E436E446A94EC1AF001017F
:1034E0005851180DF3CF00F0F4CF01F0A1EC1AF011
:1034F000DDCF01F0DDCF00F0120001015751030ACA
:1035000005E0030E576F8A90D9DF1282120000C0C7
:1035100058F112008A90466A0C0E476E118E129274
:10352000456A0101516B1200F29E42C039F043C05E
:103530003AF044C03BF01296F28E456A0101516B9D
:103540001200010E01D0020E0101516F02C0DCFF1A
:1035500003C0DCFF0130036E0030026E0332023222
:10356000033202320332023203320232070E0316F2
:103570000350000807E303E1640E025C03E2640EFB
:10358000026E036A0250005C526F03500158536F81
:1035900002E2526B536B02500024546F035001201F
:1035A000556F02E354695569DDCF03F0DDCF02F0BA
:1035B0001200010E456E01015251005C5351015839
:1035C00009E3020E456E0050545D0150555902E367
:1035D000456A1286120000C0DCFF01C0DCFF010159
:1035E00051B103D051B305D00BD03CEC19F0E1DF61
:1035F00007D055EC19F0DDDFD8904536D890453628
:10360000DDCF01F0DDCF00F01200E5DF12A6FDD71F
:023610001200A6
:0E3612000301006B010E016F026FAB6A240E04
:10362000AC6E080EB86E670EAF6E000EB06E900EE8
:10363000AB6E9D8A080ED56EF2941200AB5003015A
:103640004B6EAE504C6EABA202D0AB98AB884BB475
:103650000ED0FD0E005DD8B00AD003EE02F001518D
:103660004CC0EBFF002BFD0E014F016F118C59EF89
:1036700000F0F29E0301FD0E005DD8B00AD003EE0B
:1036800002F0015100C0EBFF002BFD0E014F016F56
:10369000118CF28E120000C300F0120011ACFED7A4
:1036A0000301F29E03EE02F00251EBCF00F000079F
:1036B000FD0E024F026F006701D0119CF28E1200C6
:1036C0009EB805D09EA8FED700C0ADFF17D0ACB203
:1036D0000AD0F29EF2B404D000C0ADFFF28E0ED03C
:1036E000F28EACA2FED7D59EFD0ED76E160ED66E0C
:0E36F000F294F29E00C0ADFFD58EF28E120055
:0236FE0000C00A
:10370000DCFF01C0DCFF02C0DCFF03C0DCFF25C022
:1037100002F026C003F014A404D02E5002262F502D
:10372000032202502B18006E03502C18001202E1E5
:1037300014B8149614B606D005EC1BF0B3EC0DF0DB
:1037400005EC1BF02B5002162C50031628500218C3
:10375000D8A404D029500318D8B40CD0060E006E9B
:103760007BEC10F0ADEC0DF02B5028162C502916E8
:103770002A6AECD7DDCF03F0DDCF02F0DDCF01F018
:10378000DDCF00F01200BBDF3FEF0FF0B8DF040E1B
:10379000006E7BEC10F0DFEC10F07BEF0FF0AFDF92
:1037A00000C002F0020E006E7BEC10F002C000F0D0
:1037B00083EC10F0080E006E7BEC10F01EC042F09F
:1037C000436A94EC1AF005EC1BF00E0E006E7BECD5
:1037D00010F0020E426E436A94EC1AF0CBEF0FF039
:1037E00001014F6B1200190E3C6E1200190E3E6E55
:1037F00012000101010E4F19D8B40DD0010E4F6F08
:10380000110E356EC80E366EC80E376E010EF29E62
:10381000386E1298F28E12000101030E4F19D8B4BF
:103820000DD0030E4F6F480E356E320E366E320ECF
:10383000376E010EF29E386E1298F28E1200010160
:10384000020E4F19D8B40DD0020E4F6F120E356E06
:10385000190E366E190E376E010EF29E386E1298E2
:10386000F28E12000101040E4F19D8B40DD0040ECF
:103870004F6F8F0E356E640E366E640E376E010E0E
:10388000F29E386E1298F28E120012B202D012A47A
:1038900002D0190E3D6E3E52D8B402D0E3DF0BD0F9
:1038A0003D52D8B402D0B8DF06D03C52D8B402D0D2
:0838B000C6DF01D09EDF12000B
:0838B800120001C0DCFF02C098
:1038C000DCFF016A026A2AEC1DF02DEC1DF00050AD
:1038D0005008D8A0006A00C050F1DDCF02F0DDCF63
:1038E00001F01200006A01015053D8B403D0500710
:1038F0002DEC1DF01200120001C0DCFF02C0DCFF45
:10390000010E016E026A2AEC1DF00101500E506F8B
:10391000DDCF02F0DDCF01F0120001015053D8B429
:1039200003D0500739EC1DF0120000C0DCFF01C0CD
:10393000DCFF02C0DCFF016A026A2AEC1DF0010113
:1039400050515008006E39EC1DF054EC1DF0DDCFE5
:0C39500002F0DDCF01F0DDCF00F012002E
:04395C0004C0DCFFC8
:1039600005C0DCFF06C0DCFF07C0DCFF08C0DCFFD1
:1039700009C0DCFF0AC0DCFF0BC0DCFF0050086E92
:103980000150096E02500A6E03500B6E006A016A04
:10399000026A036A085009100A100B10D8B4E2EF4B
:1039A0001CF008A0D6EF1CF0D8EC1DF0D8900B321C
:1039B0000A3209320832D890043605360636073600
:1039C000CAEF1CF0DDCF0BF0DDCF0AF0DDCF09F040
:1039D000DDCF08F0DDCF07F0DDCF06F0DDCF05F05D
:0639E000DDCF04F012002F
:0A39E600800EF16EF06A9D6AA06A7F
:1039F0009E6AA16A9F6AA26AD09E116A126A136ABD
:103A0000146AF0EC1DF0B8EC1DF02BEC16F009EC8C
:103A10001BF027EC1DF05CEC1CF05EEC00F06AEC97
:103A200017F013EC1AF0D6EC0FF061EC0DF0D8ECB7
:103A300018F0F0EC1BF090EC1AF006EC06F06BECD2
:0E3A40000AF0DAEC11F088EC1DF0CAEF1DF070
:023A4E00010174
:103A5000566B120001C056F11200A6B22DEF1DF0F8
:103A600056C1A9FFA66AA6800101562BA8CF00F077
:103A7000120001C0DCFFA6B23BEF1DF056C1A9FF4A
:103A800000C0A8FFA66AA684F2CF01F0550EF29EF0
:103A9000A76EAA0EA76EA68201BEF28EA6940101A1
:103AA000562BDDCF01F01200A6B254EF1DF012002C
:103AB00012011001FF00FF08C016C80537000203FD
:103AC00000010902200001010080FA09040000023F
:103AD000FF00FF00070501024000010705810240C9
:103AE0000001040309041403456D62656420496EF6
:103AF000632E0355534250726F6720504943207024
:0F3B0000726F6772616D6D6572000004000F00D7
:103B1000356A366A376A386A396A3A6A3B6A12869F
:103B20003C6A3D6A3E6A3C0E3F6E780E406E416ACA
:103B3000F90ECB6E1C0ECA6ECC6A9E929D82F28CE0
:043B4000F28E1200EF
:0C3B44000D000000000100010101010162
:103B5000010101080000000001010101010E000047
:103B6000000001010101010101010101010101B197
:103B7000C26A0F0EC16E070EB46EF18E896A2F0EE7
:103B8000926E8A6A800E936E040E8B6EF00E946EA7
:043B9000846A120031
:0C3B94008998720E426E170E436E446A50
:103BA00094EC1AF005EC1BF072EC0AF0E5EF1DF056
:103BB00008C0DCFF045000260550012206500222F6
:0A3BC00007500322DDCF08F01200C9
:063BCA00ACEC16F011A6A0
:103BD00002D011961382B0EC00F045EC1CF0F5D742
:063BE00020EE5FF0120070
:020000040030CA
:0E000000E13FF6FEFFF99AFFFFFFFFDFFFFF73
:0200000400F00A
:080000000755534250726F676F
:00000001FF
