:020000040000FA
:06000000F26A2DEF1EF074
:020006000000F8
:08000800E9CFDCFFEACFDCFFC9
:100010009EAA02D058EF1CF09EAC02D054EF1AF00A
:100020009EB201D0FF009E92C2823D503E103F1012
:10003000D8B40AD0010E3D5E000E3E5A3F5A3D50E4
:100040003E103F10D8B4128A12A205D0129249C0B5
:10005000BDFF48C0BEFF12A405D012944BC0BAFF2A
:100060004AC0BBFF412E09D03C0E416E392E05D04F
:10007000127C375012AC3850396E0E0E4306D8A0A1
:10008000436E365012AC36380F0B435CD8A002D00A
:100090008B9001D08B80422E0CD0780E426E402A7D
:1000A0003A52D8A43A063B52D8A43B063C52D8A4B4
:0C00B0003C06DDCFEAFFDDCFE9FF1100C8
:0400BC000101A40E8C
:1000C000196F010E1A6F000E1B6F010E186F1200D0
:1000D00000C013F101C014F102C015F103C016F104
:1000E00008C017F1FC041F0B016E0101186F01EE2F
:1000F00019F0FDCFEEFFFECFEEFFFFCFEEFF0600C3
:10010000012EF7D7120001C0DCFFDDCF01F0E0DFE8
:1001100001C0DCFF016AE1EC0CF001B0F6D72DEC78
:100120001DF0DDCF01F0120001C0DCFF016AE4EC3C
:100130000CF001A006D0DDCF01F0CADF01C0DCFF6A
:10014000F5D7DDCF01F0120012BA1200C1DF25ECA5
:100150001CF0FAD7BDDF13B0FDD713801382120055
:10016000010101EE18F01851016E030DF350E9265C
:10017000014E08D00500ED50FF6EED50FE6EED50C3
:10018000FD6EF6D713C100F014C101F015C102F0E5
:1001900016C103F017C108F01B51FB6E1A51FA6E1D
:1001A0001951F96E95DF016AE1EC0CF001B0FAD754
:1001B0000050016E5908D8A0F5D70FD8025003108F
:1001C000D8B4F0D7060E0226020E0320FA6E000EF7
:1001D000FB6E000EFB220250F96E036AD8900134C8
:1001E000026E0336060E0224F66E020E0320F76E30
:1001F000000EF86E000EF8220900F5CF02F009009B
:10020000F5CF03F012000000B400B8000000C400F5
:10021000E000BA01D6017A02860292029E02AA0288
:10022000BA02D002F00200000000320300003E03D8
:10023000560362038A03F803A803C80300000604F8
:1002400078041A053C04480452042E043604A00520
:1002500094046C042603D403A2060000CE06E20632
:10026000F6060000000006074E07000060090C01BA
:100270004201FA01260232060000D4045C0742055E
:100280007A038C078007B0074A03C407F2071C08EB
:10029000B0046E03000000001E08320846085A0829
:1002A0006E0882089608AA08BE08D208E608FE086A
:1002B0001E093A09820192015A02D2EF00F0A4EC21
:1002C00000F0CAEC0DF0D2EF00F083EC00F000502B
:1002D000070B010F086E83EC00F0A4EC00F071EC4A
:1002E00010F0D2EF00F083EC00F000500F0B010F84
:1002F000086E83EC00F000C002F083EC00F000C058
:1003000001F002C000F0A4EC00F071EC10F0D2EFAC
:1003100000F083EC00F000501F0B010F086E83EC1F
:1003200000F000C003F083EC00F000C001F083ECAB
:1003300000F000C002F003C000F0036AA4EC00F07B
:1003400071EC10F0D2EF00F083EC00F000501F0BC6
:10035000010F086E83EC00F000C003F083EC00F0A6
:1003600000C001F083EC00F000C002F083EC00F06C
:1003700000C004F003C000F004C003F0A4EC00F0DF
:1003800071EC10F0D2EF00F083EC00F0A4EC00F080
:100390002DEC11F0D2EF00F083EC00F000C003F080
:1003A00083EC00F000C001F083EC00F000C002F02C
:1003B00003C000F0A4EC00F063EC11F0D2EF00F009
:1003C00083EC00F00050070B010F086EA4EC00F066
:1003D000EAEC10F094EC00F0D2EF00F083EC00F0C7
:1003E00000500F0B010F086EA4EC00F0EAEC10F0C7
:1003F00094EC00F001C000F094EC00F0D2EF00F0BB
:1004000083EC00F000501F0B010F086EA4EC00F00D
:10041000EAEC10F094EC00F001C000F094EC00F075
:1004200002C000F094EC00F0D2EF00F083EC00F09A
:1004300000501F0B010F086EA4EC00F0EAEC10F066
:1004400094EC00F001C000F094EC00F002C000F069
:1004500094EC00F003C000F094EC00F0D2EF00F058
:10046000A4EC00F0DEEC11F094EC00F001C000F020
:1004700094EC00F002C000F094EC00F0D2EF00F039
:10048000A4EC00F036EC10F0D2EF00F0A4EC00F099
:1004900030EC10F0D2EF00F0A4EC00F047EC10F0DC
:1004A000D2EF00F0A4EC00F041EC10F0D2EF00F03D
:1004B000A4EC00F052EC10F094EC00F0D2EF00F05D
:1004C000A4EC00F013EC10F0006A13BC008094EC74
:1004D00000F0D2EF00F083EC00F000C001F083ECFC
:1004E00000F0A4EC00F001C044F000C045F0CEECF8
:1004F0001BF0D2EF00F0010E006E94EC00F0190E2C
:10050000006E94EC00F01D0E006E94EC00F0270ECF
:10051000006E94EC00F0006A94EC00F094EC00F0B3
:1005200094EC00F094EC00F0D2EF00F0020E006EBC
:1005300094EC00F0D2EF00F0A4EC00F0B7EC1BF06C
:10054000D2EF00F0A4EC00F06EEC1BF0D2EF00F064
:1005500083EC00F0C1EC1BF0D2EF00F0A4EC00F053
:1005600006EC19F0D2EF00F0A4EC00F0C5EC18F0A6
:10057000D2EF00F0A4EC00F0B2EC18F0D2EF00F0F3
:1005800083EC00F0A4EC00F036EC19F0D2EF00F0B0
:1005900083EC00F0139E00BE138E009E00501C6E74
:1005A0002C6A2D6A2E6A62EC0DF0D2EF00F083EC1B
:1005B00000F000C01DF0010E226E55EC1BF0A4EC03
:1005C00000F0A60E006E36EC19F0D2EF00F083ECCE
:1005D00000F000C01EF0D2EF00F083EC00F000C08D
:1005E00001F083EC00F000C002F083EC00F001C0E9
:1005F0002CF002C02DF000C02EF0D2EF00F01498C5
:10060000A4EC00F0E9EC0DF0D2EF00F083EC00F088
:1006100000C001F083EC00F000C002F083EC00F0B9
:1006200001C026F002C027F000C028F044EC0FF013
:10063000D2EF00F0DEEC0DF0D2EF00F0149AD2EF22
:1006400000F083EC00F000501F6ED2EF00F014A811
:10065000D2EF00F0149804D014B8D2EF00F0148850
:10066000261C296E271C2A6E281C2B6E149AD2EF8A
:1006700000F0A4EC00F030EC1DF0D2EF00F0A4ECA0
:1006800000F080EC0FF094EC00F001C000F094EC6E
:1006900000F0DEEC0DF0D2EF00F0A4EC00F0080E5C
:1006A000026E80EC0FF094EC00F0DEEC0DF0022E08
:1006B000F8D7D2EF00F0A4EC00F0400E026E80EC10
:1006C0000FF094EC00F001C000F094EC00F0DEECD0
:1006D0000DF0022EF4D7D2EF00F0FC0E2616FEEC41
:1006E00007F05DEC08F094EC00F001C000F094EC31
:1006F00000F002C000F094EC00F003C000F094ECB5
:1007000000F004C000F094EC00F005C000F094ECA0
:1007100000F0040E2626000E27222822D2EF00F039
:1007200083EC00F000C002F083EC00F000C001F0A8
:1007300002C000F030EC1DF0A4EC00F0BAEC0FF0B9
:10074000DEEC0DF0D2EF00F030EC1DF0080E086E7C
:10075000250E026E010E036E83EC00F002C0E9FF6D
:1007600003C0EAFF00C0EFFF022AD8B0032A082E18
:10077000F3D70168080E086E250E026E010E036E97
:1007800002C0E9FF03C0EAFFEFCF00F0022AD8B0B1
:10079000032AA4EC00F0BAEC0FF0DEEC0DF0082E0A
:1007A000EFD7D2EF00F030EC1DF0A4EC00F0C1EC7C
:1007B00014F0030E036E83EC00F00050026E83EC25
:1007C00000F00050016E0D0E0352D8B40F0E006EF3
:1007D000040E086E71EC10F00250006E100E086EE0
:1007E00071EC10F0030603AEE6D7006A030E086E44
:1007F00071EC10F036EC10F00E0E446E456A466A4D
:10080000CEEC1BF0080E2626D8B0272AD8B4282A0A
:10081000149AA4EC00F030EC10F0010E446E456A1E
:10082000CEEC1BF03FEC1CF0006A016A100E086E63
:1008300071EC10F0D2EF00F030EC1DF0F80E26163F
:1008400083EC00F000C001F083EC00F000C002F087
:1008500083EC00F0A4EC00F0B2EC09F083EC00F0C3
:1008600000C001F083EC00F000C002F083EC00F067
:10087000C5EC09F083EC00F000C001F083EC00F05F
:1008800000C002F083EC00F0FCEC09F083EC00F017
:1008900000C001F083EC00F000C002F083EC00F037
:1008A00004EC0AF0D2EF00F083EC00F0046A005090
:1008B000016E5908D8A008D0EDEC00F002500310EA
:1008C000D8B402D0010E046E04C000F094EC00F025
:1008D000D2EF00F076EC1AF094EC00F001C000F0DA
:1008E00094EC00F0D2EF00F08FEC1AF094EC00F0F2
:1008F00001C000F094EC00F0D2EF00F0A4EC00F0A6
:1009000047C000F094EC00F0D2EF00F083EC00F070
:10091000A4EC00F0AAEC0DF0A4EC00F04DEC10F00B
:100920003CEC10F0B2EC18F0A4EC00F0005003E145
:100930005AEC1BF00AD0FA08FA0ED8A0006EC1ECEF
:100940001BF0A4EC00F0B7EC1BF0A4EC00F0158059
:10095000D2EF00F0A4EC00F0CAEC0DF01580D2EF5D
:1009600000F083EC00F000C001F083EC00F000C068
:1009700002F083EC00F001C02FF002C030F000C0A4
:1009800031F0D2EF00F083EC00F000C022F0D2EFA3
:1009900000F083EC00F00050026E83EC00F0005099
:1009A000016E83EC00F00250236E0150246E005063
:1009B000256ED2EF00F0410E006E94EC00F0030EB5
:1009C000006E94EC00F0D2EF00F0AAEC00F0B6EC70
:1009D0001DF083EC00F000C001F00152D8B406D045
:1009E000010683EC00F0C7EC1DF0F7D7CFEC1DF04B
:1009F00013921390D2EF00F0AAEC00F097EC1DF0E8
:100A000094EC00F000C001F00152D8B406D0010609
:100A1000ACEC1DF094EC00F0F7D713921390D2EFEA
:100A200000F0FF0083EC00F000C02DF183EC00F03B
:100A300000C02EF1D2EF00F083EC00F000C02FF1E7
:100A400083EC00F000C030F1D2EF00F083EC00F056
:100A500000C031F183EC00F000C032F1D2EF00F0C1
:100A600083EC00F000C033F183EC00F000C034F1FF
:100A7000D2EF00F083EC00F000C035F183EC00F021
:100A800000C036F1D2EF00F083EC00F000C037F187
:100A900083EC00F000C038F1D2EF00F083EC00F0FE
:100AA00000C039F183EC00F000C03AF1D2EF00F061
:100AB00083EC00F000C03BF183EC00F000C03CF19F
:100AC000D2EF00F083EC00F000C03DF183EC00F0C9
:100AD00000C03EF1D2EF00F083EC00F000C03FF127
:100AE00083EC00F000C040F1D2EF00F083EC00F0A6
:100AF00000C001F083EC00F001C020F000C021F044
:100B0000D2EF00F01B0E006E94EC00F0B70E006EFA
:100B100094EC00F0006A94EC00F0006A94EC00F0B1
:100B2000D2EF00F0A4EC00F083EC00F00028016E9E
:100B300083EC00F09AEC1CF0012EFAD7D2EF00F013
:100B4000A4EC00F085EC1CF094EC00F00050D8B45C
:100B5000D2EF00F0016E88EC1CF094EC00F0012E56
:100B6000FAD7D2EF00F083EC00F000C001F083EC84
:100B700000F00150040832E3000EFB6EFA6AD890D0
:100B80000136FA360136FA36980E01260B0EFA2295
:100B9000000EFB220150F96EEEEF05F0D6EF05F0E6
:100BA000DCEF05F0E2EF05F0E8EF05F0BC0E016EBA
:100BB0003D0E026E000E18D0D60E016E3D0E026E76
:100BC000000E12D0CB0E016E3D0E026E000E0CD048
:100BD000E70E016E3D0E026E000E06D0000E006E96
:100BE00094EC00F0D2EF00F0F86E02C0F7FF01C005
:100BF000F6FF09000050F55ED8A0F0D7F626000EEB
:0C0C0000F722F8220800F5CF00F0EAD738
:040C0C00010E326E35
:100C1000400E336E080E346E400E356E0101010E2B
:100C20004A6F120003C0DCFF08C0DCFF01014A2F3D
:100C30002DD000C0DCFF01C0DCFF02C0DCFF1C0EB9
:100C4000086E006A016A026A036A71EC10F071ECC6
:100C500010F0006A100E016E400E026E036A200E44
:100C600013B8016E71EC10F0006A016A026A036A3F
:100C700071EC10F013AA04D071EC10F071EC10F0CC
:100C8000DDCF02F0DDCF01F0DDCF00F000C0DCFFF2
:100C900001C0DCFF02C0DCFF036AD89000360136D9
:100CA0000236033600360136023603360036013688
:100CB0000236033600360136023603361C0E086E45
:100CC00071EC10F0DDCF02F0DDCF01F0DDCF00F0F0
:100CD000DDCF08F0DDCF03F0120000C0DCFF01C063
:100CE000DCFF02C0DCFF006A016A026A9BDFDDCF25
:100CF00002F0DDCF01F0DDCF00F0120013AA01D029
:100D0000ECDF120013AA03D0E8DFE7DFE6DF120012
:100D100002C0DCFF03C0DCFF08C0DCFFDEDF010E29
:100D2000006E016A0C0E086E71EC10F0100E086E69
:100D3000EAEC10F0E3DFDDCF08F0DDCF03F0DDCF2C
:100D400002F01200020E1CD0120E1AD0220E18D081
:100D5000320E16D0420E14D0520E12D0620E10D0A7
:100D6000720E0ED0820E0CD0920E0AD0A20E08D0B7
:100D7000B20E06D0C20E04D0D20E02D0E20E00D0C7
:100D800000C0DCFF01C0DCFF02C0DCFF026E0234E9
:100D9000003601360236023400360136023602349D
:100DA00000360136023602340036013602363ADFAA
:100DB000DDCF02F0DDCF01F0DDCF00F01200000E3C
:100DC0001ED0010E1CD0020E1AD0030E18D0040E35
:100DD00016D0050E14D0060E12D0070E10D0080E35
:100DE0000ED0090E0CD00A0E0AD00B0E08D00C0E35
:100DF00006D00D0E04D00E0E02D00F0E00D000C093
:100E0000DCFF01C0DCFF02C0DCFFEECF00F0EDCF65
:100E100001F00090026AD8900036013602360036A2
:100E2000013602360036013602360012880E0212F2
:100E3000F9DEDDCF02F0DDCF01F0DDCF00F01200F2
:100E4000000E1ED0010E1CD0020E1AD0030E18D0B8
:100E5000040E16D0050E14D0060E12D0070E10D0B8
:100E6000080E0ED0090E0CD00A0E0AD00B0E08D0B8
:100E70000C0E06D00D0E04D00E0E02D00F0E00D0B8
:100E800000C0DCFF01C0DCFF02C0DCFFEECF00F0E1
:100E9000EDCF01F00090026AD8900036013602369C
:100EA0000036013602360036013602360012800E58
:100EB0000212B8DEDDCF02F0DDCF01F0DDCF00F0B1
:100EC000120001EE37F097DF08DF120001014A51EE
:100ED000F00B010ED8B44A6F120000C0DCFF01C055
:100EE000DCFF0A0E006E016A3BDF34C000F035C043
:100EF00001F038DF040E006E400E016E35DF32C0A7
:100F000000F033C001F032DF550E006E016A30DFB1
:100F1000AA0E006E016A2EDF006A016A2DDF006AE8
:100F2000016A2CDFCEDF296A2A6A2B6ADDCF01F045
:100F3000DDCF00F0120000C0DCFF01C0DCFF02C00A
:100F4000DCFF26502918006E27502A18001228505E
:100F50002B1800101FE014B80CD028502B6E006E18
:100F6000016A0CDF2650296E006E27502A6E016E32
:100F70000ED07F0E006E016A01DFD8902634006E1D
:100F80002734016E2F500026305001220112F4DE6A
:100F900098DFB4DEDDCF02F0DDCF01F0DDCF00F071
:100FA000120001014A69149E3FEC1CF013B80BD0EB
:100FB00094DE93DE006A010E016E040E026E12ECE6
:100FC00006F08BDE16D0006A016A026A036A050E1B
:100FD000086E71EC10F081DE91DE90DE006A020E88
:100FE000016E040E026E12EC06F077DE76DE86DE0F
:100FF00085DE01014A6971DF6AEF0EF000C0DCFF97
:1010000001C0DCFF2650006EFC0B266E01014B6F09
:1010100027C04CF128C04DF18EDF00C026F09D0E98
:10102000006EDB0E016EBA0E026E12EC06F055DE9B
:1010300054DE68DEBD0E006E016ABA0E026E12EC5E
:1010400006F04BDE4ADE5EDE9D0E006ED30E016EB4
:10105000BA0E026E12EC06F040DE3FDE53DE3D0EAD
:10106000006E010E016EBA0E026E12EC06F035DE55
:1010700034DE48DE01EE35F0A4DE4ADE00C04EF17B
:1010800001C04FF101EE35F09EDE42DE00C051F1AD
:1010900001C052F101EE35F09CDE3ADE00C050F1A5
:1010A00001C053F12950040F296E000E2A22148E1C
:1010B000DDCF01F0DDCF00F012004EC100F04FC1D6
:1010C00001F050C102F051C103F052C104F053C10C
:1010D00005F0120014B821D014AE0CD02650FC0B31
:1010E000006E01014B1906E127504C1903E128500D
:1010F0004D1901E083DF2650030B01EE4FF0E8B2FB
:1011000001EE52F0E8B005D0EDCF01F0EFCF00F0E6
:101110001AD0ECCF00F0016A16D00DDF2628296E18
:10112000000E27200F0B2A6E2B6ABD0E006E016A7F
:10113000BA0E026E12EC06F0D0DDCFDDE3DD01EE7B
:1011400035F03FDEE5DDB3EF0FF0FA0E006E016A19
:10115000F9DD01EE37F033DE006A016AF3DDBDDD53
:10116000370E006EC80E016EBB0E026E12EC06F05A
:10117000B4DDB3DD010E006E180E016EBB0E026E03
:1011800012EC06F0AADDA9DD270E006EC80E016E76
:10119000BB0E026E12EC06F0A0DD9FDD020E006EAB
:1011A000180E016EBB0E026E12EC06F096DD95DD98
:1011B00000680168C7DD01EE35F001DE01EE3DF0AB
:1011C00018DE01EE3FF017DE01EE39F00CDE85DDB2
:1011D00084DD01EE3BF009DE80DD01EE3BF007DE51
:1011E000290E006EE70E016EA80E026E12EC06F0DC
:1011F00074DD73DD72DD71DD70DDCD6A0F0E006EA2
:10120000016A2050005E2150015A02E20068016824
:1012100001C0CFFF00C0CEFF9E90CD80040E2926D6
:10122000000E2A22040E2626000E272228229EA027
:10123000FED753DD01EE39F003DE4FDD01EE35F070
:10124000BEDD66DDF00E00168F0E01140010F1E118
:101250004D0E006E016AB00E026E12EC06F0120026
:1012600035DE149E13B80FD03B0E006E016E880E53
:10127000026E12EC06F03C0E006E3B0E016E880E04
:10128000026E12EC06F0610E006EE70E016EA80E03
:10129000026E12EC06F021DD20DD1FDD1EDD1F5089
:1012A000446E456A466A3FEC1CF013B80BD0610EE1
:1012B000006EE70E016EA90E026E12EC06F00DDD57
:1012C0000CDD14D00ADD006A3B0E016E800E026E4A
:1012D00012EC06F0200E006E3C0E016E880E026EBF
:1012E00012EC06F0FADC14DD01BEECD71200149EFD
:1012F00014B81DD026B034D02B6A1DDE23DD080EB5
:10130000006E3B0E016E880E026E12EC06F0800E2F
:10131000006E1E0E016EBB0E026E12EC06F0DDDCDE
:10132000DCDC9EDF020E2926000E2A2219D003DE05
:1013300009DD090E006E3B0E016E880E026E12EC86
:1013400006F0800E006E1E0E016EBB0E026E12ECD9
:1013500006F0C3DCC2DC84DF010E2926000E2A223F
:1013600005EF10F0E8DD00C003F001C000F002C09E
:1013700001F0EADC13BA08D02204261405E101EEDC
:1013800037F039DDAADCA9DC120000C004F001C08E
:1013900000F002C001F0DADC03C000F004C001F08C
:1013A000DBDC13BAD2D6B70E006ECE0E016EBB0ECA
:1013B000026E12EC06F091DC90DC810E006E1E0EC7
:1013C000016EBB0E026E12EC06F087DC86DCA70E07
:1013D000006ECE0E016EBB0E026E12EC06F07DDCCE
:1013E0007CDC820E006E1E0E016EBB0E026E12ECD5
:1013F00006F073DC72DC120000C003F001C000F0E4
:1014000002C001F0A1DC120013BABFD700C004F083
:1014100001C000F002C001F099DC03C000F004C07C
:1014200001F09ADCB70E006ECE0E016EBB0E026E9E
:1014300012EC06F052DC51DC810E006E1E0E016EC5
:10144000BB0E026E12EC06F048DC47DCA70E006E05
:10145000CE0E016EBB0E026E12EC06F03EDC3DDCE1
:10146000820E006E1E0E016EBB0E026E12EC06F0B6
:1014700034DC33DC080E2626000E27222822080E34
:101480002926000E2A222204261404E101EE39F056
:06149000AADCE6DE1200FA
:0A14960020042E043B044904FFFF6C
:1014A000FFFFFFFFFFFFFFFFFFFFFFFFFFFFFFFF4C
:1014B000FFFFFFFFFFFFFFFFFFFFFFFFFFFFFFFF3C
:1014C000FFFFFFFFFFFFFFFFFFFFFFFFFFFFFFFF2C
:1014D000FFFFFFFFFFFF4F68506A1198119E010147
:1014E000DC0E886F050E896F6D6A160E6F6E6B6865
:1014F000120000C0DCFF01C0DCFF02C0DCFF03C043
:10150000DCFF82D86D86118E8A0E006E010E016E90
:101510004C0E026E150E036E86EC16F0EFEC16F014
:10152000DDCF03F0DDCF02F0DDCF01F0DDCF00F045
:1015300012004FC000F063EC17F011AA02D0B5EC16
:101540001DF04F686D6A119E119812004CC04FF04B
:10155000506A119C0101DC0E886F050E896FEFEC5B
:1015600016F044DA11B0FBD7EFEC16F065EC12F090
:10157000F6D700C0DCFFEFA644D0040EEBCF00F09E
:10158000050EEB500010D8A43CD0010EEBCFE1FFCC
:10159000000EEFB4040FE126040EE26EEF9CE7505C
:1015A0003C0B340AD8B4EF8CEF9AE650030B006E74
:1015B000050E00C0EBFF040EE7CFEBFFE650001076
:1015C000D8B4EF8AE650EF34060B090FEBCFE5FFF6
:1015D000FF0FEBCFE5FF020EEBCFE5FF030EEB5065
:1015E000E76EE78E010EEFB0030EEFB2020EEF1AB8
:1015F000EF96EFB8EF86EF98EF74060EEB6A010FE7
:10160000EB6ADDCF00F0120000C0DCFF01C0DCFFA0
:1016100011981186706A716A726A736A746A756A5F
:10162000766A776A786A796A7A6A7B6A7C6A7D6A9E
:101630007E6A7F6A04EE00F0200E006EEE6A002ED5
:10164000FDD70401380E206F000E216F080E226FA7
:10165000236B246B256B560E286F040E296F5E0ECC
:101660002A6F040E2B6F660E2C6F040E2D6F180E52
:101670002E6F2F6B080E306F080E316F326B336B8D
:10168000346B6E0E356F040E366F760E376F040EA8
:10169000386F7E0E396F040E3A6F380E3B6F100EA6
:1016A0003C6F400E3D6F3E6B3F6B406B860E436F51
:1016B000040E446FC60E456F040E466F060E476F4C
:1016C000050E486F180E496F020E4A6F180E4B6FC9
:1016D000400E4C6F4D6B4E6B4F6B460E506F050EB0
:1016E000516F860E526F050E536FC60E546F050E66
:1016F000556F04EE20F03DDF3CDF6E6A686A696A70
:101700006D8CE90E6D166D866D9C68A602D068968C
:10171000FCD7160E706E1182DDCF01F0DDCF00F028
:1017200012000401380E3B6F100E3C6F400E3D6FEF
:101730003E6B3F6B406B860E436F040E446FC60ECC
:10174000456F040E466F060E476F050E486F180E64
:10175000496F020E4A6F180E4B6F400E4C6F4D6B67
:101760004E6B4F6B460E506F050E516F860E526FCB
:10177000050E536FC60E546F050E556F04EE3BF009
:10178000F8DEF7DE160E706E1E0E716E11881200F6
:1017900000C0DCFFEFA64CD0EFBE4AD0050EEBCF69
:1017A00000F0060EEB500012D8A406D0010EEBB4E8
:1017B00002D0EFAC3DD0EF9C020EEBCFE1FF030E69
:1017C000EFB4040FE126040EE26EEF34060B080FAF
:1017D000EBCFE5FFFF0FEBCFE5FF050EEBCFE5FF0E
:1017E000060EEB500809E76E010EEBB0E78CEB70CC
:1017F000E78E010EEBA20AD0EB94030EEBCF00F0C4
:10180000050EEB50001A02E1010EEB84010EEFB061
:10181000030EEFB2020EEF1AEF96EFB8EF86EF98D5
:10182000EF74EF9AEFBCEF8A050EEB6A010FEB6ADB
:10183000DDCF00F01200F00E0116030E0112EFAC26
:1018400008D0060EEB52D8A404D00752EB52D8B4FD
:101850000184EFBA26D0019201B823D00190EF3471
:10186000060B080FEBCFE1FF010FEBCFE2FF060EF7
:10187000EB50E126070EEB50E222060EEB2A070E94
:10188000D8B0EB2A040EEB06EBCF00F0050ED8A083
:10189000EB06EB500012E7CF00F0D8A402D0EF8A9D
:1018A00068DE120002C0DCFF03C0DCFFF00E011690
:1018B000030E0112EFBA2ED0019201BAEF8E01B8D9
:1018C00029D0019001AAEF9EEF34060B070FEBCF52
:1018D000E1FF010FEBCFE2FF050EEB50E126060E14
:1018E000EB50E22200C0E7FF050EEB2AEBCF02F03F
:1018F000060ED8B0EB2AEBCF03F0030EEB50021824
:10190000D8A407D0040EEB500318D8A402D0EF8A55
:10191000EF9E3EDFDDCF03F0DDCF02F01200F00ED0
:101920000116030E0112EFBC14D0019201B811D0C0
:10193000EF9E01BC0AD0EFBA08D0050EEB52D8A436
:1019400007D0060EEB52D8A403D00190EF8CEF8A9B
:101950001FDF120002C0DCFFF00E0116030E0112A1
:10196000050EEBCF02F0060EEB500210D8A407D004
:101970000184EF50180B180AD8B4018609D0EFA6DD
:1019800007D0019201B804D001900184EF9E00DFDE
:10199000DDCF02F0120004EE20F04DD7708012006F
:1019A00004EE2EF07FD704EE2FF0EF90120004EE3D
:1019B0002FF0EF80120004EE2EF0CCD704EE2EF0C4
:1019C000AED704EE3BF037D704EE49F06BD704EE08
:1019D0004AF0EF90120004EE4AF0EF80120004EE9D
:1019E00049F0B8D700C087F111841200119068A2A5
:1019F00006D01180118C6A506A6A5012120068A0D9
:101A000003D0118001DE120068AC02D0689C118CFA
:101A100068A625D06CCF00F06896118C140EF76E76
:101A2000000EF86E00403E0B960FF66E000EF72289
:101A3000F8220900F5CFE9FF0800F5BE10D0F5CF78
:101A4000EAFF1180EF300018020B080ED8A4100E28
:101A5000EF1200B402D08DDD12009ADE120068AAE7
:101A600003D0689A1180120068A803D0689811808A
:101A7000120068A403D0689411801200120011AE05
:101A800020D011AC07D0119C0101E80E886F030E25
:101A9000896F17D001010050885F000E895B04E355
:101AA00088518911D8A40DD06D6A119E1198E20E4B
:101AB000446E2E0E456E466ACEEC1BF03FEC1CF0D9
:041AC000FF00120011
:0C1AC400206A216A010E326E400E336E63
:101AD000080E346E400E356E1398139A0101A60E4F
:101AE0002D6F0F0E2E6FA90E2F6F0F0E306FAA0ED7
:101AF000316F0F0E326FA80E336F0F0E346F840EDE
:101B0000356F070E366F320E376F386B600E396FD8
:101B1000070E3A6F660E3B6F070E3C6F620E3D6F0D
:101B2000070E3E6F640E3F6F070E406F12001C6A77
:101B30001D6A1E6A780E1F6E266A276A286A296A3D
:101B40002A6A2B6A2C6A2D6A2E6A2F6A306A316AD9
:101B5000B9DF120013BE04D0C5EC18F03FEC1CF046
:101B600030EC10F03FEC1CF041EC10F03FEC1CF0BE
:101B70006EEC1BF013AE04D03FEC1CF0C5EC18F07B
:101B80005A0E446E020E456E466ACEEC1BF03FECD8
:101B90001CF012004DEC10F03CEC10F05AEC1BF075
:101BA0003FEC1CF0B2EC18F03FEC1CF05A0E446E07
:101BB000020E456E466ACEEC1BF01200262A000E7D
:101BC000272228221200292A000E2A222B22148CD6
:101BD000120000C0DCFF01C0DCFF02C0DCFF03C05C
:101BE000DCFF08C0DCFF2CC029F02DC02AF02EC07D
:101BF0002BF0149A149C3FEC1CF0ACDF3FEC1CF073
:101C00001C50D8B432D00D08D8A02FD01C0EFA6EBC
:101C1000000EFB6E1C04E846E846030BFA26D8B01B
:101C2000FB2A1C04E846E846FC0B360FD8B0FA2A1B
:101C3000D8B0FB2AF96E75EF0EF07DEF0EF07EEF57
:101C40000EF07DEF0EF07DEF0EF0BAEF0EF0F6EF36
:101C50000EF0FAEF0EF085EF0EF003EF0FF0D8EF75
:101C60000EF004EF0FF0A4EF0EF01C50D8B432D0F9
:101C70000D08D8A02FD01C0EFA6E000EFB6E1C04AF
:101C8000E846E846030BFA26D8B0FB2A1C04E846CF
:101C9000E846FC0BA00FD8B0FA2AD8B0FB2AF96EA0
:101CA0006AEF0EF06AEF0EF06AEF0EF0D1EF07F078
:101CB0006AEF0EF06AEF0EF0D1EF07F0D1EF07F008
:101CC0006AEF0EF0D1EF07F06AEF0EF0D1EF07F0F8
:101CD0006AEF0EF0DDCF08F0DDCF03F0DDCF02F0CC
:101CE000DDCF01F0DDCF00F01200148A06EC19F010
:101CF0003FEC1CF0B7EC1BF0B8D7148AB7EC1BF024
:101D00003FEC1CF006EC19F0B0D7149AB7EC1BF0BE
:101D10003FEC1CF00E0E446E456A466ACEEC1BF09A
:101D20003FEC1CF0500E006E480E016E430E026E2A
:101D30004D0E036E200E086E71EC10F0006A010E5D
:101D4000086E71EC10F091D7148AC5EC18F03FECD6
:101D50001CF0B7EC1BF03FEC1CF0B20E006EC20E94
:101D6000016E120E026E0A0E036E200E086E71ECEA
:101D700010F07BD7148AC5EC18F03FEC1CF06EEC29
:101D80001BF03FEC1CF0B7EC1BF03FEC1CF04AECF6
:101D900019F0B20E006EC20E016E120E026E0A0E25
:101DA000036E200E086E71EC10F006EC19F05DD792
:101DB000148AC5EC18F03FEC1CF06EEC1BF03FEC05
:101DC0001CF0B7EC1BF03FEC1CF006EC19F03FECFC
:101DD0001CF0B20E006EC20E016E120E026E0A0EE2
:101DE000036E200E086E71EC10F03FD7346A400E7F
:101DF000356E10D0040E326E400E336E040E346E0B
:101E0000400E356E07D006D0010E346E400E356E92
:101E1000138A00D01388148AC5EC18F03FEC1CF02C
:101E20006EEC1BF03FEC1CF0B7EC1BF03FEC1CF031
:101E30000E0E446E456A466ACEEC1BF03FEC1CF079
:101E40004AEC19F03FEC1CF01A0E446E456A466AE3
:101E5000CEEC1BF03FEC1CF0B20E006EC20E016E19
:101E6000120E026E8A0E036E200E086E71EC10F0D8
:101E700006EC19F03FEC1CF0660E446E020E456E47
:101E8000466ACEEC1BF0F1D600C0DCFF01C0DCFFDF
:101E900002C0DCFF03C0DCFF08C0DCFF1E50D8B46A
:101EA00024D00608D8A021D01E0EFA6E000EFB6EBC
:101EB0001E04E846E846030BFA26D8B0FB2A1E04A7
:101EC000E846E846FC0BD20FD8B0FA2AD8B0FB2A75
:101ED000F96E75EF0FF075EF0FF0FDEF1CF075EF79
:101EE0000FF075EF0FF075EF0FF0DDCF08F0DDCFDD
:101EF00003F0DDCF02F0DDCF01F0DDCF00F0120006
:101F000002C0DCFF03C0DCFF08C0DCFF1E50D8B4F9
:101F10002AD00908D8A027D01F0EFA6E000EFB6E3B
:101F20001E04E846E846030BFA26D8B0FB2A1E0436
:101F3000E846E846FC0B420FD8B0FA2AD8B0FB2A94
:101F4000F96EF1EF1AF079EF14F000EF1DF06AEF7F
:101F500008F079EF14F0BEEF15F08DEF19F0C9EF2E
:101F600015F0C1EF17F0DDCF08F0DDCF03F0DDCFC6
:101F700002F0120000C0DCFF01C0DCFF02C0DCFF89
:101F800003C0DCFF08C0DCFF149014921494149674
:101F90001F50446E456A466A1D50D8B436D00F08AB
:101FA000D8A033D01F0EFA6E000EFB6E1D04E8465B
:101FB000E846030BFA26D8B0FB2A1D04E846E8469B
:101FC000FC0BCE0FD8B0FA2AD8B0FB2AF96EFCEF82
:101FD0001AF031EF1BF009EF1DF077EF09F033EF46
:101FE0001BF043EF1BF046EF1BF0D4EF14F048EF6B
:101FF0001BF042EF1BF04AEF1BF010EF16F0A4EFBE
:1020000019F023EF16F017EF18F0DDCF08F0DDCF51
:1020100003F0DDCF02F0DDCF01F0DDCF00F01200E4
:10202000340EB46E1200DD0E8A16138C8A9E939EB7
:10203000020E446E456A466ACEEC1BF03FEC1CF083
:10204000B4BC0CD08A8E020E446E456A466ACEEC51
:102050001BF03FEC1CF0B4AC01D0139C938E12002B
:1020600000008A500809EF0B8A6E120000008A50A7
:102070001009F70B8A6E120000D00000E70E8A16D6
:10208000120000008A502009FD0B8A6E1200000029
:102090008A500209DF0B8A6E120000D00000DD0EAC
:1020A0008A161200006A00D000D000D0B4BC0080B4
:1020B000120000008A501009F70B8A6E00D0000051
:1020C0008A500209DF0B8A6E00D000008A5008098E
:1020D000EF0B8A6E00D000008A502009FD0B8A6E3B
:1020E000E8D700C0DCFF01C0DCFF02C0DCFF03C09A
:1020F000DCFF08C0DCFF00A014D08A500209DF0B0F
:102100008A6E8A501009F70B8A6E0332023201324E
:1021100000328A500809EF0B8A6E084E17D000B0C3
:10212000ECD78A502009FD0B8A6E8A501009F70BF4
:102130008A6E03320232013200328A500809EF0BF4
:102140008A6E084E03D000A0ECD7D7D700D000008D
:10215000DD0E8A16DDCF08F0DDCF03F0DDCF02F013
:10216000DDCF01F0DDCF00F0120008C0DCFF060E6D
:10217000086EB7DFDDCF08F0120000C0DCFF01C041
:10218000DCFF08C0DCFF003601360090019E100E17
:10219000086EA7DFDDCF08F0DDCF01F0DDCF00F066
:1021A000120000C0DCFF01C0DCFF02C0DCFF08C081
:1021B000DCFF0036013602360090029E180E086ED3
:1021C00090DFDDCF08F0DDCF02F0DDCF01F0DDCF15
:1021D00000F0120008C0DCFF09C0DCFF8A500809CB
:1021E000EF0B8A6EDD0E8A16210E096E00008A50F2
:1021F0001009F70B8A6ED890033202320132003296
:10220000090600D00000B4BC038E00D08A50080933
:10221000EF0B8A6E082EEAD7094E06D0D89003320B
:10222000023201320032F8D7DDCF09F0DDCF08F0FD
:10223000120002C0DCFF03C0DCFF08C0DCFF100E90
:10224000086EC8DF013200323F0E0116DDCF08F004
:10225000DDCF03F0DDCF02F0120000C0DCFF01C0D3
:10226000DCFF080E016E00BE12D08A502009FD0B63
:102270008A6E8A501009F70B8A6E003600D08A5099
:102280000809EF0B8A6E014E15D000AEEED78A50CA
:102290000209DF0B8A6E8A501009F70B8A6E00362E
:1022A00000D08A500809EF0B8A6E014E03D000AEB1
:1022B000DCD7EDD700D00000DD0E8A16DDCF01F0AF
:1022C000DDCF00F0120000C0DCFF01C0DCFF02C067
:1022D000DCFF03C0DCFF180E036E02BE13D08A5071
:1022E0002009FD0B8A6E8A501009F70B8A6E0036A2
:1022F000013602368A500809EF0B8A6E034E16D05B
:1023000002AEEDD78A500209DF0B8A6E8A5010099F
:10231000F70B8A6E0036013602368A500809EF0B39
:102320008A6E034E03D002AEDAD7ECD700D000009D
:10233000DD0E8A16DDCF03F0DDCF02F0DDCF01F038
:10234000DDCF00F0120000C0DCFF01C0DCFF02C0E6
:10235000DCFF026AD890003601360236B4DFDDCFEA
:1023600002F0DDCF01F0DDCF00F0120000C0DCFF95
:1023700001C0DCFF02C0DCFF026A3F0E0116D890EC
:1023800000360136A0DFDDCF02F0DDCF01F0DDCF7A
:1023900000F0120000C0DCFF01C0DCFF02C0DCFF67
:1023A000016A026AD8900036013602368CDFDDCF32
:1023B00002F0DDCF01F0DDCF00F0120003C0DCFF42
:1023C0008A500809EF0B8A6EDD0E8A16180E036E0E
:1023D0008A501009F70B8A6ED89000360136023603
:1023E00000D000D00000B4BC00808A500809EF0B78
:1023F0008A6E032EEDD7DDCF03F0120002C0DCFFA2
:10240000DDDF023201320032DDCF02F0120002C005
:10241000DCFFD4DF013200323F0E0116DDCF02F0C7
:10242000120001C0DCFF02C0DCFFC8DF0132003255
:0A243000DDCF02F0DDCF01F0120055
:06243A0001011E0E6F6F90
:10244000250E706F000E716F010E6E6F1200016A23
:10245000DBEC0CF001B602D019D8F9D712006D9858
:10246000016ADBEC0CF001B402D010D8F9D7D7EC3C
:102470000CF01200200E016ED0EC0CF001A002D086
:1024800005D8F8D70101854B862B120000C067F1F3
:1024900001C068F102C069F103C06AF104C06BF1C8
:1024A00005C06CF106C06DF1FC041F0B016E01014B
:1024B0006E6F01EE6FF0FDCFEEFFFECFEEFFFFCFB0
:1024C000EEFF0600012EF7D7120011A202D01192E2
:1024D00026D0010101EE6EF06E51016E030DF35036
:1024E000E926014E08D00500ED50FF6EED50FE6E5E
:1024F000ED50FD6EF6D767C100F068C101F069C10B
:1025000002F06AC103F06BC104F06CC105F06DC14B
:1025100006F07151FB6E7051FA6E6F51F96E010148
:10252000836B846B11AA03D0B5EC1DF0119A080ED1
:10253000026E016ACBEC0CF001A002D0A7DFF9D744
:1025400001A402D0080E026E01EE7BF002500808D2
:10255000E92600C0EFFF022EECD70101856B866BE8
:10256000000EFB6E250EFA6E7C510C08D8A023D00D
:102570007C35E834FC0B820FD8B0FA2AD8B0FB2A9D
:10258000F96EDBEF12F0DBEF12F0DBEF12F0DBEFB6
:1025900012F0DBEF12F0BEEF13F022EF13F0DBEFDF
:1025A00012F0CDEF13F0C6EF13F0D5EF13F0D2EF2A
:1025B00013F0DBEF12F06D98CEEC0CF0B8D74FDFD4
:1025C00001010350825DD8A006D0D8A408D00250E3
:1025D000815DD8B004D081C102F082C103F0025005
:1025E0000310D8B412D004C0F6FF05C0F7FF06C030
:1025F000F8FF0800F5CF00F03DDF042A000E0522A9
:1026000006220206D8A00306EAD701018151070B72
:10261000D8A408D081518519D8A404D08251861934
:10262000D8B485D7016ADEEC0CF001A280D72EDF8A
:10263000F9D715DF400E016EDEEC0CF001A077D764
:1026400025DFF8D701017E51FF0FD8A40DD07D53AF
:10265000D8A4B1D7260E046E3D0E056E000E066E90
:10266000120E026E036AABD7FF0FD8A40DD07D53B4
:10267000D8A4A1D7380E046E3D0E056E000E066E6E
:10268000200E026E036A9BD7FF0FD8A494D77D0556
:10269000D8B45DD07D510308D8A08DD77D51D8A482
:1026A000FF0FE8247F0FF66E3D0ED8B0010FF76ED6
:1026B000000ED8B0010FF86E0900F5CF04F0080045
:1026C000F5CF05F0580E04263D0E0522000E066ECD
:1026D000000E062204C0F6FF05C0F7FF06C0F8FF93
:1026E0000800F5CF02F0036A7D51D8B468D7825351
:1026F000D8A405D00250815DD8A081C102F0AFDE20
:102700000250D8B482D7F5CF00F0B4DE024E7DD7A8
:10271000030E006EAFDE024E78D7020E0426000EC6
:102720000522062204C0F6FF05C0F7FF06C0F8FF29
:102730000800F5CF00F09EDE024E67D7006A9ADEF1
:10274000024E63D7042A000E05220622EBD787DE4D
:1027500097EC1DF0118A0050026E020F006E8ADEA7
:10276000030E006E87DE025205E00206ACEC1DF09F
:1027700081DEF9D7B5EC1DF0119A47D770DE400E17
:10278000DEEC0CF064DE7DC16EFFD1D601017D511F
:10279000836F006E91EC0BF04CD783C100F06ADEC2
:1027A0005EDE33D77DC184F144D784C100F062DEA0
:0427B00056DE2BD7EF
:0C27B40008C0DCFF140E086E71EC10F081
:1027C000DDCF08F0120000C0DCFF01C0DCFF02C05A
:1027D000DCFF08C0DCFF026AD89000360136023602
:1027E0000036013602360036013602360036013632
:1027F0000236140E086E71EC10F0DDCF08F0DDCF5C
:1028000002F0DDCF01F0DDCF00F0120000C0DCFFF0
:1028100001C0DCFF08C0DCFF006A040E086E71EC2A
:1028200010F00E0E016E0250006E100E086E71EC6C
:1028300010F0006A040E086E71EC10F06E0E016E5E
:102840000350006E100E086E71EC10F0DDCF08F032
:10285000DDCF01F0DDCF00F0120000C0DCFF01C0D1
:10286000DCFF800E016E02340E0B011203C000F07B
:10287000AADFDDCF01F0DDCF00F0120000C0DCFFE9
:1028800001C0DCFF900E016E02340E0B011203C07A
:1028900000F099DFDDCF01F0DDCF00F0120002C0C3
:1028A000DCFF03C0DCFF14AA0CD026502918D8A4E2
:1028B00008D027502A18D8A404D028502B18D8B4F0
:1028C00013D0148A2650296E026EF60E036E9EDF18
:1028D00027502A6E026EF70E036E98DF28502B6E7B
:1028E000026EF80E036E92DFDDCF03F0DDCF02F053
:1028F000120014B810D0D3DF090E006E016A0C0E5E
:10290000086E71EC10F0080E086EEAEC10F0E3ECC3
:102910000DF0B3EF0FF0070E026E2DC103F0AEDF26
:10292000060E026E2DC103F0A9DF2FC103F026C0F1
:1029300002F06CDF31C103F027C002F067DF000E48
:10294000026E2DC103F089DF500E016E33C100F01D
:102950003ADF500E006EEF0E016E060E026E2ADF99
:10296000006A016A026A26DF020E006E016A0C0E1E
:10297000086E71EC10F0080E086EEAEC10F0B3EF80
:102980000FF000C0DCFF01C0DCFF070E026E2DC19E
:1029900003F063DF060E026E2DC103F06FDFDDCFA3
:1029A00001F0DDCF00F07BD714B84BD026B005D0B6
:1029B00000C049F174DF05EF10F000C001F049C11B
:1029C00000F0026AD8900036013602360036013631
:1029D0000236003601360236003601360236140E53
:1029E000086E2204036E26140318D8B40BD00D0E03
:1029F000001271EC10F0020E2926000E2A222B2262
:102A000005EF10F00F0E001271EC10F0006A030ECB
:102A1000086E71EC10F036EC10F0CEEC1BF03FECD1
:102A20001CF030EC10F0030E446ECEEC1BF03FECCB
:102A30001CF0006A016A100E086E71EC10F005EFD0
:102A400010F02FC103F026C002F0E0DE31C103F028
:102A500027C002F0DBDE33C103F000C002F0D6DE97
:102A6000010E026E2DC103F0F8DE006A016A026AEF
:102A7000A1DE006A016A026A9DDECEEC1BF005EF62
:022A800010F054
:0E2A820000C0DCFF01C0DCFF14AA0AD02A50FD
:102A9000275CD8A006D0D8A40BD02950265CD8B08B
:102AA00007D0296A2A6A148A160E006EB5EC10F057
:102AB00027AE0CD02ABE0AD0296A800E2A6E006A80
:102AC000B5EC10F0006A016ABDEC10F02950261830
:102AD000006E2A5027180010D8B407D0060E006EDA
:102AE000B5EC10F0E3EC0DF0F1D7DDCF01F0DDCF68
:102AF00000F0120000C0DCFF01C0DCFF02C0DCFF00
:102B00002750016E2650006E14A804D02F500026C6
:102B10003050012214AA1DD029500018026E2A50EC
:102B20000118021024E02A500118800B12E1292814
:102B3000026E000E2A2001180CE10250001809E173
:102B400000C029F001C02AF0060E006EB5EC10F0AE
:102B50000ED000C029F001C02AF01D0E006EB5ECA9
:102B600010F026C000F0026AD1EC10F0148ADDCF1C
:102B700002F0DDCF01F0DDCF00F0120082DF040EA5
:102B800014B8050E006EB5EC10F019EC11F0B3EFAF
:102B90000FF0B0DF240E006EB5EC10F019EC11F060
:102BA0002A50800B026E292A000E2A207F0B021069
:102BB0002A6EB3EF0FF065DF0050026E020E14B8FC
:102BC000030E006EB5EC10F00250006EBDEC10F07C
:102BD00014B810D02204006E26140018D8B40AD0FD
:102BE0002750245CD8A006D0D8A418D02650235C47
:102BF000D8B014D042C100F0B5EC10F0CEEC1BF010
:102C000014A00CD043C100F03FEC1CF0B5EC10F068
:102C1000030E446E456A466ACEEC1BF005EF10F0D9
:102C20000101180E426F0A0E436F148027BE02D0B6
:102C300014A8C1D73E0E446E456A466A0101080ECB
:102C4000426F1490B8D756DF2ABE32D02204026EEB
:102C5000261402180EE000C002F0220E006EB5EC41
:102C600010F002C000F0BDEC10F0E3EC0DF005EF49
:102C700010F000C002F0020E006EB5EC10F002C0C1
:102C800000F0BDEC10F0180E006EB5EC10F0CEECBC
:102C90001BF00A0E006E3FEC1CF0B5EC10F0050EB8
:102CA000446E456A466ACEEC1BF0149A05EF10F0AC
:102CB00000C002F0020E006EB5EC10F002C000F091
:102CC000BDEC10F0080E006EB5EC10F03E0E446E38
:0C2CD000456A466ACEEC1BF005EF10F0E0
:042CDC004C6A01013C
:102CE000000E616F020E626F010EE8CF00F2A10EBE
:102CF000636F000E646F000EE8CFA1F0AA0E656F3F
:102D0000010E666F000EE8CFAAF1120000C0DCFFD2
:102D100001C0DCFF05C0DCFF030E056E11EE61F0A3
:102D2000E6CFE9FFE6CFEAFFEF5203E0052EF8D742
:102D3000FF00DDCF05F000C0E1FF01C0E2FF00C0F1
:102D4000E6FF01C0E6FF02C0E6FF03C0E6FF04C0E5
:102D5000E6FF05C0E6FF06C0E6FF07C0E6FFEE2A75
:102D6000000E0006015AE55200C0EEFF01C0EEFF62
:102D700000C0EEFF01C0EEFFE1CFEEFFE2CFEEFFBD
:102D800002C0EEFF03C0EEFFDDCF01F0DDCF00F0AB
:102D9000120008C0DCFF09C0DCFF0AC0DCFF0BC06A
:102DA000DCFF0CC0DCFF0DC0DCFF0EC0DCFF0FC081
:102DB000DCFF10C0DCFF13D8DDCF10F0DDCF0FF04B
:102DC000DDCF0EF0DDCF0DF0DDCF0CF0DDCF0BF061
:102DD000DDCF0AF0DDCF09F0DDCF08F0120000C032
:102DE000DCFF01C0DCFF02C0DCFF03C0DCFF04C06D
:102DF000DCFF05C0DCFF06C0DCFF07C0DCFFE9CF5D
:102E000000F0EACF01F001EE61F04C44E926EE500B
:102E1000EFCFEAFFE96EFC501F0B026EEE6E00C0B2
:102E2000EEFF01C0EEFFE1CFEEFFE2CFEEFFD9CF24
:102E3000EEFFDACFEEFFFD50EE6EFE50EE6E0600B6
:102E4000022EF9D74C2A4C500208D8A04C6A01EE49
:102E500061F04C44E926EE50EFCFEAFFE96EEF5205
:102E6000F1E0EECF01F0EECF02F0EECF03F0F29EF4
:102E7000FC6AEECFE1FFEECFE2FFEECFD9FFEECF5F
:102E8000DAFFF28E0144FF0FE926000EEA22050068
:102E9000ED50FE6EED50FD6E012EF9D702C0E9FF38
:102EA00003C0EAFFDDCF07F0DDCF06F0DDCF05F090
:102EB000DDCF04F0DDCF03F0DDCF02F0DDCF01F098
:102EC000DDCF00F0120000500208D8A00DD001EEB6
:102ED00061F00044E926EE50EFCFEAFFE96EEF6AB9
:102EE00000504C5CD8B4AED7120001EE61F04C44F7
:0E2EF000E926EE50EFCFEAFFE96EEF6AA3D7B6
:022EFE0000C012
:102F0000DCFF01C0DCFF02C0DCFF26C000F027C0F0
:102F100001F028C002F014A8009014AA09D029508A
:102F2000001806E12A50011803E12B50021822E094
:102F30003FEC1CF000C0DCFF800E006E2DEC11F0A9
:102F4000DDCF00F000C029F001C02AF002C02BF054
:102F500014A806D02F5000263050012231500222F2
:102F6000D89000360136023663EC11F0148A00D096
:102F700000D00000DDCF02F0DDCF01F0DDCF00F0AA
:102F8000120014B819D026A017D014AA15D0010128
:102F900048A112D026C0E8FF4719FE0B0DE127C05B
:102FA000E8FF481909E128C0E8FF491905E147C1D0
:102FB00000F0016AB3EF0FF0A2DF3FEC1CF000C09D
:102FC000DCFFFE0E006E2DEC11F0DDCF00F000D026
:102FD00000D000D000D0DEEC11F014B81DD00101FB
:102FE00002320132003201C047F1486B488129C0EA
:102FF00044F12AC045F12BC046F1020E2926000EED
:103000002A222B2226B003D0016AB3EF0FF001C0B1
:1030100000F0016AB3EF0FF001320032016A292A91
:10302000000E2A222B220101486BB3EF0FF014B8D7
:1030300042D026B00DD000C047F126C044F127C0D1
:1030400045F128C046F10101486B488305EF10F0B7
:1030500056DF3FEC1CF000C0DCFFE00E006E2DECF4
:1030600011F0DDCF00F000C001F00068010148A3BD
:1030700012D026C002F044510218FE0B0CE127C00A
:1030800002F04551021807E128C002F0465102182B
:1030900002E147C100F0020E2926000E2A222B224F
:1030A000026AD89000360136023663EC11F0CEEC9D
:1030B0001BF005EF10F023DF3FEC1CF000C0DCFF3D
:1030C000E00E006E2DEC11F0DDCF00F0292A000E8D
:1030D0002A222B22016A026AD89000360136023673
:0C30E00063EC11F0CEEC1BF005EF10F0DB
:0430EC0001C0DCFF44
:1030F00002C0DCFF12AE23D0129E01016051B10864
:10310000D8B005D0FA0E4A6E0C0E4B6E10D00101ED
:103110006051690DF3CF01F0F4CF02F0010DF350CF
:1031200002244A6E01320130300B0C094B6E1284BE
:10313000BA0E446E0B0E456E466ACEEC1BF0DDCF28
:1031400002F0DDCF01F01200BB6A0C0EBA6EEA0E7F
:103150004A6E0C0E4B6E12840101010E5F6FA60EBB
:10316000606F12000101010E5F1B5F6FD8B40CD0BD
:103170008A9C8A94020E446E456A466ACEEC1BF025
:10318000129812AE01D0B2DF120000C0DCFF01C005
:10319000DCFF0101020E5F1B5F6FD8B432D08A9C46
:1031A00000D000D000D000D000D000D000D000D09F
:1031B00000D000D000D000D000D000D000D000D08F
:1031C00000D000D000D000D000D000D000D000D07F
:1031D00000D000D000D000D000D000D000008A8401
:1031E000129884DF12AA0DD05A0E446E020E456E5C
:1031F000466ACEEC1BF02C0E006E010E016EDDEC6B
:103200001BF0DDCF01F0DDCF00F0120000C0DCFFCD
:1032100001C0DCFF0101030E5F1B5F6FD8B421D03A
:1032200065DF3FEC1CF08A9400D000D000D000D0C5
:1032300000D000D000008A8C128858DF12AA11D06A
:103240005A0E446E020E456E466ACEEC1BF001012A
:1032500060519D0DD890F430016EF330006EDDECBE
:103260001BF0DDCF01F0DDCF00F0120001010050B6
:103270006019D8B408D000C060F1128E5F51030A03
:10328000D8B401D033DF12008A9C8A9401015F6BAD
:10329000129812008A9400D000D000D000D000D044
:1032A00000D000D000D000D000D000D000D0F29EDE
:1032B0008A8C00D000D000D000D000D000D08A840A
:0632C0008A9CF28E120050
:0A32C60000C0DCFF01C0DCFF14AA09
:1032D00006D02950261803E12A50271819E03FECA0
:1032E0001CF000C041F1800E006E2DEC11F041C1C8
:1032F00000F000D000D000D000D000D00000265058
:10330000296E006E27502A6E016EA3EC11F0148A0C
:10331000DDCF01F0DDCF00F01200D5DF3FEC1CF077
:1033200000C041F1FE0E006E2DEC11F041C100F025
:1033300000D000D000D000D000D0000007EC12F088
:10334000E3EC0DF0B3EF0FF0BEDF2650235C275007
:103350002458D8A03FD02204026E2614021816E08A
:103360003FEC1CF000C041F1020E006E2DEC11F09C
:1033700041C100F000D000D000D000D000D000004B
:10338000B6EC11F0E3EC0DF005EF10F03FEC1CF0A3
:1033900000C041F1000E006E2DEC11F041C100F0B3
:1033A00000D000D000D000D000D00000B6EC11F06A
:1033B00000C041F1E00E006E2DEC11F041C100F0B3
:1033C00000D000D000D000D000D00000CEEC1BF028
:1033D00005EF10F03FEC1CF000C041F1000E006E54
:1033E0002DEC11F041C100F000D000D000D000D091
:1033F00000D00000B6EC11F000C041F1E00E006E0C
:103400002DEC11F041C100F000D000D000D000D070
:1034100000D000004A0E446E456A466ACEEC1BF0AE
:0434200005EF10F0B4
:0C34240000C0DCFF0A0EC16E060EC06E78
:10343000090EC26E9D8C0101020E006F030E016F1A
:10344000010E026F01EE03F0100E006EEE6A002E08
:10345000FDD7DDCF00F01200166AEECF17F0EECFE9
:1034600018F0196AEECF1AF0EDCF1BF0D890183291
:10347000173216321B321A321932183217321632FC
:103480001B321A3219321832173216321B321A32E4
:1034900019321950165E1A50175A1B50185A1750E5
:1034A000EE261850ED2212009E9C01C1E9FF02C1D8
:1034B000EAFFC3CFEEFFC4CFEDFF010100B309D097
:1034C000020E006F030E016F010E026F090EC26E35
:1034D00008D0040E006F0B0E016F010E026F110E6B
:1034E000C26EBADFB9DFB8DF59EF00F002C0DCFF0F
:1034F00003C0DCFF04C0DCFF05C0DCFF06C0DCFF4E
:1035000007C0DCFFF29E09C100F00AC101F0F28E93
:10351000750E046E170E056E066A076A18D002C093
:10352000DCFF03C0DCFF04C0DCFF05C0DCFF06C01D
:10353000DCFF07C0DCFFF29E11C100F012C101F0F8
:10354000F28E2B0E046E370E056E066A076A026A4B
:10355000036AE8EC1DF002C000F003C001F0DDCF0B
:1035600007F0DDCF06F0DDCF05F0DDCF04F0DDCFD5
:0835700003F0DDCF02F01200B0
:0835780000C0DCFF01C0DCFF14
:1035800014AA0AD02A50275CD8A006D0D8A408D004
:103590002950265CD8B004D0E9EC0DF03FEC1CF0CB
:1035A00027AA0BD02ABA09D0296A200E2A6E006AEF
:1035B000B5EC10F0016ABDEC10F029502618006E31
:1035C0002A5027180010D8B407D0060E006EB5ECAC
:1035D00010F0E3EC0DF0F1D7DDCF01F0DDCF00F01E
:1035E0001200CADF040E14B8050E006EB5EC10F020
:1035F00019EC11F0B3EF0FF0BFDF0050026E020EB6
:1036000014B8030E006EB5EC10F00250006EBDEC65
:1036100010F014B810D02204006E26140018D8B48C
:103620000AD02750245CD8A006D0D8A418D02650A1
:10363000235CD8B014D0180E14B0080E006EB5EC90
:1036400010F0CEEC1BF014A20AD0170E14B40E0E1C
:1036500014B60A0E006E3FEC1CF0B5EC10F005EF4E
:1036600010F01480C9D714822650070AD8A4C4D7F2
:103670002750200AD8A4C0D714801492610E446E3B
:10368000456ABAD7148014821484B6D71480B4D78C
:0A3690001482B2D714821486AFD75B
:06369A00BE6A0C0EBD6EBD
:1036A00004D80101010E5D6F12000101D00E5E6FA2
:1036B0005D6B120001015D51010A0FE0010E5D6FAB
:1036C0008A90486A0C0E496E128212962E0E446E33
:1036D000010E456E466ACEEC1BF0120000C0DCFF06
:1036E00001C0DCFF01015D51020A1DE0020E5D6FA9
:1036F000486A0C0E496E128212962E0E446E010E0E
:10370000456E466ACEEC1BF03FEC1CF08A80B20E90
:10371000446E040E456E466ACEEC1BF0640E006EDD
:10372000016ADBEC1BF0DDCF01F0DDCF00F0120011
:1037300000C0DCFF01C0DCFF01015E51486E0C0ED1
:10374000496E1282B20E446E040E456E466ACEEC8D
:103750001BF001015E51180DF3CF00F0F4CF01F022
:10376000DBEC1BF0DDCF01F0DDCF00F0120001013A
:103770005D51030A05E0030E5D6F8A90D9DF128662
:10378000120000C05EF112008A90486A0C0E496E69
:0437900012821296F9
:0C379400476A0101576B1200F29E44C00E
:1037A0003DF045C03EF046C03FF0129AF28E476AA7
:1037B0000101576B1200010E01D0020E0101576F7B
:1037C00002C0DCFF03C0DCFF0130036E0030026E7C
:1037D0000332023203320232033202320332023245
:1037E000070E03160350000807E303E1640E025CB2
:1037F00003E2640E026E036A0250005C586F0350CD
:103800000158596F02E2586B596B025000245A6FED
:10381000035001205B6F02E35A695B69DDCF03F05F
:10382000DDCF02F01200010E476E01015851005C1D
:103830005951015809E3020E476E00505A5D01507C
:103840005B5902E3476A128A120000C0DCFF01C024
:10385000DCFF010157B103D057B305D00BD076EC94
:103860001AF0E1DF07D08FEC1AF0DDDFD890473691
:10387000D8904736DDCF01F0DDCF00F01200E5DF54
:0638800012AAFDD71200A0
:0A3886000301006B010E016F026FD9
:10389000AB6A240EAC6E080EB86E670EAF6E000EEB
:1038A000B06E900EAB6E9D8A080ED56EF29412002B
:1038B000AB5003014D6EAE504E6EABA202D0AB9832
:1038C000AB884DB40ED0FD0E005DD8B00AD003EE2B
:1038D00002F001514EC0EBFF002BFD0E014F016FB6
:1038E000128059EF00F0F29E0301FD0E005DD8B08A
:1038F0000AD003EE02F0015100C0EBFF002BFD0ED9
:10390000014F016F1280F28E120000C300F012000E
:1039100012A0FED70301F29E03EE02F00251EBCF9C
:1039200000F00007FD0E024F026F006701D01290F9
:10393000F28E12009EB805D09EA8FED700C0ADFF43
:1039400017D0ACB20AD0F29EF2B404D000C0ADFFE2
:10395000F28E0ED0F28EACA2FED7D59EFD0ED76EA3
:10396000160ED66EF294F29E00C0ADFFD58EF28E8A
:02397000120043
:0E39720000C0DCFF01C0DCFF02C0DCFF03C0B0
:10398000DCFF26C002F027C003F014A804D02F509B
:1039900002263050032202502C18006E03502D18BE
:1039A000001202E114BC149A14BA06D03FEC1CF0C9
:1039B000E9EC0DF03FEC1CF02C5002162D500316D4
:1039C00029500218D8A404D02A500318D8B40CD017
:1039D000060E006EB5EC10F0E3EC0DF02C5029163D
:1039E0002D502A162B6AECD7DDCF03F0DDCF02F085
:1039F000DDCF01F0DDCF00F01200BBDF75EF0FF07F
:103A0000B8DF040E006EB5EC10F019EC11F0B3EF56
:103A10000FF0AFDF00C002F0020E006EB5EC10F048
:103A200002C000F0BDEC10F0080E006EB5EC10F016
:103A30001FC044F0456ACEEC1BF03FEC1CF00E0EAC
:103A4000006EB5EC10F0020E446E456ACEEC1BF031
:043A500005EF10F07E
:0C3A54000101546B1200190E3A6E1200B2
:103A6000190E3C6E12000101010E5419D8B40DD08C
:103A7000010E546F110E366EC80E376EC80E386EBA
:103A8000010EF29E396E129CF28E12000101030E9D
:103A90005419D8B40DD0030E546F480E366E320E42
:103AA000376E320E386E010EF29E396E129CF28E17
:103AB00012000101020E5419D8B40DD0020E546F39
:103AC000120E366E190E376E190E386E010EF29EFA
:103AD000396E129CF28E12000101040E5419D8B4F2
:103AE0000DD0040E546F8F0E366E640E376E640E5A
:103AF000386E010EF29E396E129CF28E120012B6D2
:103B000002D012A802D0190E3B6E3C52D8B402D09B
:103B1000E3DF0BD03B52D8B402D0B8DF06D03A5224
:0C3B2000D8B402D0C6DF01D09EDF120036
:043B2C00120001C0C2
:103B3000DCFF02C0DCFF016A026A65EC1EF068EC83
:103B40001EF000505008D8A0006A00C056F1DDCF2A
:103B500002F0DDCF01F01200006A01015653D8B423
:103B600003D0560768EC1EF01200120001C0DCFF03
:103B700002C0DCFF010E016E026A65EC1EF001015D
:103B8000500E566FDDCF02F0DDCF01F012000101C3
:103B90005653D8B403D0560774EC1EF0120000C080
:103BA000DCFF01C0DCFF02C0DCFF016A026A65ECD9
:103BB0001EF0010156515008006E74EC1EF08FEC9F
:103BC0001EF0DDCF02F0DDCF01F0DDCF00F01200FE
:103BD00004C0DCFF05C0DCFF06C0DCFF07C0DCFF63
:103BE00008C0DCFF09C0DCFF0AC0DCFF0BC0DCFF43
:103BF0000050086E0150096E02500A6E03500B6EA1
:103C0000006A016A026A036A085009100A100B1060
:103C1000D8B41CEF1EF008A010EF1EF02BEC1FF024
:103C2000D8900B320A3209320832D8900436053661
:103C30000636073604EF1EF0DDCF0BF0DDCF0AF0BD
:103C4000DDCF09F0DDCF08F0DDCF07F0DDCF06F0E6
:0A3C5000DDCF05F0DDCF04F0120017
:063C5A00800EF16EF06A1D
:103C60009D6AA06A9E6AA16A9F6AA26AD09E116A32
:103C7000126A136A146A156A38EC1FF00BEC1FF015
:103C80006EEC16F043EC1CF062EC1EF096EC1DF0AE
:103C90005EEC00F0A4EC18F04DEC1BF010EC10F012
:103CA00097EC0DF012EC1AF02AEC1DF0CAEC1BF0A8
:103CB00006EC06F06BEC0AF01DEC12F0C3EC1EF003
:043CC0001DEF1FF0E5
:0C3CC40001015C6B120001C05CF11200F9
:103CD000A6B268EF1EF05CC1A9FFA66AA68001012A
:103CE0005C2BA8CF00F0120001C0DCFFA6B276EF7B
:103CF0001EF05CC1A9FF00C0A8FFA66AA684F2CF8F
:103D000001F0550EF29EA76EAA0EA76EA68201BE06
:103D1000F28EA69401015C2BDDCF01F01200A6B259
:063D20008FEF1EF01200FF
:0A3D260012011001FF00FF08C01693
:103D3000C8053900020300010902200001010080CA
:103D4000FA0904000002FF00FF000705010240001D
:103D50000107058102400001040309041403456DB5
:103D600062656420496E632E0355534250726F673B
:103D7000205049432070726F6772616D6D657200EB
:053D80000004000F002B
:0A3D8600366A376A386A396A3D6A06
:103D90003E6A3F6A128A406A3A6A3B6A3C6A3C0E53
:103DA000416E780E426E436AF90ECB6E1C0ECA6EDF
:0C3DB000CC6A9E929D82F28CF28E120072
:043DBC000D000000F6
:103DC00000010001010101010101010900000000E1
:103DD0000101010101010F000000000101010101C9
:0A3DE000010101010101010101B11F
:063DEA0040C055F1EFECB2
:103DF00016F011A602D011961386B0EC00F07FECFD
:103E00001DF040500101551905E0552B0A0E006EBA
:063E10003FEC0DF0ECD7C1
:0A3E1600C26A0F0EC16E070EB46EF3
:103E2000F18E896A2F0E926E8A6A800E936E040E4E
:0A3E30008B6EF00E946E846A12008F
:063E3A008998720E446E2F
:103E4000170E456E466ACEEC1BF03FEC1CF079EC89
:063E50000AF0F5EF1EF080
:0A3E560008C0DCFF045000260550F0
:103E600001220650022207500322DDCF08F0120083
:063E700020EE5FF01200DD
:020000040030CA
:0E000000E13FF6FEFFF99AFFFFFFFFDFFFFF73
:0200000400F00A
:080000000755534250726F676F
:00000001FF
