:020000040000FA
:06000000F26AD6EF1CF0CD
:020006000000F8
:08000800E9CFDCFFEACFDCFFC9
:100010009EAA02D001EF1BF09EAC02D0FDEF18F0BB
:100020009EB202D000EF00F09E92C2823A503B1086
:100030003C10D8B40AD0010E3A5E000E3B5A3C5A2E
:100040003A503B103C10D8B4128611AE05D0119E28
:1000500048C0BDFF47C0BEFF12A005D012904AC0E5
:10006000BAFF49C0BBFF402E09D03C0E406E392E6E
:1000700005D01278375012A83850396E0E0E42064D
:10008000D8A0426E365012A836380F0B425CD8A06A
:1000900002D08B9001D08B80412E0BD0780E416E18
:1000A0003D52D8A43D063E52D8A43E063F52D8A4A5
:0C00B0003F06DDCFEAFFDDCFE9FF1100C5
:0400BC000101BA0E76
:1000C000196F010E1A6F000E1B6F010E186F1200D0
:1000D00000C013F101C014F102C015F103C016F104
:1000E00008C017F1FC041F0B016E0101186F01EE2F
:1000F00019F0FDCFEEFFFECFEEFFFFCFEEFF0600C3
:10010000012EF7D7120001C0DCFFDDCF01F0E0DFE8
:1001100001C0DCFF13A406D0016ACEEC0CF001B0E4
:10012000F4D704D011ACF1D731EC1BF0D6EC1BF0B6
:10013000DDCF01F0120001C0DCFF13A40BD0016A77
:10014000D1EC0CF001A008D0DDCF01F0C1DF01C07F
:10015000DCFFF5D743EC1BF0DDCF01F0120012B647
:100160001200B6DFCEEC1AF0FAD7B2DF12BCFDD720
:10017000128C128E1200010101EE18F01851016E5E
:10018000030DF350E926014E08D00500ED50FF6E37
:10019000ED50FE6EED50FD6EF6D713C100F014C1A8
:1001A00001F015C102F016C103F017C108F01B5190
:1001B000FB6E1A51FA6E1951F96E1384139688DF8B
:1001C00011AC05D031EC1BF01394138605D0016AF5
:1001D000CEEC0CF001B0F3D70050016E5908D8A056
:1001E000ECD719D802500310D8B4E7D713A608D01B
:1001F00000C0DCFF010E006E9BEC00F0DDCF00F0D4
:10020000420E0226020E0320FA6E000EFB6E000E56
:10021000FB220250F96E036AD8900134026E033655
:10022000420E0224F66E020E0320F76E000EF86EE8
:10023000000EF8220900F5CF02F00900F5CF03F017
:1002400012000000B400B8000000C400E000BA01D1
:10025000D6017A02860292029E02AA02BA02D00255
:10026000F00200000000320300003E035603620368
:100270008A03F803A803C8030000060478041A05DB
:100280003C04480452042E043604A00594046C0473
:100290002603D403A2060000CE06E206F6060000FE
:1002A000000006074E0700001E090C014201FA017A
:1002B000260232060000D4045C0742057A038C074C
:1002C0008007B0074A03C407F2071C08B0046E0396
:1002D000000000001E08320846085A086E0882080E
:1002E0009608AA08BE08D208E608FE08000000002A
:1002F000820192015A02DDEF00F0AFEC00F091ECC8
:100300000DF0DDEF00F083EC00F00050070B010F63
:10031000086E83EC00F0AFEC00F01AEC10F0DDEFAB
:1003200000F083EC00F000500F0B010F086E83EC1F
:1003300000F000C002F083EC00F000C001F002C049
:1003400000F0AFEC00F01AEC10F0DDEF00F083EC01
:1003500000F000501F0B010F086E83EC00F000C08E
:1003600003F083EC00F000C001F083EC00F000C06B
:1003700002F003C000F0036AAFEC00F01AEC10F0DA
:10038000DDEF00F083EC00F000501F0B010F086E52
:1003900083EC00F000C003F083EC00F000C001F03B
:1003A00083EC00F000C002F083EC00F000C004F029
:1003B00003C000F004C003F0AFEC00F01AEC10F042
:1003C000DDEF00F083EC00F0AFEC00F0D6EC10F0C5
:1003D000DDEF00F083EC00F000C003F083EC00F0F0
:1003E00000C001F083EC00F000C002F003C000F098
:1003F000AFEC00F00CEC11F0DDEF00F083EC00F05E
:100400000050070B010F086EAFEC00F093EC10F0FA
:100410009BEC00F0DDEF00F083EC00F000500F0BE0
:10042000010F086EAFEC00F093EC10F09BEC00F0C5
:1004300001C000F09BEC00F0DDEF00F083EC00F079
:1004400000501F0B010F086EAFEC00F093EC10F0A2
:100450009BEC00F001C000F09BEC00F002C000F04B
:100460009BEC00F0DDEF00F083EC00F000501F0B80
:10047000010F086EAFEC00F093EC10F09BEC00F075
:1004800001C000F09BEC00F002C000F09BEC00F01B
:1004900003C000F09BEC00F0DDEF00F0AFEC00F0EB
:1004A00087EC11F09BEC00F001C000F09BEC00F039
:1004B00002C000F09BEC00F0DDEF00F0AFEC00F0CC
:1004C000DFEC0FF0DDEF00F0AFEC00F0D9EC0FF057
:1004D000DDEF00F0AFEC00F0F0EC0FF0DDEF00F03E
:1004E000AFEC00F0EAEC0FF0DDEF00F0AFEC00F065
:1004F000FBEC0FF09BEC00F0DDEF00F0AFEC00F058
:10050000BCEC0FF0006A13BC00809BEC00F0DDEF48
:1005100000F083EC00F000C001F083EC00F0AFECE1
:1005200000F001C043F000C044F077EC1AF0DDEFBA
:1005300000F0010E006E9BEC00F0190E006E9BECBB
:1005400000F01D0E006E9BEC00F0240E006E9BEC84
:1005500000F0006A9BEC00F09BEC00F09BEC00F0DC
:100560009BEC00F0DDEF00F0020E006E9BEC00F063
:10057000DDEF00F0AFEC00F060EC1AF0DDEF00F022
:10058000AFEC00F017EC1AF0DDEF00F083EC00F0B8
:100590006AEC1AF0DDEF00F0AFEC00F0AFEC17F012
:1005A000DDEF00F0AFEC00F06EEC17F0DDEF00F0E7
:1005B000AFEC00F05BEC17F0DDEF00F083EC00F047
:1005C000AFEC00F0DFEC17F0DDEF00F083EC00F0B3
:1005D000139E00BE138E009E00501C6E2C6A2D6A66
:1005E0002E6A29EC0DF0DDEF00F083EC00F000C086
:1005F0001DF0010E226EFEEC19F0AFEC00F0A60E1D
:10060000006EDFEC17F0DDEF00F083EC00F000C0CF
:100610001EF0DDEF00F083EC00F000C001F083EC91
:1006200000F000C002F083EC00F001C02CF002C02A
:100630002DF000C02EF0DDEF00F01498AFEC00F0CC
:10064000B0EC0DF0DDEF00F083EC00F000C001F045
:1006500083EC00F000C002F083EC00F001C026F053
:1006600002C027F000C028F0F1EC0EF0DDEF00F042
:10067000A5EC0DF0DDEF00F0149ADDEF00F083EC57
:1006800000F000501F6EDDEF00F014A8DDEF00F069
:10069000149804D014B8DDEF00F01488261C296EDD
:1006A000271C2A6E281C2B6E149ADDEF00F0AFEC8D
:1006B00000F0D9EC1BF0DDEF00F0AFEC00F02DEC1A
:1006C0000FF09BEC00F001C000F09BEC00F0A5ECFB
:1006D0000DF0DDEF00F0AFEC00F0080E026E2DEC37
:1006E0000FF09BEC00F0A5EC0DF0022EF8D7DDEF3B
:1006F00000F0AFEC00F0400E026E2DEC0FF09BEC22
:1007000000F001C000F09BEC00F0A5EC0DF0022E13
:10071000F4D7DDEF00F0FC0E2616FBEC07F05AECE8
:1007200008F09BEC00F001C000F09BEC00F002C070
:1007300000F09BEC00F003C000F09BEC00F004C064
:1007400000F09BEC00F005C000F09BEC00F0040E04
:100750002626000E27222822DDEF00F083EC00F091
:1007600000C002F083EC00F000C001F002C000F015
:10077000D9EC1BF0AFEC00F065EC0FF0A5EC0DF040
:10078000DDEF00F0D9EC1BF0080E086E250E026EAE
:10079000010E036E83EC00F002C0E9FF03C0EAFF24
:1007A00000C0EFFF022AD8B0032A082EF3D7016851
:1007B000080E086E250E026E010E036E02C0E9FFE0
:1007C00003C0EAFFEFCF00F0022AD8B0032AAFEC53
:1007D00000F065EC0FF0A5EC0DF0082EEFD7DDEF83
:1007E00000F0D9EC1BF0AFEC00F061EC14F0030E5C
:1007F000036E83EC00F00050026E83EC00F00050BA
:10080000016E0D0E0352D8B40F0E006E040E086E6A
:100810001AEC10F00250006E100E086E1AEC10F078
:10082000030603AEE6D7006A030E086E1AEC10F05A
:10083000DFEC0FF00E0E436E446A456A77EC1AF057
:10084000080E2626D8B0272AD8B4282A149AAFEC46
:1008500000F0D9EC0FF0010E436E446A77EC1AF009
:10086000E8EC1AF0006A016A100E086E1AEC10F03B
:10087000DDEF00F0D9EC1BF0F80E261683EC00F04B
:1008800000C001F083EC00F000C002F083EC00F047
:10089000AFEC00F0AFEC09F083EC00F000C001F029
:1008A00083EC00F000C002F083EC00F0C2EC09F031
:1008B00083EC00F000C001F083EC00F000C002F017
:1008C00083EC00F0F9EC09F083EC00F000C001F0DB
:1008D00083EC00F000C002F083EC00F001EC0AF0C1
:1008E000DDEF00F083EC00F0046A0050016E59085F
:1008F000D8A008D00BEC01F002500310D8B402D0FD
:10090000010E046E04C000F09BEC00F0DDEF00F07F
:100910001FEC19F09BEC00F001C000F09BEC00F024
:10092000DDEF00F038EC19F09BEC00F001C000F0B6
:100930009BEC00F0DDEF00F0AFEC00F046C000F003
:100940009BEC00F0DDEF00F083EC00F0AFEC00F08A
:1009500071EC0DF0AFEC00F0F6EC0FF0E5EC0FF001
:100960005BEC17F0AFEC00F0005003E103EC1AF081
:100970000AD0FA08FA0ED8A0006E6AEC1AF0AFECB2
:1009800000F060EC1AF0AFEC00F01580DDEF00F045
:10099000AFEC00F091EC0DF01580DDEF00F083EC92
:1009A00000F000C001F083EC00F000C002F083EC26
:1009B00000F001C02FF002C030F000C031F0DDEFD8
:1009C00000F083EC00F000C022F0DDEF00F083ECDB
:1009D00000F00050026E83EC00F00050016E83ECDA
:1009E00000F00250236E0150246E0050256EDDEFA2
:1009F00000F0410E006E9BEC00F0030E006E9BECCD
:100A000000F0DDEF00F0B5EC00F05FEC1CF083ECE3
:100A100000F000C001F00152D8B406D0010683EC0A
:100A200000F070EC1CF0F7D778EC1CF0129E129CD2
:100A3000DDEF00F0B5EC00F040EC1CF09BEC00F0BA
:100A400000C001F00152D8B406D0010655EC1CF0EC
:100A50009BEC00F0F7D7129E129CDDEF00F0FF0038
:100A600083EC00F000C02DF183EC00F000C02EF10B
:100A7000DDEF00F083EC00F000C02FF183EC00F01C
:100A800000C030F1DDEF00F083EC00F000C031F188
:100A900083EC00F000C032F1DDEF00F083EC00F0F9
:100AA00000C033F183EC00F000C034F1DDEF00F062
:100AB00083EC00F000C035F183EC00F000C036F1AB
:100AC000DDEF00F083EC00F000C037F183EC00F0C4
:100AD00000C038F1DDEF00F083EC00F000C039F128
:100AE00083EC00F000C03AF1DDEF00F083EC00F0A1
:100AF00000C03BF183EC00F000C03CF1DDEF00F002
:100B000083EC00F000C03DF183EC00F000C03EF14A
:100B1000DDEF00F083EC00F000C03FF183EC00F06B
:100B200000C040F1DDEF00F083EC00F000C001F008
:100B300083EC00F001C020F000C021F0DDEF00F0F8
:100B40001B0E006E9BEC00F0B70E006E9BEC00F0ED
:100B5000006A9BEC00F0006A9BEC00F0DDEF00F017
:100B600083EC00F000C001F083EC00F001500408B9
:100B700032E3000EFB6EFA6AD8900136FA3601367F
:100B8000FA36920E01260B0EFA22000EFB220150BD
:100B9000F96EEBEF05F0D3EF05F0D9EF05F0DFEFDD
:100BA00005F0E5EF05F00C0E016E3B0E026E000E37
:100BB00018D0240E016E3B0E026E000E12D01A0EDB
:100BC000016E3B0E026E000E0CD0340E016E3B0E19
:100BD000026E000E06D0000E006E9BEC00F0DDEF02
:100BE00000F0F86E02C0F7FF01C0F6FF09000050E8
:100BF000F55ED8A0F0D7F626000EF722F8220800FE
:060C0000F5CF00F0EAD779
:0A0C0600010E326E400E336E080E30
:100C1000346E400E356E0101010E456F120003C0A7
:100C2000DCFF08C0DCFF0101452F2DD000C0DCFF38
:100C300001C0DCFF02C0DCFF1C0E086E006A016A06
:100C4000026A036A1AEC10F01AEC10F0006A100E37
:100C5000016E400E026E036A200E13B8016E1AEC8C
:100C600010F0006A016A026A036A1AEC10F013AA13
:100C700004D01AEC10F01AEC10F0DDCF02F0DDCF4A
:100C800001F0DDCF00F000C0DCFF01C0DCFF02C0DE
:100C9000DCFF036AD8900036013602360336003690
:100CA0000136023603360036013602360336003688
:100CB0000136023603361C0E086E1AEC10F0DDCF3A
:100CC00002F0DDCF01F0DDCF00F0DDCF08F0DDCFA9
:100CD00003F0120000C0DCFF01C0DCFF02C0DCFF3B
:100CE000006A016A026A9BDFDDCF02F0DDCF01F00E
:100CF000DDCF00F0120013AA01D0ECDF120013AA1E
:100D000003D0E8DFE7DFE6DF120002C0DCFF03C04C
:100D1000DCFF08C0DCFFDEDF010E006E016A0C0E96
:100D2000086E1AEC10F0100E086E93EC10F0E3DF72
:100D3000DDCF08F0DDCF03F0DDCF02F01200020EB0
:100D40001CD0120E1AD0220E18D0320E16D0420E1F
:100D500014D0520E12D0620E10D0720E0ED0820E2F
:100D60000CD0920E0AD0A20E08D0B20E06D0C20E3F
:100D700004D0D20E02D0E20E00D000C0DCFF01C0D1
:100D8000DCFF02C0DCFF026E0234003601360236A0
:100D9000023400360136023602340036013602369D
:100DA00002340036013602363ADFDDCF02F0DDCF05
:100DB00001F0DDCF00F01200000E1ED0010E1CD09D
:100DC000020E1AD0030E18D0040E16D0050E14D041
:100DD000060E12D0070E10D0080E0ED0090E0CD041
:100DE0000A0E0AD00B0E08D00C0E06D00D0E04D041
:100DF0000E0E02D00F0E00D000C0DCFF01C0DCFFE1
:100E000002C0DCFFEECF00F0EDCF01F00090026AEF
:100E1000D8900036013602360036013602360036EA
:100E2000013602360012880E0212F9DEDDCF02F022
:100E3000DDCF01F0DDCF00F01200000E1ED0010E5C
:100E40001CD0020E1AD0030E18D0040E16D0050EB8
:100E500014D0060E12D0070E10D0080E0ED0090EB8
:100E60000CD00A0E0AD00B0E08D00C0E06D00D0EB8
:100E700004D00E0E02D00F0E00D000C0DCFF01C067
:100E8000DCFF02C0DCFFEECF00F0EDCF01F0009000
:100E9000026AD89000360136023600360136023634
:100EA0000036013602360012800E0212B8DEDDCFA7
:100EB00002F0DDCF01F0DDCF00F0120001EE37F0DF
:100EC00097DF08DF120001014551F00B010ED8B485
:100ED000456F120000C0DCFF01C0DCFF0A0E006E8F
:100EE000016A3BDF34C000F035C001F038DF040E8A
:100EF000006E400E016E35DF32C000F033C001F0ED
:100F000032DF550E006E016A30DFAA0E006E016AF4
:100F10002EDF006A016A2DDF006A016A2CDFCEDF56
:100F2000296A2A6A2B6ADDCF01F0DDCF00F01200BA
:100F300000C0DCFF01C0DCFF02C0DCFF2650291826
:100F4000006E27502A18001228502B1800101FE09E
:100F500014B80CD028502B6E006E016A0CDF26509E
:100F6000296E006E27502A6E016E0ED07F0E006E25
:100F7000016A01DFD8902634006E2734016E2F50AD
:100F80000026305001220112F4DE98DFB4DEDDCFFE
:100F900002F0DDCF01F0DDCF00F012000101456964
:100FA000149EE8EC1AF013B80BD094DE93DE006ABE
:100FB000010E016E040E026E0FEC06F08BDE16D0F1
:100FC000006A016A026A036A050E086E1AEC10F0E4
:100FD00081DE91DE90DE006A020E016E040E026E6A
:100FE0000FEC06F077DE76DE86DE85DE01014569F0
:100FF00071DF2DEF0EF000C0DCFF01C0DCFF2650DA
:10100000006EFC0B266E0101466F27C047F128C019
:1010100048F18EDF00C026F09D0E006EDB0E016EE3
:10102000BA0E026E0FEC06F055DE54DE68DEBD0E21
:10103000006E016ABA0E026E0FEC06F04BDE4ADE5D
:101040005EDE9D0E006ED30E016EBA0E026E0FECC8
:1010500006F040DE3FDE53DE3D0E006E010E016EF7
:10106000BA0E026E0FEC06F035DE34DE48DE01EE1D
:1010700035F0A4DE4ADE00C049F101C04AF101EEBC
:1010800035F09EDE42DE00C04CF101C04DF101EEB4
:1010900035F09CDE3ADE00C04BF101C04EF1295024
:1010A000040F296E000E2A22148EDDCF01F0DDCF51
:1010B00000F0120049C100F04AC101F04BC102F03A
:1010C0004CC103F04DC104F04EC105F0120014B83C
:1010D00021D014AE0CD02650FC0B006E0101461935
:1010E00006E12750471903E12850481901E083DF42
:1010F0002650030B01EE4AF0E8B201EE4DF0E8B0E5
:1011000005D0EDCF01F0EFCF00F01AD0ECCF00F01A
:10111000016A16D00DDF2628296E000E27200F0B3E
:101120002A6E2B6ABD0E006E016ABA0E026E0FECBB
:1011300006F0D0DDCFDDE3DD01EE35F03FDEE5DDAD
:101140005EEF0FF0FA0E006E016AF9DD01EE37F086
:1011500033DE006A016AF3DDBDDD370E006EC80EB6
:10116000016EBB0E026E0FEC06F0B4DDB3DD010EB6
:10117000006E180E016EBB0E026E0FEC06F0AADDBB
:10118000A9DD270E006EC80E016EBB0E026E0FECBD
:1011900006F0A0DD9FDD020E006E180E016EBB0E84
:1011A000026E0FEC06F096DD95DD00680168C7DD84
:1011B00001EE35F001DE01EE3DF018DE01EE3FF00C
:1011C00017DE01EE39F00CDE85DD84DD01EE3BF04B
:1011D00009DE80DD01EE3BF007DE290E006EE70E32
:1011E000016EA80E026E0FEC06F074DD73DD72DD89
:1011F00071DD70DDCD6A0F0E006E016A2050005E59
:101200002150015A02E20068016801C0CFFF00C00E
:10121000CEFF9E90CD80040E2926000E2A22040EB9
:101220002626000E272228229EA0FED753DD01EE9F
:1012300039F003DE4FDD01EE35F0BEDD66DDF00E88
:1012400000168F0E01140010F1E14D0E006E016AC0
:10125000B00E026E0FEC06F0120035DE149E13B8CD
:101260000FD03B0E006E016E880E026E0FEC06F082
:101270003C0E006E3B0E016E880E026E0FEC06F007
:10128000610E006EE70E016EA80E026E0FEC06F006
:1012900021DD20DD1FDD1EDD1F50436E446A456ADF
:1012A000E8EC1AF013B80BD0610E006EE70E016E79
:1012B000A90E026E0FEC06F00DDD0CDD14D00ADD78
:1012C000006A3B0E016E800E026E0FEC06F0200EDF
:1012D000006E3C0E016E880E026E0FEC06F0FADC1A
:1012E00014DD01BEECD71200149E14B81DD026B038
:1012F00034D02B6A1DDE23DD080E006E3B0E016E1E
:10130000880E026E0FEC06F0800E006E1E0E016E4F
:10131000BB0E026E0FEC06F0DDDCDCDC9EDF020EA5
:101320002926000E2A2219D003DE09DD090E006EDF
:101330003B0E016E880E026E0FEC06F0800E006E02
:101340001E0E016EBB0E026E0FEC06F0C3DCC2DC9B
:1013500084DF010E2926000E2A22AEEF0FF0E8DD11
:1013600000C003F001C000F002C001F0EADC13BAD3
:1013700008D02204261405E101EE37F039DDAADC9D
:10138000A9DC120000C004F001C000F002C001F0AE
:10139000DADC03C000F004C001F0DBDC13BAD2D603
:1013A000B70E006ECE0E016EBB0E026E0FEC06F095
:1013B00091DC90DC810E006E1E0E016EBB0E026E83
:1013C0000FEC06F087DC86DCA70E006ECE0E016EF9
:1013D000BB0E026E0FEC06F07DDC7CDC820E006E34
:1013E0001E0E016EBB0E026E0FEC06F073DC72DC9B
:1013F000120000C003F001C000F002C001F0A1DC47
:10140000120013BABFD700C004F001C000F002C040
:1014100001F099DC03C000F004C001F09ADCB70EC3
:10142000006ECE0E016EBB0E026E0FEC06F052DCAB
:1014300051DC810E006E1E0E016EBB0E026E0FECB3
:1014400006F048DC47DCA70E006ECE0E016EBB0E28
:10145000026E0FEC06F03EDC3DDC820E006E1E0ECE
:10146000016EBB0E026E0FEC06F034DC33DC080EAE
:101470002626000E27222822080E2926000E2A22C0
:101480002204261404E101EE39F0AADCE6DE1200A3
:1014900020042E043B044904FFFFFFFFFFFFFFFF72
:1014A000FFFFFFFFFFFFFFFFFFFFFFFFFFFFFFFF4C
:1014B000FFFFFFFFFFFFFFFFFFFFFFFFFFFFFFFF3C
:1014C000FFFFFFFFFFFFFFFFFFFFFFFFFFFFFFFF2C
:1014D0004E686D6A160E6F6E6B681198120000C030
:1014E000DCFF01C0DCFF02C0DCFF03C0DCFF79D8F9
:1014F0006D86820E006E010E016E340E026E150EA8
:10150000036E26EC16F08FEC16F0DDCF03F0DDCF86
:1015100002F0DDCF01F0DDCF00F012004EC000F090
:1015200003EC17F011AA02D05EEC1CF04E686D6A55
:10153000119812004BC04EF08FEC16F044DA11B047
:10154000FBD78FEC16F005EC12F0F6D700C0DCFFED
:10155000EFA644D0040EEBCF00F0050EEB500010C8
:10156000D8A43CD0010EEBCFE1FF000EEFB4040F86
:10157000E126040EE26EEF9CE7503C0B340AD8B42F
:10158000EF8CEF9AE650030B006E050E00C0EBFFE8
:10159000040EE7CFEBFFE6500010D8B4EF8AE65018
:1015A000EF34060B090FEBCFE5FFFF0FEBCFE5FFA5
:1015B000020EEBCFE5FF030EEB50E76EE78E010E58
:1015C000EFB0030EEFB2020EEF1AEF96EFB8EF8610
:1015D000EF98EF74060EEB6A010FEB6ADDCF00F0B7
:1015E000120000C0DCFF01C0DCFF11981186706A98
:1015F000716A726A736A746A756A766A776A786AF7
:10160000796A7A6A7B6A7C6A7D6A7E6A7F6A04EE9E
:1016100000F0200E006EEE6A002EFDD70401380E99
:10162000206F000E216F080E226F236B246B256B39
:10163000560E286F040E296F5E0E2A6F040E2B6F54
:10164000660E2C6F040E2D6F180E2E6F2F6B080E6A
:10165000306F080E316F326B336B346B6E0E356F3B
:10166000040E366F760E376F040E386F7E0E396FAC
:10167000040E3A6F380E3B6F100E3C6F400E3D6FFC
:101680003E6B3F6B406B860E436F040E446FC60E7D
:10169000456F040E466F060E476F050E486F180E15
:1016A000496F020E4A6F180E4B6F400E4C6F4D6B18
:1016B0004E6B4F6B460E506F050E516F860E526F7C
:1016C000050E536FC60E546F050E556F04EE20F0D5
:1016D0003DDF3CDF6E6A686A696A6D8CE90E6D16E3
:1016E0006D866D9C68A602D06896FCD7160E706E4B
:1016F0001182DDCF01F0DDCF00F012000401380EC1
:101700003B6F100E3C6F400E3D6F3E6B3F6B406B6E
:10171000860E436F040E446FC60E456F040E466F6F
:10172000060E476F050E486F180E496F020E4A6F7E
:10173000180E4B6F400E4C6F4D6B4E6B4F6B460E41
:10174000506F050E516F860E526F050E536FC60E09
:10175000546F050E556F04EE3BF0F8DEF7DE160E03
:10176000706E1E0E716E1188120000C0DCFFEFA6B5
:101770004CD0EFBE4AD0050EEBCF00F0060EEB507A
:101780000012D8A406D0010EEBB402D0EFAC3DD0CD
:10179000EF9C020EEBCFE1FF030EEFB4040FE12646
:1017A000040EE26EEF34060B080FEBCFE5FFFF0FE0
:1017B000EBCFE5FF050EEBCFE5FF060EEB5008097A
:1017C000E76E010EEBB0E78CEB70E78E010EEBA23B
:1017D0000AD0EB94030EEBCF00F0050EEB50001A8D
:1017E00002E1010EEB84010EEFB0030EEFB2020E28
:1017F000EF1AEF96EFB8EF86EF98EF74EF9AEFBC21
:10180000EF8A050EEB6A010FEB6ADDCF00F01200E4
:10181000F00E0116030E0112EFAC08D0060EEB52CB
:10182000D8A404D00752EB52D8B40184EFBA26D022
:10183000019201B823D00190EF34060B080FEBCFD3
:10184000E1FF010FEBCFE2FF060EEB50E126070EA2
:10185000EB50E222060EEB2A070ED8B0EB2A040E5C
:10186000EB06EBCF00F0050ED8A0EB06EB50001214
:10187000E7CF00F0D8A402D0EF8A68DE120002C0E1
:10188000DCFF03C0DCFFF00E0116030E0112EFBAFD
:101890002ED0019201BAEF8E01B829D0019001AA91
:1018A000EF9EEF34060B070FEBCFE1FF010FEBCFFD
:1018B000E2FF050EEB50E126060EEB50E22200C0DF
:1018C000E7FF050EEB2AEBCF02F0060ED8B0EB2AAD
:1018D000EBCF03F0030EEB500218D8A407D0040E90
:1018E000EB500318D8A402D0EF8AEF9E3EDFDDCF85
:1018F00003F0DDCF02F01200F00E0116030E01120C
:10190000EFBC14D0019201B811D0EF9E01BC0AD0F7
:10191000EFBA08D0050EEB52D8A407D0060EEB5252
:10192000D8A403D00190EF8CEF8A1FDF120002C011
:10193000DCFFF00E0116030E0112050EEBCF02F0D4
:10194000060EEB500210D8A407D00184EF50180BFC
:10195000180AD8B4018609D0EFA607D0019201B8C1
:1019600004D001900184EF9E00DFDDCF02F0120071
:1019700004EE20F04DD77080120004EE2EF07FD7D9
:1019800004EE2FF0EF90120004EE2FF0EF80120023
:1019900004EE2EF0CCD704EE2EF0AED704EE3BF0E2
:1019A00037D704EE49F06BD704EE4AF0EF901200FF
:1019B00004EE4AF0EF80120004EE49F0B8D700C000
:1019C00081F111841200119068A203D011806A6A1B
:1019D000120068A003D0118004DE120068A624D093
:1019E0006CCF00F06896140EF76E000EF86E004093
:1019F0003E0B900FF66E000EF722F8220900F5CF8D
:101A0000E9FF0800F5BE10D0F5CFEAFF1180EF30F6
:101A10000018020B080ED8A4100EEF1200B402D06A
:101A200095DD1200A2DE120068AC03D0689C118024
:101A3000120068AA03D0689A1180120068A803D027
:101A400068981180120068A403D068941180120075
:021A5000120082
:0E1A5200206A216A010E326E400E336E080EBD
:101A6000346E400E356E1398139A0101A60E2D6F39
:101A70000F0E2E6FA90E2F6F0F0E306FAA0E316F43
:101A80000F0E326FA80E336F0F0E346F840E356F4A
:101A9000070E366F320E376F386B600E396F070ED8
:101AA0003A6F660E3B6F070E3C6F620E3D6F070E7E
:101AB0003E6F640E3F6F070E406F12001C6A1D6A76
:101AC0001E6A780E1F6E266A276A286A296A2A6AA1
:101AD0002B6A2C6A2D6A2E6A2F6A306A316AB9DF46
:101AE000120013BE04D06EEC17F0E8EC1AF0D9EC3B
:101AF0000FF0E8EC1AF0EAEC0FF0E8EC1AF017EC53
:101B00001AF013AE04D0E8EC1AF06EEC17F05A0E8F
:101B1000436E020E446E456A77EC1AF0E8EC1AF058
:101B20001200F6EC0FF0E5EC0FF003EC1AF0E8EC25
:101B30001AF05BEC17F0E8EC1AF05A0E436E020E46
:101B4000446E456A77EC1AF01200262A000E27220E
:101B500028221200292A000E2A222B22148C12007D
:101B600000C0DCFF01C0DCFF02C0DCFF03C0DCFF03
:101B700008C0DCFF2CC029F02DC02AF02EC02BF0AD
:101B8000149A149CE8EC1AF0ACDFE8EC1AF01C5044
:101B9000D8B430D00C08D8A02DD01B0EFA6E000E91
:101BA000FB6E1C04E846E846030BFA26D8B0FB2A75
:101BB0001C04E846E846FC0BC40FD8B0FA2AD8B09B
:101BC000FB2AF96E38EF0EF040EF0EF041EF0EF009
:101BD00040EF0EF040EF0EF067EF0EF0A3EF0EF0C7
:101BE000A7EF0EF048EF0EF0B0EF0EF085EF0EF01D
:101BF000B1EF0EF01C50D8B430D00C08D8A02DD0C6
:101C00001C0EFA6E000EFB6E1C04E846E846030B41
:101C1000FA26D8B0FB2A1C04E846E846FC0B2A0F3B
:101C2000D8B0FA2AD8B0FB2AF96E2DEF0EF02DEFBE
:101C30000EF02DEF0EF0CEEF07F02DEF0EF02DEFA2
:101C40000EF0CEEF07F0CEEF07F02DEF0EF0CEEF57
:101C500007F02DEF0EF0CEEF07F0DDCF08F0DDCF6F
:101C600003F0DDCF02F0DDCF01F0DDCF00F0120098
:101C7000148AAFEC17F0E8EC1AF060EC1AF0BAD75F
:101C8000148A60EC1AF0E8EC1AF0AFEC17F0B2D757
:101C9000149A60EC1AF0E8EC1AF00E0E436E446AE7
:101CA000456A77EC1AF0E8EC1AF0500E006E480E18
:101CB000016E430E026E4D0E036E200E086E1AEC7E
:101CC00010F0006A010E086E1AEC10F093D7148A17
:101CD0006EEC17F0E8EC1AF017EC1AF0E8EC1AF0DA
:101CE00060EC1AF0E8EC1AF0F3EC17F0B20E006EAC
:101CF000C20E016E120E026E0A0E036E200E086EE8
:101D00001AEC10F0AFEC17F075D7148A6EEC17F0E0
:101D1000E8EC1AF017EC1AF0E8EC1AF060EC1AF0A4
:101D2000E8EC1AF0AFEC17F0E8EC1AF0B20E006E27
:101D3000C20E016E120E026E0A0E036E200E086EA7
:101D40001AEC10F057D7346A400E356E10D0040EDE
:101D5000326E400E336E040E346E400E356E07D078
:101D600006D0010E346E400E356E138A00D01388F3
:101D7000148A6EEC17F0E8EC1AF017EC1AF0E8ECA5
:101D80001AF060EC1AF0E8EC1AF00E0E436E446A9A
:101D9000456A77EC1AF0E8EC1AF0F3EC17F0E8EC8F
:101DA0001AF01A0E436E446A456A77EC1AF0E8ECB2
:101DB0001AF0B20E006EC20E016E120E026E8A0E84
:101DC000036E200E086E1AEC10F0AFEC17F0E8EC82
:101DD0001AF0660E436E020E446E456A77EC1AF0F6
:101DE00009D700C0DCFF01C0DCFF02C0DCFF03C07C
:101DF000DCFF08C0DCFF1E50D8B424D00608D8A0F1
:101E000021D01E0EFA6E000EFB6E1E04E846E84658
:101E1000030BFA26D8B0FB2A1E04E846E846FC0B62
:101E20002C0FD8B0FA2AD8B0FB2AF96E22EF0FF0A7
:101E300022EF0FF0A6EF1BF022EF0FF022EF0FF0D2
:101E400022EF0FF0DDCF08F0DDCF03F0DDCF02F0A1
:101E5000DDCF01F0DDCF00F0120002C0DCFF03C0D7
:101E6000DCFF08C0DCFF1E50D8B428D00808D8A07A
:101E700025D01E0EFA6E000EFB6E1E04E846E846E4
:101E8000030BFA26D8B0FB2A1E04E846E846FC0BF2
:101E90009C0FD8B0FA2AD8B0FB2AF96E9AEF19F045
:101EA00019EF14F0A9EF1BF067EF08F019EF14F029
:101EB0005EEF15F036EF18F069EF15F0DDCF08F0A2
:101EC000DDCF03F0DDCF02F0120000C0DCFF01C067
:101ED000DCFF02C0DCFF03C0DCFF08C0DCFF1490A5
:101EE0001492149414961F50436E446A456A1D5010
:101EF000D8B434D00E08D8A031D01F0EFA6E000E20
:101F0000FB6E1D04E846E846030BFA26D8B0FB2A10
:101F10001D04E846E846FC0B240FD8B0FA2AD8B0D6
:101F2000FB2AF96EA5EF19F0DAEF19F0B2EF1BF00A
:101F300074EF09F0DCEF19F0ECEF19F0EFEF19F0A6
:101F400074EF14F0F1EF19F0EBEF19F0F3EF19F073
:101F5000B0EF15F04DEF18F0C3EF15F0DDCF08F03E
:101F6000DDCF03F0DDCF02F0DDCF01F0DDCF00F0FB
:021F700012005D
:0E1F7200340EB46E1200DD0E8A16138C8A9E99
:101F8000939E020E436E446A456A77EC1AF0E8ECC1
:101F90001AF0B4BC0CD08A8E020E436E446A456AB5
:101FA00077EC1AF0E8EC1AF0B4AC01D0139C938EE5
:101FB000120000008A500809EF0B8A6E1200000020
:101FC0008A501009F70B8A6E120000D00000E70E4D
:101FD0008A16120000008A502009FD0B8A6E12003A
:101FE00000008A500209DF0B8A6E120000D0000048
:101FF000DD0E8A161200006A00D000D000D0B4BCFA
:102000000080120000008A501009F70B8A6E00D081
:1020100000008A500209DF0B8A6E00D000008A504F
:102020000809EF0B8A6E00D000008A502009FD0BD2
:102030008A6EE8D700C0DCFF01C0DCFF02C0DCFF15
:1020400003C0DCFF08C0DCFF00A014D08A500209E6
:10205000DF0B8A6E8A501009F70B8A6E0332023248
:10206000013200328A500809EF0B8A6E084E17D0F1
:1020700000B0ECD78A502009FD0B8A6E8A501009F7
:10208000F70B8A6E03320232013200328A5008099D
:10209000EF0B8A6E084E03D000A0ECD7D7D700D044
:1020A0000000DD0E8A16DDCF08F0DDCF03F0DDCFB6
:1020B00002F0DDCF01F0DDCF00F0120008C0DCFF40
:1020C000060E086EB7DFDDCF08F0120000C0DCFF9F
:1020D00001C0DCFF08C0DCFF003601360090019E25
:1020E000100E086EA7DFDDCF08F0DDCF01F0DDCFE9
:1020F00000F0120000C0DCFF01C0DCFF02C0DCFF0A
:1021000008C0DCFF0036013602360090029E180E31
:10211000086E90DFDDCF08F0DDCF02F0DDCF01F0FB
:10212000DDCF00F0120008C0DCFF09C0DCFF8A50E0
:102130000809EF0B8A6EDD0E8A16210E096E00006B
:102140008A501009F70B8A6ED8900332023201329E
:102150000032090600D00000B4BC038E00D08A50C3
:102160000809EF0B8A6E082EEAD7094E06D0D890E0
:102170000332023201320032F8D7DDCF09F0DDCF71
:1021800008F0120002C0DCFF03C0DCFF08C0DCFF67
:10219000100E086EC8DF013200323F0E0116DDCF8F
:1021A00008F0DDCF03F0DDCF02F0120000C0DCFF4D
:1021B00001C0DCFF080E016E00BE12D08A5020095B
:1021C000FD0B8A6E8A501009F70B8A6E003600D01C
:1021D0008A500809EF0B8A6E014E15D000AEEED77B
:1021E0008A500209DF0B8A6E8A501009F70B8A6E3B
:1021F000003600D08A500809EF0B8A6E014E03D0DA
:1022000000AEDCD7EDD700D00000DD0E8A16DDCFA2
:1022100001F0DDCF00F0120000C0DCFF01C0DCFFE8
:1022200002C0DCFF03C0DCFF180E036E02BE13D039
:102230008A502009FD0B8A6E8A501009F70B8A6EAE
:102240000036013602368A500809EF0B8A6E034EBB
:1022500016D002AEEDD78A500209DF0B8A6E8A5083
:102260001009F70B8A6E0036013602368A500809CB
:10227000EF0B8A6E034E03D002AEDAD7ECD700D054
:102280000000DD0E8A16DDCF03F0DDCF02F0DDCFDA
:1022900001F0DDCF00F0120000C0DCFF01C0DCFF68
:1022A00002C0DCFF026AD890003601360236B4DF85
:1022B000DDCF02F0DDCF01F0DDCF00F0120000C075
:1022C000DCFF01C0DCFF02C0DCFF026A3F0E01162A
:1022D000D89000360136A0DFDDCF02F0DDCF01F06F
:1022E000DDCF00F0120000C0DCFF01C0DCFF02C047
:1022F000DCFF016A026AD8900036013602368CDFB4
:10230000DDCF02F0DDCF01F0DDCF00F0120003C021
:10231000DCFF8A500809EF0B8A6EDD0E8A16180E54
:10232000036E8A501009F70B8A6ED890003601367A
:10233000023600D000D00000B4BC00808A500809EA
:10234000EF0B8A6E032EEDD7DDCF03F0120002C033
:10235000DCFFDDDF013200323F0E0116DDCF02F07F
:10236000120001C0DCFF02C0DCFFD1DF013200320D
:0A237000DDCF02F0DDCF01F0120016
:06237A0001015E0E696F17
:10238000240E6A6F000E6B6F010E686F1200016AF7
:10239000C8EC0CF001B602D019D8F9D712006D982C
:1023A000016AC8EC0CF001B402D010D8F9D7C4EC23
:1023B0000CF01200200E016EBDEC0CF001A002D05A
:1023C00005D8F8D701017F4B802B120000C061F1C6
:1023D00001C062F102C063F103C064F104C065F1A1
:1023E00005C066F106C067F1FC041F0B016E010118
:1023F000686F01EE69F0FDCFEEFFFECFEEFFFFCF7D
:10240000EEFF0600012EF7D7120011A202D01192A2
:1024100026D0010101EE68F06851016E030DF35002
:10242000E926014E08D00500ED50FF6EED50FE6E1E
:10243000ED50FD6EF6D761C100F062C101F063C1DD
:1024400002F064C103F065C104F066C105F067C124
:1024500006F06B51FB6E6A51FA6E6951F96E01011B
:102460007D6B7E6B11AA03D05EEC1CF0119A080EF6
:10247000026E016AB8EC0CF001A002D0A7DFF9D718
:1024800001A402D0080E026E01EE75F00250080899
:10249000E92600C0EFFF022EECD701017F6B806BB5
:1024A000000EFB6E240EFA6E76510C08D8A023D0D5
:1024B0007635E834FC0BC20FD8B0FA2AD8B0FB2A24
:1024C000F96E7BEF12F07BEF12F07BEF12F07BEFF7
:1024D00012F07BEF12F05EEF13F0C2EF12F07BEF21
:1024E00012F06DEF13F066EF13F075EF13F072EF6B
:1024F00013F07BEF12F06D98BBEC0CF0B8D74FDF08
:10250000010103507C5DD8A006D0D8A408D00250A9
:102510007B5DD8B004D07BC102F07CC103F00250D7
:102520000310D8B412D004C0F6FF05C0F7FF06C0F0
:10253000F8FF0800F5CF00F03DDF042A000E052269
:1025400006220206D8A00306EAD701017B51070B39
:10255000D8A408D07B517F19D8A404D07C5180190D
:10256000D8B485D7016ACBEC0CF001A280D72EDF5E
:10257000F9D715DF400E016ECBEC0CF001A077D738
:1025800025DFF8D701017851FF0FD8A40DD077537C
:10259000D8A4B1D7780E046E3A0E056E000E066E02
:1025A000120E026E036AABD7FF0FD8A40DD077537B
:1025B000D8A4A1D78A0E046E3A0E056E000E066EE0
:1025C000200E026E036A9BD7FF0FD8A494D777051D
:1025D000D8B45DD077510308D8A08DD77751D8A44F
:1025E000FF0FE824D10FF66E3A0ED8B0010FF76E48
:1025F000000ED8B0010FF86E0900F5CF04F0080006
:10260000F5CF05F0AA0E04263A0E0522000E066E3E
:10261000000E062204C0F6FF05C0F7FF06C0F8FF53
:102620000800F5CF02F0036A7751D8B468D77C531D
:10263000D8A405D002507B5DD8A07BC102F0AFDEEC
:102640000250D8B482D7F5CF00F0B4DE024E7DD769
:10265000030E006EAFDE024E78D7020E0426000E87
:102660000522062204C0F6FF05C0F7FF06C0F8FFEA
:102670000800F5CF00F09EDE024E67D7006A9ADEB2
:10268000024E63D7042A000E05220622EBD787DE0E
:1026900040EC1CF0118A0050026E020F006E8ADEC0
:1026A000030E006E87DE025205E0020655EC1CF0B8
:1026B00081DEF9D75EEC1CF0119A47D770DE400E30
:1026C000CBEC0CF064DE77C16EFFD1D601017751FF
:1026D0007D6F006E7EEC0BF04CD77DC100F06ADEA2
:1026E0005EDE33D777C17EF144D77EC100F062DE73
:0426F00056DE2BD7B0
:0C26F40008C0DCFF140E086E1AEC10F099
:10270000DDCF08F0120000C0DCFF01C0DCFF02C01A
:10271000DCFF08C0DCFF026AD890003601360236C2
:1027200000360136023600360136023600360136F2
:102730000236140E086E1AEC10F0DDCF08F0DDCF73
:1027400002F0DDCF01F0DDCF00F0120000C0DCFFB1
:1027500001C0DCFF08C0DCFF006A040E086E1AEC42
:1027600010F00E0E016E0250006E100E086E1AEC84
:1027700010F0006A040E086E1AEC10F06E0E016E76
:102780000350006E100E086E1AEC10F0DDCF08F04A
:10279000DDCF01F0DDCF00F0120000C0DCFF01C092
:1027A000DCFF800E016E02340E0B011203C000F03C
:1027B000AADFDDCF01F0DDCF00F0120000C0DCFFAA
:1027C00001C0DCFF900E016E02340E0B011203C03B
:1027D00000F099DFDDCF01F0DDCF00F0120002C084
:1027E000DCFF03C0DCFF14AA0CD026502918D8A4A3
:1027F00008D027502A18D8A404D028502B18D8B4B1
:1028000013D0148A2650296E026EF60E036E9EDFD8
:1028100027502A6E026EF70E036E98DF28502B6E3B
:10282000026EF80E036E92DFDDCF03F0DDCF02F013
:10283000120014B810D0D3DF090E006E016A0C0E1E
:10284000086E1AEC10F0080E086E93EC10F0AAEC6B
:102850000DF05EEF0FF0070E026E2DC103F0AEDF3C
:10286000060E026E2DC103F0A9DF2FC103F026C0B2
:1028700002F06CDF31C103F027C002F067DF000E09
:10288000026E2DC103F089DF500E016E33C100F0DE
:102890003ADF500E006EEF0E016E060E026E2ADF5A
:1028A000006A016A026A26DF020E006E016A0C0EDF
:1028B000086E1AEC10F0080E086E93EC10F05EEF44
:1028C0000FF000C0DCFF01C0DCFF070E026E2DC15F
:1028D00003F063DF060E026E2DC103F06FDFDDCF64
:1028E00001F0DDCF00F07BD714B84BD026B005D077
:1028F00000C044F174DFAEEF0FF000C001F044C13E
:1029000000F0026AD89000360136023600360136F1
:102910000236003601360236003601360236140E13
:10292000086E2204036E26140318D8B40BD00D0EC3
:1029300000121AEC10F0020E2926000E2A222B2279
:10294000AEEF0FF00F0E00121AEC10F0006A030E3B
:10295000086E1AEC10F0DFEC0FF077EC1AF0E8ECF0
:102960001AF0D9EC0FF0030E436E77EC1AF0E8EC96
:102970001AF0006A016A100E086E1AEC10F0AEEF41
:102980000FF02FC103F026C002F0E0DE31C103F0EA
:1029900027C002F0DBDE33C103F000C002F0D6DE58
:1029A000010E026E2DC103F0F8DE006A016A026AB0
:1029B000A1DE006A016A026A9DDE77EC1AF0AEEFD2
:0229C0000FF016
:0E29C20000C0DCFF01C0DCFF14AA0AD02A50BE
:1029D000275CD8A006D0D8A40BD02950265CD8B04C
:1029E00007D0296A2A6A148A160E006E5EEC10F06F
:1029F00027AE0CD02ABE0AD0296A800E2A6E006A41
:102A00005EEC10F0006A016A66EC10F0295026189E
:102A1000006E2A5027180010D8B407D0060E006E9A
:102A20005EEC10F0AAEC0DF0F1D7DDCF01F0DDCFB8
:102A300000F0120000C0DCFF01C0DCFF02C0DCFFC0
:102A40002750016E2650006E14A804D02F50002687
:102A50003050012214AA1DD029500018026E2A50AD
:102A60000118021024E02A500118800B12E12928D5
:102A7000026E000E2A2001180CE10250001809E134
:102A800000C029F001C02AF0060E006E5EEC10F0C6
:102A90000ED000C029F001C02AF01D0E006E5EECC1
:102AA00010F026C000F0026A7AEC10F0148ADDCF34
:102AB00002F0DDCF01F0DDCF00F0120082DF040E66
:102AC00014B8050E006E5EEC10F0C2EC10F05EEF74
:102AD0000FF0B0DF240E006E5EEC10F0C2EC10F0D0
:102AE0002A50800B026E292A000E2A207F0B02102A
:102AF0002A6E5EEF0FF065DF0050026E020E14B812
:102B0000030E006E5EEC10F00250006E66EC10F0EA
:102B100014B810D02204006E26140018D8B40AD0BD
:102B20002750245CD8A006D0D8A418D02650235C07
:102B3000D8B014D042C100F05EEC10F077EC1AF07F
:102B400014A00CD043C100F0E8EC1AF05EEC10F0D9
:102B5000030E436E446A456A77EC1AF0AEEF0FF04D
:102B60000101180E426F0A0E436F148027BE02D077
:102B700014A8C1D73E0E436E446A456A0101080E8F
:102B8000426F1490B8D756DF2ABE32D02204026EAC
:102B9000261402180EE000C002F0220E006E5EEC59
:102BA00010F002C000F066EC10F0AAEC0DF0AEEFF1
:102BB0000FF000C002F0020E006E5EEC10F002C0DA
:102BC00000F066EC10F0180E006E5EEC10F077EC82
:102BD0001AF00A0E006EE8EC1AF05EEC10F0050E2A
:102BE000436E446A456A77EC1AF0149AAEEF0FF020
:102BF00000C002F0020E006E5EEC10F002C000F0A9
:102C000066EC10F0080E006E5EEC10F03E0E436EA7
:0C2C1000446A456A77EC1AF0AEEF0FF052
:042C1C004B6A0101FD
:102C2000000E5B6F020E5C6F010EE8CF00F2A10E8A
:102C30005D6F000E5E6F000EE8CFA1F0A20E5F6F19
:102C4000010E606F000EE8CFA2F1120000C0DCFFA1
:102C500001C0DCFF05C0DCFF030E056E11EE5BF06A
:102C6000E6CFE9FFE6CFEAFFEF5203E0052EF8D703
:102C7000FF00DDCF05F000C0E1FF01C0E2FF00C0B2
:102C8000E6FF01C0E6FF02C0E6FF03C0E6FF04C0A6
:102C9000E6FF05C0E6FF06C0E6FF07C0E6FFEE2A36
:102CA000000E0006015AE55200C0EEFF01C0EEFF23
:102CB00000C0EEFF01C0EEFFE1CFEEFFE2CFEEFF7E
:102CC00002C0EEFF03C0EEFFDDCF01F0DDCF00F06C
:102CD000120008C0DCFF09C0DCFF0AC0DCFF0BC02B
:102CE000DCFF0CC0DCFF0DC0DCFF0EC0DCFF0FC042
:102CF000DCFF10C0DCFF13D8DDCF10F0DDCF0FF00C
:102D0000DDCF0EF0DDCF0DF0DDCF0CF0DDCF0BF021
:102D1000DDCF0AF0DDCF09F0DDCF08F0120000C0F2
:102D2000DCFF01C0DCFF02C0DCFF03C0DCFF04C02D
:102D3000DCFF05C0DCFF06C0DCFF07C0DCFFE9CF1D
:102D400000F0EACF01F001EE5BF04B44E926EE50D3
:102D5000EFCFEAFFE96EFC501F0B026EEE6E00C073
:102D6000EEFF01C0EEFFE1CFEEFFE2CFEEFFD9CFE5
:102D7000EEFFDACFEEFFFD50EE6EFE50EE6E060077
:102D8000022EF9D74B2A4B500208D8A04B6A01EE0D
:102D90005BF04B44E926EE50EFCFEAFFE96EEF52CD
:102DA000F1E0EECF01F0EECF02F0EECF03F0F29EB5
:102DB000FC6AEECFE1FFEECFE2FFEECFD9FFEECF20
:102DC000DAFFF28E0144FF0FE926000EEA22050029
:102DD000ED50FE6EED50FD6E012EF9D702C0E9FFF9
:102DE00003C0EAFFDDCF07F0DDCF06F0DDCF05F051
:102DF000DDCF04F0DDCF03F0DDCF02F0DDCF01F059
:102E0000DDCF00F0120000500208D8A00DD001EE76
:102E10005BF00044E926EE50EFCFEAFFE96EEF6A7F
:102E200000504B5CD8B4AED7120001EE5BF04B44BF
:0E2E3000E926EE50EFCFEAFFE96EEF6AA3D776
:022E3E0001C0D1
:102E4000DCFF02C0DCFF12AA23D0129A01015A5102
:102E5000B108D8B005D0FA0E496E0C0E4A6E10D0EB
:102E600001015A51690DF3CF01F0F4CF02F0010DC9
:102E7000F3500224496E01320130300B0C094A6EC6
:102E80001280BA0E436E0B0E446E456A77EC1AF050
:102E9000DDCF02F0DDCF01F01200BB6A0C0EBA6E7E
:102EA000EA0E496E0C0E4A6E12800101010E596F36
:102EB000A60E5A6F12000101010E591B596FD8B4AA
:102EC0000CD08A9C8A94020E436E446A456A77EC61
:102ED0001AF0129412AA01D0B2DF120000C0DCFF77
:102EE00001C0DCFF0101020E591B596FD8B432D06A
:102EF0008A9C00D000D000D000D000D000D000D0FC
:102F000000D000D000D000D000D000D000D000D041
:102F100000D000D000D000D000D000D000D000D031
:102F200000D000D000D000D000D000D000D00000F1
:102F30008A84129484DF12A60DD05A0E436E020EBC
:102F4000446E456A77EC1AF02C0E006E010E016E8D
:102F500086EC1AF0DDCF01F0DDCF00F0120000C0EA
:102F6000DCFF01C0DCFF0101030E591B596FD8B40F
:102F700021D065DFE8EC1AF08A9400D000D000D0B0
:102F800000D000D000D000008A8C128458DF12A636
:102F900011D05A0E436E020E446E456A77EC1AF059
:102FA00001015A519D0DD890F430016EF330006E3E
:102FB00086EC1AF0DDCF01F0DDCF00F01200010148
:102FC00000505A19D8B408D000C05AF1128A595189
:102FD000030AD8B401D033DF12008A9C8A9401011D
:102FE000596B129412008A9400D000D000D000D007
:102FF00000D000D000D000D000D000D000D000D051
:10300000F29E8A8C00D000D000D000D000D000D03A
:083010008A848A9CF28E1200F2
:0830180000C0DCFF01C0DCFF79
:1030200014AA06D02950261803E12A50271819E0BF
:10303000E8EC1AF000C041F1800E006ED6EC10F002
:1030400041C100F000D000D000D000D000D000007E
:103050002650296E006E27502A6E016E4CEC11F03E
:10306000148ADDCF01F0DDCF00F01200D5DFE8ECEF
:103070001AF000C041F1FE0E006ED6EC10F041C116
:1030800000F000D000D000D000D000D00000A7ECAD
:1030900011F0AAEC0DF05EEF0FF0BEDF2650235CBE
:1030A00027502458D8A03FD02204026E26140218BC
:1030B00016E0E8EC1AF000C041F1020E006ED6EC0A
:1030C00010F041C100F000D000D000D000D000D0FE
:1030D00000005FEC11F0AAEC0DF0AEEF0FF0E8ECA1
:1030E0001AF000C041F1000E006ED6EC10F041C1A4
:1030F00000F000D000D000D000D000D000005FEC85
:1031000011F000C041F1E00E006ED6EC10F041C1AC
:1031100000F000D000D000D000D000D0000077EC4C
:103120001AF0AEEF0FF0E8EC1AF000C041F1000E1B
:10313000006ED6EC10F041C100F000D000D000D0FD
:1031400000D000D000005FEC11F000C041F1E00EB3
:10315000006ED6EC10F041C100F000D000D000D0DD
:1031600000D000D000004A0E436E446A456A77ECF6
:063170001AF0AEEF0FF0B3
:0A31760000C0DCFF0A0EC16E060E59
:10318000C06E090EC26E9D8C0101020E006F030E0F
:10319000016F010E026F01EE03F0100E006EEE6A79
:1031A000002EFDD7DDCF00F01200166AEECF17F02B
:1031B000EECF18F0196AEECF1AF0EDCF1BF0D890D1
:1031C0001832173216321B321A32193218321732AD
:1031D00016321B321A3219321832173216321B329B
:1031E0001A3219321950165E1A50175A1B50185AB3
:1031F0001750EE261850ED2212009E9C01C1E9FFE7
:1032000002C1EAFFC3CFEEFFC4CFEDFF010100B35F
:1032100009D0020E006F030E016F010E026F090E3E
:10322000C26E08D0040E006F0B0E016F010E026F0C
:10323000110EC26EBADFB9DFB8DF59EF00F002C07D
:10324000DCFF03C0DCFF04C0DCFF05C0DCFF06C000
:10325000DCFF07C0DCFFF29E09C100F00AC101F0EB
:10326000F28E750E046E170E056E066A076A18D088
:1032700002C0DCFF03C0DCFF04C0DCFF05C0DCFFD4
:1032800006C0DCFF07C0DCFFF29E11C100F012C1D6
:1032900001F0F28E2B0E046E370E056E066A076A79
:1032A000026A036A91EC1CF002C000F003C001F056
:1032B000DDCF07F0DDCF06F0DDCF05F0DDCF04F088
:0A32C000DDCF03F0DDCF02F01200B5
:0632CA0000C0DCFF01C0A2
:1032D000DCFF14AA0AD02A50275CD8A006D0D8A4B4
:1032E00008D02950265CD8B004D0B0EC0DF0E8EC42
:1032F0001AF027AA0BD02ABA09D0296A200E2A6E02
:10330000006A5EEC10F0016A66EC10F02950261895
:10331000006E2A5027180010D8B407D0060E006E91
:103320005EEC10F0AAEC0DF0F1D7DDCF01F0DDCFAF
:1033300000F01200CADF040E14B8050E006E5EEC39
:1033400010F0C2EC10F05EEF0FF0BFDF0050026E25
:10335000020E14B8030E006E5EEC10F00250006E08
:1033600066EC10F014B810D02204006E2614001879
:10337000D8B40AD02750245CD8A006D0D8A418D03E
:103380002650235CD8B014D0180E14B0080E006E6E
:103390005EEC10F077EC1AF014A20AD0170E14B4F9
:1033A0000E0E14B60A0E006EE8EC1AF05EEC10F089
:1033B000AEEF0FF01480C9D714822650070AD8A4A4
:1033C000C4D72750200AD8A4C0D714801492610E05
:1033D000436E446ABAD7148014821484B6D714801A
:0C33E000B4D71482B2D714821486AFD781
:0433EC00BE6A0C0E9B
:1033F000BD6E04D80101010E576F12000101D00EFD
:10340000586F576B120001015751010A0FE0010E6E
:10341000576F8A90476A0C0E486E118E12922E0ECC
:10342000436E010E446E456A77EC1AF0120000C03C
:10343000DCFF01C0DCFF01015751020A1DE0020E52
:10344000576F476A0C0E486E118E12922E0E436E05
:10345000010E446E456A77EC1AF0E8EC1AF08A80A7
:10346000B20E436E040E446E456A77EC1AF0640E99
:10347000006E016A84EC1AF0DDCF01F0DDCF00F0C0
:10348000120000C0DCFF01C0DCFF01015851476E93
:103490000C0E486E118EB20E436E040E446E456AD9
:1034A00077EC1AF001015851180DF3CF00F0F4CF6A
:1034B00001F084EC1AF0DDCF01F0DDCF00F0120056
:1034C00001015751030A05E0030E576F8A90D9DFB7
:1034D0001282120000C058F112008A90476A0C0E46
:0634E000486E118E1292ED
:0A34E600466A0101516B1200F29ECC
:1034F00043C03AF044C03BF045C03CF01296F28E17
:10350000466A0101516B1200010E01D0020E010149
:10351000516F02C0DCFF03C0DCFF0130036E0030DE
:10352000026E0332023203320232033202320332BB
:103530000232070E03160350000807E303E1640E8E
:10354000025C03E2640E026E036A0250005C526F7A
:1035500003500158536F02E2526B536B0250002428
:10356000546F03500120556F02E354695569DDCF54
:1035700003F0DDCF02F01200010E466E0101525140
:10358000005C5351015809E3020E466E0050545D31
:103590000150555902E3466A1286120000C0DCFF52
:1035A00001C0DCFF010151B103D051B305D00BD0F4
:1035B0001FEC19F0E1DF07D038EC19F0DDDFD8900F
:1035C0004636D8904636DDCF01F0DDCF00F0120050
:0835D000E5DF12A6FDD7120091
:0835D8000301006B010E016FFD
:1035E000026FAB6A240EAC6E080EB86E670EAF6E3B
:1035F000000EB06E900EAB6E9D8A080ED56EF294E2
:103600001200AB5003014C6EAE504D6EABA202D017
:10361000AB98AB884CB40ED0FD0E005DD8B00AD08C
:1036200003EE02F001514DC0EBFF002BFD0E014FE8
:10363000016F118C59EF00F0F29E0301FD0E005D49
:10364000D8B00AD003EE02F0015100C0EBFF002B0E
:10365000FD0E014F016F118CF28E120000C300F0BD
:10366000120011ACFED70301F29E03EE02F00251EC
:10367000EBCF00F00007FD0E024F026F006701D094
:10368000119CF28E12009EB805D09EA8FED700C0F5
:10369000ADFF17D0ACB20AD0F29EF2B404D000C095
:1036A000ADFFF28E0ED0F28EACA2FED7D59EFD0EEF
:1036B000D76E160ED66EF294F29E00C0ADFFD58E78
:0436C000F28E120074
:0C36C40000C0DCFF01C0DCFF02C0DCFF26
:1036D00003C0DCFF26C002F027C003F014A804D00A
:1036E0002F5002263050032202502C18006E035037
:1036F0002D18001202E114BC149A14BA06D0E8EC9A
:103700001AF0B0EC0DF0E8EC1AF02C5002162D5027
:10371000031629500218D8A404D02A500318D8B48C
:103720000CD0060E006E5EEC10F0AAEC0DF02C50E2
:1037300029162D502A162B6AECD7DDCF03F0DDCFEA
:1037400002F0DDCF01F0DDCF00F01200BBDF22EF91
:103750000FF0B8DF040E006E5EEC10F0C2EC10F05B
:103760005EEF0FF0AFDF00C002F0020E006E5EEC05
:1037700010F002C000F066EC10F0080E006E5EEC77
:1037800010F01FC043F0446A77EC1AF0E8EC1AF02E
:103790000E0E006E5EEC10F0020E436E446A77EC83
:0637A0001AF0AEEF0FF07D
:0A37A60001014F6B1200190E3D6E79
:1037B0001200190E3F6E12000101010E4F19D8B40C
:1037C0000DD0010E4F6F110E366EC80E376EC80E3B
:1037D000386E010EF29E396E1298F28E12000101BF
:1037E000030E4F19D8B40DD0030E4F6F480E366E2E
:1037F000320E376E320E386E010EF29E396E12980E
:10380000F28E12000101020E4F19D8B40DD0020E33
:103810004F6F120E366E190E376E190E386E010E7E
:10382000F29E396E1298F28E12000101040E4F19A9
:10383000D8B40DD0040E4F6F8F0E366E640E376EF7
:10384000640E386E010EF29E396E1298F28E1200DE
:1038500012B202D012A402D0190E3E6E3F52D8B45A
:1038600002D0E3DF0BD03E52D8B402D0B8DF06D08E
:0E3870003D52D8B402D0C6DF01D09EDF120058
:02387E00120036
:1038800001C0DCFF02C0DCFF016A026A0EEC1DF021
:1038900011EC1DF000505008D8A0006A00C050F193
:1038A000DDCF02F0DDCF01F01200006A01015053BC
:1038B000D8B403D0500711EC1DF01200120001C063
:1038C000DCFF02C0DCFF010E016E026A0EEC1DF08F
:1038D0000101500E506FDDCF02F0DDCF01F012007C
:1038E00001015053D8B403D050071DEC1DF0120055
:1038F00000C0DCFF01C0DCFF02C0DCFF016A026A1D
:103900000EEC1DF0010150515008006E1DEC1DF031
:1039100038EC1DF0DDCF02F0DDCF01F0DDCF00F09F
:02392000120093
:0E39220004C0DCFF05C0DCFF06C0DCFF07C0F0
:10393000DCFF08C0DCFF09C0DCFF0AC0DCFF0BC0F5
:10394000DCFF0050086E0150096E02500A6E0350F1
:103950000B6E006A016A026A036A085009100A10B5
:103960000B10D8B4C5EF1CF008A0B9EF1CF0BCECEC
:103970001DF0D8900B320A3209320832D890043642
:10398000053606360736ADEF1CF0DDCF0BF0DDCF88
:103990000AF0DDCF09F0DDCF08F0DDCF07F0DDCF95
:0C39A00006F0DDCF05F0DDCF04F01200D2
:0439AC00800EF16E2A
:1039B000F06A9D6AA06A9E6AA16A9F6AA26AD09E06
:1039C000116A126A136A146A156AD4EC1DF09CEC31
:1039D0001DF00EEC16F0ECEC1AF00BEC1DF03FECC9
:1039E0001CF05EEC00F04DEC17F0F6EC19F0B9ECC1
:1039F0000FF05EEC0DF0BBEC18F0D3EC1BF073ECA9
:103A00001AF003EC06F068EC0AF0BDEC11F06CEC77
:063A10001DF0AEEF1DF0F9
:0A3A16000101566B120001C056F1C9
:103A20001200A6B211EF1DF056C1A9FFA66AA6802A
:103A30000101562BA8CF00F0120001C0DCFFA6B296
:103A40001FEF1DF056C1A9FF00C0A8FFA66AA684FB
:103A5000F2CF01F0550EF29EA76EAA0EA76EA682B7
:103A600001BEF28EA6940101562BDDCF01F01200AB
:083A7000A6B238EF1DF01200B0
:083A780012011001FF00FF081C
:103A8000C016C8053600020300010902200001012A
:103A90000080FA0904000002FF00FF000705010290
:103AA00040000107058102400001040309041403DA
:103AB000456D62656420496E632E03555342507212
:103AC0006F67205049432070726F6772616D6D653A
:073AD00072000004000F006A
:083AD800366A376A386A396A60
:103AE0003A6A3B6A3C6A12863D6A3E6A3F6A3C0E0D
:103AF000406E780E416E426AF90ECB6E1C0ECA6E95
:0C3B0000CC6A9E929D82F28CF28E120024
:043B0C000C000000A9
:103B10000001000101010101010108000000000194
:103B2000010101010E00000000010101010101017C
:073B3000010101010101B1D7
:083B3800C26A0F0EC16E070EF8
:103B4000B46EF18E896A2F0E926E8A6A800E936E21
:0C3B5000040E8B6EF00E946E846A12005E
:043B5C008998720EC4
:103B6000436E170E446E456A77EC1AF0E8EC1AF0D3
:083B70006FEC0AF0C9EF1DF033
:083B780008C0DCFF0450002628
:103B8000055001220650022207500322DDCF08F023
:023B9000120021
:0E3B92008FEC16F011A602D011961382BBEC38
:083BA00000F028EC1CF0F5D741
:063BA80020EE5FF01200A8
:020000040030CA
:0E000000E13FF6FEFFF99AFFFFFFFFDFFFFF73
:0200000400F00A
:080000000755534250726F676F
:00000001FF
